:020000040800F2
:1000000000500020953B000871390008793900083C
:100010008139000889390008913900080000000082
:1000200000000000000000000000000099390008F6
:10003000A539000800000000B1390008BD390008EA
:10004000DD3B0008DD3B0008DD3B0008DD3B000830
:10005000DD3B0008DD3B0008DD3B0008DD3B000820
:10006000DD3B0008DD3B0008DD3B0008DD3B000810
:10007000DD3B0008DD3B0008DD3B0008DD3B000800
:10008000DD3B0008DD3B0008DD3B0008DD3B0008F0
:10009000DD3B0008DD3B0008DD3B0008DD3B0008E0
:1000A000DD3B0008DD3B0008DD3B0008DD3B0008D0
:1000B000DD3B0008DD3B0008DD3B0008C9390008D6
:1000C000DD390008DD3B0008DD3B0008DD3B0008B2
:1000D000DD3B0008DD3B0008DD3B0008F13900088E
:1000E000DD3B0008DD3B0008DD3B000800000000B0
:1000F0000000000000000000000000000000000000
:0C01000000000000000000005FF808F1A3
:1001100010B5054C237833B9044B13B10448AFF341
:1001200000800123237010BDE801002000000000C2
:10013000A0E4000808B5034B1BB103490348AFF323
:10014000008008BD00000000EC010020A0E40008D1
:10015000034613F8012B002AFBD1181A0138704707
:1001600081F0004102E000BF83F0004330B54FEA68
:1001700041044FEA430594EA050F08BF90EA020FD5
:100180001FBF54EA000C55EA020C7FEA645C7FEA68
:10019000655C00F0E2804FEA5454D4EB5555B8BF8B
:1001A0006D420CDD2C4480EA020281EA030382EAFC
:1001B000000083EA010180EA020281EA0303362D8E
:1001C00088BF30BD11F0004F4FEA01314FF4801C61
:1001D0004CEA113102D0404261EB410113F0004F73
:1001E0004FEA03334CEA133302D0524263EB43032A
:1001F00094EA050F00F0A780A4F10104D5F1200EC8
:100200000DDB02FA0EFC22FA05F2801841F1000122
:1002100003FA0EF2801843FA05F359410EE0A5F1F6
:1002200020050EF1200E012A03FA0EFC28BF4CF027
:10023000020C43FA05F3C01851EBE37101F00045DD
:1002400007D54FF0000EDCF1000C7EEB00006EEBEA
:100250000101B1F5801F1BD3B1F5001F0CD3490874
:100260005FEA30004FEA3C0C04F101044FEA4452CB
:1002700012F5800F80F09A80BCF1004F08BF5FEA52
:10028000500C50F1000041EB045141EA050130BD32
:100290005FEA4C0C404141EB0101013C28BFB1F544
:1002A000801FE9D291F0000F04BF01460020B1FA8F
:1002B00081F308BF2033A3F10B03B3F120020CDA62
:1002C0000C3208DD02F1140CC2F10C0201FA0CF040
:1002D00021FA02F10CE002F11402D8BFC2F1200CA5
:1002E00001FA02F120FA0CFCDCBF41EA0C0190405B
:1002F000E41AA2BF01EB0451294330BD6FEA0404A4
:100300001F3C1CDA0C340EDC04F11404C4F120028E
:1003100020FA04F001FA02F340EA030021FA04F3A0
:1003200045EA030130BDC4F10C04C4F1200220FAF7
:1003300002F001FA04F340EA0300294630BD21FA35
:1003400004F0294630BD94F0000F83F4801306BFFB
:1003500081F480110134013D4EE77FEA645C18BFEF
:100360007FEA655C29D094EA050F08BF90EA020F86
:1003700005D054EA000C04BF1946104630BD91EA7E
:10038000030F1EBF0021002030BD5FEA545C05D181
:100390004000494128BF41F0004130BD14F58004C0
:1003A0003CBF01F5801130BD01F0004545F0FE4134
:1003B00041F470014FF0000030BD7FEA645C1ABF69
:1003C000194610467FEA655C1CBF0B46024650EAA0
:1003D000013406BF52EA033591EA030F41F40021CC
:1003E00030BD00BF90F0000F04BF0021704730B552
:1003F0004FF4806404F132044FF000054FF0000127
:1004000050E700BF90F0000F04BF0021704730B5E7
:100410004FF4806404F1320410F0004548BF4042BC
:100420004FF000013EE700BF42004FEAE2014FEA11
:1004300031014FEA02701FBF12F07F4393F07F4FEC
:1004400081F06051704732F07F4208BF704793F0EF
:100450007F4F04BF41F40021704730B54FF4607402
:1004600001F0004521F000411CE700BF50EA010205
:1004700008BF704730B54FF000050AE050EA0102AE
:1004800008BF704730B511F0004502D5404261EB1E
:1004900041014FF4806404F132045FEA915C3FF45F
:1004A000D8AE4FF003025FEADC0C18BF03325FEAFC
:1004B000DC0C18BF033202EBDC02C2F1200300FAAD
:1004C00003FC20FA02F001FA03FE40EA0E0021FAD2
:1004D00002F11444BDE600BF70B54FF0FF0C4CF4C0
:1004E000E06C1CEA11541DBF1CEA135594EA0C0F72
:1004F00095EA0C0F00F0DEF82C4481EA030621EAAD
:100500004C5123EA4C5350EA013518BF52EA0335E7
:1005100041F4801143F4801338D0A0FB02CE4FF099
:100520000005E1FB02E506F00042E0FB03E54FF0C9
:100530000006E1FB03569CF0000F18BF4EF0010EC1
:10054000A4F1FF04B6F5007F64F5407404D25FEABD
:100550004E0E6D4146EB060642EAC62141EA555170
:100560004FEAC52040EA5E504FEACE2EB4F1FD0CB2
:1005700088BFBCF5E06F1ED8BEF1004F08BF5FEA30
:10058000500E50F1000041EB045170BD06F00046E2
:1005900046EA010140EA020081EA0301B4EB5C048F
:1005A000C2BFD4EB0C0541EA045170BD41F4801187
:1005B0004FF0000E013C00F3AB8014F1360FDEBFAC
:1005C000002001F0004170BDC4F10004203C35DA88
:1005D0000C341BDC04F11404C4F1200500FA05F30B
:1005E00020FA04F001FA05F240EA020001F00042AC
:1005F00021F0004110EBD37021FA04F642EB060122
:100600005EEA430E08BF20EAD37070BDC4F10C044B
:10061000C4F1200500FA04F320FA05F001FA04F20F
:1006200040EA020001F0004110EBD37041F10001FB
:100630005EEA430E08BF20EAD37070BDC4F1200506
:1006400000FA05F24EEA020E20FA04F301FA05F26E
:1006500043EA020321FA04F001F0004121FA04F216
:1006600020EA020000EBD3705EEA430E08BF20EAE6
:10067000D37070BD94F0000F0FD101F00046400020
:1006800041EB010111F4801F08BF013CF7D041EAA2
:10069000060195F0000F18BF704703F000465200A6
:1006A00043EB030313F4801F08BF013DF7D043EA77
:1006B0000603704794EA0C0F0CEA135518BF95EA2D
:1006C0000C0F0CD050EA410618BF52EA4306D1D1B4
:1006D00081EA030101F000414FF0000070BD50EAD3
:1006E000410606BF1046194652EA430619D094EA5D
:1006F0000C0F02D150EA013613D195EA0C0F05D147
:1007000052EA03361CBF104619460AD181EA03019A
:1007100001F0004141F0FE4141F470014FF0000052
:1007200070BD41F0FE4141F4780170BD70B54FF0ED
:10073000FF0C4CF4E06C1CEA11541DBF1CEA13556D
:1007400094EA0C0F95EA0C0F00F0A7F8A4EB05044F
:1007500081EA030E52EA03354FEA013100F0888046
:100760004FEA03334FF0805545EA131343EA12630F
:100770004FEA022245EA111545EA10654FEA0026C4
:100780000EF000419D4208BF964244F1FD0404F57D
:10079000407402D25B084FEA3202B61A65EB0305D9
:1007A0005B084FEA32024FF480104FF4002CB6EB96
:1007B000020E75EB030E22BFB61A754640EA0C0016
:1007C0005B084FEA3202B6EB020E75EB030E22BF56
:1007D000B61A754640EA5C005B084FEA3202B6EB97
:1007E000020E75EB030E22BFB61A754640EA9C0056
:1007F0005B084FEA3202B6EB020E75EB030E22BF26
:10080000B61A754640EADC0055EA060E18D04FEAE3
:10081000051545EA16754FEA06164FEAC30343EA83
:1008200052734FEAC2025FEA1C1CC0D111F4801F50
:100830000BD141EA00014FF000004FF0004CB6E749
:1008400011F4801F04BF01430020B4F1FD0C88BFE8
:10085000BCF5E06F3FF6AFAEB5EB030C04BFB6EBF3
:10086000020C5FEA500C50F1000041EB045170BDE6
:100870000EF0004E4EEA113114EB5C04C2BFD4EB13
:100880000C0541EA045170BD41F480114FF0000E97
:10089000013C90E645EA060E8DE60CEA135594EA13
:1008A0000C0F08BF95EA0C0F3FF43BAF94EA0C0F16
:1008B0000AD150EA01347FF434AF95EA0C0F7FF48B
:1008C00025AF104619462CE795EA0C0F06D152EADF
:1008D00003353FF4FDAE1046194622E750EA4106C3
:1008E00018BF52EA43067FF4C5AE50EA41047FF4D4
:1008F0000DAF52EA43057FF4EBAE12E74FF0FF3C39
:1009000006E000BF4FF0010C02E000BF4FF0010C09
:100910004DF804CD4FEA410C7FEA6C5C4FEA430C82
:1009200018BF7FEA6C5C1BD001B050EA410C0CBFD1
:1009300052EA430C91EA030F02BF90EA020F002033
:10094000704710F1000F91EA030F58BF994208BF9A
:1009500090422CBFD8176FEAE37040F00100704757
:100960004FEA410C7FEA6C5C02D150EA013C07D1AE
:100970004FEA430C7FEA6C5CD6D152EA033CD3D0F9
:100980005DF8040B704700BF8446104662468C46F3
:100990001946634600E000BF01B5FFF7B7FF002826
:1009A00048BF10F1000F01BD4DF808EDFFF7F4FF4F
:1009B0000CBF012000205DF808FB00BF4DF808EDDA
:1009C000FFF7EAFF34BF012000205DF808FB00BFFD
:1009D0004DF808EDFFF7E0FF94BF012000205DF81F
:1009E00008FB00BF4DF808EDFFF7CEFF94BF0120D4
:1009F00000205DF808FB00BF4DF808EDFFF7C4FFCD
:100A000034BF012000205DF808FB00BF4FEA410C15
:100A10007FEA6C5C02D150EA013C0AD14FEA430CF8
:100A20007FEA6C5C02D152EA033C02D14FF0000035
:100A300070474FF0010070474FEA410212F5001273
:100A400015D211D56FF47873B3EB625212D94FEA15
:100A5000C12343F0004343EA505311F0004F23FAFF
:100A600002F018BF404270474FF00000704750EA54
:100A7000013005D111F0004008BF6FF00040704711
:100A80004FF00000704700BF4A0011D212F500126B
:100A900011D20DD56FF47873B3EB62520ED44FEAD6
:100AA000C12343F0004343EA505323FA02F0704756
:100AB0004FF00000704750EA013002D14FF0FF3094
:100AC00070474FF00000704780F0004002E000BF28
:100AD00081F0004142001FBF5FEA410392EA030F29
:100AE0007FEA226C7FEA236C6AD04FEA1262D2EB73
:100AF0001363C1BFD218414048404140B8BF5B4278
:100B0000192B88BF704710F0004F40F4000020F010
:100B10007F4018BF404211F0004F41F4000121F026
:100B20007F4118BF494292EA030F3FD0A2F1010270
:100B300041FA03FC10EB0C00C3F1200301FA03F1AE
:100B400000F0004302D5494260EB4000B0F5000FD1
:100B500013D3B0F1807F06D340084FEA310102F190
:100B60000102FE2A51D2B1F1004F40EBC25008BF42
:100B700020F0010040EA03007047490040EB00000C
:100B8000013A28BFB0F5000FEDD2B0FA80FCACF10D
:100B9000080CB2EB0C0200FA0CF0AABF00EBC2503A
:100BA00052421843BCBFD0401843704792F0000F28
:100BB00081F4000106BF80F400000132013BB5E77B
:100BC0004FEA41037FEA226C18BF7FEA236C21D0F1
:100BD00092EA030F04D092F0000F08BF0846704756
:100BE00090EA010F1CBF0020704712F07F4F04D124
:100BF000400028BF40F00040704712F100723CBF37
:100C000000F50000704700F0004343F0FE4040F460
:100C1000000070477FEA226216BF08467FEA23631E
:100C20000146420206BF5FEA412390EA010F40F409
:100C3000800070474FF0000304E000BF10F0004355
:100C400048BF40425FEA000C08BF704743F096433C
:100C500001464FF000001CE050EA010208BF704757
:100C60004FF000030AE000BF50EA010208BF7047DE
:100C700011F0004302D5404261EB41015FEA010CF3
:100C800002BF84460146002043F0B64308BFA3F1EB
:100C90008053A3F50003BCFA8CF2083AA3EBC253CD
:100CA00010DB01FA02FC634400FA02FCC2F12002EC
:100CB000BCF1004F20FA02F243EB020008BF20F023
:100CC0000100704702F1200201FA02FCC2F1200289
:100CD00050EA4C0021FA02F243EB020008BF20EA7E
:100CE000DC7070474FF0FF0C1CEAD0521EBF1CEAAC
:100CF000D15392EA0C0F93EA0C0F6FD01A4480EA9A
:100D0000010C400218BF5FEA41211ED04FF0006382
:100D100043EA501043EA5111A0FB01310CF00040AE
:100D2000B1F5000F3EBF490041EAD3715B0040EAD4
:100D3000010062F17F02FD2A1DD8B3F1004F40EBA4
:100D4000C25008BF20F00100704790F0000F0CF077
:100D5000004C08BF49024CEA502040EA51207F3A3B
:100D6000C2BFD2F1FF0340EAC250704740F4000016
:100D70004FF00003013A5DDC12F1190FDCBF00F007
:100D800000407047C2F10002410021FA02F1C2F1B5
:100D9000200200FA02FC5FEA310040F1000053EA51
:100DA0004C0308BF20EADC70704792F0000F00F09F
:100DB000004C02BF400010F4000F013AF9D040EAA5
:100DC0000C0093F0000F01F0004C02BF490011F439
:100DD000000F013BF9D041EA0C018FE70CEAD15337
:100DE00092EA0C0F18BF93EA0C0F0AD030F0004CB7
:100DF00018BF31F0004CD8D180EA010000F000406B
:100E0000704790F0000F17BF90F0004F084691F028
:100E1000000F91F0004F14D092EA0C0F01D1420262
:100E20000FD193EA0C0F03D14B0218BF084608D12B
:100E300080EA010000F0004040F0FE4040F4000075
:100E4000704740F0FE4040F4400070474FF0FF0C08
:100E50001CEAD0521EBF1CEAD15392EA0C0F93EA4F
:100E60000C0F69D0A2EB030280EA010C49024FEAA1
:100E7000402037D04FF0805343EA111143EA10135A
:100E80000CF000408B4238BF5B0042F17D024FF412
:100E9000000C8B4224BF5B1A40EA0C00B3EB510FED
:100EA00024BFA3EB510340EA5C00B3EB910F24BFD6
:100EB000A3EB910340EA9C00B3EBD10F24BFA3EB5B
:100EC000D10340EADC001B0118BF5FEA1C1CE0D123
:100ED000FD2A3FF650AF8B4240EBC25008BF20F0D6
:100EE000010070470CF0004C4CEA50207F32C2BF2A
:100EF000D2F1FF0340EAC250704740F400004FF0C7
:100F00000003013A37E792F0000F00F0004C02BFF7
:100F1000400010F4000F013AF9D040EA0C0093F0C1
:100F2000000F01F0004C02BF490011F4000F013B1B
:100F3000F9D041EA0C0195E70CEAD15392EA0C0F83
:100F400008D142027FF47DAF93EA0C0F7FF470AFBB
:100F5000084676E793EA0C0F04D14B023FF44CAFFE
:100F600008466EE730F0004C18BF31F0004CCAD193
:100F700030F000427FF45CAF31F000437FF43CAFCF
:100F80005FE700BF4FF0FF3C06E000BF4FF0010CF1
:100F900002E000BF4FF0010C4DF804CD4FEA4002D3
:100FA0004FEA41037FEA226C18BF7FEA236C11D01D
:100FB00001B052EA530C18BF90EA010F58BFB2EBD0
:100FC000030088BFC81738BF6FEAE17018BF40F050
:100FD000010070477FEA226C02D15FEA402C05D104
:100FE0007FEA236CE4D15FEA412CE1D05DF8040B89
:100FF000704700BF844608466146FFE70FB5FFF71C
:10100000C9FF002848BF10F1000F0FBD4DF808EDD3
:10101000FFF7F4FF0CBF012000205DF808FB00BFC4
:101020004DF808EDFFF7EAFF34BF012000205DF81E
:1010300008FB00BF4DF808EDFFF7E0FF94BF01206B
:1010400000205DF808FB00BF4DF808EDFFF7D2FF68
:1010500094BF012000205DF808FB00BF4DF808EDAB
:10106000FFF7C8FF34BF012000205DF808FB00BF78
:1010700042000ED2B2F1FE4F0BD34FF09E03B3EB02
:10108000126209D44FEA002343F0004323FA02F02E
:1010900070474FF00000704712F1610F01D142021A
:1010A00002D14FF0FF3070474FF00000704700BF93
:1010B00038B50022002304460D46FFF77FFC28B90F
:1010C00020462946BDE8384000F00AB8204605F120
:1010D000004100F005F8404261EB410138BD00BF1E
:1010E000D0B500220B4B06460F46FFF7F5F9FFF788
:1010F000CBFC0446FFF776F90022074BFFF7ECF92B
:1011000002460B4630463946FFF72EF8FFF7BCFC87
:101110002146D0BD0000F03D0000F04180B582B016
:1011200000AF786039607B68002B02D03B68002BF1
:1011300001D1012327E04FF438720021786809F0CB
:1011400014FB7B683A681A607B680022A3F80422CB
:101150007B680022A3F806227B680022A3F88A227B
:101160007B68002283F8DA227B6818687B6803F5C5
:1011700002730122194607F056F90346002B01D0ED
:10118000012300E0002318460837BD4680BD80B526
:1011900084B000AF78606FE07B68B3F806321A461F
:1011A0007B6813441B79FB737B68B3F80632013309
:1011B0005A42C3F30803C2F3080258BF53429AB21B
:1011C0007B68A3F80622FB7B242B12D17B680022CC
:1011D000A3F88A227B68B3F88A325A1C91B27A68E3
:1011E000A2F88A121A467B681344FA7B83F8092214
:1011F00042E07B68B3F88A32002B3DD07B68B3F8BD
:101200008A327E2B04D97B680022A3F88A2233E03D
:101210007B68B3F88A325A1C91B27A68A2F88A12B3
:101220001A467B681344FA7B83F80922FB7B0A2B5E
:1012300002D0FB7B0D2B1FD17B68B3F88A321A4694
:101240007B681344002283F809227B6803F2092398
:1012500000221946786800F047F80346BB73BB7B51
:10126000002B05D002F014FD02467B68C3F8DC2297
:101270007B680022A3F88A227B68B3F804227B688B
:10128000B3F806329A4287D1002318461037BD467C
:1012900080BD80B582B000AF78607B68B3F804325F
:1012A00019467B6893F808227B680B441A717B68A7
:1012B000B3F8043201335A42C3F30803C2F30802FD
:1012C00058BF53429AB27B68A3F804227B6818681F
:1012D0007B6803F502730122194607F0A4F800BFEA
:1012E0000837BD4680BD000080B584B000AFF8600F
:1012F000B9607A6003221749B86809F03EFA0346DC
:10130000002B01D0002321E0BB68033303221249E4
:10131000184609F032FA0346002B06D17A68B968FC
:10132000F86800F01DF8012310E0BB6803330322C6
:101330000A49184609F021FA0346002B05D1B9687D
:10134000F86800F067FB022300E00023184610371E
:10135000BD4680BDB8E40008BCE40008C0E4000855
:101360002DE9B04FD2B004AF07F59C73A3F5967387
:10137000186007F59C73A3F59873196007F59C73C3
:10138000A3F59A731A600023C7F8343107F59C73EC
:10139000A3F5987307F190007F22196809F0FFF90F
:1013A000002387F80F3107F5887207F19003C449CD
:1013B000184609F02FFAC7F81C01D7F81C31002B8A
:1013C00040F0FC82042308E3D7F834310133C7F836
:1013D0003431D7F83431013B082B00F2EF8201A2FF
:1013E00052F823F009140008E3140008CD16000891
:1013F000FD160008C9180008F7180008571900085A
:10140000731900088F190008D7F81C01FEF7A0FE19
:101410000346052B40F2C982D7F81C311B78303BBC
:10142000DBB21A46920013445B00DAB2D7F81C31E3
:1014300001331B781344DBB2303BDAB207F59C73FF
:10144000A3F596731B6883F8D022D7F81C310233BA
:101450001B78303BDBB21A46920013445B00DAB2D1
:10146000D7F81C3103331B781344DBB2303BDAB2BC
:1014700007F59C73A3F596731B6883F8D122D7F800
:101480001C3104331B78303BDBB21A469200134404
:101490005B00DAB2D7F81C3105331B781344DBB29A
:1014A000303BDAB207F59C73A3F596731B6883F89B
:1014B000D222D7F81C01FEF74BFE0346072B40F261
:1014C0007482D7F81C310733184607F03EFD0346F7
:1014D0009AB207F59C73A3F596731B68A3F8D42200
:1014E00063E2D7F81C311B78002B00F06082D7F83C
:1014F0001C311B78A3F1300213469B0013445B00A0
:101500001A46D7F81C3101331B78303B1344C7F817
:101510001431D7F81C3102331B78A3F13002134683
:101520009B0013445B001A46D7F81C3103331B7829
:10153000303B13441846FEF765FF02460B46C7E9E9
:101540004A23D7F81C3104331B782E2B5BD1D7F8F4
:101550001C3105331B78303B1846FEF753FF50A370
:10156000D3E90023FEF7B8FF02460B46D7E94A014C
:10157000FEF7FCFD02460B46C7E94A23D7F81C31AB
:1015800006331B78303B1846FEF73CFF46A3D3E9F1
:101590000023FEF7A1FF02460B46D7E94A01FEF7FA
:1015A000E5FD02460B46C7E94A23D7F81C3107334D
:1015B0001B78303B1846FEF725FF3DA3D3E90023F7
:1015C000FEF78AFF02460B46D7E94A01FEF7CEFD39
:1015D00002460B46C7E94A23D7F81C3108331B786B
:1015E000303B1846FEF70EFF33A3D3E90023FEF786
:1015F00073FF02460B46D7E94A01FEF7B7FD0246E4
:101600000B46C7E94A23D7F81401FEF7FBFE8246D2
:101610008B464FF000022B4BD7E94A01FFF786F8C3
:1016200002460B4650465946FEF7A0FD02460B46C1
:1016300007F59C71A1F596710968C1E9A42307F526
:101640009C73A3F59A731B68002B00F0B08107F51B
:101650009C73A3F596731B68D3E9A42307F11000CC
:10166000CDE90223D7E94A23CDE90023D7F8143185
:10167000D7F81C21144909F015F807F11003184692
:10168000FEF766FD03469AB207F1100107F59C7359
:10169000A3F59A706423006806F03AFE87E100BF64
:1016A0009A9999999999B93F7B14AE47E17A843F09
:1016B000FCA9F1D24D62503F2D431CEBE2361A3F9C
:1016C000C4E4000800004E40C8E40008D7F81C310C
:1016D0001B78532B40F06D8107F59C73A3F596732F
:1016E0001B68D3E9A423144683F0004507F59C73D7
:1016F000A3F596731B68C3E9A4455AE1D7F81C31DA
:101700001B78002B00F05781D7F81C311B78303B39
:10171000642202FB03F1D7F81C3101331B78A3F1DB
:10172000300213469B0013445B00CA18D7F81C31E3
:1017300002331B78303B1344C7F81831D7F81C31FB
:1017400003331B78A3F1300213469B0013445B0064
:101750001A46D7F81C3104331B78303B1344184623
:10176000FEF750FE02460B46C7E94823D7F81C3166
:1017700005331B782E2B5BD1D7F81C3106331B7831
:10178000303B1846FEF73EFE97A3D3E90023FEF751
:10179000A3FE02460B46D7E94801FEF7E7FC0246E6
:1017A0000B46C7E94823D7F81C3107331B78303B79
:1017B0001846FEF727FE8EA3D3E90023FEF78CFE22
:1017C00002460B46D7E94801FEF7D0FC02460B461D
:1017D000C7E94823D7F81C3108331B78303B18463B
:1017E000FEF710FE84A3D3E90023FEF775FE024640
:1017F0000B46D7E94801FEF7B9FC02460B46C7E99C
:101800004823D7F81C3109331B78303B1846FEF7C4
:10181000F9FD7BA3D3E90023FEF75EFE02460B46EB
:10182000D7E94801FEF7A2FC02460B46C7E9482368
:10183000D7F81801FEF7E6FD82468B464FF000020E
:10184000714BD7E94801FEF771FF02460B4650463F
:101850005946FEF78BFC02460B4607F59C71A1F535
:1018600096710968C1E9A62307F59C73A3F59A73DD
:101870001B68002B00F09F8007F59C73A3F59673FF
:101880001B68D3E9A62307F11000CDE90223D7E9AD
:101890004823CDE90023D7F81831D7F81C215B493C
:1018A00008F000FF07F110031846FEF751FC03464D
:1018B0009AB207F1100107F59C73A3F59A7064239F
:1018C000006806F025FD76E0D7F81C311B78572B11
:1018D00073D107F59C73A3F596731B68D3E9A62310
:1018E000904683F0004907F59C73A3F596731B6837
:1018F000C3E9A68961E0D7F81C0107F026FB03467F
:10190000DAB207F59C73A3F596731B6883F8C822B7
:1019100007F59C73A3F596731B6893F8C832002BE8
:1019200014BF01230023DBB21A4607F59C73A3F50D
:1019300096731B6883F8DA2207F59C73A3F59673F8
:101940001B6893F8DA2207F59C73A3F596731B685E
:1019500083F8C92232E0D7F81C0107F0F6FA0346F3
:10196000DAB207F59C73A3F596731B6883F8B82267
:1019700024E0D7F81C0107F0E5FA02460B4607F50C
:101980009C71A1F596710968C1E9B02316E0D7F8FA
:101990001C0107F0D7FA02460B4607F59C71A1F52A
:1019A00096710968C1E9A82308E000BF06E000BFFE
:1019B00004E000BF02E000BF00E000BF07F588734D
:1019C0001A461349002008F025FFC7F81C01D7F874
:1019D0001C31002B7FF4F8AC0023184607F59C77E8
:1019E000BD46BDE8B08F00BF9A9999999999B93FC2
:1019F0007B14AE47E17A843FFCA9F1D24D62503F9F
:101A00002D431CEBE2361A3F00004E40FCE4000878
:101A100030E500082DE9B04FB0B000AF7860396014
:101A20000023C7F8BC3007F114037F223968184639
:101A300008F0B5FE002387F8933007F1940207F110
:101A40001403C549184608F0E5FEC7F8B800D7F8F2
:101A5000B830002B40F08D810423A2E1D7F8BC30D0
:101A60000133C7F8BC30D7F8BC30013B082B00F27B
:101A7000808101A252F823F09D1A0008571B00082C
:101A8000711B0008E11B0008011C0008711C000804
:101A90008F1C0008A31C0008B71C0008D7F8B8006A
:101AA000FEF756FB0346052B40F25481D7F8B830B9
:101AB0001B78303BDBB21A46920013445B00DAB26B
:101AC000D7F8B83001331B781344DBB2303BDAB2BD
:101AD0007B6883F8D022D7F8B83002331B78303BCC
:101AE000DBB21A46920013445B00DAB2D7F8B83082
:101AF00003331B781344DBB2303BDAB27B6883F8E4
:101B0000D122D7F8B83004331B78303BDBB21A4609
:101B1000920013445B00DAB2D7F8B83005331B7873
:101B20001344DBB2303BDAB27B6883F8D222D7F8B9
:101B3000B800FEF70DFB0346072B40F20B81D7F8E8
:101B4000B8300733184607F000FA03469AB27B68AC
:101B5000A3F8D422FEE0D7F8B8301B78412B0CBF95
:101B600001230023DBB21A467B6883F8C92200E117
:101B7000D7F8B8301B78002B00F0F28007F1100383
:101B80000222D7F8B810184608F009FE0023BB74EB
:101B900007F11003184607F0D8F9C7F8A400D7F8E2
:101BA000B8300233184607F0CDF9C7E92601D7F857
:101BB000A400FEF727FC82468B464FF00002674BDD
:101BC000D7E92601FEF7B2FD02460B4650465946BC
:101BD000FEF7CCFA02460B467968C1E9A423BFE0C0
:101BE000D7F8B8301B78532B40F0BC807B68D3E922
:101BF000A423144683F000457B68C3E9A445B1E003
:101C0000D7F8B8301B78002B00F0AE8007F10C033A
:101C10000322D7F8B810184608F0C1FD0023FB7363
:101C200007F10C03184607F090F9C7F8B000D7F891
:101C3000B8300333184607F085F9C7E92A01D7F809
:101C4000B000FEF7DFFB82468B464FF00002434BAD
:101C5000D7E92A01FEF76AFD02460B46504659466F
:101C6000FEF784FA02460B467968C1E9A6237BE0B9
:101C7000D7F8B8301B78572B78D17B68D3E9A623E7
:101C8000904683F000497B68C3E9A6896EE0D7F8E7
:101C9000B80007F057F902460B467968C1E9AA2354
:101CA00067E0D7F8B80007F04DF902460B467968AF
:101CB000C1E9AC235DE0D7F8B800FEF749FA034666
:101CC000062B55D1D7F8B8301B78303BDBB21A461B
:101CD000920013445B00DAB2D7F8B83001331B78B6
:101CE0001344DBB2303BDAB27B6883F8D622D7F8F4
:101CF000B83002331B78303BDBB21A4692001344F3
:101D00005B00DAB2D7F8B83003331B781344DBB288
:101D1000303BDAB27B6883F8D722D7F8B830043387
:101D20001B78A3F1300213469B0013445B001A4654
:101D3000D7F8B83005331B78303B1344C7F8B430BC
:101D4000D7F8B4309BB203F5FA639AB27B68A3F874
:101D5000D8220DE000BF0CE0C4E4000800004E40B3
:101D600000BF06E000BF04E000BF02E000BF00E0EB
:101D700000BF07F194031A460C49002008F04AFD01
:101D8000C7F8B800D7F8B830002B7FF467AE7B688F
:101D900093F8C932002B03D07B68012283F8DA2242
:101DA00000231846C037BD46BDE8B08F30E50008B7
:101DB00080B582B000AF786039607B6893F8DA3222
:101DC000002B01D1032308E07B6803F52473402234
:101DD0001946386808F0A7FD002318460837BD46A5
:101DE00080BD80B582B000AF786039607B6803F554
:101DF00034730A221946386808F095FD0023184606
:101E00000837BD4680BD80B483B000AF78607B6882
:101E100093F8DA3218460C37BD4680BC7047000094
:101E2000B0B58AB000AF786039607B6893F8DA3279
:101E3000002B01D10323CEE07B68D3E9A40168A382
:101E4000D3E90023FEF748FB02460B46104619462D
:101E50004FF000026A4BFEF769FC02460B46C7E9E9
:101E600008237B68D3E9A6015DA3D3E90023FEF72D
:101E700033FB02460B46104619464FF00002604BFA
:101E8000FEF754FC02460B46C7E906237B68D3E9FC
:101E9000A823C7E90423D7E908010BF055FA52A398
:101EA000D3E90023FEF718FB02460B4614461D46F5
:101EB000D7E908010BF048FA02460B4620462946AE
:101EC000FEF70AFB02460B464FF000004D49FEF7B5
:101ED0004BF902460B46104619460BF0CBF9024669
:101EE0000B4643A1D1E90001FEF720FC02460B4658
:101EF000C7E90223D7E90423D7E90201FEF736F93F
:101F000002460B4614461D46D7E908010BF0D6F9E8
:101F100002460B4620462946FEF7DEFA02460B46ED
:101F200014461D46D7E906010BF0C8F902460B46D8
:101F300020462946FEF7D0FA02460B463968C1E929
:101F40000023D7E90423D7E90201FEF70FF902467F
:101F50000B4614461D46D7E908010BF0AFF90246BF
:101F60000B4620462946FEF7B7FA02460B461446B2
:101F70001D46D7E906010BF0E7F902460B4620465D
:101F80002946FEF7A9FA02460B463968C1E9022341
:101F900019A3D3E90023D7E90201FEF79DFA02460F
:101FA0000B4610461946D7E90423FEF7DFF8024630
:101FB0000B4614461D46D7E908010BF0C5F9024649
:101FC0000B4620462946FEF787FA02460B4639683B
:101FD000C1E90423002318462837BD46B0BD00BF21
:101FE000182D4454FB2109408393FEF1906B7B3FF5
:101FF00000000040A6545841D9021CDE28C9EF3F1A
:10200000008066400000F03F2DE9B04F9CB000AF6B
:10201000786039607B6893F8DA32002B01D10323B2
:1020200052E207F1080319467868FFF7F9FE034604
:1020300087F8673097F86730002B02D097F8673041
:1020400042E27B6893F8D0321846FEF7DBF980460F
:1020500089467B6893F8D1321846FEF7D3F94FF0E2
:102060000002BF4BFEF762FB02460B464046494664
:10207000FEF77CF802460B46904699467B6893F83B
:10208000D2321846FEF7BEF9A1A3D3E90023FEF72A
:102090004DFB02460B4640464946FEF767F80246AE
:1020A0000B46C7E916237B6893F8D6321846FEF72D
:1020B000A9F9804689464FF00002AA4BD7E91601DC
:1020C000FEF734FB02460B4640464946FEF74EF803
:1020D00002460B46C7E914237B6893F8D7321846AB
:1020E000FEF780F902460B46C7E912237B68B3F876
:1020F000D8321846FEF776F902460B46C7E9102398
:1021000085A3D3E90023D7E91001FEF7E5F90246DC
:102110000B46904699464FF00002934BD7E91201C7
:10212000FEF724F802460B46104619464FF000020F
:102130008E4BFEF7FBFA02460B4610461946FEF799
:102140007BFC03461846FEF75DF9D7E91023FEF73E
:102150000DF802460B46104619464FF00002844B1C
:10216000FEF7BAF902460B46104619464FF0000238
:10217000804BFEF7DBFA02460B4610461946FEF787
:102180005BFC03461846FEF73DF902460B46404607
:102190004946FDF7E9FF02460B469046994660A383
:1021A000D3E90023D7E91201FEF796F902460B4660
:1021B000104619464FF000026B4BFEF7B7FA024685
:1021C0000B4610461946FEF737FC03461846FEF745
:1021D00019F902460B4640464946FDF7C7FF02463D
:1021E0000B4610461946D7E91423FDF7BFFF0246F8
:1021F0000B46104619464CA3D3E90023FDF7B6FF62
:1022000002460B46C7E90E2349A3D3E90023D7E9C9
:102210000E01FDF7A9FF02460B461046194646A3DC
:10222000D3E90023FEF782FA02460B46C7E90C23E6
:102230003FA3D3E90023D7E90E01FDF795FF02463E
:102240000B46104619463EA3D3E90023FEF744F996
:1022500002460B46104619463BA3D3E90023FDF77F
:1022600085FF02460B469046994639A3D3E90023E1
:10227000D7E90C01FEF730F902460B461046194625
:10228000D7E90C23FEF728F902460B46404649469B
:10229000FDF76CFF02460B4690469946D7E90C23A2
:1022A000D7E90C01FEF718F902460B46104619460D
:1022B000D7E90C23FEF710F902460B4610461946E3
:1022C00025A3D3E90023FEF731FA02460B46404628
:1022D0004946FDF749FF02460B46C7E91A230AE0C3
:1022E0004FF00002244BD7E91A01FDF73DFF0246EB
:1022F0000B46C7E91A234FF000021F4BD7E91A011A
:10230000FEF77AFB0346002BEAD142E0AFF30080F0
:10231000000000000020AC400000000000F076400B
:10232000000000000030714000000080B5423A41DA
:10233000000000802CB4424100000000A0D5E14024
:10234000AA392C36C58F764064315EB15E87714004
:102350007F4B4C8C6F6C393F000000805775824179
:1023600000004E400000384000002240000028409D
:1023700000001C4000001040008076404FF000023A
:10238000594BD7E91A01FDF7F1FE02460B46C7E9A2
:102390001A234FF000024FF00003D7E91A01FEF7AD
:1023A0000DFB0346002BE9D14BA3D3E90023D7E96A
:1023B0001A01FEF791F802460B46104619464FF0F7
:1023C00000024A4BFEF7B2F902460B46C7E90A2360
:1023D000D7E90289D7E90A010AF070FF02460B46E5
:1023E00040464946FEF778F802460B4692469B4621
:1023F000D7E90489D7E90A010AF0A6FF02460B468D
:1024000040464946FEF768F802460B465046594694
:10241000FDF7AAFE02460B463968C1E90023D7E959
:102420000289D7E90A010AF08FFF02460B464046AF
:102430004946FEF751F802460B4692469B46D7E9BD
:102440000489D7E90A010AF039FF02460B464046E3
:102450004946FEF741F802460B4650465946FDF7FD
:1024600085FE02460B463968C1E90223D7E90623F7
:102470003968C1E904231AA3D3E90023C7E9082373
:102480003C6A7B6A83F000453B68D3E9022320461F
:102490002946FEF721F802460B463968C1E90623B2
:1024A0003B68D3E90001D7E90823FEF715F8024697
:1024B0000B463968C1E9082339684FF000024FF034
:1024C0000003C1E90A23002318467037BD46BDE862
:1024D000B08F00BFAFF30080182D4454FB2109409A
:1024E00065DB57D1A71D133F008076400080664012
:1024F00080B582B000AF78607868FDF729FE0346AA
:102500009AB264237968034805F002FF00BF0837D8
:10251000BD4680BDD0020020F0B5ADB006AF614829
:10252000FFF7E6FF6048FFF76EFC0346002B00F064
:10253000AF805E48FFF7DCFF07F1580319465A48A1
:10254000FFF736FC0346002B30D1D7E91645D7E913
:102550001823D7E91A01CDE90201CDE9002322466B
:102560002B465349534808F09DF85248FFF7C0FFE7
:1025700097F880301946D7E92223CDE900230A468F
:102580004D494C4808F08EF84A48FFF7B1FFD7E9AB
:102590001C01D7E91E23CDE9002302460B4647491B
:1025A000444808F07FF84348FFF7A2FF07F14C03C7
:1025B00019463D48FFF715FC0346002B1DD197F83F
:1025C00052301D4697F853301E46B7F8543097F8EE
:1025D0004C2097F84D1097F84E00B7F850400494EF
:1025E000039002910192009333462A4634493148C0
:1025F00008F058F82F48FFF77BFF07F13003194622
:102600002948FFF70DFC0346002B12D1D7E90C45F2
:10261000D7E90E23D7E91001CDE90201CDE9002366
:1026200022462B462749234808F03CF82148FFF76B
:102630005FFF3B4619461C48FFF7E6FC0346002BAC
:1026400029D1D7E90045D7E90223D7E90401CDE92B
:102650000201CDE9002322462B461B49154808F00C
:1026600021F81448FFF744FFD7E90645D7E90823C6
:10267000D7E90A01CDE90201CDE9002322462B4624
:1026800012490C4808F00EF80A48FFF731FF02E043
:102690000F48FFF72DFF0F48FFF72AFF00BF9C37B9
:1026A000BD46F0BDE8E50008600400200CE6000827
:1026B00020E600086003002054E6000874E60008E5
:1026C000A0E60008D0E6000804E7000838E70008A4
:1026D00074E7000888E7000880B500AF084800F0FC
:1026E0009DFC0346002B06D10649054800F03AFE42
:1026F00000F00CF802E00448FFF7FAFE00BF80BDCE
:1027000040070020D0020020A8E7000880B582B072
:1027100000AF584B1B6A7B6057497868FEF79EFCF8
:102720000346002B14D054497868FEF7D1F90346CC
:1027300052491846FEF7D6FA03461846FEF798FCAB
:1027400003469BB2C3F5FA739AB24D4B1A802BE045
:102750004C497868FEF764FC0346002B20D07B6868
:1027600083F0004344491846FEF7B2F90346434953
:102770001846FEF7B7FA03461846FEF779FC0346FB
:102780009BB203F5FA739AB23D4B1A803C4B1B88FF
:10279000B3F57A7F08D33A4B40F2E7321A8003E070
:1027A000374B4FF4FA721A80324B5B6A3B60324906
:1027B0003868FEF753FC0346002B14D02E493868C6
:1027C000FEF786F903462D491846FEF78BFA0346B5
:1027D0001846FEF74DFC03469BB2C3F5FA739AB256
:1027E000294B1A802BE027493868FEF719FC03466D
:1027F000002B20D03B6883F000431F491846FEF7AA
:1028000067F903461D491846FEF76CFA0346184659
:10281000FEF72EFC03469BB203F5FA739AB21A4BED
:102820001A80194B1B88B3F57A7F08D3164B40F2F8
:10283000E7321A8003E0144B4FF4FA721A80104BFF
:102840001A88124B1B685A630F4B1A880F4B1B6870
:102850009A630B4B1B881A460B4B1B880C490D487F
:1028600007F020FF0B48FFF743FE00BF0837BD46C7
:1028700080BD00BF400700200000A0400000A04134
:10288000840700200000A0C08607002088020020E6
:10289000C8E700086003002080B582B000AF01F0F7
:1028A0009FF900F099F800F0F3F900F0E5F800F076
:1028B0009BF900F035F900F0C1F900F003F9354853
:1028C000FFF716FE3448FFF713FE34493448FEF78D
:1028D00025FC0346FB71FB79002B03D13148FFF740
:1028E00007FE02E03048FFF703FE3048FFF700FE26
:1028F0002F49304800F026FA0346BB71BB79002B04
:1029000014D12D48FFF7F4FD2C48FFF7F1FD6421A9
:10291000284800F0BAFC0346002B03D12848FFF7F3
:10292000E7FD06E02748FFF7E3FD02E02648FFF752
:10293000DFFD0021254805F0BFF80421234805F0FC
:10294000BBF8224B1B684FF4FA725A631F4B1B688B
:102950004FF4FA729A631248FEF719FC01F098F9E5
:1029600038601B4B1B683A68D31AB3F57A7F04D3DF
:10297000174A3B681360FFF7CFFD164B1B683A6898
:10298000D31AB3F5FA7FE6D3124A3B681360FFF718
:10299000A3FEE0E7E4E7000808E8000818030020C9
:1029A0006004002028E8000848E8000864E80008FF
:1029B000340200204007002088E80008ACE8000846
:1029C000C8E80008E8E8000808E9000888020020D4
:1029D0007C0700208007002080B594B000AF07F18D
:1029E000280328220021184607F0BFFE07F1140330
:1029F00000221A605A609A60DA601A613B1D002258
:102A00001A605A609A60DA600223BB620123BB63DA
:102A10001023FB6300237B6407F12803184604F0AE
:102A200035FB0346002B01D000F086F90F237B61B4
:102A30000023BB610023FB6100233B6200237B6218
:102A400007F114030021184604F0A2FD0346002BF1
:102A500001D000F071F902237B600023FB603B1D75
:102A6000184604F023FF0346002B01D000F064F960
:102A700000BF5037BD4680BD80B500AF0F4B104A38
:102A80001A600E4B00229A600C4B00221A730B4BFB
:102A900000221A75094B4FF46022DA61074B0022BD
:102AA0005A60064B01221A61044801F01FF90346DF
:102AB000002B01D000F040F900BF80BD04020020CF
:102AC0000024014080B500AF124B134A1A60114B2D
:102AD000124A5A600F4B00229A600E4B0022DA60B5
:102AE0000C4B4FF480421A610A4B00225A61094B89
:102AF00000229A61074B0022DA61064B00221A621B
:102B0000044801F077FD0346002B01D000F014F9D2
:102B100000BF80BD3402002000540040A0860100A8
:102B200080B58AB000AF07F1200300221A605A6016
:102B30003B1D00221A605A609A60DA601A615A617D
:102B40009A61274B274A1A60254B07225A60244B6B
:102B500000229A60224B40F2E732DA60204B0022DA
:102B60001A611F4B80229A611D4804F055FF0346ED
:102B7000002B01D000F0E0F800233B6200237B62D1
:102B800007F120031946164805F014FB0346002BF5
:102B900001D000F0D1F860237B600023BB600023EC
:102BA000FB6000237B613B1D002219460C4805F0A9
:102BB00025F80346002B01D000F0BEF83B1D04228F
:102BC0001946074805F01AF80346002B01D000F01B
:102BD000B3F8034800F00AFE00BF2837BD4680BDA9
:102BE000880200200008004080B500AF114B124A57
:102BF0001A60104B4FF416525A600E4B00229A6026
:102C00000C4B0022DA600B4B00221A61094B0C229C
:102C10005A61084B00229A61064B0022DA6105488E
:102C200005F026FB0346002B01D000F085F800BF1D
:102C300080BD00BFD00200200038014080B500AF49
:102C4000114B124A1A60104B4FF416525A600E4B39
:102C500000229A600C4B0022DA600B4B00221A61B2
:102C6000094B0C225A61084B00229A61064B002244
:102C7000DA61054805F0FCFA0346002B01D000F0AC
:102C80005BF800BF80BD00BF180300200048004073
:102C900080B586B000AF07F1080300221A605A60C1
:102CA0009A60DA60184B9B69174A43F004039361FA
:102CB000154B9B6903F004037B607B68124B9B6997
:102CC000114A43F0080393610F4B9B6903F008031B
:102CD0003B603B68002248F23E010C4801F072FC68
:102CE00048F23E03BB600123FB6000233B610223EB
:102CF0007B6107F108031946044801F0DFFA00BFC1
:102D00001837BD4680BD00BF00100240000C0140D6
:102D100080B582B000AF78607B681B68044A93423C
:102D200002D10448FEF7B5FA00BF0837BD4680BDA2
:102D3000004800406004002080B400AF72B600BFBD
:102D400000BFFDE780B584B000AF786039607B6874
:102D50003A681A607B68D0221A717B6832221A871F
:102D60007B68083306220021184607F0FEFC7B68CA
:102D70000E3306220021184607F0F7FC7B68143357
:102D80000C220021184607F0F0FC7B6820330C224F
:102D90000021184607F0E9FC7B684FF00002DA6278
:102DA00007F10E031A467521786800F0C3FB03464D
:102DB000FB73FB7B002B02D1BB7B682B01D0042370
:102DC00039E000226B21786800F0FFFB0346FB73BB
:102DD000FB7B002B01D0FB7B2DE0072219217868BB
:102DE00000F0F3FB0346FB73FB7B002B01D0FB7B66
:102DF00021E00321786800F0FFF80346FB73FB7BBA
:102E0000002B01D0FB7B16E00821786800F018F851
:102E10000346FB73FB7B002B01D0FB7B0BE00821FF
:102E2000786800F07DF80346FB73FB7B002B01D034
:102E3000FB7B00E0002318461037BD4680BD000034
:102E400080B584B000AF78600B46FB70FB781A4603
:102E50001B21786800F0B9FB0346FB73FB7B002B5A
:102E600001D0FB7B4FE07B68FA785A71FB78182B16
:102E700044D801A252F823F0DD2E0008FD2E0008F0
:102E8000FD2E0008FD2E0008FD2E0008FD2E000876
:102E9000FD2E0008FD2E0008E52E0008FD2E00087E
:102EA000FD2E0008FD2E0008FD2E0008FD2E000856
:102EB000FD2E0008FD2E0008ED2E0008FD2E000856
:102EC000FD2E0008FD2E0008FD2E0008FD2E000836
:102ED000FD2E0008FD2E0008F52E00087B680C4A28
:102EE0001A630FE07B680B4A1A630BE07B680A4A9F
:102EF0001A6307E07B68094A1A6303E07B68054AA6
:102F00001A6300BF002318461037BD4680BD00BFBE
:102F100000000343000083423333034233338341D1
:102F200080B584B000AF78600B46FB70FB781A4622
:102F30001C21786800F049FB0346FB73FB7B002BE8
:102F400001D0FB7B54E07B68FA789A71FB78182BF0
:102F500048D801A252F823F0BD2F0008E52F000841
:102F6000E52F0008E52F0008E52F0008E52F0008F1
:102F7000E52F0008E52F0008C72F0008E52F0008FF
:102F8000E52F0008E52F0008E52F0008E52F0008D1
:102F9000E52F0008E52F0008D12F0008E52F0008D5
:102FA000E52F0008E52F0008E52F0008E52F0008B1
:102FB000E52F0008E52F0008DB2F00087B684FF0A5
:102FC0008D425A6313E07B684FF08C425A630EE0E7
:102FD0007B684FF08B425A6309E07B684FF08A426E
:102FE0005A6304E07B684FF08C425A6300BF0023B1
:102FF00018461037BD4680BD80B582B000AF7860FE
:103000000B46FB70FB781A461A21786800F0DDFA4F
:10301000034618460837BD4680BD000080B588B01D
:1030200000AF786007F10C020E233B21786800F0B6
:10303000A4FA0346FB77FB7F002B01D0FB7FB6E0B1
:103040003B7B1B021AB27B7B1BB213431AB27B6819
:103050001A81BB7B1B021AB2FB7B1BB213431AB251
:103060007B685A813B7C1B021AB27B7C1BB21343E8
:103070001AB27B689A81BB7C1B021AB2FB7C1BB222
:103080001343BB83B7F91C301846FDF7D7FD034641
:1030900049491846FDF7DAFE034648491846FDF748
:1030A00019FD03461A467B68DA623B7D1B021AB2A1
:1030B0007B7D1BB213431AB27B68DA81BB7D1B0296
:1030C0001AB2FB7D1BB213431AB27B681A823B7E95
:1030D0001B021AB27B7E1BB213431AB27B685A8260
:1030E0007B68B3F908301846FDF7A8FD02467B68F7
:1030F0005B6B19461046FDF7A9FE03461A467B682E
:103100005A617B68B3F90A301846FDF797FD02460D
:103110007B685B6B19461046FDF798FE03461A461E
:103120007B689A617B68B3F90C301846FDF786FD21
:1031300002467B685B6B19461046FDF787FE034627
:103140001A467B68DA617B68B3F90E301846FDF7E2
:1031500075FD02467B681B6B19461046FDF776FE2F
:1031600003461A467B681A627B68B3F9103018462A
:10317000FDF764FD02467B681B6B19461046FDF7A0
:1031800065FE03461A467B685A627B68B3F91230C3
:103190001846FDF753FD02467B681B6B1946104627
:1031A000FDF754FE03461A467B689A6200231846D0
:1031B0002037BD4680BD00BF0000AA43B81E1242A2
:1031C00080B584B000AF786007F108020623432180
:1031D000786800F0D2F90346FB73FB7B002B01D02B
:1031E000FB7B4EE03B7A1B021AB27B7A1BB2134385
:1031F0001AB27B68DA81BB7A1B021AB2FB7A1BB265
:1032000013431AB27B681A823B7B1B021AB27B7B88
:103210001BB213431AB27B685A827B68B3F90E3033
:103220001846FDF70BFD02467B681B6B19461046DE
:10323000FDF70CFE03461A467B681A627B68B3F9F9
:1032400010301846FDF7FAFC02467B681B6B1946E6
:103250001046FDF7FBFD03461A467B685A627B6801
:10326000B3F912301846FDF7E9FC02467B681B6B88
:1032700019461046FDF7EAFD03461A467B689A6236
:10328000002318461037BD4680BD80B588B000AF1A
:1032900078600B467B800023FB610023BB61002329
:1032A0007B6100237B8226E07868FFF789FF034675
:1032B000FB72FB7A002B01D0FB7A4EE07B68B3F9FE
:1032C0000E301A46FB691344FB617B68B3F910307A
:1032D0001A46BB691344BB617B68B3F912301A46C6
:1032E0007B6913447B617B681B8F184600F0DAFC16
:1032F0007B8A01337B827A8A7B889A42D4D37B880B
:10330000FA6992FBF3F33B827B88BA6992FBF3F391
:10331000FB817B887A6992FBF3F3BB817B68B3F90D
:103320000E309AB23B8AD31A9BB21AB27B68DA810A
:103330007B68B3F910309AB2FB89D31A9BB21AB2E8
:103340007B681A827B68B3F912309AB2BB89D31AB0
:103350009BB21AB27B685A82002318462037BD46BA
:1033600080BD00002DE9B043C6B004AF07F58473FB
:10337000A3F58273186007F58473A3F5847319604D
:1033800007F108036649184607F08CF907F10803AE
:103390001846FCF7DDFE03469AB207F1080107F56F
:1033A0008473A3F584706423006804F0B1FF07F50B
:1033B0008473A3F582731B685B691846FDF734F8C4
:1033C0008046894607F58473A3F582731B689B6961
:1033D0001846FDF729F804460D4607F58473A3F552
:1033E00082731B68DB691846FDF71EF802460B4620
:1033F00007F10800CDE90223CDE9004542464B46DE
:10340000484907F04FF907F108031846FCF7A0FEFA
:1034100003469AB207F1080107F58473A3F5847097
:103420006423006804F074FF07F58473A3F58273C6
:103430001B681B6A1846FCF7F7FF8046894607F5AC
:103440008473A3F582731B685B6A1846FCF7ECFF74
:1034500004460D4607F58473A3F582731B689B6AC7
:103460001846FCF7E1FF02460B4607F10800CDE9DC
:103470000223CDE9004542464B462B4907F012F99D
:1034800007F108031846FCF763FE03469AB207F1FA
:10349000080107F58473A3F584706423006804F0C1
:1034A00037FF07F58473A3F582731B68DB6A184640
:1034B000FCF7BAFF02460B4607F108001B4907F06C
:1034C000F1F807F108031846FCF742FE03469AB2EA
:1034D00007F1080107F58473A3F58470642300687D
:1034E00004F016FF07F108031149184607F0DAF84F
:1034F00007F108031846FCF72BFE03469AB207F1C2
:10350000080107F58473A3F584706423006804F050
:10351000FFFE00BF07F58477BD46BDE8B08300BF5E
:1035200028E9000850E9000874E900089CE900084F
:10353000B4E9000880B58AB004AFF8600B467A6041
:10354000FB72FB681868FB681B791946FB7A9AB214
:1035500064230293012301937B680093012301F00C
:103560009BFA0346FB75FB7D002B14BF0123002350
:10357000DBB218461837BD4680BD90B58BB004AF9E
:10358000F8607A601A460B46FB721346BB72FB6802
:103590001868FB681B791C46FB7A9AB2BB7A9BB20F
:1035A0006421029101937B6800930123214601F07D
:1035B00073FA0346FB75FB7D002B14BF0123002328
:1035C000DBB218461C37BD4690BD80B588B004AF4D
:1035D00078600B46FB701346BB707B6818687B688D
:1035E0001B791946FB789AB2642302930123019355
:1035F000BB1C0093012301F055F90346FB73FB7BD1
:10360000002B14BF01230023DBB218461037BD4640
:1036100080BD000080B485B000AF154B9B69144A93
:1036200043F001039361124B9B6903F00103BB60FC
:10363000BB680F4BDB690E4A43F08053D3610C4BE0
:10364000DB6903F080537B607B680A4B5B68FB603F
:10365000FB6823F0E063FB60FB6843F00073FB60F2
:10366000044AFB68536000BF1437BD4680BC7047F6
:10367000001002400000014080B588B000AF7860C3
:1036800007F1100300221A605A609A60DA607B68C2
:103690001B68144A934221D1134B9B69124A43F48D
:1036A00000739361104B9B6903F40073FB60FB682C
:1036B0000D4B9B690C4A43F0040393610A4B9B69D1
:1036C00003F00403BB60BB681F233B6103237B61E2
:1036D00007F110031946054800F0F0FD00BF203740
:1036E000BD4680BD0024014000100240000801409A
:1036F00080B58AB000AF786007F1140300221A6029
:103700005A609A60DA607B681B68254A934242D10E
:10371000244B9B69234A43F008039361214B9B6927
:1037200003F008033B613B694FF440737B61122354
:10373000BB6103233B6207F1140319461A4800F0EA
:10374000BDFD1A4B5B687B627B6A43F0E0637B6282
:103750007B6A43F002037B62144A7B6A5360114B1D
:10376000DB69104A43F40013D3610E4BDB6903F4A9
:103770000013FB60FB68002200211F2000F0A7FC63
:103780001F2000F0C0FC00220021202000F09FFC40
:10379000202000F0B8FC00BF2837BD4680BD00BF28
:1037A0000054004000100240000C014000000140A5
:1037B00080B485B000AF78607B681B68094A93428B
:1037C0000BD1094BDB69084A43F00403D361064B74
:1037D000DB6903F00403FB60FB6800BF1437BD46E0
:1037E00080BC7047000800400010024080B588B0DF
:1037F00000AF786007F1100300221A605A609A60E7
:10380000DA607B681B680F4A934217D10E4B9B69A5
:103810000D4A43F0080393610B4B9B6903F00803C7
:10382000FB60FB68C0233B6102237B610223FB61D9
:1038300007F110031946054800F040FD00BF20378E
:10384000BD4680BD0008004000100240000C014051
:1038500080B58AB000AF786007F1180300221A60C3
:103860005A609A60DA607B681B683C4A934232D1A6
:103870003B4B9B693A4A43F480439361384B9B69C5
:1038800003F480437B617B69354B9B69344A43F089
:1038900004039361324B9B6903F004033B613B6972
:1038A0004FF40073BB610223FB6103237B6207F1CA
:1038B000180319462B4800F001FD4FF48063BB61EB
:1038C0000023FB6100233B6207F1180319462548DA
:1038D00000F0F4FC3EE07B681B68234A934239D138
:1038E0001F4BDB691E4A43F48023D3611C4BDB6909
:1038F00003F48023FB60FB68194B9B69184A43F073
:1039000008039361164B9B6903F00803BB60BB6817
:103910004FF48063BB610223FB6103237B6207F1E9
:1039200018031946114800F0C9FC4FF40063BB614D
:103930000023FB6100233B6207F1180319460B4883
:1039400000F0BCFC00220021272000F0C0FB272053
:1039500000F0D9FB00BF2837BD4680BD00380140CC
:10396000001002400008014000480040000C0140E7
:1039700080B400AF00BFFDE780B400AF00BFFDE73B
:1039800080B400AF00BFFDE780B400AF00BFFDE72B
:1039900080B400AF00BFFDE780B400AF00BFBD46FC
:1039A00080BC704780B400AF00BFBD4680BC70478C
:1039B00080B400AF00BFBD4680BC704780B500AF8B
:1039C00000F054F900BF80BD80B500AF024801F09F
:1039D000D7FA00BF80BD00BF3402002080B500AF21
:1039E000024801F020FC00BF80BD00BF340200206F
:1039F00080B500AF024804F03BFD00BF80BD00BFB2
:103A00001803002080B400AF01231846BD4680BCD7
:103A1000704780B582B000AF7860396006F048FF2B
:103A2000034616221A604FF0FF3318460837BD468A
:103A300080BD80B582B000AF78604FF0FF3178680C
:103A4000FFF7E7FF00BFFDE780B586B000AFF86085
:103A5000B9607A6000237B610AE0AFF30080014621
:103A6000BB685A1CBA60CAB21A707B6901337B61A9
:103A70007A697B689A42F0DB7B6818461837BD4646
:103A800080BD80B586B000AFF860B9607A60002371
:103A90007B6109E0BB685A1CBA601B781846AFF31B
:103AA00000807B6901337B617A697B689A42F1DB34
:103AB0007B6818461837BD4680BD80B483B000AF20
:103AC00078604FF0FF3318460C37BD4680BC704716
:103AD00080B483B000AF786039603B684FF4005227
:103AE0005A60002318460C37BD4680BC704780B42E
:103AF00083B000AF7860012318460C37BD4680BC08
:103B0000704780B485B000AFF860B9607A60002378
:103B100018461437BD4680BC7047000080B586B09B
:103B200000AF7860144A154BD31A7B617B693B6107
:103B3000134B1B68002B02D1114B124A1A60104B19
:103B40001A687B6813443A699A4207D206F0B0FEBD
:103B500003460C221A604FF0FF3309E0084B1B6844
:103B6000FB60074B1A687B681344054A1360FB68C7
:103B700018461837BD4680BD0050002000040000E4
:103B800088070020E008002080B400AF00BFBD46D9
:103B900080BC7047FFF7F8FF0B480C490C4A002324
:103BA00002E0D458C4500433C4188C42F9D3094AF3
:103BB000094C002301E013600432A242FBD306F05B
:103BC0007DFEFEF769FE704700000020E80100203E
:103BD00010F00008E8010020DC080020FEE70000EB
:103BE00080B500AF084B1B68074A43F01003136011
:103BF000032000F061FA0F2000F008F8FFF70AFD3B
:103C00000023184680BD00BF0020024080B582B06E
:103C100000AF7860124B1A68124B1B7819464FF4AC
:103C20007A73B3FBF1F3B2FBF3F3184600F079FAC1
:103C30000346002B01D001230EE07B680F2B0AD82E
:103C4000002279684FF0FF3000F041FA064A7B68A5
:103C50001360002300E0012318460837BD4680BDED
:103C600000000020080000200400002080B400AF05
:103C7000054B1B781A46054B1B681344034A136017
:103C800000BFBD4680BC7047080000208C070020A4
:103C900080B400AF024B1B681846BD4680BC70471D
:103CA0008C07002080B584B000AF7860FFF7F0FF8C
:103CB000B8607B68FB60FB68B3F1FF3F05D00A4B3F
:103CC0001B781A46FB681344FB6000BFFFF7E0FF58
:103CD0000246BB68D31AFA689A42F7D800BF00BF01
:103CE0001037BD4680BD00BF0800002080B586B0FB
:103CF00000AF78600023FB7500233B610023BB60AD
:103D00000023FB607B68002B01D10123BEE07B68B0
:103D10009B68002B7B689B6A002B09D17B68002283
:103D2000DA627B68002283F824207868FFF7A4FC1D
:103D3000786800F0B3F80346FB757B689B6A03F074
:103D40001003002B40F09980FB7D002B40F0958004
:103D50007B689B6A23F4885323F0020343F002023A
:103D60007B689A627B685A687B68DB691A437B6868
:103D70001B7B5B001343BA681343BB607B689B6883
:103D8000B3F5807F03D07B689B68012B02D14FF491
:103D9000807300E000233A6913433B617B681B7D1D
:103DA000012B19D17B681B7B002B09D17B689B6998
:103DB000013B5A033B69134343F400633B610BE04F
:103DC0007B689B6A43F020027B689A627B68DB6AAF
:103DD00043F001027B68DA627B681B685B6823F44E
:103DE00069417B681B683A690A435A607B681B68B3
:103DF0009A68284B13407A681268B9680B4393603D
:103E00007B689B68B3F5807F03D07B689B68012B40
:103E100004D17B681B69013B1B05FB607B681B6849
:103E2000DB6A23F470017B681B68FA680A43DA6274
:103E30007B681B689A68184B1340BA689A420BD18A
:103E40007B680022DA627B689B6A23F0030343F0FD
:103E500001027B689A6218E07B689B6A23F0120378
:103E600043F010027B689A627B68DB6A43F00102D0
:103E70007B68DA620123FB7507E07B689B6A43F08D
:103E800010027B689A620123FB75FB7D1846183788
:103E9000BD4680BDFDF7E1FFFE0E1FFF80B584B07B
:103EA00000AF78600023FB607B681B689B6803F0B1
:103EB0000103012B2ED17B681B689A687B681B6805
:103EC00022F001029A60FFF7E3FEF8601BE0FFF7C3
:103ED000DFFE0246FB68D31A022B14D97B681B68ED
:103EE0009B6803F00103012B0DD17B689B6A43F0B3
:103EF00010027B689A627B68DB6A43F001027B6890
:103F0000DA62012307E07B681B689B6803F001030A
:103F1000012BDCD0002318461037BD4680BD0000C1
:103F200080B485B000AF78607B6803F00703FB6066
:103F30000C4BDB68BB60BA684FF6FF031340BB60F5
:103F4000FB681A02BB68134343F0BF6343F40033BA
:103F5000BB60044ABB68D36000BF1437BD4680BC59
:103F6000704700BF00ED00E080B400AF044BDB6899
:103F70001B0A03F007031846BD4680BC704700BF0C
:103F800000ED00E080B483B000AF0346FB7197F909
:103F90000730002B0BDBFB7903F01F02064997F972
:103FA00007305B09012000FA02F241F8232000BF2C
:103FB0000C37BD4680BC704700E100E080B483B0A0
:103FC00000AF03463960FB7197F90730002B0ADB1D
:103FD0003B68DAB20C4997F907301201D2B20B44B0
:103FE00083F800230AE03B68DAB20849FB7903F062
:103FF0000F03043B1201D2B20B441A7600BF0C37F8
:10400000BD4680BC704700BF00E100E000ED00E06D
:1040100080B489B000AFF860B9607A60FB6803F0E3
:104020000703FB61FB69C3F10703042B28BF0423CB
:10403000BB61FB690433062B02D9FB69033B00E03B
:1040400000237B614FF0FF32BB6902FA03F3DA43CE
:10405000BB681A407B699A404FF0FF317B6901FAD7
:1040600003F3D9437B680B40134318462437BD46FE
:1040700080BC704780B582B000AF78607B68013B40
:10408000B3F1807F01D301230FE00A4A7B68013B33
:1040900053600F214FF0FF30FFF790FF054B0022D8
:1040A0009A60044B07221A60002318460837BD4661
:1040B00080BD00BF10E000E080B582B000AF786046
:1040C0007868FFF72DFF00BF0837BD4680BD80B57B
:1040D00086B000AF0346B9607A60FB7300237B6152
:1040E000FFF742FF78617A68B9687869FFF790FF57
:1040F000024697F90F3011461846FFF75FFF00BFE1
:104100001837BD4680BD80B582B000AF0346FB7155
:1041100097F907301846FFF735FF00BF0837BD464F
:1041200080BD80B582B000AF78607868FFF7A2FFED
:10413000034618460837BD4680BD80B485B000AF41
:1041400078600023FB737B6893F82130DBB2022B8D
:1041500008D07B6804229A637B68002283F82020C1
:10416000012320E07B681B681A687B681B6822F0CB
:104170000E021A607B681B681A687B681B6822F055
:1041800001021A607B681A6C7B68DB6B012101FA03
:1041900002F25A607B68012283F821207B680022AA
:1041A00083F82020FB7B18461437BD4680BC70473F
:1041B00080B584B000AF78600023FB737B6893F810
:1041C0002130DBB2022B05D07B6804229A630123E5
:1041D000FB7351E07B681B681A687B681B6822F0E0
:1041E0000E021A607B681B681A687B681B6822F0E5
:1041F00001021A607B681B68224A934229D07B68BF
:104200001B68214A934222D07B681B681F4A934255
:104210001AD07B681B681E4A934212D07B681B68C9
:104220001C4A93420AD07B681B681B4A934202D106
:104230004FF480130EE04FF080730BE04FF48033A7
:1042400008E04FF4805305E04FF4807302E0102340
:1042500000E00123114A53607B68012283F821208A
:104260007B68002283F820207B685B6B002B03D0E7
:104270007B685B6B78689847FB7B18461037BD46B8
:1042800080BD00BF080002401C0002403000024018
:1042900044000240580002406C000240000002400E
:1042A00080B483B000AF78607B6893F82130DBB2D4
:1042B00018460C37BD4680BC7047000080B48BB0F8
:1042C00000AF7860396000237B6200233B6269E1C4
:1042D00001227B6A02FA03F3FB613B681B68FA69FF
:1042E0001340BB61BA69FB699A4240F058813B6850
:1042F0005B689A4A93425ED0984A934275D8984A2E
:10430000934258D0964A93426FD8964A934252D0DD
:10431000944A934269D8944A93424CD0924A934229
:1043200063D8924A934246D0904A93425DD8122B6A
:104330002AD8122B59D801A252F823F0B74300080B
:1043400091430008A3430008E5430008EB4300083D
:10435000EB430008EB430008EB430008EB43000885
:10436000EB430008EB430008EB430008EB43000875
:10437000EB430008EB430008EB430008EB43000865
:1043800099430008AD430008794A934213D02CE0CA
:104390003B68DB683B6229E03B68DB6804333B62D7
:1043A00024E03B68DB6808333B621FE03B68DB6866
:1043B0000C333B621AE03B689B68002B02D104235C
:1043C0003B6213E03B689B68012B05D108233B62ED
:1043D0007B68FA691A6109E008233B627B68FA6925
:1043E0005A6103E000233B6200E000BFBB69FF2B82
:1043F00001D87B6801E07B6804337B61BB69FF2BDC
:1044000002D87B6A9B0002E07B6A083B9B003B6111
:104410007B691A680F213B6901FA03F3DB431A40F9
:10442000396A3B6901FA03F31A437B691A603B68F6
:104430005B6803F08053002B00F0B1804D4B9B690B
:104440004C4A43F0010393614A4B9B6903F001031B
:10445000BB60BB68484A7B6A9B08023352F8233032
:10446000FB607B6A03F003039B000F2202FA03F355
:10447000DB43FA681340FB607B68404A934213D0E9
:104480007B683F4A93420DD07B683E4A934207D0F7
:104490007B683D4A934201D1032306E0042304E0F4
:1044A000022302E0012300E000237A6A02F0030203
:1044B00092009340FA681343FB602F497B6A9B0884
:1044C0000233FA6841F823203B685B6803F48013E9
:1044D000002B06D02D4B9A682C49BB6913438B6087
:1044E00006E02A4B9A68BB69DB43284913408B607E
:1044F0003B685B6803F40013002B06D0234BDA689B
:104500002249BB691343CB6006E0204BDA68BB69E4
:10451000DB431E491340CB603B685B6803F4003308
:10452000002B06D0194B5A681849BB6913434B60DE
:1045300006E0164B5A68BB69DB43144913404B60D5
:104540003B685B6803F48033002B21D00F4B1A6863
:104550000E49BB6913430B6021E000BF000032101D
:104560000000311000002210000021100000121085
:10457000000011100010024000000140000801403E
:10458000000C0140001001400014014000040140F3
:104590000B4B1A68BB69DB43094913400B607B6A0C
:1045A00001337B623B681A687B6A22FA03F3002BB3
:1045B0007FF48EAE00BF00BF2C37BD4680BC704775
:1045C0000004014080B483B000AF78600B467B806C
:1045D00013467B707B78002B03D07A887B681A6146
:1045E00003E07B881A047B681A6100BF0C37BD4664
:1045F00080BC704780B584B000AF78607B68002BCA
:1046000001D101232BE17B6893F83D30DBB2002B15
:1046100006D17B68002283F83C207868FFF768F8B1
:104620007B68242283F83D207B681B681A687B68BE
:104630001B6822F001021A607B681B681A687B689D
:104640001B6842F400421A607B681B681A687B682A
:104650001B6822F400421A6003F0E2F8F8607B68FD
:104660005B68814A934207D8FB68804A934294BFB3
:1046700001230023DBB206E0FB687D4A934294BF2E
:1046800001230023DBB2002B01D00123E7E0FB680C
:10469000784AA2FB03239B0CBB607B681B685B68AA
:1046A00023F03F017B681B68BA680A435A607B6845
:1046B0001B681B6A23F03F017B685B686A4A934270
:1046C00002D8BB68013309E0BB684FF4967202FB65
:1046D00003F3694AA2FB03239B0901337A6812683A
:1046E0000B4313627B681B68DB6923F44F4222F0A3
:1046F000FF027B685B685C498B4219D8FB68591ED6
:104700007B685B685B00B1FBF3F3591C40F6FC73FC
:104710000B40002B0AD0FB68591E7B685B685B006E
:10472000B1FBF3F30133C3F30B0351E004234FE078
:104730007B689B68002B11D1FB68581E7B68596809
:104740000B465B000B44B0FBF3F30133C3F30B03E5
:10475000002B0CBF01230023DBB212E0FB68581EC4
:104760007B6859680B469B000B4499000B44B0FBD7
:10477000F3F30133C3F30B03002B0CBF012300231E
:10478000DBB2002B01D0012322E07B689B68002B69
:104790000ED1FB68581E7B6859680B465B000B44C2
:1047A000B0FBF3F30133C3F30B0343F400430FE017
:1047B000FB68581E7B6859680B469B000B449900A8
:1047C0000B44B0FBF3F30133C3F30B0343F4404357
:1047D000796809681343CB617B681B681B6823F009
:1047E000C0017B68DA697B681B6A1A437B681B68B7
:1047F0000A431A607B681B689B6823F4034323F019
:10480000FF037A6811697A68D26811437A6812687E
:104810000B4393607B681B68DB6823F0FF017B68B8
:104820005A697B689B691A437B681B680A43DA6094
:104830007B681B681A687B681B6842F001021A607B
:104840007B6800221A647B68202283F83D207B6805
:1048500000221A637B68002283F83E20002318465A
:104860001037BD4680BD00BFA08601007F841E00BA
:10487000FF083D0083DE1B43D34D621080B483B03C
:1048800000AF78607B681B685B6903F08003802B56
:1048900003D17B681B6800221A6100BF0C37BD463C
:1048A00080BC704780B588B002AFF86008461146FA
:1048B0001A4603467B810B463B811346FB80FFF77C
:1048C000E7F97861FB6893F83D30DBB2202B40F0CC
:1048D000D9807B690093192301226D49F86802F0A1
:1048E00053F90346002B01D00223CCE0FB6893F878
:1048F0003C30012B01D10223C5E0FB68012283F883
:104900003C20FB681B681B6803F00103012B07D0E8
:10491000FB681B681A68FB681B6842F001021A609A
:10492000FB681B681A68FB681B6822F400621A6047
:10493000FB68212283F83D20FB68402283F83E205B
:10494000FB6800221A64FB683A6A5A62FB68BA8CF8
:104950005A85FB685B8D9AB2FB681A85FB684D4AE5
:10496000DA62F8883A8979897B690193BB6A009396
:104970000346F86801F0E2FE0346002B52D0012303
:1049800081E07A69B96AF86802F018FA0346002BE8
:104990000DD0FB681B6C042B07D1FB681B681A68E1
:1049A000FB681B6842F400721A6001236BE0FB682D
:1049B0005B6A1A78FB681B681A61FB685B6A5A1CA1
:1049C000FB685A62FB681B8D013B9AB2FB681A8533
:1049D000FB685B8D9BB2013B9AB2FB685A85FB6812
:1049E0001B685B6903F00403042B1BD1FB681B8D60
:1049F000002B17D0FB685B6A1A78FB681B681A618A
:104A0000FB685B6A5A1CFB685A62FB681B8D013BA2
:104A10009AB2FB681A85FB685B8D9BB2013B9AB228
:104A2000FB685A85FB681B8D002BAAD17A69B96A8D
:104A3000F86802F00BFA0346002B0DD0FB681B6CE4
:104A4000042B07D1FB681B681A68FB681B6842F4DB
:104A500000721A60012316E0FB681B681A68FB6885
:104A60001B6842F400721A60FB68202283F83D2024
:104A7000FB68002283F83E20FB68002283F83C207C
:104A8000002300E0022318461837BD4680BD00BF52
:104A9000020010000000FFFF80B58CB002AFF8608C
:104AA000084611461A4603467B810B463B81134656
:104AB000FB8000233B62FFF7EBF87862FB6893F81A
:104AC0003D30DBB2202B40F050827B6A00931923EB
:104AD00001228249F86802F057F80346002B01D002
:104AE000022343E2FB6893F83C30012B01D10223FF
:104AF0003CE2FB68012283F83C20FB681B681B68D2
:104B000003F00103012B07D0FB681B681A68FB68E0
:104B10001B6842F001021A60FB681B681A68FB6898
:104B20001B6822F400621A60FB68222283F83D2091
:104B3000FB68402283F83E20FB6800221A64FB6871
:104B40003A6B5A62FB68BA8E5A85FB685B8D9AB2E3
:104B5000FB681A85FB68624ADA62F8883A897989C3
:104B60007B6A0193BB6B00930346F86801F07CFEFF
:104B70000346002B01D00123F8E1FB681B8D002BBD
:104B800013D10023FB61FB681B685B69FB61FB6859
:104B90001B689B69FB61FB69FB681B681A68FB6803
:104BA0001B6842F400721A60CCE1FB681B8D012B7C
:104BB0001ED1FB681B681A68FB681B6822F48062C0
:104BC0001A6072B600BF0023BB61FB681B685B699B
:104BD000BB61FB681B689B69BB61BB69FB681B68A9
:104BE0001A68FB681B6842F400721A6062B635E00E
:104BF000FB681B8D022B1ED1FB681B681A68FB68C3
:104C00001B6842F400621A6072B600BF00237B6129
:104C1000FB681B685B697B61FB681B689B697B6148
:104C20007B69FB681B681A68FB681B6822F480625A
:104C30001A6062B612E0FB681B681A68FB681B68A2
:104C400042F480621A6000233B61FB681B685B6969
:104C50003B61FB681B689B693B613B6972E1FB68D8
:104C60001B8D032B00F21F81FB681B8D012B23D1B1
:104C70007A6AB96BF86802F063F90346002B01D039
:104C8000012373E1FB681B681A69FB685B6AD2B297
:104C90001A70FB685B6A5A1CFB685A62FB681B8DC2
:104CA000013B9AB2FB681A85FB685B8D9BB2013BA6
:104CB0009AB2FB685A8545E1FB681B8D022B52D1E5
:104CC0007B6A0093BB6B00220649F86801F05CFF29
:104CD0000346002B08D0012348E100BF020010006A
:104CE0000000FFFF0400010072B600BFFB681B68F4
:104CF0001A68FB681B6842F400721A60FB681B6844
:104D00001A69FB685B6AD2B21A70FB685B6A5A1C4C
:104D1000FB685A62FB681B8D013B9AB2FB681A85DF
:104D2000FB685B8D9BB2013B9AB2FB685A8562B609
:104D300000BFFB681B681A69FB685B6AD2B21A7015
:104D4000FB685B6A5A1CFB685A62FB681B8D013B5F
:104D50009AB2FB681A85FB685B8D9BB2013B9AB2E5
:104D6000FB685A85EEE07B6A0093BB6B00228149A9
:104D7000F86801F009FF0346002B01D00123F5E09C
:104D8000FB681B681A68FB681B6822F480621A6063
:104D900072B600BFFB681B681A69FB685B6AD2B217
:104DA0001A70FB685B6A5A1CFB685A62FB681B8DB1
:104DB000013B9AB2FB681A85FB685B8D9BB2013B95
:104DC0009AB2FB685A856C4B1B68DB086B4AA2FBE6
:104DD00003231A0A13469B001344DA00D31A3B62DA
:104DE0003B6A013B3B623B6A002B18D1FB68002207
:104DF0001A63FB68202283F83D20FB68002283F8B9
:104E00003E20FB681B6C43F02002FB681A6462B60C
:104E100000BFFB68002283F83C200123A6E0FB686A
:104E20001B685B6903F00403042BD9D1FB681B6882
:104E30001A68FB681B6842F400721A60FB681B6802
:104E40001A69FB685B6AD2B21A70FB685B6A5A1C0B
:104E5000FB685A62FB681B8D013B9AB2FB681A859E
:104E6000FB685B8D9BB2013B9AB2FB685A8562B6C8
:104E700000BFFB681B681A69FB685B6AD2B21A70D4
:104E8000FB685B6A5A1CFB685A62FB681B8D013B1E
:104E90009AB2FB681A85FB685B8D9BB2013B9AB2A4
:104EA000FB685A854EE07A6AB96BF86802F048F8F8
:104EB0000346002B01D0012358E0FB681B681A69E8
:104EC000FB685B6AD2B21A70FB685B6A5A1CFB68AB
:104ED0005A62FB681B8D013B9AB2FB681A85FB681E
:104EE0005B8D9BB2013B9AB2FB685A85FB681B68DD
:104EF0005B6903F00403042B24D1FB681B8D032B97
:104F000007D1FB681B681A68FB681B6822F4806283
:104F10001A60FB681B681A69FB685B6AD2B21A7078
:104F2000FB685B6A5A1CFB685A62FB681B8D013B7D
:104F30009AB2FB681A85FB685B8D9BB2013B9AB203
:104F4000FB685A85FB681B8D002B7FF488AEFB68DD
:104F5000202283F83D20FB68002283F83E20FB6876
:104F6000002283F83C20002300E002231846283763
:104F7000BD4680BD040001000000002089B5F81482
:104F800080B588B000AF78600023BB617B681B6888
:104F90005B687B617B68DB6A3B617B6893F83E30D2
:104FA000FB737B6893F83D30BB73FB7B102B03D006
:104FB000FB7B402B40F0B1807B681B689B69BB6129
:104FC0007B681B685B69FB61FB6903F00103002BD5
:104FD0000DD13B69B3F52A0F03D03B69B3F12A4FDA
:104FE00001D1012300E00023012B00F01481FB69B3
:104FF00003F00103002B0BD07B6903F40073002B3B
:1050000006D0786802F027F8786800F074FD83E035
:10501000FB6903F00803002B08D07B6903F40073DD
:10502000002B03D0786800F0EBFD75E0FB6903F01E
:105030000203002B08D07B6903F40073002B03D01C
:10504000786800F006FE67E0BB6903F00403002BFC
:1050500036D07B681B685B6803F40063B3F5006FB0
:1050600000F0DB80FB6903F08003002B0DD07B692F
:1050700003F48063002B08D0FB6903F00403002BCA
:1050800003D1786800F0D4F946E0FB6903F004032B
:10509000002B00F0C2807B6903F40073002B00F04A
:1050A000BC80BB7B212B03D1786800F05DFAB4E0B3
:1050B000FB7B402B40F0B180786800F0CBFAACE08D
:1050C0007B681B685B6803F40063B3F5006F00F056
:1050D000A480FB6903F04003002B0DD07B6903F42F
:1050E0008063002B08D0FB6903F00403002B03D17D
:1050F000786800F047FB0FE0FB6903F00403002B26
:1051000000F08B807B6903F40073002B00F0858036
:10511000786800F0FFFB80E07FE07B681B6C002B71
:1051200004D07B681B685B69FB6107E07B681B68D8
:105130009B69BB617B681B685B69FB61FB6903F072
:105140000203002B11D07B6903F40073002B0CD0F9
:105150007B681B6C002B03D07B681B689B69BB6161
:10516000B969786800F0CCFF5AE0FB6903F01003DE
:10517000002B08D07B6903F40073002B03D0786800
:1051800001F006F84CE0BB7B212B02D0BB7B292B26
:1051900020D1FB6903F08003002B0DD07B6903F461
:1051A0008063002B08D0FB6903F00403002B03D1BC
:1051B000786800F0E9FE32E0FB6903F00403002B9D
:1051C0002DD07B6903F40073002B28D0786800F0A1
:1051D00018FF24E0FB6903F04003002B0DD07B692E
:1051E00003F48063002B08D0FB6903F00403002B59
:1051F00003D1786800F025FF12E0FB6903F0040397
:10520000002B0DD07B6903F40073002B08D0786865
:1052100000F055FF04E000BF02E000BF00E000BF67
:105220002037BD4680BD80B58AB000AF78607B680E
:105230001B685B693B627B681B685B68FB610023E2
:105240007B627B6893F83E30FB763B6A03F48073A5
:10525000002B15D0FB6903F48073002B10D07B6A00
:1052600043F001037B627B681B686FF480725A61B4
:105270007B681B681A687B681B6842F400421A60EE
:105280003B6A03F40073002B0DD0FB6903F48073B9
:10529000002B08D07B6A43F002037B627B681B68AB
:1052A0006FF400725A613B6A03F48063002B3ED0B6
:1052B000FB6903F48073002B39D0FB7EBB767B68DF
:1052C0005B8D9BB27B617B6893F83D30FB747B68A0
:1052D0001B6BFB60BB7E202B12D17B69002B0FD197
:1052E000FB7C212B08D0FB7C292B05D0FB7C282BB9
:1052F00006D1FB68212B03D1786801F079F816E01C
:105300007B681B686FF480625A617B6A43F0040318
:105310007B62FB7E102B02D0FB7E402B07D17B688B
:105320001B681A687B681B6842F400721A603B6A4B
:1053300003F40063002B0DD0FB6903F48073002B92
:1053400008D07B6A43F008037B627B681B686FF4BC
:1053500000625A617B6A002B08D07B681A6C7B6AFA
:105360001A437B681A64786801F0B6F800BF2837E2
:10537000BD4680BD80B483B000AF786000BF0C37FD
:10538000BD4680BC704780B483B000AF786000BF7A
:105390000C37BD4680BC704780B483B000AF7860E6
:1053A00000BF0C37BD4680BC704780B483B000AFEF
:1053B000786000BF0C37BD4680BC704780B483B0B6
:1053C00000AF78600B46FB7013463B8000BF0C3784
:1053D000BD4680BC704780B483B000AF786000BF2A
:1053E0000C37BD4680BC704780B483B000AF786096
:1053F00000BF0C37BD4680BC704780B483B000AF9F
:10540000786000BF0C37BD4680BC704780B483B065
:1054100000AF786000BF0C37BD4680BC704780B4D9
:1054200083B000AF786000BF0C37BD4680BC7047CA
:1054300080B584B000AF78607B6893F83D30FB7333
:105440007B6893F83E30BB737B68DB6ABB607B682C
:105450001B8D002B50D1FB7B212B4DD1BB68082B22
:105460001DD0BB68202B1AD0BB6813F5803F16D027
:105470007B681B685A687B681B6822F4E0625A608C
:105480007B6811221A637B68002283F83E207B68C8
:10549000202283F83D207868FFF76CFF60E07B688E
:1054A0001B685A687B681B6822F4E0625A607B685C
:1054B0001B681A687B681B6842F400721A607B687C
:1054C00000221A637B68202283F83D207B6893F8D2
:1054D0003E30DBB2402B07D17B68002283F83E20B0
:1054E0007868FFF781FF3BE07B68002283F83E206D
:1054F0007868FFF73FFF33E0FB7B212B05D0BB7BB8
:10550000402B2DD1FB7B222B2AD17B685B8D9BB25C
:10551000002B08D17B681B685A687B681B6822F4E3
:1055200080625A601CE07B6893F83E30DBB2402B0F
:1055300003D1786800F08EF812E07B685B6A1A7815
:105540007B681B681A617B685B6A5A1C7B685A62BD
:105550007B685B8D9BB2013B9AB27B685A85FFE703
:1055600000BF1037BD4680BD80B584B000AF786005
:105570007B68DB6AFB607B6893F83D30DBB2212BF4
:1055800064D17B685B8D9BB2002B12D07B685B6A19
:105590001A787B681B681A617B685B6A5A1C7B6897
:1055A0005A627B685B8D9BB2013B9AB27B685A85DD
:1055B0004CE0FB68082B1DD0FB68202B1AD0FB6841
:1055C00013F5803F16D07B681B685A687B681B68A0
:1055D00022F4E0625A607B6811221A637B68002221
:1055E00083F83E207B68202283F83D207868FFF70F
:1055F000C1FE2BE07B681B685A687B681B6822F43D
:10560000E0625A607B681B681A687B681B6842F41A
:1056100000721A607B6800221A637B68202283F87C
:105620003D207B6893F83E30DBB2402B07D17B688E
:10563000002283F83E207868FFF7D6FE06E07B68FC
:10564000002283F83E207868FFF794FE00BF1037F1
:10565000BD4680BD80B584B000AF78607B6893F8AC
:105660003D30FB737B681B6D002B1DD17B68DB6CB1
:10567000012B0BD17B689B6CDAB27B681B681A61CB
:105680007B681B6D9A1C7B681A6577E07B689B6C56
:105690009BB21B12DAB27B681B681A617B681B6DB8
:1056A0005A1C7B681A6569E07B681B6D012B0BD166
:1056B0007B689B6CDAB27B681B681A617B681B6D28
:1056C0005A1C7B681A6559E07B681B6D022B52D10E
:1056D000FB7B222B0DD17B681B681A687B681B68DB
:1056E00042F480721A607B681B6D5A1C7B681A65D5
:1056F00044E07B685B8D9BB2002B15D0FB7B212B9C
:1057000012D17B685B6A1A787B681B681A617B68B8
:105710005B6A5A1C7B685A627B685B8D9BB2013B5B
:105720009AB27B685A8529E07B685B8D9BB2002B1F
:1057300024D1FB7B212B21D17B681B685A687B68B5
:105740001B6822F4E0625A607B681B681A687B68F9
:105750001B6842F400721A607B6800221A637B683F
:10576000202283F83D207B68002283F83E20786861
:10577000FFF73AFE02E07868FFF780F800BF1037C5
:10578000BD4680BD80B584B000AF78607B6893F87B
:105790003D30DBB2222B40F0B9807B68DB6AFB60D6
:1057A0007B685B8D9BB2BB60BB68032B21D97B6898
:1057B0001B681A697B685B6AD2B21A707B685B6A85
:1057C0005A1C7B685A627B685B8D9BB2013B9AB224
:1057D0007B685A857B685B8D9BB2032B40F096807B
:1057E0007B681B685A687B681B6822F480625A6079
:1057F0008CE07B68DB6A022B7FD0BB68012B02D078
:10580000BB68002B79D1786801F068FB0346002B58
:105810004CD17B681B681A687B681B6822F4806225
:105820001A607B681B685A687B681B6822F4E06218
:105830005A607B681B681A697B685B6AD2B21A700F
:105840007B685B6A5A1C7B685A627B685B8D9BB283
:10585000013B9AB27B685A857B68202283F83D2001
:105860007B6893F83E30DBB2402B0AD17B68002284
:1058700083F83E207B6800221A637868FFF7BDFD3D
:1058800044E07B68002283F83E20FB68082B02D0AE
:10589000FB68202B03D17B6800221A6302E07B683F
:1058A00012221A637868FFF76EFD2FE07B681B6891
:1058B0005A687B681B6822F4E0625A607B681B6848
:1058C0001A697B685B6AD2B21A707B685B6A5A1C81
:1058D0007B685A627B685B8D9BB2013B9AB27B68A6
:1058E0005A857B68202283F83D207B68002283F85C
:1058F0003E207868FFF78AFD08E07B681B685A68DD
:105900007B681B6822F480625A60FFE700BF103793
:10591000BD4680BD80B584B000AF78607B68DB6A2F
:10592000FB607B685B8D9BB2042B1BD17B681B6883
:105930005A687B681B6822F480625A607B681B6827
:105940001A697B685B6AD2B21A707B685B6A5A1C00
:105950007B685A627B685B8D9BB2013B9AB27B6825
:105960005A85C4E07B685B8D9BB2032B29D17B6891
:105970001B685A687B681B6822F480625A60FB6867
:10598000042B0AD0FB68022B07D07B681B681A68BF
:105990007B681B6822F480621A607B681B681A6946
:1059A0007B685B6AD2B21A707B685B6A5A1C7B6840
:1059B0005A627B685B8D9BB2013B9AB27B685A85C9
:1059C00095E07B685B8D9BB2022B7DD1FB68012B40
:1059D00002D0FB68102B08D17B681B681A687B68B3
:1059E0001B6822F480621A6016E0FB68042B02D068
:1059F000FB68022B08D17B681B681A687B681B68F0
:105A000042F480621A6007E07B681B681A687B6852
:105A10001B6842F400721A607B681B681A697B6815
:105A20005B6AD2B21A707B685B6A5A1C7B685A62E6
:105A30007B685B8D9BB2013B9AB27B685A857B6821
:105A40001B681A697B685B6AD2B21A707B685B6AF2
:105A50005A1C7B685A627B685B8D9BB2013B9AB291
:105A60007B685A857B681B685A687B681B6822F4D0
:105A700040725A607B68202283F83D207B6893F84F
:105A80003E30DBB2402B0AD17B68002283F83E20F7
:105A90007B6800221A637868FFF7AFFC27E07B6819
:105AA000002283F83E20FB68082B02D0FB68202BE5
:105AB00003D17B6800221A6302E07B6812221A631A
:105AC0007868FFF760FC12E07B681B681A697B68E6
:105AD0005B6AD2B21A707B685B6A5A1C7B685A6236
