:020000040800F2
:1000000000500020E52A0008A5280008C1280008A3
:10001000E92800081129000819290008000000003B
:10002000000000000000000000000000212900087E
:100030002D29000800000000392900084529000882
:100040002D2B00082D2B00082D2B00082D2B000830
:100050002D2B00082D2B00082D2B00082D2B000820
:100060002D2B00082D2B00082D2B00082D2B000810
:1000700051290008652900082D2B00082D2B0008A8
:100080002D2B00082D2B00082D2B00082D2B0008F0
:100090002D2B00082D2B00082D2B00082D2B0008E0
:1000A0002D2B00082D2B00082D2B00082D2B0008D0
:1000B0002D2B00082D2B00082D2B00082D2B0008C0
:1000C0002D2B00082D2B00082D2B00082D2B0008B0
:1000D0002D2B00082D2B00082D2B00087929000856
:1000E0002D2B00082D2B00082D2B000800000000F0
:1000F0000000000000000000000000000000000000
:0C01000000000000000000005FF808F1A3
:1001100010B5054C237833B9044B13B10448AFF341
:1001200000800123237010BDA40300200000000004
:100130007C8B000808B5034B1BB103490348AFF3A0
:10014000008008BD00000000A80300207C8B000890
:1001500010F8012B11F8013B012A28BF9A42F7D071
:10016000D01A7047034613F8012B002AFBD1181A46
:100170000138704781F0004102E000BF83F0004386
:1001800030B54FEA41044FEA430594EA050F08BF32
:1001900090EA020F1FBF54EA000C55EA020C7FEAF6
:1001A000645C7FEA655C00F0E2804FEA5454D4EB73
:1001B0005555B8BF6D420CDD2C4480EA020281EA3D
:1001C000030382EA000083EA010180EA020281EA75
:1001D0000303362D88BF30BD11F0004F4FEA0131C7
:1001E0004FF4801C4CEA113102D0404261EB4101D6
:1001F00013F0004F4FEA03334CEA133302D052425C
:1002000063EB430394EA050F00F0A780A4F1010417
:10021000D5F1200E0DDB02FA0EFC22FA05F2801851
:1002200041F1000103FA0EF2801843FA05F3594137
:100230000EE0A5F120050EF1200E012A03FA0EFCB6
:1002400028BF4CF0020C43FA05F3C01851EBE371E0
:1002500001F0004507D54FF0000EDCF1000C7EEBFD
:1002600000006EEB0101B1F5801F1BD3B1F5001F3B
:100270000CD349085FEA30004FEA3C0C04F101045A
:100280004FEA445212F5800F80F09A80BCF1004F83
:1002900008BF5FEA500C50F1000041EB045141EA05
:1002A000050130BD5FEA4C0C404141EB0101013CCE
:1002B00028BFB1F5801FE9D291F0000F04BF0146BD
:1002C0000020B1FA81F308BF2033A3F10B03B3F18F
:1002D00020020CDA0C3208DD02F1140CC2F10C021F
:1002E00001FA0CF021FA02F10CE002F11402D8BF7D
:1002F000C2F1200C01FA02F120FA0CFCDCBF41EA49
:100300000C019040E41AA2BF01EB0451294330BD17
:100310006FEA04041F3C1CDA0C340EDC04F11404F4
:10032000C4F1200220FA04F001FA02F340EA0300CB
:1003300021FA04F345EA030130BDC4F10C04C4F111
:10034000200220FA02F001FA04F340EA03002946F1
:1003500030BD21FA04F0294630BD94F0000F83F43B
:10036000801306BF81F480110134013D4EE77FEA1E
:10037000645C18BF7FEA655C29D094EA050F08BF6A
:1003800090EA020F05D054EA000C04BF194610464B
:1003900030BD91EA030F1EBF0021002030BD5FEA8F
:1003A000545C05D14000494128BF41F0004130BDB7
:1003B00014F580043CBF01F5801130BD01F000450B
:1003C00045F0FE4141F470014FF0000030BD7FEA7E
:1003D000645C1ABF194610467FEA655C1CBF0B4679
:1003E000024650EA013406BF52EA033591EA030F90
:1003F00041F4002130BD00BF90F0000F04BF002188
:10040000704730B54FF4806404F132044FF00005BA
:100410004FF0000150E700BF90F0000F04BF002133
:10042000704730B54FF4806404F1320410F0004599
:1004300048BF40424FF000013EE700BF42004FEA94
:10044000E2014FEA31014FEA02701FBF12F07F4311
:1004500093F07F4F81F06051704732F07F4208BFC8
:10046000704793F07F4F04BF41F40021704730B5CF
:100470004FF4607401F0004521F000411CE700BF1B
:1004800050EA010208BF704730B54FF000050AE09E
:1004900050EA010208BF704730B511F0004502D59F
:1004A000404261EB41014FF4806404F132045FEAA1
:1004B000915C3FF4D8AE4FF003025FEADC0C18BF4A
:1004C00003325FEADC0C18BF033202EBDC02C2F13C
:1004D000200300FA03FC20FA02F001FA03FE40EACE
:1004E0000E0021FA02F11444BDE600BF70B54FF0D2
:1004F000FF0C4CF4E06C1CEA11541DBF1CEA1355B0
:1005000094EA0C0F95EA0C0F00F0DEF82C4481EA17
:10051000030621EA4C5123EA4C5350EA013518BF37
:1005200052EA033541F4801143F4801338D0A0FB24
:1005300002CE4FF00005E1FB02E506F00042E0FBD1
:1005400003E54FF00006E1FB03569CF0000F18BFD7
:100550004EF0010EA4F1FF04B6F5007F64F540747F
:1005600004D25FEA4E0E6D4146EB060642EAC62112
:1005700041EA55514FEAC52040EA5E504FEACE2E7F
:10058000B4F1FD0C88BFBCF5E06F1ED8BEF1004F82
:1005900008BF5FEA500E50F1000041EB045170BDFE
:1005A00006F0004646EA010140EA020081EA030142
:1005B000B4EB5C04C2BFD4EB0C0541EA045170BD3E
:1005C00041F480114FF0000E013C00F3AB8014F1B8
:1005D000360FDEBF002001F0004170BDC4F1000401
:1005E000203C35DA0C341BDC04F11404C4F1200582
:1005F00000FA05F320FA04F001FA05F240EA0200DD
:1006000001F0004221F0004110EBD37021FA04F612
:1006100042EB06015EEA430E08BF20EAD37070BDCC
:10062000C4F10C04C4F1200500FA04F320FA05F02B
:1006300001FA04F240EA020001F0004110EBD3702D
:1006400041F100015EEA430E08BF20EAD37070BD9D
:10065000C4F1200500FA05F24EEA020E20FA04F376
:1006600001FA05F243EA020321FA04F001F0004125
:1006700021FA04F220EA020000EBD3705EEA430E96
:1006800008BF20EAD37070BD94F0000F0FD101F0C5
:100690000046400041EB010111F4801F08BF013CFE
:1006A000F7D041EA060195F0000F18BF704703F03C
:1006B0000046520043EB030313F4801F08BF013DC3
:1006C000F7D043EA0603704794EA0C0F0CEA13557F
:1006D00018BF95EA0C0F0CD050EA410618BF52EA39
:1006E0004306D1D181EA030101F000414FF000003F
:1006F00070BD50EA410606BF1046194652EA43064D
:1007000019D094EA0C0F02D150EA013613D195EAC0
:100710000C0F05D152EA03361CBF104619460AD108
:1007200081EA030101F0004141F0FE4141F4700112
:100730004FF0000070BD41F0FE4141F4780170BD02
:1007400070B54FF0FF0C4CF4E06C1CEA11541DBF67
:100750001CEA135594EA0C0F95EA0C0F00F0A7F869
:10076000A4EB050481EA030E52EA03354FEA013196
:1007700000F088804FEA03334FF0805545EA1313A9
:1007800043EA12634FEA022245EA111545EA106571
:100790004FEA00260EF000419D4208BF964244F108
:1007A000FD0404F5407402D25B084FEA3202B61A27
:1007B00065EB03055B084FEA32024FF480104FF4FB
:1007C000002CB6EB020E75EB030E22BFB61A75466F
:1007D00040EA0C005B084FEA3202B6EB020E75EB02
:1007E000030E22BFB61A754640EA5C005B084FEA6A
:1007F0003202B6EB020E75EB030E22BFB61A754637
:1008000040EA9C005B084FEA3202B6EB020E75EB41
:10081000030E22BFB61A754640EADC0055EA060E02
:1008200018D04FEA051545EA16754FEA06164FEA45
:10083000C30343EA52734FEAC2025FEA1C1CC0D1F1
:1008400011F4801F0BD141EA00014FF000004FF07E
:10085000004CB6E711F4801F04BF01430020B4F13F
:10086000FD0C88BFBCF5E06F3FF6AFAEB5EB030CF7
:1008700004BFB6EB020C5FEA500C50F1000041EBF4
:10088000045170BD0EF0004E4EEA113114EB5C04C1
:10089000C2BFD4EB0C0541EA045170BD41F4801194
:1008A0004FF0000E013C90E645EA060E8DE60CEA9C
:1008B000135594EA0C0F08BF95EA0C0F3FF43BAFB9
:1008C00094EA0C0F0AD150EA01347FF434AF95EA70
:1008D0000C0F7FF425AF104619462CE795EA0C0F54
:1008E00006D152EA03353FF4FDAE1046194622E721
:1008F00050EA410618BF52EA43067FF4C5AE50EAFB
:1009000041047FF40DAF52EA43057FF4EBAE12E7EA
:100910004FF0FF3C06E000BF4FF0010C02E000BFCB
:100920004FF0010C4DF804CD4FEA410C7FEA6C5CAE
:100930004FEA430C18BF7FEA6C5C1BD001B050EA51
:10094000410C0CBF52EA430C91EA030F02BF90EA3C
:10095000020F0020704710F1000F91EA030F58BFFB
:10096000994208BF90422CBFD8176FEAE37040F05D
:10097000010070474FEA410C7FEA6C5C02D150EAFB
:10098000013C07D14FEA430C7FEA6C5CD6D152EAB6
:10099000033CD3D05DF8040B704700BF844610467B
:1009A00062468C461946634600E000BF01B5FFF77A
:1009B000B7FF002848BF10F1000F01BD4DF808ED4A
:1009C000FFF7F4FF0CBF012000205DF808FB00BF1B
:1009D0004DF808EDFFF7EAFF34BF012000205DF875
:1009E00008FB00BF4DF808EDFFF7E0FF94BF0120C2
:1009F00000205DF808FB00BF4DF808EDFFF7CEFFC3
:100A000094BF012000205DF808FB00BF4DF808ED01
:100A1000FFF7C4FF34BF012000205DF808FB00BFD2
:100A20004FEA410C7FEA6C5C02D150EA013C0AD1EA
:100A30004FEA430C7FEA6C5C02D152EA033C02D1DC
:100A40004FF0000070474FF0010070474FEA41023D
:100A500012F5001215D211D56FF47873B3EB625210
:100A600012D94FEAC12343F0004343EA505311F037
:100A7000004F23FA02F018BF404270474FF00000C9
:100A8000704750EA013005D111F0004008BF6FF007
:100A9000004070474FF00000704700BF4FEA41022E
:100AA000B2F1E04324BFB3F5001CDCF1FE5C0DD9CC
:100AB00001F0004C4FEAC0024CEA5070B2F1004F16
:100AC00040EB830008BF20F00100704711F0804F19
:100AD00021D113F13872BCBF01F00040704741F4DE
:100AE00080114FEA5252C2F11802C2F1200C10FAE2
:100AF0000CF320FA02F018BF40F001004FEAC123C6
:100B00004FEAD32303FA0CFC40EA0C0023FA02F369
:100B10004FEA4303CCE77FEA625307D150EA01333F
:100B20001EBF4FF0FE4040F44000704701F000400F
:100B300040F0FE4040F40000704700BF80F00040ED
:100B400002E000BF81F0004142001FBF5FEA4103A5
:100B500092EA030F7FEA226C7FEA236C6AD04FEAA5
:100B60001262D2EB1363C1BFD218414048404140EA
:100B7000B8BF5B42192B88BF704710F0004F40F49C
:100B8000000020F07F4018BF404211F0004F41F4B8
:100B9000000121F07F4118BF494292EA030F3FD084
:100BA000A2F1010241FA03FC10EB0C00C3F1200397
:100BB00001FA03F100F0004302D5494260EB400026
:100BC000B0F5000F13D3B0F1807F06D340084FEA91
:100BD000310102F10102FE2A51D2B1F1004F40EB86
:100BE000C25008BF20F0010040EA030070474900EE
:100BF00040EB0000013A28BFB0F5000FEDD2B0FA8B
:100C000080FCACF1080CB2EB0C0200FA0CF0AABFAD
:100C100000EBC25052421843BCBFD040184370474B
:100C200092F0000F81F4000106BF80F40000013251
:100C3000013BB5E74FEA41037FEA226C18BF7FEA28
:100C4000236C21D092EA030F04D092F0000F08BF6A
:100C50000846704790EA010F1CBF0020704712F051
:100C60007F4F04D1400028BF40F00040704712F190
:100C700000723CBF00F50000704700F0004343F0F5
:100C8000FE4040F4000070477FEA226216BF08462B
:100C90007FEA23630146420206BF5FEA412390EAEE
:100CA000010F40F4800070474FF0000304E000BFE4
:100CB00010F0004348BF40425FEA000C08BF704795
:100CC00043F0964301464FF000001CE050EA010259
:100CD00008BF70474FF000030AE000BF50EA01026E
:100CE00008BF704711F0004302D5404261EB41015B
:100CF0005FEA010C02BF84460146002043F0B64380
:100D000008BFA3F18053A3F50003BCFA8CF2083AA4
:100D1000A3EBC25310DB01FA02FC634400FA02FCAD
:100D2000C2F12002BCF1004F20FA02F243EB0200B4
:100D300008BF20F00100704702F1200201FA02FC16
:100D4000C2F1200250EA4C0021FA02F243EB020009
:100D500008BF20EADC7070474FF0FF0C1CEAD0524D
:100D60001EBF1CEAD15392EA0C0F93EA0C0F6FD00E
:100D70001A4480EA010C400218BF5FEA41211ED0EC
:100D80004FF0006343EA501043EA5111A0FB0131D8
:100D90000CF00040B1F5000F3EBF490041EAD371AD
:100DA0005B0040EA010062F17F02FD2A1DD8B3F129
:100DB000004F40EBC25008BF20F00100704790F098
:100DC000000F0CF0004C08BF49024CEA502040EAEA
:100DD00051207F3AC2BFD2F1FF0340EAC2507047B0
:100DE00040F400004FF00003013A5DDC12F1190FEE
:100DF000DCBF00F000407047C2F10002410021FA60
:100E000002F1C2F1200200FA02FC5FEA310040F177
:100E1000000053EA4C0308BF20EADC70704792F0F0
:100E2000000F00F0004C02BF400010F4000F013A28
:100E3000F9D040EA0C0093F0000F01F0004C02BF23
:100E4000490011F4000F013BF9D041EA0C018FE792
:100E50000CEAD15392EA0C0F18BF93EA0C0F0AD098
:100E600030F0004C18BF31F0004CD8D180EA0100BE
:100E700000F00040704790F0000F17BF90F0004F57
:100E8000084691F0000F91F0004F14D092EA0C0F39
:100E900001D142020FD193EA0C0F03D14B0218BFCC
:100EA000084608D180EA010000F0004040F0FE4012
:100EB00040F40000704740F0FE4040F440007047AE
:100EC0004FF0FF0C1CEAD0521EBF1CEAD15392EA2D
:100ED0000C0F93EA0C0F69D0A2EB030280EA010C1D
:100EE00049024FEA402037D04FF0805343EA1111B6
:100EF00043EA10130CF000408B4238BF5B0042F114
:100F00007D024FF4000C8B4224BF5B1A40EA0C00B8
:100F1000B3EB510F24BFA3EB510340EA5C00B3EBEA
:100F2000910F24BFA3EB910340EA9C00B3EBD10FD8
:100F300024BFA3EBD10340EADC001B0118BF5FEA2A
:100F40001C1CE0D1FD2A3FF650AF8B4240EBC25053
:100F500008BF20F0010070470CF0004C4CEA502014
:100F60007F32C2BFD2F1FF0340EAC250704740F463
:100F700000004FF00003013A37E792F0000F00F055
:100F8000004C02BF400010F4000F013AF9D040EAD3
:100F90000C0093F0000F01F0004C02BF490011F467
:100FA000000F013BF9D041EA0C0195E70CEAD1535F
:100FB00092EA0C0F08D142027FF47DAF93EA0C0F46
:100FC0007FF470AF084676E793EA0C0F04D14B022A
:100FD0003FF44CAF08466EE730F0004C18BF31F0DC
:100FE000004CCAD130F000427FF45CAF31F00043D6
:100FF0007FF43CAF5FE700BF4FF0FF3C06E000BF6F
:101000004FF0010C02E000BF4FF0010C4DF804CD91
:101010004FEA40024FEA41037FEA226C18BF7FEAA1
:10102000236C11D001B052EA530C18BF90EA010FA3
:1010300058BFB2EB030088BFC81738BF6FEAE17032
:1010400018BF40F0010070477FEA226C02D15FEACE
:10105000402C05D17FEA236CE4D15FEA412CE1D03A
:101060005DF8040B704700BF844608466146FFE701
:101070000FB5FFF7C9FF002848BF10F1000F0FBDE3
:101080004DF808EDFFF7F4FF0CBF012000205DF8DC
:1010900008FB00BF4DF808EDFFF7EAFF34BF012061
:1010A00000205DF808FB00BF4DF808EDFFF7E0FFFA
:1010B00094BF012000205DF808FB00BF4DF808ED4B
:1010C000FFF7D2FF94BF012000205DF808FB00BFAE
:1010D0004DF808EDFFF7C8FF34BF012000205DF890
:1010E00008FB00BF4FEA40024FEA41037FEA226C4F
:1010F00002D15FEA402C08D17FEA236C02D15FEA7B
:10110000412C02D14FF0000070474FF001007047B2
:101110004FEA4002B2F1FE4F0FD34FF09E03B3EB04
:1011200012620DD94FEA002343F0004310F0004F44
:1011300023FA02F018BF404270474FF0000070479A
:1011400012F1610F01D1420205D110F0004008BF39
:101150006FF0004070474FF00000704780B584B0DA
:1011600000AFF860B9607A607B689AB24FF0FF33E5
:10117000B968044803F070FA7B6818461037BD461A
:1011800080BD00BF5004002080B590B000AF01F0DA
:10119000CFFC00F089F800F07BF900F053F900F083
:1011A00027F900F0E9FC00F0F9F800F0CDF8344838
:1011B00000F0C0FD0346002B01D000F029FD3148AE
:1011C00005F052F900F08AFC00F0DAF92E4B1B789A
:1011D000DBB2002B08D02C4B00221A702B4800F0F9
:1011E0005FFB2B4805F040F900F088FE0346002B1A
:1011F0000DD03B460A21184600F0B0FE0346002BF6
:1012000003D13B46184600F0E5FB00F097FE01F0E5
:10121000E7FC02461F4B1B68D31A42F20F7293423F
:1012200016D901F0DDFC03461A4A136000F056FCA3
:10123000194800F0C3FD0346002B09D1164BD3F823
:1012400014310133144AC2F81431144805F00CF972
:1012500001F0C6FC0246124B1B68D31AB3F5FA7FA5
:1012600009D34FF400510F4802F04EFA01F0B8FCD8
:1012700003460B4A13600A2001F0BCFCA4E700BF40
:1012800098040020988B0008680500206C05002059
:10129000B48B0008E005002000000020D08B00087F
:1012A000E40500200010014080B594B000AF07F1C4
:1012B000280328220021184605F0EAF907F1140353
:1012C00000221A605A609A60DA601A613B1D00229F
:1012D0001A605A609A60DA600223BB620123BB6322
:1012E0001023FB6300237B6407F12803184602F0F8
:1012F00025FA0346002B01D000F08AFC0F237B6106
:101300000023BB610023FB6100233B6200237B625F
:1013100007F114030021184602F092FC0346002B4B
:1013200001D000F075FC02237B600023FB603B1DB5
:10133000184602F013FE0346002B01D000F068FCB3
:1013400000BF5037BD4680BD80B500AF114B124A7B
:101350001A60104B4FF4E1325A600E4B00229A6033
:101360000C4B0022DA600B4B00221A61094B0C2255
:101370005A61084B00229A61064B0022DA61054847
:1013800003F01AF90346002B01D000F041FC00BF26
:1013900080BD00BF080400200038014080B500AFC8
:1013A000114B124A1A60104B4FF4E1325A600E4B47
:1013B00000229A600C4B0022DA600B4B00221A616B
:1013C000094B0C225A61084B00229A61064B0022FD
:1013D000DA61054803F0F0F80346002B01D000F075
:1013E00017FC00BF80BD00BF500400200044004037
:1013F00080B500AF114B124A1A60104B4FF41652D1
:101400005A600E4B00229A600C4B0022DA600B4BA4
:1014100000221A61094B0C225A61084B00229A6182
:10142000064B0022DA61054803F0C6F80346002B9C
:1014300001D000F0EDFB00BF80BD00BF980400208C
:101440000048004080B582B000AF104B5B690F4A86
:1014500043F0010353610D4B5B6903F001037B60B3
:101460007B68002200210C2001F0D5FC0C2001F04B
:10147000EEFC002200210D2001F0CDFC0D2001F03A
:10148000E6FC00BF0837BD4680BD00BF001002402B
:1014900080B588B000AF07F1100300221A605A60CF
:1014A0009A60DA60334B9B69324A43F010039361D0
:1014B000304B9B6903F01003FB60FB682D4B9B696D
:1014C0002C4A43F0200393612A4B9B6903F02003CD
:1014D000BB60BB68274B9B69264A43F004039361BA
:1014E000244B9B6903F004037B607B68214B9B6961
:1014F000204A43F0080393611E4B9B6903F00803E5
:101500003B603B6800224FF400511B4802F0E4F8B6
:1015100000220121194802F0DFF84FF400533B612B
:1015200001237B610023BB610223FB6107F11003F0
:101530001946114801F04CFF01233B6101237B61F7
:101540000023BB610223FB6107F1100319460B481E
:1015500001F03EFF02233B6100237B610023BB615E
:1015600007F110031946054801F032FF00BF20378C
:10157000BD4680BD0010024000100140000801403F
:1015800080B582B000AFF91D00230122204803F08E
:10159000EEF80346002B36D11E4B1B78002B02D0F1
:1015A000012B14D02FE0FB79AA2B29D11A4B002252
:1015B0001A80194B1B885A1C91B2174A11801A467F
:1015C000F979164B9954134B01221A7018E0124BFB
:1015D0001B88392B09D8104B1B885A1C91B20E4A14
:1015E00011801A46F9790D4B99540B4B1B88392BF6
:1015F00008D90A4800F076F8064B00221A7001E07C
:1016000000BF00E000BF00BF0837BD4680BD00BF7F
:1016100008040020DC050020DA050020A0050020D9
:1016200080B485B000AF78600B467B800023FB73ED
:101630000023BB8109E0BB897A6813441A78FB7BDD
:101640005340FB73BB890133BB81BA897B889A42C3
:10165000F1D3FB7B18461437BD4680BC70470000B1
:1016600080B584B000AF78607B681B78AA2B04D16A
:101670007B6893F83930552B04D0174804F0F4FEFA
:10168000002325E07B685B78012B04D0134804F02D
:10169000EBFE00231CE03623FB817B680133FA89D3
:1016A00011461846FFF7BCFF03467B737B6893F82F
:1016B00038307A7B9A420AD07B6893F838301946E2
:1016C0007B7B1A46064804F067FE002300E00123F6
:1016D00018461037BD4680BDF48B00080C8C0008FE
:1016E000288C00082DE9B04386B004AF7860786894
:1016F000FFF7B6FF034683F00103DBB2002B03D0F4
:10170000594804F0B1FEABE0584804F0ADFE7B68E8
:101710005B681846FEF792FE02460B46544804F0FA
:101720003BFE7B681B899BB219467B685B899BB239
:101730001A467B689B899BB218467B68DB899BB203
:10174000009303464B4804F027FE7B681B6918464C
:10175000FEF774FE804689467B685B691846FEF793
:101760006DFE04460D467B689B691846FEF766FED3
:1017700002460B46CDE90223CDE9004542464B46E1
:101780003D4804F009FE7B68DB691846FEF756FE0B
:10179000804689467B681B6A1846FEF74FFE044662
:1017A0000D467B685B6A1846FEF748FE02460B460C
:1017B000CDE90223CDE9004542464B462F4804F0CF
:1017C000EBFD7B689B6A1846FEF738FE804689462B
:1017D0007B68DB6A1846FEF731FE04460D467B68DF
:1017E0001B6B1846FEF72AFE02460B46CDE9022384
:1017F000CDE9004542464B46214804F0CDFD7B68CB
:101800005B6B1846FEF71AFE02460B461D4804F0B5
:10181000C3FD7B685B681C4A13607B680833082241
:1018200019461A4804F0D5FF7B6810330C2219467C
:10183000174804F0CEFF7B681C330C22194615486C
:1018400004F0C7FF7B6828330C221946124804F0C5
:10185000C0FF7B685B6B0C4A1363104B01221A704C
:101860000837BD46BDE8B0835C8C0008808C00085A
:10187000A08C0008B48C0008D48C0008FC8C0008F4
:10188000208D0008448D00086C05002070050020A4
:1018900078050020840500209005002068050020C0
:1018A000B0B582B000AF7860454B464A92E803007D
:1018B00018600433198002330A0C1A707B681B68A5
:1018C0001846FFF725FC03463F4AD3657B689B8893
:1018D0001A463D4BDA647B68DB881A463A4B1A6538
:1018E0007B681B891A46384B5A657B685B891A46A8
:1018F000354B9A657B680C330C221946334804F04B
:1019000068FF7B68DA697B681B6A1946104606F037
:1019100011FF03461846FEF791FD27A3D3E90023E4
:10192000FEF7E4FD02460B4610461946FFF7B6F8EF
:101930000346254A93637B689B6983F000447B6878
:10194000DA697B68DB6919461046FFF705FA03463A
:101950001D467B681A6A7B681B6A19461046FFF7AA
:10196000FBF9034619462846FFF7EEF803461846EA
:1019700006F0E2FE03461946204606F0DBFE03466B
:101980001846FEF75BFD0CA3D3E90023FEF7AEFD7E
:1019900002460B4610461946FFF780F803460A4AEE
:1019A00053637B68DB6A084AD363094804F05CFD33
:1019B00000BF0837BD46B0BDF8C1631ADCA54C4076
:1019C000240000205C8D0008000000204000002062
:1019D000648D000880B584B000AF786079680E48E7
:1019E00004F0DAFC0F2279680C4804F059FE01F08B
:1019F000F7F803460A4AA2FB03239B09FB60FB6836
:101A0000084A2021084804F037FD786800F00EF8F5
:101A100000BF1037BD4680BD948D000878010020BE
:101A2000D34D6210AC8D000888010020B0B582B0A3
:101A300000AF78601F4B204A07CA03C31A801F49B2
:101A40007868FEF785FB0346002B0DD11C4804F097
:101A50000BFD00F043F8174A1A4B14461D460FCDF4
:101A60000FC42B68238020E017497868FEF770FBCD
:101A70000346002B0FD1154804F0F6FC0D4A144B19
:101A800014460FCB07C423704FF47A7001F0B2F8FC
:101A900001F0EBF909E079680E4804F07DFC054A95
:101AA0000D4B14460FCB84E80F0000BF0837BD462E
:101AB000B0BD00BFA8010020B48D0008C08D000893
:101AC000CC8D0008E48D0008F88D0008048E000815
:101AD0001C8E00082C8E0008448E000880B582B051
:101AE00000AF1B4B1B4A92E80300186004331980B7
:101AF00002330A0C1A7017491748FEF729FB0346F0
:101B0000002B0DD113491548FEF722FB0346002B8D
:101B100006D1134B134A92E8030083E8030004E064
:101B20000F4B114A07CA03C31A7001F059F8034654
:101B30000E4AA2FB03239B097B607B680C4A14219D
:101B40000C4804F099FC00BF0837BD4680BD00BFBB
:101B5000F00000205C8D000824000020B000002070
:101B600014000020548E00085C8E0008D34D6210D3
:101B7000AC8D00080000002080B586B000AF07F1F2
:101B8000080300221A605A609A60DA603B4600221D
:101B90001A605A601D4B4FF080421A601B4B0022A6
:101BA0005A601A4B00229A60184B4FF0FF32DA60ED
:101BB000164B00221A61154B00229A61134802F05D
:101BC00083FA0346002B01D000F022F84FF4805333
:101BD000BB6007F1080319460C4802F0C4FA03463B
:101BE000002B01D000F014F800233B6000237B6041
:101BF0003B461946054802F081FC0346002B01D004
:101C000000F006F800BF1837BD4680BDC0030020B5
:101C100080B500AF074804F027FC72B600BF4FF450
:101C20000051054801F070FD642000F0E3FF00BFA3
:101C3000F5E700BF688E00080010014080B584B051
:101C400000AF7860194B1B78DBB25A1C184B83FB32
:101C500002135910D317C91A0B469B000B44D11A13
:101C60000B46FB73134B1B78DBB2FA7B9A4218D0FE
:101C70000E4B1B78DBB29B010F4A13443F2279685D
:101C8000184604F00DFD094B1B78DBB20A4A9B0194
:101C900013443F3300221A70044AFB7B1370012364
:101CA00000E0002318461037BD4680BDBC07002069
:101CB00067666666BD0700207C06002080B582B09E
:101CC00000AF7860174B1B78DAB2174B1B78DBB28A
:101CD0009A4221D0144B1B78DBB29B01134A134468
:101CE0003F221946786804F0DBFC7B683F33002212
:101CF0001A700D4B1B78DBB25A1C0D4B83FB021381
:101D00005910D317C91A0B469B000B44D11ACAB2FB
:101D1000054B1A70012300E0002318460837BD4622
:101D200080BD00BFBC070020BD0700207C0600204E
:101D30006766666680B582B000AF78604022002199
:101D4000154804F0A5FC40220021144804F0A0FC32
:101D50004FF4A0720021124804F09AFC114B0022AB
:101D60001A80114B00221A70104B00221A70104B6F
:101D700000221A700F4B00221A7001220E49786857
:101D800002F0FCFD0346002B01D0012300E00023FC
:101D900018460837BD4680BD2C060020EC05002003
:101DA0007C0600206E060020E80500207106002059
:101DB000BC070020BD0700206C06002080B584B061
:101DC00000AF78602B4B1B78DBB2002B08D0294B7F
:101DD0001B78DBB21946284804F0DEFA022344E0FF
:101DE0004FF400620021254804F052FC2349786832
:101DF00000F01EF92148FEF7B5F90346FB81204BA0
:101E000093F84130DBB2202B09D01D4B93F84130C1
:101E1000DBB219461B4804F0BFFA022325E0FB8918
:101E20001946194804F0B8FA124B01221A70174BE0
:101E3000124A1A60164AFB891380FB891A460F4919
:101E40000F4802F02BFD03467B737B7B002B0BD0EE
:101E50007B7B0B4A526C19460E4804F09DFA054BE9
:101E600000221A70012300E0002318461037BD46F7
:101E700080BD00BF71060020808E0008C0070020D2
:101E800098040020AC8E0008D08E00087406002054
:101E900078060020F48E000880B500AF0F4804F0EB
:101EA000E3FA0F4802F08FFD0E4B00221A70402219
:101EB00000210D4804F0ECFB402200210B4804F007
:101EC000E7FB0B4B00221A800A4B00221A700122FA
:101ED0000949034802F052FD00BF80BD308F000861
:101EE00098040020710600202C060020EC0500203C
:101EF0006E060020E80500206C06002080B400AFCC
:101F00000B4B1B78DBB2002B07D10A4B1B78DAB2E4
:101F1000094B1B78DBB29A4201D0012300E0002379
:101F200003F00103DBB21846BD4680BC704700BF1A
:101F3000E8050020BC070020BD07002080B400AFEA
:101F4000044B00221A70044B00221A7000BFBD46D9
:101F500080BC7047E80500207006002080B584B082
:101F600000AF786039607868FFF7A8FE0346002B61
:101F700005D07968294804F00FFA002349E0284B7E
:101F80001B78DBB2002B0AD03F222649786804F088
:101F900087FB7B683F3300221A70002339E000F092
:101FA0001FFEF8600CE000F01BFE0246FB68D31A2F
:101FB0003A689A4201D203232BE0012000F01AFE76
:101FC000174B1B78DBB283F00103DBB2002B07D089
:101FD000154B1B78DAB2154B1B78DBB29A42E2D074
:101FE0007868FFF76BFE0346002B01D0002310E05A
:101FF0000B4B1B78DBB2002B0AD03F2209497868D3
:1020000004F04EFB7B683F3300221A70002300E08F
:10201000032318461037BD4680BD00BF588F000807
:10202000E8050020EC050020BC070020BD070020CB
:102030002DE9F04FE7B038AFC7F8B400C7F8B010DB
:10204000D7F8B430C7F8AC30D7F8B43003F1140285
:10205000C7F8A820D7F8B43003F12401C7F8A410BA
:10206000D7F8B4305B6B1846FEF7E8F9C7E92601EC
:10207000D7F8B4309B6B1846FEF7E0F9C7E92401A6
:10208000D7F8B430DB6B1846FEF7D8F9C7E9220160
:10209000D7F8B4301B6C1846FEF7D0F9C7E9200119
:1020A000D7F8B4305B6C1846FEF7C8F9C7E91E01D3
:1020B000D7F8B4309B6C1846FEF7C0F9C7E91C018D
:1020C000D7F8B430DC6CC7F8A040D7F8B4301D6D39
:1020D000FD66D7F8B4305E6DBE66D7F8B430D3F87D
:1020E00058C0C7F864C0D7F8B430D3F85CE0C7F87C
:1020F00060E0D7F8B43003F17808C7F85C80D7F80F
:10210000B430D3F888301846FEF798F9C7E91401BF
:10211000D7F8B430D3F88C90C7F85890D7F8B430CB
:10212000D3F890301846FEF789F9C7E91201D7F8BD
:10213000B430D3F894301846FEF780F982468B46C7
:10214000D7F8B43003F198017964D7F8B430D3F8F4
:10215000A8403C64D7F8B430D3F8AC50FD63D7F84E
:10216000B43003F1B006BE63D7F8B43003F1C00C4D
:10217000C7F834C0D7F8B430D3F8D0E0C7F830E0AF
:10218000D7F8B43003F1D408C7F82C80D7F8B430AE
:1021900003F1DC09C7F82890D7F8B430D3F8EC3055
:1021A0007B62D7F8B43003F1F0013962D7F8B4306C
:1021B00003F58074FC61D7F8B430D3F81051BD61D9
:1021C000D7F8B430D3F814617E61D7F8B430D3F8BF
:1021D00018C1C7F810C0D7F8B43003F58E7EC7F821
:1021E0000CE0D7F8B43003F59678C7F80880D7F834
:1021F000B43003F59E79C7F80490D7F8B430D3F81B
:102200004C61D7F8B430D3F850311846FEF716F9C0
:1022100080468946D7F8B43003F5AA75D7F8B430AC
:10222000D3F874311846FEF709F9D7F8B43003F53E
:10223000BC74D7F8B43003F5C472D7F8B43003F5E2
:10224000D473369335923494CDE932013095CDE98B
:102250002E892D96D7F80490CDF8B090D7F8088045
:10226000CDF8AC80D7F80CE0CDF8A8E0D7F810C0D6
:10227000CDF8A4C07E692896BD692795FC6926948F
:10228000396A25917B6A2493D7F82890CDF88C90F1
:10229000D7F82C80CDF88880D7F830E0CDF884E0EE
:1022A000D7F834C0CDF880C0BE6B1F96FD6B1E956D
:1022B0003C6C1D94796C1C91CDE91AABD7E91223C3
:1022C000CDE91823D7F85890CDF85890D7E91423C2
:1022D000CDE91423D7F85C80CDF84C80D7F860E0C6
:1022E000CDF848E0D7F864C0CDF844C0BE6E109673
:1022F000FD6E0F95D7F8A0400E94D7E91C23CDE9C9
:102300000C23D7E91E23CDE90A23D7E92023CDE901
:102310000823D7E92223CDE90623D7E92423CDE9F1
:102320000423D7E92623CDE90223D7F8A41001918D
:10233000D7F8A8200092D7F8AC30064A4FF40061D5
:10234000D7F8B00004F098F800BFBC37BD46BDE830
:10235000F08F00BF7C8F000880B582B000AF78603E
:102360007B681B68184A934229D1184804F07CF80E
:10237000174B00221A70174B1B78DAB2164B1B78DA
:10238000DBB29A421BD0134B1B78DBB21A46124BBE
:102390001B78DBB2D31A5A1D104B83FB0213591062
:1023A000D317C91A0B469B000B44D11A0C4803F0F3
:1023B000F3FF0C4B01221A700B4B01221A7000BF65
:1023C0000837BD4680BD00BF00480040D0920008DD
:1023D00071060020BC070020BD0700206766666606
:1023E000F0920008E80500207006002080B592B049
:1023F00000AF78607B681B68414A93427BD1414BB8
:102400001B780A2B03D03F4B1B780D2B4BD13E4B37
:102410001B88002B6AD03C4B1B881A463B4B002183
:10242000995407F108033F223849184604F038F957
:10243000002387F84730344B1B881A4607F10803FE
:102440001946334803F0A8FF324B1B78DBB2012B4F
:102450000FD107F108031846FFF7F0FB0346002BE6
:1024600003D02D4804F000F814E02C4803F0FCFFE2
:1024700010E007F108033F221946294804F010F93B
:10248000274B002283F83F20264B01221A70264B4F
:1024900001221A70402200211C4804F0F9F81A4B5E
:1024A00000221A8022E0174B1B781F2B1ED9154BD8
:1024B0001B787E2B1AD8144B1B883E2B0BD8124B43
:1024C0001B885A1C91B2104A11801A460D4B19787C
:1024D0000E4B99540AE0154803F0C6FF4022002134
:1024E0000A4804F0D5F8084B00221A800122054959
:1024F0000F4802F043FA00BF4837BD4680BD00BF19
:10250000004800406C0600206E0600202C060020CB
:102510002093000871060020489300087493000877
:10252000EC050020E805002070060020A0930008BC
:102530009804002080B586B000AF78607B681B6887
:102540001E4A934236D17B685B6C19461C4803F0E7
:1025500023FF00237B617B681B681B687B617B68B2
:102560001B685B687B617B6900233B617B681B6840
:102570001B683B617B681B685B683B613B690023B0
:10258000FB607B681B681B68FB607B681B685B6883
:10259000FB60FB680023BB607B681B681B68BB603B
:1025A0007B681B685B68BB60BB68064B00221A70C7
:1025B000FFF772FC00BF1837BD4680BD00480040E1
:1025C000C49300087106002080B485B000AF154B9D
:1025D0009B69144A43F001039361124B9B6903F01A
:1025E0000103BB60BB680F4BDB690E4A43F08053AD
:1025F000D3610C4BDB6903F080537B607B680A4B33
:102600005B68FB60FB6823F0E063FB60FB6843F002
:102610000073FB60044AFB68536000BF1437BD467B
:1026200080BC7047001002400000014080B485B0BB
:1026300000AF78607B681B68B3F1804F0BD1084B0B
:10264000DB69074A43F00103D361054BDB6903F003
:102650000103FB60FB6800BF1437BD4680BC7047B8
:102660000010024080B58CB000AF786007F1200305
:1026700000221A605A609A60DA607B681B687F4AA1
:10268000934232D17E4B9B697D4A43F480439361F0
:102690007B4B9B6903F48043FB61FB69784B9B692F
:1026A000774A43F004039361754B9B6903F004037D
:1026B000BB61BB694FF400733B6202237B6203235F
:1026C000FB6207F1200319466E4800F081FE4FF4CB
:1026D00080633B6200237B620023BB6207F120031F
:1026E0001946684800F074FEC3E07B681B68664AC0
:1026F000934230D1624BDB69614A43F40033D361CA
:102700005F4BDB6903F400337B617B695C4B9B6946
:102710005B4A43F004039361594B9B6903F0040344
:102720003B613B6904233B6202237B620323FB6220
:1027300007F120031946534800F04AFE08233B6284
:1027400000237B620023BB6207F1200319464D483A
:1027500000F03EFE8DE07B681B684C4A934240F0DF
:102760008880474BDB69464A43F48023D361444B5E
:10277000DB6903F48023FB60FB68414B9B69404AA3
:1027800043F0080393613E4B9B6903F00803BB6071
:10279000BB684FF480633B6202237B620323FB62CE
:1027A00007F1200319463A4800F012FE4FF4006387
:1027B0003B6200237B620023BB6207F120031946C2
:1027C000334800F005FE334B334A1A60314B002288
:1027D0005A60304B00229A602E4B8022DA602D4BDB
:1027E00000221A612B4B00225A612A4B20229A6147
:1027F000284B4FF48052DA61264800F047FB03462D
:10280000002B01D0FFF704FA7B68224ADA63214AE1
:102810007B685362214B224A1A60204B10225A6077
:102820001E4B00229A601D4B8022DA601B4B002257
:102830001A611A4B00225A61184B00229A61174BF9
:102840004FF48052DA61154800F020FB0346002B5C
:1028500001D0FFF7DDF97B68104A9A630F4A7B6865
:10286000536200220021272000F0D5FA272000F033
:10287000EEFA00BF3037BD4680BD00BF00380140D2
:1028800000100240000801400044004000480040A1
:10289000000C0140E004002030000240240500202C
:1028A0001C00024080B500AF4FF40051034800F017
:1028B0002BFF642000F09EF900BFF5E700100140F7
:1028C00080B500AF064803F0CFFD4FF40051054836
:1028D00000F01AFF642000F08DF900BFF5E700BF9B
:1028E000E09300080010014080B500AF064803F0F7
:1028F000BBFD4FF40051054800F006FFC82000F072
:1029000079F900BFF5E700BFFC9300080010014013
:1029100080B400AF00BFFDE780B400AF00BFFDE7AB
:1029200080B400AF00BFBD4680BC704780B400AF2C
:1029300000BFBD4680BC704780B400AF00BFBD463D
:1029400080BC704780B500AF00F038F900BF80BD93
:1029500080B500AF024800F007FC00BF80BD00BF9B
:102960002405002080B500AF024800F0FDFB00BF49
:1029700080BD00BFE004002080B500AF024802F037
:10298000A1F800BF80BD00BF9804002080B400AF54
:1029900001231846BD4680BC704780B582B000AFA9
:1029A0007860396003F0DAFE034616221A604FF0B1
:1029B000FF3318460837BD4680BD80B582B000AFF2
:1029C00078604FF0FF317868FFF7E7FF00BFFDE761
:1029D00080B586B000AFF860B9607A6000237B6193
:1029E0000AE0AFF300800146BB685A1CBA60CAB265
:1029F0001A707B6901337B617A697B689A42F0DBEC
:102A00007B6818461837BD4680BD80B483B000AFE0
:102A100078604FF0FF3318460C37BD4680BC7047D6
:102A200080B483B000AF786039603B684FF40052E7
:102A30005A60002318460C37BD4680BC704780B4EE
:102A400083B000AF7860012318460C37BD4680BCC8
:102A5000704780B485B000AFF860B9607A60002339
:102A600018461437BD4680BC7047000080B586B05C
:102A700000AF7860144A154BD31A7B617B693B61C8
:102A8000134B1B68002B02D1114B124A1A60104BDA
:102A90001A687B6813443A699A4207D203F05EFED3
:102AA00003460C221A604FF0FF3309E0084B1B6805
:102AB000FB60074B1A687B681344054A1360FB6888
:102AC00018461837BD4680BD0050002000040000A5
:102AD000C00F00201811002080B400AF00BFBD4619
:102AE00080BC7047FFF7F8FF0B480C490C4A0023E5
:102AF00002E0D458C4500433C4188C42F9D3094AB4
:102B0000094C002301E013600432A242FBD303F01E
:102B10002BFEFEF739FB704700000020A4030020C5
:102B200000980008A403002014110020FEE7000014
:102B300080B500AF084B1B68074A43F010031360D1
:102B4000032000F05DF90F2000F008F8FFF73CFDCE
:102B50000023184680BD00BF0020024080B582B02F
:102B600000AF7860124B1A68124B1B7819464FF46D
:102B70007A73B3FBF1F3B2FBF3F3184600F079F983
:102B80000346002B01D001230EE07B680F2B0AD8EF
:102B9000002279684FF0FF3000F03DF9064A7B686B
:102BA0001360002300E0012318460837BD4680BDAE
:102BB000C8010020D0010020CC01002080B400AF6B
:102BC000054B1B781A46054B1B681344034A1360D8
:102BD00000BFBD4680BC7047D0010020C40F00205C
:102BE00080B400AF024B1B681846BD4680BC7047DE
:102BF000C40F002080B584B000AF7860FFF7F0FF0D
:102C0000B8607B68FB60FB68B3F1FF3F05D00A4BFF
:102C10001B781A46FB681344FB6000BFFFF7E0FF18
:102C20000246BB68D31AFA689A42F7D800BF00BFC1
:102C30001037BD4680BD00BFD001002080B485B0F4
:102C400000AF78607B6803F00703FB600C4BDB6828
:102C5000BB60BA684FF6FF031340BB60FB681A0203
:102C6000BB68134343F0BF6343F40033BB60044AC3
:102C7000BB68D36000BF1437BD4680BC704700BF3F
:102C800000ED00E080B400AF044BDB681B0A03F0EA
:102C900007031846BD4680BC704700BF00ED00E04A
:102CA00080B483B000AF0346FB7197F90730002B67
:102CB0000BDBFB7903F01F02064997F907305B092C
:102CC000012000FA02F241F8232000BF0C37BD4674
:102CD00080BC704700E100E080B483B000AF0346E1
:102CE0003960FB7197F90730002B0ADB3B68DAB2D9
:102CF0000C4997F907301201D2B20B4483F8002334
:102D00000AE03B68DAB20849FB7903F00F03043BA1
:102D10001201D2B20B441A7600BF0C37BD4680BCFC
:102D2000704700BF00E100E000ED00E080B489B032
:102D300000AFF860B9607A60FB6803F00703FB61DD
:102D4000FB69C3F10703042B28BF0423BB61FB69A4
:102D50000433062B02D9FB69033B00E000237B61AF
:102D60004FF0FF32BB6902FA03F3DA43BB681A4043
:102D70007B699A404FF0FF317B6901FA03F3D94335
:102D80007B680B40134318462437BD4680BC704710
:102D900080B400AFBFF34F8F00BF064BDB6803F476
:102DA000E0620449044B1343CB60BFF34F8F00BF75
:102DB00000BFFDE700ED00E00400FA0580B582B039
:102DC00000AF78607B68013BB3F1807F01D30123C2
:102DD0000FE00A4A7B68013B53600F214FF0FF3040
:102DE000FFF77AFF054B00229A60044B07221A6016
:102DF000002318460837BD4680BD00BF10E000E044
:102E000080B582B000AF78607868FFF717FF00BF29
:102E10000837BD4680BD80B586B000AF0346B960B7
:102E20007A60FB7300237B61FFF72CFF78617A687F
:102E3000B9687869FFF77AFF024697F90F301146B3
:102E40001846FFF749FF00BF1837BD4680BD80B563
:102E500082B000AF0346FB7197F907301846FFF7C1
:102E60001FFF00BF0837BD4680BD80B500AFFFF72C
:102E70008FFF80B582B000AF78607868FFF79EFF63
:102E8000034618460837BD4680BD000080B485B0B3
:102E900000AF78600023FB607B68002B01D1012329
:102EA00043E07B681B681A46224B1344224AA2FB6C
:102EB00003231B099A007B681A647B681F4ADA6344
:102EC0007B68022283F821207B681B681B68FB60FB
:102ED000FB6823F47F5323F03003FB607B685A6860
:102EE0007B689B681A437B68DB681A437B681B69B5
:102EF0001A437B685B691A437B689B691A437B684A
:102F0000DB691343FA681343FB607B681B68FA684C
:102F10001A607B6800229A637B68012283F8212073
:102F20007B68002283F82020002318461437BD4612
:102F300080BC7047F8FFFDBFCDCCCCCC0000024078
:102F400080B586B000AFF860B9607A603B6000235E
:102F5000FB75FB6893F82030012B01D102234BE075
:102F6000FB68012283F82020FB6893F82130DBB254
:102F7000012B3AD1FB68022283F82120FB68002252
:102F80009A63FB681B681A68FB681B6822F00102E1
:102F90001A603B687A68B968F86800F0EBF9FB687A
:102FA000DB6A002B08D0FB681B681A68FB681B688B
:102FB00042F00E021A600FE0FB681B681A68FB689B
:102FC0001B6822F004021A60FB681B681A68FB6821
:102FD0001B6842F00A021A60FB681B681A68FB68EB
:102FE0001B6842F001021A6005E0FB68002283F8CA
:102FF00020200223FB75FB7D18461837BD4680BD97
:1030000080B485B000AF78600023FB737B6893F8D1
:103010002130DBB2022B08D07B6804229A637B68E4
:10302000002283F82020012320E07B681B681A68B7
:103030007B681B6822F00E021A607B681B681A68A6
:103040007B681B6822F001021A607B681A6C7B683F
:10305000DB6B012101FA02F25A607B68012283F8DE
:1030600021207B68002283F82020FB7B1846143740
:10307000BD4680BC7047000080B584B000AF78606A
:103080000023FB737B6893F82130DBB2022B05D061
:103090007B6804229A630123FB7351E07B681B6801
:1030A0001A687B681B6822F00E021A607B681B6836
:1030B0001A687B681B6822F001021A607B681B6833
:1030C000224A934229D07B681B68214A934222D02E
:1030D0007B681B681F4A93421AD07B681B681E4A94
:1030E000934212D07B681B681C4A93420AD07B68CB
:1030F0001B681B4A934202D14FF480130EE04FF03D
:1031000080730BE04FF4803308E04FF4805305E008
:103110004FF4807302E0102300E00123114A536052
:103120007B68012283F821207B68002283F820201D
:103130007B685B6B002B03D07B685B6B7868984780
:10314000FB7B18461037BD4680BD00BF080002401B
:103150001C0002403000024044000240580002407F
:103160006C0002400000024080B584B000AF78607F
:103170007B68DB6B1B68FB607B681B681B68BB6044
:103180007B681B6C04229A40FB681340002B4FD0D5
:10319000BB6803F00403002B4AD07B681B681B68E4
:1031A00003F02003002B07D17B681B681A687B683B
:1031B0001B6822F004021A607B681B68664A93420F
:1031C00029D07B681B68654A934222D07B681B68C4
:1031D000634A93421AD07B681B68624A934212D0BA
:1031E0007B681B68604A93420AD07B681B685F4A11
:1031F000934202D14FF480030EE04FF080630BE066
:103200004FF4802308E04FF4804305E04FF48063DF
:1032100002E0402300E00423554A53607B68DB6AE8
:10322000002B00F094807B68DB6A786898478EE01A
:103230007B681B6C02229A40FB681340002B56D01F
:10324000BB6803F00203002B51D07B681B681B682E
:1032500003F02003002B0BD17B681B681A687B6886
:103260001B6822F00A021A607B68012283F8212081
:103270007B681B68384A934229D07B681B68374AB1
:10328000934222D07B681B68354A93421AD07B68F0
:103290001B68344A934212D07B681B68324A9342BF
:1032A0000AD07B681B68314A934202D14FF4001365
:1032B0000EE04FF000730BE04FF4003308E04FF4E2
:1032C000005305E04FF4007302E0202300E00223E6
:1032D000274A53607B68002283F820207B689B6A22
:1032E000002B34D07B689B6A786898472FE07B6816
:1032F0001B6C08229A40FB681340002B28D0BB6847
:1033000003F00803002B23D07B681B681A687B68D6
:103310001B6822F00E021A607B681A6C7B68DB6BFC
:10332000012101FA02F25A607B6801229A637B68EC
:10333000012283F821207B68002283F820207B680B
:103340001B6B002B04D07B681B6B7868984700BF11
:1033500000BF1037BD4680BD080002401C0002407F
:103360003000024044000240580002406C0002401D
:103370000000024080B485B000AFF860B9607A60A8
:103380003B60FB681A6CFB68DB6B012101FA02F2FF
:103390005A60FB681B683A685A60FB685B68102BD0
:1033A00008D1FB681B687A689A60FB681B68BA687A
:1033B000DA6007E0FB681B68BA689A60FB681B6804
:1033C0007A68DA6000BF1437BD4680BC70470000E1
:1033D00080B48BB000AF7860396000237B6200233B
:1033E0003B6269E101227B6A02FA03F3FB613B68FD
:1033F0001B68FA691340BB61BA69FB699A4240F0E5
:1034000058813B685B689A4A93425ED0984A9342DF
:1034100075D8984A934258D0964A93426FD8964AA4
:10342000934252D0944A934269D8944A93424CD0E2
:10343000924A934263D8924A934246D0904A93422A
:103440005DD8122B2AD8122B59D801A252F823F09A
:10345000CB340008A5340008B7340008F93400085C
:10346000FF340008FF340008FF340008FF34000870
:10347000FF340008FF340008FF340008FF34000860
:10348000FF340008FF340008FF340008FF34000850
:10349000FF340008AD340008C1340008794A934273
:1034A00013D02CE03B68DB683B6229E03B68DB68BB
:1034B00004333B6224E03B68DB6808333B621FE077
:1034C0003B68DB680C333B621AE03B689B68002B6F
:1034D00002D104233B6213E03B689B68012B05D1BA
:1034E00008233B627B68FA691A6109E008233B62A2
:1034F0007B68FA695A6103E000233B6200E000BF89
:10350000BB69FF2B01D87B6801E07B6804337B61DA
:10351000BB69FF2B02D87B6A9B0002E07B6A083BF9
:103520009B003B617B691A680F213B6901FA03F339
:10353000DB431A40396A3B6901FA03F31A437B699A
:103540001A603B685B6803F08053002B00F0B18089
:103550004D4B9B694C4A43F0010393614A4B9B6975
:1035600003F00103BB60BB68484A7B6A9B080233D7
:1035700052F82330FB607B6A03F003039B000F22A9
:1035800002FA03F3DB43FA681340FB607B68404AAE
:10359000934213D07B683F4A93420DD07B683E4AEA
:1035A000934207D07B683D4A934201D1032306E052
:1035B000042304E0022302E0012300E000237A6AEE
:1035C00002F0030292009340FA681343FB602F4914
:1035D0007B6A9B080233FA6841F823203B685B68EA
:1035E00003F48013002B06D02D4B9A682C49BB693D
:1035F00013438B6006E02A4B9A68BB69DB4328497A
:1036000013408B603B685B6803F40013002B06D00B
:10361000234BDA682249BB691343CB6006E0204B99
:10362000DA68BB69DB431E491340CB603B685B68CB
:1036300003F40033002B06D0194B5A681849BB69B4
:1036400013434B6006E0164B5A68BB69DB431449D1
:1036500013404B603B685B6803F48033002B21D040
:103660000F4B1A680E49BB6913430B6021E000BF82
:103670000000321000003110000022100000211064
:103680000000121000001110001002400000014064
:1036900000080140000C01400010014000140140EE
:1036A000000401400B4B1A68BB69DB430949134016
:1036B0000B607B6A01337B623B681A687B6A22FA83
:1036C00003F3002B7FF48EAE00BF00BF2C37BD4646
:1036D00080BC70470004014080B483B000AF7860C4
:1036E0000B467B8013467B707B78002B03D07A8857
:1036F0007B681A6103E07B881A047B681A6100BF4B
:103700000C37BD4680BC704780B485B000AF786090
:103710000B467B807B68DB68FB607A88FB68134024
:103720001A04FB68D9437B880B401A437B681A61F3
:1037300000BF1437BD4680BC7047000080B586B01E
:1037400000AF78607B68002B01D1012372E27B68B7
:103750001B6803F00103002B00F08780924B5B682D
:1037600003F00C03042B0CD08F4B5B6803F00C03AD
:10377000082B12D18C4B5B6803F48033B3F5803F88
:103780000BD1894B1B6803F40033002B6CD07B6892
:103790005B68002B68D101234CE27B685B68B3F562
:1037A000803F06D1804B1B687F4A43F4803313600F
:1037B0002EE07B685B68002B0CD17B4B1B687A4A40
:1037C00023F480331360784B1B68774A23F48023FB
:1037D00013601DE07B685B68B3F5A02F0CD1724BC2
:1037E0001B68714A43F4802313606F4B1B686E4A59
:1037F00043F4803313600BE06B4B1B686A4A23F47D
:1038000080331360684B1B68674A23F4802313607E
:103810007B685B68002B13D0FFF7E2F9386108E0A2
:10382000FFF7DEF902463B69D31A642B01D9032363
:1038300000E25D4B1B6803F40033002BF0D014E072
:10384000FFF7CEF9386108E0FFF7CAF902463B6995
:10385000D31A642B01D90323ECE1534B1B6803F407
:103860000033002BF0D100E000BF7B681B6803F041
:103870000203002B63D04C4B5B6803F00C03002B5E
:103880000BD0494B5B6803F00C03082B1CD1464B53
:103890005B6803F48033002B16D1434B1B6803F0A5
:1038A0000203002B05D07B681B69012B01D001238B
:1038B000C0E13D4B1B6823F0F8027B685B69DB00CD
:1038C000394913430B603AE07B681B69002B20D019
:1038D000364B01221A60FFF783F9386108E0FFF7E1
:1038E0007FF902463B69D31A022B01D90323A1E1D8
:1038F0002D4B1B6803F00203002BF0D02A4B1B68F2
:1039000023F0F8027B685B69DB00274913430B60F7
:1039100015E0264B00221A60FFF762F9386108E0D3
:10392000FFF75EF902463B69D31A022B01D9032344
:1039300080E11D4B1B6803F00203002BF0D17B6874
:103940001B6803F00803002B3AD07B689B69002BAF
:1039500019D0174B01221A60FFF742F9386108E0CD
:10396000FFF73EF902463B69D31A022B01D9032324
:1039700060E10D4B5B6A03F00203002BF0D00120E5
:1039800000F0CEFA1CE00A4B00221A60FFF728F97B
:1039900038610FE0FFF724F902463B69D31A022B86
:1039A00008D9032346E100BF001002400000424254
:1039B00080044242924B5B6A03F00203002BE9D180
:1039C0007B681B6803F00403002B00F0A680002333
:1039D000FB758B4BDB6903F08053002B0DD1884BBB
:1039E000DB69874A43F08053D361854BDB6903F081
:1039F0008053BB60BB680123FB75824B1B6803F4DB
:103A00008073002B18D17F4B1B687E4A43F4807370
:103A10001360FFF7E5F8386108E0FFF7E1F80246C8
:103A20003B69D31A642B01D9032303E1754B1B684F
:103A300003F48073002BF0D07B68DB68012B06D188
:103A40006F4B1B6A6E4A43F0010313622DE07B68E3
:103A5000DB68002B0CD16A4B1B6A694A23F0010317
:103A60001362674B1B6A664A23F0040313621CE06F
:103A70007B68DB68052B0CD1614B1B6A604A43F005
:103A8000040313625E4B1B6A5D4A43F00103136239
:103A90000BE05B4B1B6A5A4A23F001031362584B3D
:103AA0001B6A574A23F0040313627B68DB68002B10
:103AB00015D0FFF795F838610AE0FFF791F8024654
:103AC0003B69D31A41F28832934201D90323B1E012
:103AD0004B4B1B6A03F00203002BEED014E0FFF700
:103AE0007FF838610AE0FFF77BF802463B69D31A9A
:103AF00041F28832934201D903239BE0404B1B6A79
:103B000003F00203002BEED1FB7D012B05D13C4BD2
:103B1000DB693B4A23F08053D3617B68DB69002B70
:103B200000F08780364B5B6803F00C03082B61D0F4
:103B30007B68DB69022B46D1334B00221A60FFF70A
:103B40004FF8386108E0FFF74BF802463B69D31A9B
:103B5000022B01D903236DE0294B1B6803F000738E
:103B6000002BF0D17B681B6AB3F5803F08D1244B52
:103B70005B6823F400327B689B68214913434B60E8
:103B80001F4B5B6823F474127B68196A7B685B6A5D
:103B90000B431B4913434B601B4B01221A60FFF779
:103BA0001FF8386108E0FFF71BF802463B69D31A9B
:103BB000022B01D903233DE0114B1B6803F0007376
:103BC000002BF0D035E0104B00221A60FFF708F808
:103BD000386108E0FFF704F802463B69D31A022B6C
:103BE00001D9032326E0064B1B6803F00073002B6A
:103BF000F0D11EE07B68DB69012B07D1012319E0BE
:103C00000010024000700040600042420B4B5B68B5
:103C1000FB60FB6803F480327B681B6A9A4206D122
:103C2000FB6803F470127B685B6A9A4201D001233F
:103C300000E0002318461837BD4680BD0010024042
:103C400080B584B000AF786039607B68002B01D10B
:103C50000123D0E06A4B1B6803F007033A689A42DD
:103C600010D9674B1B6823F0070265493B68134373
:103C70000B60634B1B6803F007033A689A4201D05C
:103C80000123B8E07B681B6803F00203002B20D0FF
:103C90007B681B6803F00403002B05D0594B5B685D
:103CA000584A43F4E06353607B681B6803F00803E1
:103CB000002B05D0534B5B68524A43F4605353606A
:103CC000504B5B6823F0F0027B689B684D491343BF
:103CD0004B607B681B6803F00103002B40D07B68BE
:103CE0005B68012B07D1474B1B6803F40033002BA3
:103CF00015D101237FE07B685B68022B07D1414B24
:103D00001B6803F00073002B09D1012373E03D4BC6
:103D10001B6803F00203002B01D101236BE0394B38
:103D20005B6823F003027B685B68364913434B6092
:103D3000FEF756FFF8600AE0FEF752FF0246FB6806
:103D4000D31A41F28832934201D9032353E02D4B19
:103D50005B6803F00C027B685B689B009A42EBD1C6
:103D6000274B1B6803F007033A689A4210D2244B92
:103D70001B6823F0070222493B6813430B60204B6A
:103D80001B6803F007033A689A4201D0012332E02E
:103D90007B681B6803F00403002B08D0194B5B6899
:103DA00023F4E0627B68DB68164913434B607B6851
:103DB0001B6803F00803002B09D0124B5B6823F447
:103DC00060527B681B69DB000E4913434B6000F0B7
:103DD00021F802460B4B5B681B0903F00F030A49ED
:103DE000CB5C22FA03F3094A1360094B1B6818469F
:103DF000FEF7B4FE002318461037BD4680BD00BF55
:103E000000200240001002401C940008C80100205D
:103E1000CC01002080B487B000AF0023FB600023FA
:103E2000BB6000237B6100237B6000233B611E4B52
:103E30005B68FB60FB6803F00C03042B02D0082BCB
:103E400003D027E0194B3B6127E0FB689B0C03F094
:103E50000F03174AD35C7B60FB6803F48033002BAD
:103E600010D0114B5B685B0C03F00103114AD35C6B
:103E7000BB607B680D4A03FB02F2BB68B2FBF3F345
:103E80007B6104E07B680C4A02FB03F37B617B6986
:103E90003B6102E0054B3B6100BF3B6918461C37A4
:103EA000BD4680BC704700BF0010024000127A007F
:103EB000349400084494000800093D0080B400AF29
:103EC000024B1B681846BD4680BC7047C8010020E5
:103ED00080B500AFFFF7F2FF0246054B5B681B0A97
:103EE00003F007030349CB5C22FA03F3184680BDB5
:103EF000001002402C94000880B500AFFFF7DEFFF1
:103F00000246054B5B68DB0A03F007030349CB5C01
:103F100022FA03F3184680BD001002402C940008DA
:103F200080B485B000AF78600A4B1B680A4AA2FBD8
:103F300003235B0A7A6802FB03F3FB6000BFFB68A4
:103F40005A1EFA60002BF9D100BF00BF1437BD46DE
:103F500080BC7047C8010020D34D621080B586B088
:103F600000AF786000233B610023FB607B681B6827
:103F700003F00103002B7DD00023FB754F4BDB6961
:103F800003F08053002B0DD14C4BDB694B4A43F0BF
:103F90008053D361494BDB6903F08053BB60BB683E
:103FA0000123FB75464B1B6803F48073002B18D16B
:103FB000434B1B68424A43F480731360FEF710FEC4
:103FC000386108E0FEF70CFE02463B69D31A642B09
:103FD00001D903236DE03A4B1B6803F48073002B77
:103FE000F0D0364B1B6A03F44073FB60FB68002B78
:103FF0002ED07B685B6803F44073FA689A4227D03E
:104000002E4B1B6A23F44073FB602E4B01221A6077
:104010002C4B00221A60294AFB681362FB6803F0EC
:104020000103002B14D0FEF7DBFD38610AE0FEF738
:10403000D7FD02463B69D31A41F28832934201D937
:10404000032336E01D4B1B6A03F00203002BEED066
:104050001A4B1B6A23F440727B685B681749134351
:104060000B62FB7D012B05D1144BDB69134A23F056
:104070008053D3617B681B6803F00203002B08D0D8
:104080000E4B5B6823F440427B689B680B491343EB
:104090004B607B681B6803F01003002B08D0074BB4
:1040A0005B6823F480027B68DB68044913434B6040
:1040B000002318461837BD4680BD00BF00100240DF
:1040C000007000404004424280B582B000AF78608A
:1040D0007B68002B01D1012341E07B6893F83D30E0
:1040E000DBB2002B06D17B68002283F83C20786885
:1040F000FEF79CFA7B68022283F83D207B681A68F1
:104100007B6804331946104600F0F4F87B680122FE
:1041100083F846207B68012283F83E207B680122D9
:1041200083F83F207B68012283F840207B680122CE
:1041300083F841207B68012283F842207B680122BA
:1041400083F843207B68012283F844207B680122A6
:1041500083F845207B68012283F83D200023184620
:104160000837BD4680BD80B584B000AF7860396047
:104170000023FB737B6893F83C30012B01D10223B1
:10418000B4E07B68012283F83C207B68022283F83C
:104190003D207B681B689B68BB60BB6823F077038E
:1041A000BB60BB6823F47F43BB607B681B68BA6855
:1041B0009A603B681B68B3F5005F3ED0B3F5005FC3
:1041C00000F28780B3F5805F00F08680B3F5805FF2
:1041D0007FD8702B1AD0702B7BD8602B50D0602BDF
:1041E00077D8502B3CD0502B73D8402B58D0402B35
:1041F0006FD8302B64D0302B6BD8202B60D0202B85
:1042000067D8002B5CD0102B5AD062E07B6818680E
:104210003B6899683B685A683B68DB6800F04FF977
:104220007B681B689B68BB60BB6843F07703BB601F
:104230007B681B68BA689A604FE07B6818683B68C7
:1042400099683B685A683B68DB6800F038F97B681E
:104250001B689A687B681B6842F480429A603CE065
:104260007B6818683B6859683B68DB681A4600F051
:10427000AFF87B681B685021184600F006F92CE067
:104280007B6818683B6859683B68DB681A4600F031
:10429000CDF87B681B686021184600F0F6F81CE03A
:1042A0007B6818683B6859683B68DB681A4600F011
:1042B0008FF87B681B684021184600F0E6F80CE098
:1042C0007B681A683B681B681946104600F0DDF8E9
:1042D00003E00123FB7300E000BF7B68012283F849
:1042E0003D207B68002283F83C20FB7B184610377A
:1042F000BD4680BD80B485B000AF786039607B6812
:104300001B68FB607B682F4A93420BD07B68B3F13C
:10431000804F07D07B682C4A934203D07B682B4A9E
:10432000934208D1FB6823F07003FB603B685B6835
:10433000FA681343FB607B68224A93420BD07B6888
:10434000B3F1804F07D07B681F4A934203D07B684C
:104350001E4A934208D1FB6823F44073FB603B681C
:10436000DB68FA681343FB60FB6823F080023B685C
:104370005B691343FB607B68FA681A603B689A6864
:104380007B68DA623B681A687B689A627B680D4AD0
:10439000934203D13B681A697B681A637B680122E8
:1043A0005A617B681B6903F00103002B05D07B6811
:1043B0001B6923F001027B681A6100BF1437BD46F8
:1043C00080BC7047002C0140000400400008004001
:1043D00080B487B000AFF860B9607A60FB681B6A90
:1043E0007B61FB681B6A23F00102FB681A62FB68B1
:1043F0009B693B613B6923F0F0033B617B681B01D8
:104400003A6913433B617B6923F00A037B617A6954
:10441000BB6813437B61FB683A699A61FB687A6900
:104420001A6200BF1C37BD4680BC704780B487B09D
:1044300000AFF860B9607A60FB681B6A7B61FB685B
:104440001B6A23F01002FB681A62FB689B693B61E0
:104450003B6923F470433B617B681B033A69134358
:104460003B617B6923F0A0037B61BB681B017A6918
:1044700013437B61FB683A699A61FB687A691A6247
:1044800000BF1C37BD4680BC704780B485B000AF0C
:10449000786039607B689B68FB60FB6823F0700381
:1044A000FB603A68FB68134343F00703FB607B68DB
:1044B000FA689A6000BF1437BD4680BC704780B46C
:1044C00087B000AFF860B9607A603B60FB689B68BA
:1044D0007B617B6923F47F437B613B681A027B68C5
:1044E0001A43BB6813437A6913437B61FB687A699B
:1044F0009A6000BF1C37BD4680BC704780B485B051
:1045000000AF786039607B6893F83C30012B01D1B3
:10451000022346E07B68012283F83C207B6802226C
:1045200083F83D207B681B685B68FB607B681B68C9
:104530009B68BB60FB6823F07003FB603B681B68F3
:10454000FA681343FB607B681B68FA685A607B68F3
:104550001B68164A93420ED07B681B68B3F1804FEC
:1045600009D07B681B68124A934204D07B681B68A1
:10457000104A93420CD1BB6823F08003BB603B68B8
:104580005B68BA681343BB607B681B68BA689A6053
:104590007B68012283F83D207B68002283F83C2061
:1045A000002318461437BD4680BC7047002C0140DC
:1045B000000400400008004080B582B000AF786081
:1045C0007B68002B01D1012342E07B6893F84130E6
:1045D000DBB2002B06D17B68002283F8402078688C
:1045E000FEF740F87B68242283F841207B681B6833
:1045F000DA687B681B6822F40052DA60786801F0A0
:104600001FF97B681B681A697B681B6822F490425B
:104610001A617B681B685A697B681B6822F02A0252
:104620005A617B681B68DA687B681B6842F4005239
:10463000DA607B6800225A647B68202283F841207C
:104640007B68202283F842207B6800225A63002383
:1046500018460837BD4680BD80B58AB002AFF86005
:10466000B9603B601346FB8000237B61FB6893F8D5
:104670004130DBB2202B75D1BB68002B02D0FB8808
:10468000002B01D101236EE0FB6800225A64FB6815
:10469000212283F84120FEF7A3FA7861FB68FA88AB
:1046A0009A84FB68FA88DA84FB689B68B3F5805FBC
:1046B00008D1FB681B69002B04D10023FB61BB6898
:1046C000BB6103E0BB68FB610023BB612EE03B687C
:1046D00000937B6900228021F86800F0FBFD03460F
:1046E000002B05D0FB68202283F8412003233AE009
:1046F000FB69002B0BD1BB691B881A46FB681B6842
:10470000C2F308025A60BB690233BB6107E0FB6970
:104710001A78FB681B685A60FB690133FB61FB6810
:10472000DB8C9BB2013B9AB2FB68DA84FB68DB8CC2
:104730009BB2002BCBD13B6800937B6900224021C8
:10474000F86800F0C7FD0346002B05D0FB68202267
:1047500083F84120032306E0FB68202283F84120F0
:10476000002300E0022318462037BD4680BD80B5F7
:104770008AB002AFF860B9603B601346FB8000234B
:104780007B61FB6893F84230DBB2202B40F08180E4
:10479000BB68002B02D0FB88002B01D1012379E0FC
:1047A000FB6800225A64FB68222283F84220FB68DF
:1047B00000221A63FEF714FA7861FB68FA889A857A
:1047C000FB68FA88DA85FB689B68B3F5805F08D1DF
:1047D000FB681B69002B04D10023FB61BB68BB6134
:1047E00003E0BB68FB610023BB6147E03B680093CB
:1047F0007B6900222021F86800F06CFD0346002B45
:1048000005D0FB68202283F84220032342E0FB69A5
:10481000002B0CD1FB681B685B689BB2C3F30803D9
:104820009AB2BB691A80BB690233BB611FE0FB68A7
:104830009B68B3F5805F07D0FB689B68002B0AD1AB
:10484000FB681B69002B06D1FB681B685B68DAB24A
:10485000FB691A7008E0FB681B685B68DBB203F059
:104860007F03DAB2FB691A70FB690133FB61FB68F5
:10487000DB8D9BB2013B9AB2FB68DA85FB68DB8D6E
:104880009BB2002BB2D1FB68202283F84220002388
:1048900000E0022318462037BD4680BD80B58CB0AD
:1048A00000AFF860B9601346FB80FB6893F84130B5
:1048B000DBB2202B56D1BB68002B02D0FB88002B2B
:1048C00001D101234FE0BA68FB681A62FB68FA88DD
:1048D0009A84FB68FA88DA84FB6800225A64FB68D1
:1048E000212283F84120FB689B6B214A9A62FB6876
:1048F0009B6B204ADA62FB689B6B1F4A1A63FB685A
:104900009B6B00225A6307F10803FB62FB68986BFC
:10491000FB6A1968FB681B6804331A46FB88FEF7BC
:104920000FFBFB681B686FF040021A60FB681B6896
:104930001433BB61BB6953E8003F7B617B6943F083
:104940008003BB62FB681B681433BA6A7A623B62FD
:10495000396A7A6A41E80023FB61FB69002BE5D1E3
:10496000002300E0022318463037BD4680BD00BF5B
:1049700023500008BD5000084152000880B584B0A3
:1049800000AFF860B9601346FB80FB6893F84230D3
:10499000DBB2202B12D1BB68002B02D0FB88002B8E
:1049A00001D101230BE0FB6800221A63FB881A4641
:1049B000B968F86800F0E8FC034600E002231846F6
:1049C0001037BD4680BD80B590B000AF7860002341
:1049D000FB637B681B685B6903F08003002B14BFDB
:1049E00001230023DBB2FB637B6893F84130DBB229
:1049F000212B28D1FB6B002B25D07B681B6814333F
:104A00007B627B6A53E8003F3B623B6A23F0800392
:104A1000BB637B681B681433BA6B3A63FB62F96A49
:104A20003A6B41E80023BB62BB6A002BE5D17B688F
:104A30009B6B002B04D07B689B6B1846FEF7E0FA5B
:104A4000786800F03BFD7B681B685B6903F04003FE
:104A5000002B14BF01230023DBB2FB637B6893F8B8
:104A60004230DBB2222B28D1FB6B002B25D07B6898
:104A70001B6814333B613B6953E8003FFB60FB68F4
:104A800023F040037B637B681B6814337A6BFA6105
:104A9000BB61B969FA6941E800237B617B69002B3E
:104AA000E5D17B68DB6B002B04D07B68DB6B1846A1
:104AB000FEF7A6FA786800F028FD00231846403774
:104AC000BD4680BD80B5BAB000AF78607B681B681A
:104AD0001B68C7F8E4307B681B68DB68C7F8E03008
:104AE0007B681B685B69C7F8DC300023C7F8D830E7
:104AF0000023C7F8D430D7F8E43003F00F03C7F829
:104B0000D830D7F8D830002B0FD1D7F8E43003F0E5
:104B10002003002B09D0D7F8E03003F02003002B4E
:104B200003D0786800F0CEFD5BE2D7F8D830002BD8
:104B300000F0DE80D7F8DC3003F00103002B06D153
:104B4000D7F8E03003F49073002B00F0D180D7F851
:104B5000E43003F00103002B0BD0D7F8E03003F46E
:104B60008073002B05D07B685B6C43F001027B688F
:104B70005A64D7F8E43003F00403002B0BD0D7F8C5
:104B8000DC3003F00103002B05D07B685B6C43F045
:104B900002027B685A64D7F8E43003F00203002B6A
:104BA0000BD0D7F8DC3003F00103002B05D07B6875
:104BB0005B6C43F004027B685A64D7F8E43003F07E
:104BC0000803002B11D0D7F8E03003F02003002BAE
:104BD00005D1D7F8DC3003F00103002B05D07B684A
:104BE0005B6C43F008027B685A647B685B6C002B4B
:104BF00000F0F281D7F8E43003F02003002B08D056
:104C0000D7F8E03003F02003002B02D0786800F0E2
:104C100059FD7B681B685B6903F04003002B14BFE0
:104C200001230023DBB2C7F8D4307B685B6C03F050
:104C30000803002B03D1D7F8D430002B4FD078686D
:104C400000F063FC7B681B685B6903F04003002B8A
:104C500041D07B681B681433C7F89C30D7F89C3070
:104C600053E8003FC7F89830D7F8983023F0400356
:104C7000C7F8D0307B681B681433D7F8D020C7F84A
:104C8000A820C7F8A430D7F8A410D7F8A82041E886
:104C90000023C7F8A030D7F8A030002BD9D17B680B
:104CA000DB6B002B13D07B68DB6B7E4A5A637B681F
:104CB000DB6B1846FEF7E0F90346002B16D07B6845
:104CC000DB6B5B6B7A68D26B104698470EE07868B6
:104CD000FDF730FC0AE07868FDF72CFC06E0786808
:104CE000FDF728FC7B6800225A6475E100BF73E180
:104CF0007B681B6B012B40F04F81D7F8E43003F049
:104D00001003002B00F04881D7F8E03003F01003C7
:104D1000002B00F041810023BB607B681B681B688F
:104D2000BB607B681B685B68BB60BB687B681B689B
:104D30005B6903F04003002B00F0B6807B68DB6BFF
:104D40001B685B68A7F8BE30B7F8BE30002B00F0D8
:104D500045817B689B8DB7F8BE209A4280F03E81EA
:104D60007B68B7F8BE20DA857B68DB6B9B69202BFC
:104D700000F088807B681B680C33C7F88830D7F850
:104D8000883053E8003FC7F88430D7F8843023F4E4
:104D90008073C7F8B8307B681B680C33D7F8B8202D
:104DA000C7F89420C7F89030D7F89010D7F894201F
:104DB00041E80023C7F88C30D7F88C30002BD9D1CC
:104DC0007B681B6814337B677B6F53E8003F3B674E
:104DD0003B6F23F00103C7F8B4307B681B681433C2
:104DE000D7F8B420C7F88020FB67F96FD7F8802088
:104DF00041E80023BB67BB6F002BE1D17B681B68D8
:104E000014333B663B6E53E8003FFB65FB6D23F0BC
:104E10004003C7F8B0307B681B681433D7F8B02064
:104E2000FA66BB66B96EFA6E41E800237B667B6E5C
:104E3000002BE3D17B68202283F842207B6800228C
:104E40001A637B681B680C33FB64FB6C53E8003F00
:104E5000BB64BB6C23F01003C7F8AC307B681B68E5
:104E60000C33D7F8AC20BA657B65796DBA6D41E833
:104E700000233B653B6D002BE3D17B68DB6B184661
:104E8000FEF7BEF87B6802225A637B689A8D7B68C6
:104E9000DB8D9BB2D31A9BB21946786800F0B6F846
:104EA0009CE000BFCF5500087B689A8D7B68DB8D46
:104EB0009BB2D31AA7F8CE307B68DB8D9BB2002B58
:104EC00000F08E80B7F8CE30002B00F089807B6830
:104ED0001B680C33BB63BB6B53E8003F7B637B6B8E
:104EE00023F49073C7F8C8307B681B680C33D7F87D
:104EF000C8207A643B64396C7A6C41E80023FB6318
:104F0000FB6B002BE3D17B681B6814337B627B6AED
:104F100053E8003F3B623B6A23F00103C7F8C4300B
:104F20007B681B681433D7F8C4203A63FB62F96AC4
:104F30003A6B41E80023BB62BB6A002BE3D17B687C
:104F4000202283F842207B6800221A637B681B685A
:104F50000C333B613B6953E8003FFB60FB6823F087
:104F60001003C7F8C0307B681B680C33D7F8C0202B
:104F7000FA61BB61B969FA6941E800237B617B6929
:104F8000002BE3D17B6802225A63B7F8CE30194672
:104F9000786800F03BF823E0D7F8E43003F08003B2
:104FA000002B09D0D7F8E03003F08003002B03D0AA
:104FB000786800F020FB14E0D7F8E43003F04003F9
:104FC000002B0ED0D7F8E03003F04003002B08D0C0
:104FD000786800F05FFB04E000BF02E000BF00E083
:104FE00000BFE837BD4680BD80B483B000AF7860B5
:104FF00000BF0C37BD4680BC704780B483B000AFA3
:10500000786000BF0C37BD4680BC704780B483B069
:1050100000AF78600B467B8000BF0C37BD4680BC7C
:10502000704780B590B000AF78607B685B6AFB63C7
:105030007B681B681B6803F02003002B37D1FB6BD8
:105040000022DA84FB6B1B6814337B627B6A53E8B3
:10505000003F3B623B6A23F08003BB63FB6B1B6832
:105060001433BA6B3A63FB62F96A3A6B41E8002386
:10507000BB62BB6A002BE5D1FB6B1B680C333B6149
:105080003B6953E8003FFB60FB6843F040037B63F0
:10509000FB6B1B680C337A6BFA61BB61B969FA6907
:1050A00041E800237B617B69002BE5D102E0F86BCE
:1050B000FDF752F900BF4037BD4680BD80B584B0D2
:1050C00000AF78607B685B6AFB60F868FFF78CFF75
:1050D00000BF1037BD4680BD80B59CB000AF786082
:1050E0007B685B6AFB667B681B681B6803F02003B8
:1050F000002B72D1FB6E0022DA85FB6E1B680C332D
:10510000FB64FB6C53E8003FBB64BB6C23F480730F
:10511000BB66FB6E1B680C33BA6EBA657B65796D36
:10512000BA6D41E800233B653B6D002BE5D1FB6E7A
:105130001B681433BB63BB6B53E8003F7B637B6B23
:1051400023F001037B66FB6E1B6814337A6E7A646E
:105150003B64396C7A6C41E80023FB63FB6B002BEA
:10516000E5D1FB6E1B6814337B627B6A53E8003F1A
:105170003B623B6A23F040033B66FB6E1B681433C3
:105180003A6E3A63FB62F96A3A6B41E80023BB620C
:10519000BB6A002BE5D1FB6E202283F84220FB6E18
:1051A0001B6B012B19D1FB6E1B680C333B613B69F8
:1051B00053E8003FFB60FB6823F01003FB65FB6EC8
:1051C0001B680C33FA6DFA61BB61B969FA6941E891
:1051D00000237B617B69002BE5D1FB6E00225A63C3
:1051E000FB6E1B6B012B06D1FB6E9B8D1946F86E77
:1051F000FFF70CFF02E0F86EFDF7F8F800BF70371C
:10520000BD4680BD80B584B000AF78607B685B6AC6
:10521000FB60FB6801225A63FB681B6B012B08D102
:10522000FB689B8D5B089BB21946F868FFF7EEFEA2
:1052300002E0F868FFF7E1FE00BF1037BD4680BD11
:1052400080B584B000AF78600023FB607B685B6A48
:10525000BB60BB681B685B6903F08003002B14BF55
:1052600001230023DBB2FB60BB6893F84130DBB263
:10527000212B08D1FB68002B05D0BB680022DA8403
:10528000B86800F01BF9BB681B685B6903F040035A
:10529000002B14BF01230023DBB2FB60BB6893F833
:1052A0004230DBB2222B08D1FB68002B05D0BB6853
:1052B0000022DA85B86800F028F9BB685B6C43F01F
:1052C0001002BB685A64B868FDF734F900BF1037A4
:1052D000BD4680BD80B586B000AFF860B9603B6068
:1052E0001346FB713BE03B6AB3F1FF3F37D0FDF75C
:1052F00077FC02463B68D31A3A6A9A4202D33B6A69
:10530000002B01D103233AE0FB681B68DB6803F044
:105310000403002B23D0BB68802B20D0BB68402B1C
:105320001DD0FB681B681B6803F00803082B16D10F
:1053300000237B61FB681B681B687B61FB681B6843
:105340005B687B617B69F86800F0DFF8FB68082226
:105350005A64FB68002283F8402001230FE0FB68B9
:105360001B681A68BB681340BA689A420CBF0123D5
:105370000023DBB21A46FB799A42B4D000231846C8
:105380001837BD4680BD000080B598B000AFF8600A
:10539000B9601346FB80BA68FB689A62FB68FA88BA
:1053A0009A85FB6800225A64FB68222283F8422017
:1053B000FB68DB6B3E4A9A62FB68DB6B3D4ADA6254
:1053C000FB68DB6B3C4A1A63FB68DB6B00225A63A9
:1053D00007F10803FB65FB68D86BFB681B680433A7
:1053E0001946FB6D1A68FB88FDF7AAFD00233B6197
:1053F000FB681B681B683B61FB681B685B683B6163
:105400003B69FB681B69002B19D0FB681B680C33D8
:105410003B643B6C53E8003FFB63FB6B43F48073DE
:10542000BB65FB681B680C33BA6DFA64BB64B96C6E
:10543000FA6C41E800237B647B6C002BE5D1FB68B0
:105440001B681433FB62FB6A53E8003FBB62BB6A14
:1054500043F001037B65FB681B6814337A6DBA6304
:105460007B63796BBA6B41E800233B633B6B002B9A
:10547000E5D1FB681B681433BB61BB6953E8003F8F
:105480007B617B6943F040033B65FB681B68143319
:105490003A6D7A623B62396A7A6A41E80023FB61BD
:1054A000FB69002BE5D1002318466037BD4680BD5F
:1054B000D9500008055200084152000880B489B054
:1054C00000AF78607B681B680C33FB60FB6853E8B7
:1054D000003FBB60BB6823F0C003FB617B681B68B7
:1054E0000C33FA69BA617B617969BA6941E80023D2
:1054F0003B613B69002BE5D17B68202283F841208A
:1055000000BF2437BD4680BC704780B495B000AF63
:1055100078607B681B680C337B637B6B53E8003FD0
:105520003B633B6B23F49073FB647B681B680C3319
:10553000FA6C3A64FB63F96B3A6C41E80023BB6395
:10554000BB6B002BE5D17B681B6814333B623B6A65
:1055500053E8003FFB61FB6923F00103BB647B68F8
:105560001B681433BA6CFA62BB62B96AFA6A41E822
:1055700000237B627B6A002BE5D17B681B6B012BD0
:1055800019D17B681B680C33FB60FB6853E8003F54
:10559000BB60BB6823F010037B647B681B680C3323
:1055A0007A6CBA617B617969BA6941E800233B6131
:1055B0003B69002BE5D17B68202283F842207B6881
:1055C00000221A6300BF5437BD4680BC704780B5C7
:1055D00084B000AF78607B685B6AFB60FB68002288
:1055E000DA85FB680022DA84F868FCF7A3FF00BFC5
:1055F0001037BD4680BD80B485B000AF78607B6851
:1056000093F84130DBB2212B3ED17B689B68B3F528
:10561000805F14D17B681B69002B10D17B681B6AEB
:10562000FB60FB681B881A467B681B68C2F3080294
:105630005A607B681B6A9A1C7B681A6208E07B6868
:105640001B6A591C7A6811621A787B681B685A6059
:105650007B68DB8C9BB2013B9BB27A681946D18494
:10566000002B0FD17B681B68DA687B681B6822F00F
:105670008002DA607B681B68DA687B681B6842F02E
:105680004002DA60002300E0022318461437BD46CA
:1056900080BC704780B582B000AF78607B681B68C3
:1056A000DA687B681B6822F04002DA607B6820229F
:1056B00083F841207868FCF74FFE0023184608372E
:1056C000BD4680BD80B58CB000AF78607B6893F834
:1056D0004230DBB2222B40F0AE807B689B68B3F592
:1056E000805F17D17B681B69002B13D10023FB62FD
:1056F0007B689B6ABB627B681B685B689BB2C3F379
:1057000008039AB2BB6A1A807B689B6A9A1C7B6802
:105710009A6226E07B689B6AFB620023BB627B681F
:105720009B68B3F5805F07D07B689B68002B0AD12C
:105730007B681B69002B06D17B681B685B68DAB24B
:10574000FB6A1A7008E07B681B685B68DBB203F0D9
:105750007F03DAB2FB6A1A707B689B6A5A1C7B680B
:105760009A627B68DB8D9BB2013B9BB27A681946DB
:10577000D185002B5DD17B681B68DA687B681B686C
:1057800022F02002DA607B681B68DA687B681B689D
:1057900022F48072DA607B681B685A697B681B6838
:1057A00022F001025A617B68202283F842207B6844
:1057B00000225A637B681B6B012B35D17B6800226A
:1057C0001A637B681B680C337B617B6953E8003F7D
:1057D0003B613B6923F010037B627B681B680C33E1
:1057E0007A6A3A62FB61F9693A6A41E80023BB616F
:1057F000BB69002BE5D17B681B681B6803F01003B5
:10580000102B0AD10023FB607B681B681B68FB60C0
:105810007B681B685B68FB60FB687B689B8D194637
:105820007868FFF7F3FB02E07868FCF7DFFD002300
:1058300002E0002300E0022318463037BD4680BD59
:1058400080B584B000AF78607B681B681B6923F467
:1058500040517B68DA687B681B680A431A617B6881
:105860009A687B681B691A437B685B691343BB605A
:105870007B681B68DB6823F4B05323F00C037A6861
:105880001268B9680B43D3607B681B685B6923F4BB
:1058900040717B689A697B681B680A435A617B6820
:1058A0001B682C4A934203D1FEF726FBF86002E006
:1058B000FEF70EFBF860FA6813469B0013449A004B
:1058C0001A447B685B689B00B2FBF3F3224AA2FB9D
:1058D00003235B091901FA6813469B0013449A00DD
:1058E0001A447B685B689B00B2FBF3F21A4BA3FB84
:1058F00002035B09642000FB03F3D31A1B0132335C
:10590000154AA2FB03235B0903F0F0031944FA686C
:1059100013469B0013449A001A447B685B689B0003
:10592000B2FBF3F20C4BA3FB02035B09642000FB08
:1059300003F3D31A1B013233074AA2FB03235B098B
:1059400003F00F027B681B680A449A6000BF10379F
:10595000BD4680BD003801401F85EB51002B2DE96D
:10596000F0471D46BBBF03F100431D4600232D2316
:1059700088B01446B8BF1446129A109E1370149B38
:10598000DDF84CA023F02008B8F1460F05D0B8F19F
:10599000450F00D10136022300E0032307AA049239
:1059A00006AACDE902A2CDE9003622462B4600F038
:1059B000A7FFB8F1470F074619D1119BDB070ED59A
:1059C00000EB06090022002320462946FAF7F6FFDD
:1059D00008B1CDF81C903022079B4B451ED33846AA
:1059E000079B159ADB1B136008B0BDE8F087B8F180
:1059F000460F00EB0609E5D10378302B0AD10022CF
:105A0000002320462946FAF7D9FF18B9C6F1010646
:105A1000CAF80060DAF800309944D3E7591C0791BE
:105A20001A70D9E7F7B50029B6BF2D232B234942B9
:105A300009290270437029DD0DF107031D460A276D
:105A4000B1FBF7F61A4607FB1614303402F8014C86
:105A50000C46632C314603F1FF33F1DC3031941EE8
:105A600003F8011C2346411CAB420AD30DF1090384
:105A70009B1AAC4288BF002302330344181A03B0B8
:105A8000F0BD13F8016B01F8016FEDE73023303101
:105A90008370C170031DF1E72DE9F04F91B00C4602
:105AA000DDF8688016461F46054600F00DFE0368C7
:105AB00018460893FAF756FB00230E93D8F80030E7
:105AC0000990073323F0070303F1080294F818A0A4
:105AD000D4F800B0C8F80020D3E9008929F00043C9
