:020000040800F2
:1000000000500020E1280008E9270008EB2700083D
:10001000ED270008EF270008F12700080000000086
:10002000000000000000000000000000F3270008AE
:10003000F527000800000000F7270008F92700084E
:100040002929000829290008292900082929000848
:100050002929000829290008292900082929000838
:100060002929000829290008292900082929000828
:100070002929000829290008292900082929000818
:100080002929000829290008292900082929000808
:1000900029290008292900082929000829290008F8
:1000A00029290008FD270008292900082929000816
:1000B00029290008292900082929000809280008F9
:1000C00015280008292900082929000829290008DD
:1000D00029290008292900082128000829290008C1
:1000E0002929000829290008292900080000000002
:1000F0000000000000000000000000000000000000
:0C01000000000000000000005FF808F1A3
:1001100010B5054C237833B9044B13B10448AFF341
:1001200000800123237010BDD801002000000000D2
:10013000E49E000808B5034B1BB103490348AFF325
:10014000008008BD00000000DC010020E49E0008E3
:10015000034613F8012B002AFBD1181A0138704707
:1001600081F0004102E000BF83F0004330B54FEA68
:1001700041044FEA430594EA050F08BF90EA020FD5
:100180001FBF54EA000C55EA020C7FEA645C7FEA68
:10019000655C00F0E2804FEA5454D4EB5555B8BF8B
:1001A0006D420CDD2C4480EA020281EA030382EAFC
:1001B000000083EA010180EA020281EA0303362D8E
:1001C00088BF30BD11F0004F4FEA01314FF4801C61
:1001D0004CEA113102D0404261EB410113F0004F73
:1001E0004FEA03334CEA133302D0524263EB43032A
:1001F00094EA050F00F0A780A4F10104D5F1200EC8
:100200000DDB02FA0EFC22FA05F2801841F1000122
:1002100003FA0EF2801843FA05F359410EE0A5F1F6
:1002200020050EF1200E012A03FA0EFC28BF4CF027
:10023000020C43FA05F3C01851EBE37101F00045DD
:1002400007D54FF0000EDCF1000C7EEB00006EEBEA
:100250000101B1F5801F1BD3B1F5001F0CD3490874
:100260005FEA30004FEA3C0C04F101044FEA4452CB
:1002700012F5800F80F09A80BCF1004F08BF5FEA52
:10028000500C50F1000041EB045141EA050130BD32
:100290005FEA4C0C404141EB0101013C28BFB1F544
:1002A000801FE9D291F0000F04BF01460020B1FA8F
:1002B00081F308BF2033A3F10B03B3F120020CDA62
:1002C0000C3208DD02F1140CC2F10C0201FA0CF040
:1002D00021FA02F10CE002F11402D8BFC2F1200CA5
:1002E00001FA02F120FA0CFCDCBF41EA0C0190405B
:1002F000E41AA2BF01EB0451294330BD6FEA0404A4
:100300001F3C1CDA0C340EDC04F11404C4F120028E
:1003100020FA04F001FA02F340EA030021FA04F3A0
:1003200045EA030130BDC4F10C04C4F1200220FAF7
:1003300002F001FA04F340EA0300294630BD21FA35
:1003400004F0294630BD94F0000F83F4801306BFFB
:1003500081F480110134013D4EE77FEA645C18BFEF
:100360007FEA655C29D094EA050F08BF90EA020F86
:1003700005D054EA000C04BF1946104630BD91EA7E
:10038000030F1EBF0021002030BD5FEA545C05D181
:100390004000494128BF41F0004130BD14F58004C0
:1003A0003CBF01F5801130BD01F0004545F0FE4134
:1003B00041F470014FF0000030BD7FEA645C1ABF69
:1003C000194610467FEA655C1CBF0B46024650EAA0
:1003D000013406BF52EA033591EA030F41F40021CC
:1003E00030BD00BF90F0000F04BF0021704730B552
:1003F0004FF4806404F132044FF000054FF0000127
:1004000050E700BF90F0000F04BF0021704730B5E7
:100410004FF4806404F1320410F0004548BF4042BC
:100420004FF000013EE700BF42004FEAE2014FEA11
:1004300031014FEA02701FBF12F07F4393F07F4FEC
:1004400081F06051704732F07F4208BF704793F0EF
:100450007F4F04BF41F40021704730B54FF4607402
:1004600001F0004521F000411CE700BF50EA010205
:1004700008BF704730B54FF000050AE050EA0102AE
:1004800008BF704730B511F0004502D5404261EB1E
:1004900041014FF4806404F132045FEA915C3FF45F
:1004A000D8AE4FF003025FEADC0C18BF03325FEAFC
:1004B000DC0C18BF033202EBDC02C2F1200300FAAD
:1004C00003FC20FA02F001FA03FE40EA0E0021FAD2
:1004D00002F11444BDE600BF70B54FF0FF0C4CF4C0
:1004E000E06C1CEA11541DBF1CEA135594EA0C0F72
:1004F00095EA0C0F00F0DEF82C4481EA030621EAAD
:100500004C5123EA4C5350EA013518BF52EA0335E7
:1005100041F4801143F4801338D0A0FB02CE4FF099
:100520000005E1FB02E506F00042E0FB03E54FF0C9
:100530000006E1FB03569CF0000F18BF4EF0010EC1
:10054000A4F1FF04B6F5007F64F5407404D25FEABD
:100550004E0E6D4146EB060642EAC62141EA555170
:100560004FEAC52040EA5E504FEACE2EB4F1FD0CB2
:1005700088BFBCF5E06F1ED8BEF1004F08BF5FEA30
:10058000500E50F1000041EB045170BD06F00046E2
:1005900046EA010140EA020081EA0301B4EB5C048F
:1005A000C2BFD4EB0C0541EA045170BD41F4801187
:1005B0004FF0000E013C00F3AB8014F1360FDEBFAC
:1005C000002001F0004170BDC4F10004203C35DA88
:1005D0000C341BDC04F11404C4F1200500FA05F30B
:1005E00020FA04F001FA05F240EA020001F00042AC
:1005F00021F0004110EBD37021FA04F642EB060122
:100600005EEA430E08BF20EAD37070BDC4F10C044B
:10061000C4F1200500FA04F320FA05F001FA04F20F
:1006200040EA020001F0004110EBD37041F10001FB
:100630005EEA430E08BF20EAD37070BDC4F1200506
:1006400000FA05F24EEA020E20FA04F301FA05F26E
:1006500043EA020321FA04F001F0004121FA04F216
:1006600020EA020000EBD3705EEA430E08BF20EAE6
:10067000D37070BD94F0000F0FD101F00046400020
:1006800041EB010111F4801F08BF013CF7D041EAA2
:10069000060195F0000F18BF704703F000465200A6
:1006A00043EB030313F4801F08BF013DF7D043EA77
:1006B0000603704794EA0C0F0CEA135518BF95EA2D
:1006C0000C0F0CD050EA410618BF52EA4306D1D1B4
:1006D00081EA030101F000414FF0000070BD50EAD3
:1006E000410606BF1046194652EA430619D094EA5D
:1006F0000C0F02D150EA013613D195EA0C0F05D147
:1007000052EA03361CBF104619460AD181EA03019A
:1007100001F0004141F0FE4141F470014FF0000052
:1007200070BD41F0FE4141F4780170BD70B54FF0ED
:10073000FF0C4CF4E06C1CEA11541DBF1CEA13556D
:1007400094EA0C0F95EA0C0F00F0A7F8A4EB05044F
:1007500081EA030E52EA03354FEA013100F0888046
:100760004FEA03334FF0805545EA131343EA12630F
:100770004FEA022245EA111545EA10654FEA0026C4
:100780000EF000419D4208BF964244F1FD0404F57D
:10079000407402D25B084FEA3202B61A65EB0305D9
:1007A0005B084FEA32024FF480104FF4002CB6EB96
:1007B000020E75EB030E22BFB61A754640EA0C0016
:1007C0005B084FEA3202B6EB020E75EB030E22BF56
:1007D000B61A754640EA5C005B084FEA3202B6EB97
:1007E000020E75EB030E22BFB61A754640EA9C0056
:1007F0005B084FEA3202B6EB020E75EB030E22BF26
:10080000B61A754640EADC0055EA060E18D04FEAE3
:10081000051545EA16754FEA06164FEAC30343EA83
:1008200052734FEAC2025FEA1C1CC0D111F4801F50
:100830000BD141EA00014FF000004FF0004CB6E749
:1008400011F4801F04BF01430020B4F1FD0C88BFE8
:10085000BCF5E06F3FF6AFAEB5EB030C04BFB6EBF3
:10086000020C5FEA500C50F1000041EB045170BDE6
:100870000EF0004E4EEA113114EB5C04C2BFD4EB13
:100880000C0541EA045170BD41F480114FF0000E97
:10089000013C90E645EA060E8DE60CEA135594EA13
:1008A0000C0F08BF95EA0C0F3FF43BAF94EA0C0F16
:1008B0000AD150EA01347FF434AF95EA0C0F7FF48B
:1008C00025AF104619462CE795EA0C0F06D152EADF
:1008D00003353FF4FDAE1046194622E750EA4106C3
:1008E00018BF52EA43067FF4C5AE50EA41047FF4D4
:1008F0000DAF52EA43057FF4EBAE12E74FF0FF3C39
:1009000006E000BF4FF0010C02E000BF4FF0010C09
:100910004DF804CD4FEA410C7FEA6C5C4FEA430C82
:1009200018BF7FEA6C5C1BD001B050EA410C0CBFD1
:1009300052EA430C91EA030F02BF90EA020F002033
:10094000704710F1000F91EA030F58BF994208BF9A
:1009500090422CBFD8176FEAE37040F00100704757
:100960004FEA410C7FEA6C5C02D150EA013C07D1AE
:100970004FEA430C7FEA6C5CD6D152EA033CD3D0F9
:100980005DF8040B704700BF8446104662468C46F3
:100990001946634600E000BF01B5FFF7B7FF002826
:1009A00048BF10F1000F01BD4DF808EDFFF7F4FF4F
:1009B0000CBF012000205DF808FB00BF4DF808EDDA
:1009C000FFF7EAFF34BF012000205DF808FB00BFFD
:1009D0004DF808EDFFF7E0FF94BF012000205DF81F
:1009E00008FB00BF4DF808EDFFF7CEFF94BF0120D4
:1009F00000205DF808FB00BF4DF808EDFFF7C4FFCD
:100A000034BF012000205DF808FB00BF4FEA410C15
:100A10007FEA6C5C02D150EA013C0AD14FEA430CF8
:100A20007FEA6C5C02D152EA033C02D14FF0000035
:100A300070474FF0010070474FEA410212F5001273
:100A400015D211D56FF47873B3EB625212D94FEA15
:100A5000C12343F0004343EA505311F0004F23FAFF
:100A600002F018BF404270474FF00000704750EA54
:100A7000013005D111F0004008BF6FF00040704711
:100A80004FF00000704700BF4A0011D212F500126B
:100A900011D20DD56FF47873B3EB62520ED44FEAD6
:100AA000C12343F0004343EA505323FA02F0704756
:100AB0004FF00000704750EA013002D14FF0FF3094
:100AC00070474FF00000704780F0004002E000BF28
:100AD00081F0004142001FBF5FEA410392EA030F29
:100AE0007FEA226C7FEA236C6AD04FEA1262D2EB73
:100AF0001363C1BFD218414048404140B8BF5B4278
:100B0000192B88BF704710F0004F40F4000020F010
:100B10007F4018BF404211F0004F41F4000121F026
:100B20007F4118BF494292EA030F3FD0A2F1010270
:100B300041FA03FC10EB0C00C3F1200301FA03F1AE
:100B400000F0004302D5494260EB4000B0F5000FD1
:100B500013D3B0F1807F06D340084FEA310102F190
:100B60000102FE2A51D2B1F1004F40EBC25008BF42
:100B700020F0010040EA03007047490040EB00000C
:100B8000013A28BFB0F5000FEDD2B0FA80FCACF10D
:100B9000080CB2EB0C0200FA0CF0AABF00EBC2503A
:100BA00052421843BCBFD0401843704792F0000F28
:100BB00081F4000106BF80F400000132013BB5E77B
:100BC0004FEA41037FEA226C18BF7FEA236C21D0F1
:100BD00092EA030F04D092F0000F08BF0846704756
:100BE00090EA010F1CBF0020704712F07F4F04D124
:100BF000400028BF40F00040704712F100723CBF37
:100C000000F50000704700F0004343F0FE4040F460
:100C1000000070477FEA226216BF08467FEA23631E
:100C20000146420206BF5FEA412390EA010F40F409
:100C3000800070474FF0000304E000BF10F0004355
:100C400048BF40425FEA000C08BF704743F096433C
:100C500001464FF000001CE050EA010208BF704757
:100C60004FF000030AE000BF50EA010208BF7047DE
:100C700011F0004302D5404261EB41015FEA010CF3
:100C800002BF84460146002043F0B64308BFA3F1EB
:100C90008053A3F50003BCFA8CF2083AA3EBC253CD
:100CA00010DB01FA02FC634400FA02FCC2F12002EC
:100CB000BCF1004F20FA02F243EB020008BF20F023
:100CC0000100704702F1200201FA02FCC2F1200289
:100CD00050EA4C0021FA02F243EB020008BF20EA7E
:100CE000DC7070474FF0FF0C1CEAD0521EBF1CEAAC
:100CF000D15392EA0C0F93EA0C0F6FD01A4480EA9A
:100D0000010C400218BF5FEA41211ED04FF0006382
:100D100043EA501043EA5111A0FB01310CF00040AE
:100D2000B1F5000F3EBF490041EAD3715B0040EAD4
:100D3000010062F17F02FD2A1DD8B3F1004F40EBA4
:100D4000C25008BF20F00100704790F0000F0CF077
:100D5000004C08BF49024CEA502040EA51207F3A3B
:100D6000C2BFD2F1FF0340EAC250704740F4000016
:100D70004FF00003013A5DDC12F1190FDCBF00F007
:100D800000407047C2F10002410021FA02F1C2F1B5
:100D9000200200FA02FC5FEA310040F1000053EA51
:100DA0004C0308BF20EADC70704792F0000F00F09F
:100DB000004C02BF400010F4000F013AF9D040EAA5
:100DC0000C0093F0000F01F0004C02BF490011F439
:100DD000000F013BF9D041EA0C018FE70CEAD15337
:100DE00092EA0C0F18BF93EA0C0F0AD030F0004CB7
:100DF00018BF31F0004CD8D180EA010000F000406B
:100E0000704790F0000F17BF90F0004F084691F028
:100E1000000F91F0004F14D092EA0C0F01D1420262
:100E20000FD193EA0C0F03D14B0218BF084608D12B
:100E300080EA010000F0004040F0FE4040F4000075
:100E4000704740F0FE4040F4400070474FF0FF0C08
:100E50001CEAD0521EBF1CEAD15392EA0C0F93EA4F
:100E60000C0F69D0A2EB030280EA010C49024FEAA1
:100E7000402037D04FF0805343EA111143EA10135A
:100E80000CF000408B4238BF5B0042F17D024FF412
:100E9000000C8B4224BF5B1A40EA0C00B3EB510FED
:100EA00024BFA3EB510340EA5C00B3EB910F24BFD6
:100EB000A3EB910340EA9C00B3EBD10F24BFA3EB5B
:100EC000D10340EADC001B0118BF5FEA1C1CE0D123
:100ED000FD2A3FF650AF8B4240EBC25008BF20F0D6
:100EE000010070470CF0004C4CEA50207F32C2BF2A
:100EF000D2F1FF0340EAC250704740F400004FF0C7
:100F00000003013A37E792F0000F00F0004C02BFF7
:100F1000400010F4000F013AF9D040EA0C0093F0C1
:100F2000000F01F0004C02BF490011F4000F013B1B
:100F3000F9D041EA0C0195E70CEAD15392EA0C0F83
:100F400008D142027FF47DAF93EA0C0F7FF470AFBB
:100F5000084676E793EA0C0F04D14B023FF44CAFFE
:100F600008466EE730F0004C18BF31F0004CCAD193
:100F700030F000427FF45CAF31F000437FF43CAFCF
:100F80005FE700BF4FF0FF3C06E000BF4FF0010CF1
:100F900002E000BF4FF0010C4DF804CD4FEA4002D3
:100FA0004FEA41037FEA226C18BF7FEA236C11D01D
:100FB00001B052EA530C18BF90EA010F58BFB2EBD0
:100FC000030088BFC81738BF6FEAE17018BF40F050
:100FD000010070477FEA226C02D15FEA402C05D104
:100FE0007FEA236CE4D15FEA412CE1D05DF8040B89
:100FF000704700BF844608466146FFE70FB5FFF71C
:10100000C9FF002848BF10F1000F0FBD4DF808EDD3
:10101000FFF7F4FF0CBF012000205DF808FB00BFC4
:101020004DF808EDFFF7EAFF34BF012000205DF81E
:1010300008FB00BF4DF808EDFFF7E0FF94BF01206B
:1010400000205DF808FB00BF4DF808EDFFF7D2FF68
:1010500094BF012000205DF808FB00BF4DF808EDAB
:10106000FFF7C8FF34BF012000205DF808FB00BF78
:1010700038B50022002304460D46FFF79FFC28B92F
:1010800020462946BDE8384000F00AB8204605F160
:10109000004100F005F8404261EB410138BD00BF5E
:1010A000D0B500220B4B06460F46FFF715FAFFF7A7
:1010B000EBFC0446FFF796F90022074BFFF70CFA0A
:1010C00002460B4630463946FFF74EF8FFF7DCFC88
:1010D0002146D0BD0000F03D0000F04138B50C467F
:1010E000054680B179B14FF43872002106F06DF9F0
:1010F000012220462C6005F5027104F010FD003835
:1011000018BF012038BD0120FCE7B0F8043290F888
:101110000812C21801331171C3F30803A0F8043296
:1011200000F502710122006804F0F9BC0000000023
:101130002DE9F04F4FF0000BCDB0054692460CA8BC
:101140007F2206F05CF9BE490BAA0CA88DF8AFB05F
:1011500006F090F9002800F09D810020B9490BAA03
:1011600006F088F9044610B94DB0BDE8F08F0BF1D8
:10117000010B0BF1FF33082BEFD8DFE813F0090068
:101180003700B600C7003E016B0179017F01850180
:101190002046FEF7DDFF0528DFD923786278303B53
:1011A000303A03EB830302EB430385F8D032A37894
:1011B000E278303B303A03EB830302EB430385F8DC
:1011C000D13223796279303B303A03EB830302EB6F
:1011D0004303204685F8D232FEF7BAFF0728BCD970
:1011E000E01D04F0B0FCA5F8D402B6E72378002B8C
:1011F000B3D00A2094F80180303BA8F1300800FBFE
:101200000388A278E378303A303B00FB0230FFF7E6
:10121000F9F8237906462E2B0F463BD160793038FA
:10122000FFF7F0F87EA3D3E90023FFF755F9324624
:101230003B46FEF79BFF06460F46A0793038FFF786
:10124000E1F879A3D3E90023FFF746F932463B469C
:10125000FEF78CFF06460F46E0793038FFF7D2F8EC
:1012600073A3D3E90023FFF737F932463B46FEF775
:101270007DFF06460F46207A3038FFF7C3F86EA38D
:10128000D3E90023FFF728F932463B46FEF76EFF0D
:1012900006460F464046FFF7B5F80022CDE90801A3
:1012A000694B30463946FFF741FA02460B46DDE905
:1012B0000801FEF75BFFC5E9A401BAF1000F3FF496
:1012C0004CAF43462246CDE90067CDE902015F49B4
:1012D0002CA806F017F82CA8FEF73AFF642382B278
:1012E0002CA9504604F0F9F937E72378532B7FF403
:1012F00034AFD5F890320493D5F8943203F100431B
:101300000593DDE90434C5E9A43426E72678002EE8
:101310003FF423AF64230A22303E5E436178A37812
:10132000303902FB0166303BE0781E4423793038C7
:10133000303B02FB0030FFF765F8637980462E2BC7
:1013400089463BD1A0793038FFF75CF834A3D3E964
:101350000023FFF7C1F842464B46FEF707FF8046E1
:101360008946E0793038FFF74DF82FA3D3E9002301
:10137000FFF7B2F842464B46FEF7F8FE8046894634
:10138000207A3038FFF73EF829A3D3E90023FFF78E
:10139000A3F842464B46FEF7E9FE80468946607A4E
:1013A0003038FFF72FF824A3D3E90023FFF794F890
:1013B00042464B46FEF7DAFE804689463046FFF746
:1013C00021F80022CDE908011F4B40464946FFF7AE
:1013D000ADF902460B46DDE90801FEF7C7FEC5E997
:1013E000A601BAF1000F3FF4B8AECDE902013346D1
:1013F0002246CDE9008916496AE72378572B7FF406
:10140000ACAED5F898320693D5F89C3203F1004380
:101410000793DDE90634C5E9A6349EE6AFF3008004
:101420009A9999999999B93F7B14AE47E17A843F8B
:10143000FCA9F1D24D62503F2D431CEBE2361A3F1E
:10144000009F0008669F000800004E40029F0008B1
:10145000349F0008204604F076FBC0B285F8C8022D
:10146000003818BF012085F8DA0285F8C90274E651
:10147000204604F068FB85F8B8026EE6204604F0CA
:101480005FFBC5E9B00168E6204604F059FBC5E9F9
:10149000A80162E6042067E62DE9F04F0025A5B01B
:1014A0007F22044604A805F0AAFF7F4902AA04A8E7
:1014B0008DF88F5005F0DEFF002800F0F28000204C
:1014C0007A4902AA05F0D6FF074640B994F8C93216
:1014D000002B40F0E280002025B0BDE8F08F013500
:1014E0006B1E082BEBD8DFE803F005333B636D96EA
:1014F000A7ADB3003846FEF72BFE0528DFD93B78B1
:101500007A78303B303A03EB830302EB430384F8F1
:10151000D032BB78FA78303B303A03EB830302EBEE
:10152000430384F8D1323B797A79303B303A03EB8C
:10153000830302EB4303384684F8D232FEF708FEF9
:101540000728BCD9F81D04F0FEFAA4F8D402B6E7C7
:101550003B78A3F141025342534184F8C932AEE7CC
:101560003B78002BABD00222394603A805F047FF99
:10157000002303A88DF80E3004F0E5FA0646B81CE7
:1015800004F0DEFA804630468946FEF73BFF002233
:1015900006460F46464B40464946FFF7C7F8024607
:1015A0000B4630463946FEF7E1FDC4E9A40186E763
:1015B0003B78532B83D1D4E9A4A303F1004BC4E9B6
:1015C000A4AB7CE73B78002B3FF479AF032239468C
:1015D00003A805F014FF002303A88DF80F3004F0D2
:1015E000B2FA8046F81C04F0ABFA064640460F46B5
:1015F000FEF708FF0022804689462D4B30463946CB
:10160000FFF794F802460B4640464946FEF7AEFD0A
:10161000C4E9A60153E73B78572B7FF450AFD4F8C9
:1016200098320093D4F89C3203F100430193DDE932
:101630000023C4E9A62342E7384604F081FAC4E94E
:10164000AA013CE7384604F07BFAC4E9AC0136E76E
:101650003846FEF77DFD06287FF431AF0A213B783E
:101660007A78303B303A03EB830302EB430384F890
:10167000D632BB78FA78303B303A03EB830302EB87
:10168000430384F8D7323A797B79303A01FB02334D
:1016900003F5F463A4F8D83211E7012384F8DA32B1
:1016A00019E7042018E700BF009F0008669F0008A4
:1016B00000004E402DE9F0410D46064617462846EB
:1016C0000322124905F089FE0446D8B905F1030842
:1016D000032240460E4905F080FE38B93A462946B5
:1016E0003046FFF725FD0120BDE8F081032240468A
:1016F000084905F072FE38B929463046FFF7CCFE9E
:101700000220F1E70020EFE72046EDE7699F00089F
:101710006D9F0008719F000870B5044600250126E2
:10172000B4F80632B4F804229A4201D1002070BD08
:10173000E21811790133C3F308032429A4F806320F
:1017400004D1A4F88A6284F80912E9E7B4F88A227D
:10175000002AE5D07E2A02D9A4F88A52E0E7531C79
:101760009BB222440A29A4F88A3282F8091201D0D5
:101770000D29D5D100222344204683F8092204F202
:101780000921FFF797FF0028E6D001F0EDF8C4F833
:10179000DC02E1E730B504460D46C7B0002900F091
:1017A0008A80464906A805F0E0FE06A8FEF7D0FCB0
:1017B000642382B206A9284603F08FFF404B94F8B9
:1017C000DA12404A06A8002918BF1A463E4905F019
:1017D00099FD06A8FEF7BCFC642382B206A9284640
:1017E00003F07BFFD4E9A423384906A805F08AFD5D
:1017F00006A8FEF7ADFC642382B206A9284603F0D2
:101800006CFFD4E9A623324906A805F07BFD06A8A3
:10181000FEF79EFC642382B206A9284603F05DFF12
:10182000D4E9A8232B4906A805F06CFD06A8FEF70D
:101830008FFC642382B206A9284603F04EFF94F879
:10184000B822254906A805F05DFD06A8FEF780FC34
:10185000642382B206A9284603F03FFF1F4906A869
:1018600005F083FE06A8FEF773FC642382B206A986
:10187000284603F032FFB4F8D4321949049394F89F
:10188000D23206A8039394F8D132029394F8D0325E
:101890000193B4F8D832009394F8D73294F8D62252
:1018A00005F030FD06A8FEF753FC642382B206A9BA
:1018B000284603F012FF47B030BD00BF839F0008E9
:1018C000759F00087B9F0008939F00089F9F00085A
:1018D000B29F0008C69F0008DB9F0008EE9F00082B
:1018E000FA9F000840F2E7335A436423B2FBF3F255
:1018F00029B9416803681B6849B95A6370470129CF
:101900000ED190F82A30012B0AD18168F2E7042920
:1019100001D19A637047082901D1DA6370471A64CC
:10192000704710B590F82A10044601290ED1002204
:10193000FFF7D8FF018C0022C06901F077FC218DF0
:10194000606A0022BDE8104001F070BC10BD38B5DF
:1019500005460C4671B90A46FFF7C4FF2246018AC4
:10196000C06801F063FC2246298B6869BDE83840F5
:1019700001F05CBC012903D1BDE83840FFF7D1BFBD
:1019800038BD0000022210B50B6886B003604B68BA
:10199000044643608B6883600B7B028280F82A30A8
:1019A000244B0822C3604361C36143622023038543
:1019B000002302831022049303F18043028403F581
:1019C00004339A6942F008029A619B69028B03F022
:1019D00008030193019B038A134390F82A209BB2CA
:1019E000012A029305D1028C018D0A4313439BB255
:1019F0000293012303930223E06802A9059301F0F7
:101A00000FFBD4E9000103F065FD94F82A30012BA7
:101A100003D1A168206803F05DFD00212046FFF797
:101A200096FF94F82A30012B02D12046FFF779FF68
:101A300006B010BD000C01407FB50023CDE9043392
:101A400003F1804303F504339A69094842F0040224
:101A50009A619B69F02203F004030193019B032325
:101A600002A9CDE9022301F0DBFA07B05DF804FB1F
:101A70000008014030B5104B85B053F821300122E9
:101A8000044601930723CDE9022301F0F3F901A9EC
:101A9000204601F02BF8204601F0E6F864212046AC
:101AA00000F07AFF204601F01DF80546204601F0BF
:101AB000E1F9A8B205B030BD24A0000838B50C4645
:101AC00000210546FFF7D6FF012120802846FFF7B9
:101AD000D1FF022160802846FFF7CCFF0321A080C0
:101AE0002846FFF7C7FFE08038BD00007FB5002320
:101AF000CDE9043303F1804303F504339A690948BF
:101B000042F008029A619B69012203F008030193E5
:101B1000019B032302A9CDE9022301F081FA07B05A
:101B20005DF804FB000C0140002330B585B004468D
:101B3000CDE90133039301F09DF908220123CDE99A
:101B40000123052301A92046039300F0CFFF20467F
:101B500001F08AF86421204600F01EFF204600F0C4
:101B6000C1FF0546204601F085F92846FFF762F8D7
:101B70000A49FFF7B7F80A49FFF7B4F84FF0665182
:101B8000FFF7B0F80749FEF7A3FF00210446FFF76F
:101B900047FA00B10024204605B030BD333353402E
:101BA0000000C842AE47613E30B595B02422002106
:101BB0000BA805F00AFC1422102500210DEB0200F1
:101BC00005F003FC00212A4601A805F0FEFB0224D3
:101BD00001230AA8CDE90E350A9402F045FE01461C
:101BE00008B172B6FEE70F23CDE90700CDE9053055
:101BF000099005A802F0F4FF08B172B6FEE7039061
:101C000001A8019403F0CAF808B172B6FEE715B056
:101C100030BD000000B58BB0FEF706FC084ACDE9E8
:101C20000001202102A805F039FB4FF0FF3382B2FA
:101C300002A9044803F051FD0BB05DF804FB00BF9E
:101C400034A00008BC05002000B5C38895B00293FD
:101C50008388402101934388074A0093038804A89E
:101C600005F01CFB4FF0FF3382B204A9034803F0D8
:101C700034FD15B05DF804FB49A00008BC05002048
:101C80000268034B9A4202D10248FFF73EBA7047FE
:101C9000004400406002002070B51C4888B0FFF787
:101CA00043FF1B4B1860FFF7B5FF1A491748FFF7B2
:101CB00005FF1848FFF7C8FF174800F0A5FA30B92C
:101CC0001649154808B0BDE8704000F071BB6A467F
:101CD0001546134B03F11806144618685968083363
:101CE00003C4B3422246F7D1998818689B792060D3
:101CF000A180A3712846FEF72BFA4FF0FF3382B282
:101D00002946064803F0E9FC08B070BDF40600203F
:101D1000F80100206C050020FC010020BC0500201B
:101D20007CA000082DE9F04F9DB000F0FFFDFFF70B
:101D30003BFF1022002111A805F047FB5E4B48F243
:101D40003C019A695D4842F004029A619A69012552
:101D500002F004020192019A9A69002442F00802FA
:101D60009A619B69002203F008030293029B01F031
:101D70005DFA48F23C03CDE9113502234F4811A921
:101D80004F4ECDE9134301F04BF94E4B30463360D3
:101D90004FF46023B460F36134733475746035615B
:101DA00000F0EAFF034608B172B6FEE74FF416589A
:101DB0000C274548454AC0E90233C0E90028C0E97C
:101DC00005730361C36103F057FC054608B172B6A1
:101DD000FEE70146CDE907001C2211A805F0F5FA3F
:101DE00007233B4C3B492046C4E9001340F2E7334C
:101DF000C4E903358023A560A36103F04FFA08B15D
:101E000072B6FEE7CDE9070007A9204603F064FBA0
:101E1000024608B172B6FEE760231390CDE9113097
:101E2000159011A9204603F091FA08B172B6FEE7A9
:101E30000422204611A903F089FA814608B172B63E
:101E4000FEE74FF4804A244D204600F0EDFBDFF81A
:101E50008CB0234B2846C5E9003BC5E90299C5E98A
:101E600004A9C5E90699C5F8209001F0EDFB0346E9
:101E700008B172B6FEE71B481B4AC0E90233C0E94D
:101E800004A3C0E906330362C0E9002B01F0DCFBC8
:101E9000034608B172B6FEE71448154AC0E902339A
:101EA000C0E90028C0E90437C0E9063303F0E4FBC9
:101EB00000B372B6FEE700BF00100240000C014004
:101EC000F406002000240140BC0500200038014039
:101ED0000406002000080040A0060020A0860100A3
:101EE000005400404C0600200058004074050020BB
:101EF000004400403046FFF7F9FD3046FFF79CFDF7
:101F000029465A4800F039F9B8B1594B11AA03F1E2
:101F10002006154618685968083303C5B3422A4697
:101F2000F7D11B7811A82B70FEF712F94FF0FF3391
:101F300082B211A94F4803F0D0FB64214B4800F056
:101F400006FAC8B14C4B11AA03F1180615461868D9
:101F50005968083303C5B3422A46F7D118689B88ED
:101F60002860AB8011A8FEF7F3F84FF0FF3382B280
:101F700011A9404803F0B1FB00220423CDE904235A
:101F800001233E4803A903948DF81830FFF7FAFCAB
:101F90003B493C48FFF7A2F8C8B13B4B11AA03F1FB
:101FA0001805144618685968083303C4AB42224622
:101FB000F7D118681B792060237111A8FEF7C8F8C3
:101FC0004FF0FF3382B211A92A4803F086FB2F4B52
:101FD00011AA03F12805144618685968083303C488
:101FE000AB422246F7D11868264E206011A8FEF7B2
:101FF000AFF84FF0FF3382B211A91E4803F06DFB1A
:10200000234D244F00F0B0FC04463046FFF784FB1C
:102010002B68E31AB3F57A7F24D3304615492C6038
:10202000FFF7B8FBFFF738FE4FF40051384601F0D8
:1020300002F9194B07AA03F1200C144618685968D5
:10204000083303C463452246F7D118681B79206022
:10205000237107A8FEF77CF8642382B207A905481C
:1020600003F03BFB0A2000F085FCCBE7FC010020DD
:102070009BA00008BC050020BCA000084005002073
:102080007405002060020020DAA00008F7A0000814
:10209000F40100200010014023A100080268034B56
:1020A0009A4201D100F054BC704700BF002C01409F
:1020B0001FB56424CDE90134009201230A46017959
:1020C000006801F001FC003818BF012004B010BD09
:1020D0007FB501238DF817206422CDE901320DF17F
:1020E000170200920A460179006801F059FB003896
:1020F00018BF012007B05DF804FB000038B50A46A0
:102100000C461B210546FFF7E3FF38B9102C06D01B
:10211000182C06D03CB9054B6C712B6338BD044BB1
:10212000FAE7044BF8E7044BF6E700BF000003436F
:1021300033330342333383410000834238B50A46C8
:102140000C461C210546FFF7C3FF40B9102C07D0F1
:10215000182C08D054B94FF08D43AC716B6338BD67
:102160004FF08B43F9E74FF08A43F6E74FF08C438B
:10217000F3E70A461A21FFF7ABBF10B50023044668
:10218000322284F86130A360A381C4F80E306382E8
:102190006361A361E36123626362A3620023216040
:1021A0002287E36208460123D021642286B0217190
:1021B000CDE901320DF117020092752201F084FB86
:1021C0000246F0B99DF81730682B1AD16B212046D2
:1021D000FFF77EFF98B9072219212046FFF778FF05
:1021E00068B903212046FFF7C4FF40B90821204603
:1021F000FFF784FF18B908212046FFF79FFF06B0BC
:1022000010BD0420FBE700002DE9F04F87B00E233E
:102210003B2102AA0446FFF74BFF064600285AD18D
:10222000BDF80820BDF80E0052BA0FFA82FB2281D9
:10223000BDF80A20C0BA52BA0FFA82FA6281BDF81C
:102240000C2052BAA2810FFA82F9FEF7F7FC24495A
:10225000FEF7FCFD2349FEF73DFCBDF81020656B41
:1022600052BA0FFA82F8E281BDF81220E06252BA47
:1022700017B22282BDF81420584652BA13B26282B5
:102280000193FEF7DBFC2946FEF7E0FD6061504656
:10229000FEF7D4FC2946FEF7D9FDA0614846FEF7BB
:1022A000CDFC2946FEF7D2FD256BE0614046FEF7E6
:1022B000C5FC2946FEF7CAFD20623846FEF7BEFC83
:1022C0002946FEF7C3FD60620198FEF7B7FC294678
:1022D000FEF7BCFDA062304607B0BDE8F08F00BF3E
:1022E0000000AA43B81E12422DE9F34106236A46B4
:1022F00043210446FFF7DCFE054620BBBDF8023053
:10230000BDF800005BBA1FB22382BDF80430266B13
:102310005BBA40BA6382E08100B20FFA83F8FEF73D
:102320008DFC3146FEF792FD20623846FEF786FCB2
:102330003146FEF78BFD60624046FEF77FFC31467A
:10234000FEF784FDA062284602B0BDE8F0812DE9C9
:10235000F8430025044689462E462F46A8464D459B
:1023600012D198FBF5F897FBF5F796FBF5F60020F0
:10237000E389A3EB0803E381238ADB1B2382638ABF
:102380009B1B6382BDE8F8832046FFF7ADFF013554
:102390000028F7D1B4F90E30208F9844B4F91030EA
:1023A0001F44B4F912301E4400F0E4FAD7E70000ED
:1023B000F0B5C5B004460D4604A8344905F0D5F87B
:1023C00004A8FDF7C5FE642382B204A9284603F0E1
:1023D00084F96069FEF728F80646E0690F46FEF7C3
:1023E00023F8CDE90201A069FEF71EF832463B460C
:1023F000CDE90001264904A804F084FF04A8FDF7F4
:10240000A7FE642382B204A9284603F066F9206A75
:10241000FEF70AF80646A06A0F46FEF705F8CDE972
:102420000201606AFEF700F832463B46CDE9000142
:10243000184904A804F066FF04A8FDF789FE642388
:1024400082B204A9284603F048F9E06AFDF7ECFFE0
:1024500002460B4604A8104904F054FF04A8FDF7F7
:1024600077FE642382B204A9284603F036F90B49AB
:1024700004A805F07AF804A8FDF76AFE642382B286
:1024800004A9284603F029F945B0F0BD48A1000889
:102490006DA1000891A10008B8A1000825A10008BD
:1024A0000E4B82B09A6942F001029A619A6902F079
:1024B00001020092009ADA6942F08052DA61DB6927
:1024C000074A03F080530193019B536823F0E063B4
:1024D00043F00073536002B0704700BF0010024029
:1024E00000000140102210B5044688B00DEB020038
:1024F000002104F06AFF2268184B9A422BD103F5A1
:102500006C439A69032442F400729A619A691448F0
:1025100002F400720192019A9A6904A942F004023D
:102520009A619A6902F004020292029A9A6942F050
:1025300008029A619B6903F008030393039BF0234D
:10254000CDE9043400F06CFD0123064804A9CDE96F
:10255000043400F065FD08B010BD00BF0024014048
:1025600000080140000C014010B5044686B010225E
:10257000002102A804F029FF22681D4B9A4234D1A1
:102580001C4C4FF44072A3691B4843F00803A3613D
:10259000A36902A903F008030093009B1223CDE96D
:1025A00002230323059300F03BFD144A1F205368C8
:1025B00043F0E06343F0020353600022E3691146F5
:1025C00043F40013E361E36903F400130193019BF7
:1025D00000F07CFC1F2000F0A9FC00222020114606
:1025E00000F074FC202000F0A1FC06B010BD00BF7C
:1025F0000054004000100240000C01400000014067
:102600000268084B82B09A420AD103F50233DA69B4
:1026100042F00402DA61DB6903F004030193019BD9
:1026200002B070470008004010B5044686B0102282
:10263000002102A804F0C9FE22680C4B9A4213D173
:1026400003F502339A690A4842F008029A619B69CD
:10265000C02203F008030193019B022302A9CDE9E4
:102660000223059300F0DCFC06B010BD000800401A
:10267000000C0140102210B5044688B00DEB02009A
:10268000002104F0A2FE23682F4A934229D12F4B48
:102690004FF400719A692E4842F480429A619A6917
:1026A00002F480420092009A9A6942F004029A6110
:1026B0009B6903F004030193019B0223CDE90413FA
:1026C000032304A9079300F0ABFC4FF480600023C0
:1026D00004A9CDE904031E48069300F0A1FC08B04C
:1026E00010BD1C4A9342FAD1184B04A9DA69184864
:1026F00042F40032DA61DA69002402F40032029214
:10270000029A9A6942F004029A619B69042203F0DA
:1027100004030393039B0223CDE9042303230793BC
:1027200000F07EFC082304A90948CDE9043406948E
:1027300000F076FC22462146262000F0C7FB26202A
:1027400000F0F4FBCBE700BF00380140001002406E
:10275000000801400044004070B51E4B88B09A69E3
:1027600001A942F400629A619B69064603F4006382
:10277000029303A8184D029B02F0F2FA02F0E0FA6D
:10278000164B2B6040F2E733EB60154BB0FBF3F0D8
:1027900000230138686028462B61AB60AB6102F012
:1027A00051FD044680B9284602F046FC044658B95B
:1027B000192000F0BBFB0F2E09D822463146192004
:1027C00000F084FB074B1E60204608B070BD01245A
:1027D000FAE700BF0010024024070020002C01404F
:1027E00040420F0008000020FEE7FEE7FEE7FEE79C
:1027F000FEE770477047704770470000014802F0DD
:1028000049BC00BF24070020014801F017BB00BFEE
:10281000A0060020014801F07FBF00BFA0060020F5
:10282000014803F011B800BF740500200120704773
:1028300008B504F06DFE162303604FF0FF3008BDAD
:1028400008B504F065FE16230360FEE770B50D467B
:1028500014460E46731B9C4201DC204670BDAFF34C
:10286000008006F8010BF5E770B50D4614460E46DC
:10287000731B9C4201DC204670BD16F8010BAFF3C0
:102880000080F5E74FF0FF3070474FF40053002011
:102890004B607047012070470020704710B50B4A0D
:1028A0000346116809B90A491160106809490A4CC0
:1028B0000344091B8B4206D904F02AFE0C23036053
:1028C0004FF0FF3010BD1360FCE700BF6C07002025
:1028D000C0080020005000200004000070470000E5
:1028E000FFF7FCFF0B480C490C4A002302E0D458C8
:1028F000C4500433C4188C42F9D3094A094C00234C
:1029000001E013600432A242FBD304F007FEFFF79C
:1029100009FA704700000020D401002040A60008FA
:10292000D8010020C0080020FEE7000008B5074AD3
:102930000320136843F01003136000F0B5FA0F2072
:10294000FFF70AFFFFF7ACFD002008BD00200240A2
:10295000034A044B11681B780B441360704700BF97
:102960007007002004000020014B1868704700BF6A
:102970007007002038B50446FFF7F6FF0546631CD4
:102980001EBF044B1B78E418FFF7EEFF431BA34266
:10299000FAD338BD04000020F7B5002604460D46E2
:1029A0000196FFF7E1FF236807469A68D10508D52D
:1029B0000120A36A84F8246043F02003A36203B0DB
:1029C000F0BD5A68D20503D4DB6A13F4700F3DD012
:1029D0003E4B02201E6802F05BFA23683C4A1969EC
:1029E000B6FBF0F611423B4A52D1D8683A49084248
:1029F0004ED1196911425CD1DA68384B1A4214BFC2
:102A0000292314235E43019BB34223D26A1C04D0C2
:102A1000002D54D1019BB3420AD3019B0133019392
:102A2000F1E76E1C13D065B923681B6898070DD4B5
:102A3000A36A032043F00403A362002384F8243034
:102A4000BDE7FFF791FFC01BA842EDD822681368CD
:102A50009907E6D56FF0120223681A60A36A43F45F
:102A60000073A36223689B6803F46023B3F5602FAF
:102A70000CD1237B53B9A36A23F48073A362A36AA6
:102A8000DB0403D4A36A43F00103A362002096E7AA
:102A90001969114203D1D968104A11420BD0196942
:102AA0000F4A114209D1DB68134214BFFC2354239F
:102AB000A8E72923A6E75423A4E7FC23A2E7FFF70E
:102AC00053FFC01BA842A5D8A7E700BF0000002005
:102AD00024499224922449122449920092244900C4
:102AE000499224000368D86C70470000002373B536
:102AF000019390F824300246012B71D0012380F815
:102B000024304C680068062C0D684FEA840325D8F1
:102B100023441F24466B053B9C4026EA040405FA27
:102B200003F3234343630C681668092C04EB440049
:102B30008B684FF0070429D9F5681E38844025EAD0
:102B4000040483402343F3600B68103B012B25D919
:102B50000020002382F8243002B070BD0C2C2344E6
:102B60004FF01F0409D8066B233B9C4026EA04045F
:102B700005FA03F323430363D5E7C66A413B9C4050
:102B800026EA04049D402C43C462CCE735698440A6
:102B900025EA0404834023433361D5E713681148D1
:102BA000834217D198680002D2D4986840F400009C
:102BB00098600B68102BCBD10B4B0C491B68B3FBF7
:102BC000F1F30A214B430193019B002BC0D0019BE1
:102BD000013BF8E7936A012043F020039362B8E7D2
:102BE0000220B9E7002401400000002040420F000D
:102BF000002337B50193036804469A68D20702D5CB
:102C0000002003B030BD9A6842F001029A60144B74
:102C1000144A1B68B3FBF2F30193019BE3B9FFF77E
:102C2000A3FE054623689B68DB07E9D4FFF79CFEFB
:102C3000401B0228F6D923689B6813F00103F1D1E9
:102C4000A26A012042F01002A262E26A84F82430F3
:102C500042F00102E262D4E7019B013BDCE700BFE6
:102C60000000002040420F0010B590F824300446C8
:102C7000012B55D0012380F82430FFF7B9FF00283D
:102C80004AD1A36A226823F4407323F0010343F47A
:102C90008073A362234B9A4204D123494B6813F4F7
:102CA000702F2FD1A36A23F48013A36253685B05AE
:102CB00041BFA36A23F4405343F48053A362A36A41
:102CC00013F480531CBFE36A23F00603E36200237E
:102CD00084F824306FF00203136023689A6802F4CA
:102CE0006022B2F5602F13D10E4A934205D1A2F5AE
:102CF0008062526812F4702F0AD19A6842F4A002DE
:102D00009A6010BDA36A43F48013A3624B68CEE7B8
:102D10009A6842F48012F3E7002384F82430F0E745
:102D20000220EEE7002801400024014038B5036886
:102D300004469A68D10701D4002038BD9A6822F071
:102D400001029A60FFF710FE054623689B68DB07C7
:102D5000F2D5FFF709FE401B0228F6D923689B68CD
:102D6000DA07F2D5A36A012043F01003A362E36AF5
:102D700043F00103E362E0E770B5044600286DD03C
:102D8000836A23B9C36280F82430FFF7ABFB204687
:102D9000FFF7CCFFA36A13F0100361D100285FD1C5
:102DA000A26A616822F4885222F0020242F0020212
:102DB000A262E269257B1143A26841EA4501B2F5AE
:102DC000807F03D0561E724272411202267D012E70
:102DD00007D1002D2FD1A569013D42EA453545F4C3
:102DE00000622668756825F469452A437260256883
:102DF0001E4AAE6832400A43AA60A268B2F5807FDC
:102E000001D0012A02D12369013B1B052568EA6A2A
:102E100022F470021343EB6223689A68144B134048
:102E2000994211D10023E362A36A23F0030343F024
:102E30000103A36270BDA56A45F02005A562E56A9D
:102E400045F00105E562CCE7A36A23F0120343F0E5
:102E50001003A362E36A43F00103E3620120E9E7A0
:102E6000A36A43F01003A362F8E700BFFDF7E1FF98
:102E7000FE0E1FFF10B590F824300446012B11D030
:102E8000012380F82430FFF751FF38B9A36A23F4F7
:102E9000885323F0010343F00103A362002384F865
:102EA000243010BD0220FCE707490302CA6803F47E
:102EB000E06322F4E0621204120C134343F0BF6398
:102EC00043F40033CB60704700ED00E030B5154BA4
:102ED000DC68C4F30224C4F10703251D042B28BFBA
:102EE0000423062D4FF0FF3594BF0024033C05FA60
:102EF00003F321EA0303A54022EA0502A3400028C8
:102F000043EA0203ACBF00F16040074A4FEA0313F3
:102F1000DBB2ABBF00F5614000F00F0080F800337A
:102F2000135430BD00ED00E014ED00E0002807DB95
:102F300001234109034A00F01F00834042F8213079
:102F4000704700BF00E100E090F821200346022A0C
:102F500006D0042282630120002283F820207047DB
:102F600001680A6822F00E020A6001680A6822F00D
:102F700001020A6001211A6CC06B01FA02F2426080
:102F8000002083F82110E7E708B590F82130022BE4
:102F900003D004238363012008BD0268136823F073
:102FA0000E0313600268136823F0010313600368C3
:102FB000174A93421FD0143293421ED014329342C8
:102FC0001DD0143293421DD0143293421DD01432BE
:102FD000934214BF4FF080734FF480130D4A536037
:102FE000012380F82130002380F82030436B03B1A7
:102FF00098470020D0E70123F0E71023EEE74FF4D5
:103000008073EBE74FF48053E8E74FF48033E5E754
:10301000080002400000024090F8210070470000C4
:103020002DE9F74F00221546794E7A4BDFF8E8C1BB
:103030007A4FD1F800E03EFA05F402D103B0BDE8C2
:10304000F08F4FF0010808FA05F80EEA080438EA94
:103050000E0E40F0A180D1F804E0BEF1030F09D8B4
:103060000EF1FF3EBEF1020F00F2A680DFE80EF087
:10307000B8BDC300BEF1120F00F0BA8000F28E801E
:10308000BEF1110F00F0AE80FF2C98BF82464FF0CA
:103090000F094FEA850E84BF00F1040AAEF1200E3D
:1030A000DAF8008009FA0EFB28EA0B0802FA0EFE95
:1030B00048EA0E08CAF80080D1F804E01EF0805FEC
:1030C0006AD0D6F818E025F003084EF0010EC6F8D5
:1030D00018E0D6F818E008F180480EF0010ECDF89F
:1030E00004E008F5803805F0030ADDF804E04FEA53
:1030F0008A0AD8F808E009FA0AF92EEA0909DFF87D
:1031000020E170457BD00EF5806E70457AD00EF5CB
:10311000806E704579D00EF5806E704514BF4FF00B
:10312000040E4FF0030E0EFA0AFE4EEA090EC8F81E
:1031300008E0D1F804E01EF4801FD3F808E014BFC3
:103140004EEA040E2EEA040EC3F808E0D1F804E0BB
:103150001EF4001FD3F80CE014BF4EEA040E2EEA52
:10316000040EC3F80CE0D1F804E01EF4003FD3F8DD
:1031700004E014BF4EEA040E2EEA040EC3F804E085
:10318000D1F804E01EF4803FD3F800E014BF4EEA0B
:1031900004042EEA04041C6001354AE7DFF8849039
:1031A000CE4509D014D8A9F58019CE4504D0E645FE
:1031B00002D0BE457FF468AF8A68F2B1012A08BF29
:1031C000C0F810804FF0080218BFC0F814805BE709
:1031D000DFF85490CE45EFD009F58039CE45E9E7C8
:1031E000CA6851E7CA6804324EE7CA6808324BE73A
:1031F000CA680C3248E7002246E7042244E74FF051
:10320000000E90E74FF0010E8DE74FF0020E8AE7B7
:1032100000100240000401400000211000001110C5
:103220000008014000002210000031100AB10161C5
:1032300070470904FBE7C36801EA030221EA0301BE
:1032400041EA024101617047016800224B6913F4B1
:10325000806310D06FF480634B612023026380F899
:103260003D3080F83E20036C80F83C2043F004039E
:10327000036401207047184670472DE9F84606465A
:103280000F4691461D464FEA114A3368BAF1010FC5
:103290000CBF5C699C6927EA0404A4B2B4FA84F404
:1032A0006409A14501D0002025E06A1CEED0FFF79B
:1032B0005BFB089BC01AA84201D8002DE5D13368FA
:1032C000BAF1010F0CBF5B699B6927EA03039BB24C
:1032D000B3FA83F35B099945D7D10023202201205B
:1032E000336386F83D2086F83E30326C86F83C30F9
:1032F00042F020023264BDE8F886F8B504460E4676
:1033000015461F462268506926EA000080B2C8B1FF
:103310005369590517D5136843F4007313606FF4AC
:10332000806223685A6100232022236384F83D20B1
:1033300084F83E30236C43F004032364002301200F
:1033400084F83C30F8BD6B1CDDD0FFF70DFBC01BD3
:10335000A84201D8002DD5D123685A6926EA020275
:1033600092B2002ACED000232022236384F83D208D
:1033700084F83E30236C1343DFE770B504460D46F6
:10338000164623685B691B0601D500201EE0204617
:10339000FFF75AFFC8B96A1CF3D0FFF7E5FA801BA4
:1033A000A84201D8002DECD123685B6913F080039B
:1033B000E7D12022236384F83D2084F83E30226C3C
:1033C00084F83C3042F020022264012070BD0000ED
:1033D0002DE9F043154602689946136885B043F419
:1033E00080731360DDE90C780E463B4600224FF0F7
:1033F0000111CDF800800446FFF73FFF236838B184
:103400001B68DB0502D54FF400732364032620E01C
:1034100006F0FE061E613A46434620461849FFF76D
:103420006CFFA8B9236803905A69394603929B69D7
:10343000424603932046039BFFF79FFF064660B179
:10344000236C042B01BF2268136843F400731360DC
:103450000126304605B0BDE8F083B9F1010F2368BD
:1034600002D1EDB21D61F4E72A0A1A6139464246DB
:103470002046FFF782FF0028E2D12368F1E700BF72
:10348000020001002DE9FF471546DDE90C780268CE
:103490009A4613680E4643F48063136002684FF047
:1034A00001111368044643F4807313603B46002205
:1034B000CDF80080FFF7E1FE236848B11B68DB050B
:1034C00048BF4FF400734FF0030048BF236421E06E
:1034D0005FFA86F906F0FE061E613A46434620462C
:1034E0002949FFF70AFFA0B9236803905A693946B2
:1034F00003929B69424603932046039BFFF73DFFDF
:1035000058B1236C042B01BF2268136843F4007385
:103510001360012004B0BDE8F087BAF1010F236801
:103520001AD1EDB24246394620461D61FFF725FF0C
:1035300002460028E5D1216820460B6843F48073D9
:103540000B603B464FF00111CDF80080FFF795FE70
:10355000226860B11368B2E72A0A1A613946424606
:103560002046FFF70AFF0028CBD12368D9E749F0AE
:1035700001031361204643463A460349FFF7BDFE67
:10358000003818BF0120C5E70200010070B50446ED
:103590000D46164623685B695B0701D500201EE0D7
:1035A0002046FFF751FEC8B96A1CF3D0FFF7DCF9DB
:1035B000801BA84201D8002DECD123685B6913F071
:1035C0000403E7D12022236384F83D2084F83E30B1
:1035D000226C84F83C3042F020022264012070BD4D
:1035E00070B504460D46164621684B6913F040033A
:1035F00001D0002011E04A69D2060FD56FF0100209
:103600004A612022236384F83D2084F83E30236CF5
:1036100023640023012084F83C3070BDFFF7A4F937
:10362000801BA84201D8002DDED123685B6913F00E
:103630004003D9D12022236384F83D2084F83E3012
:10364000236C1343E4E7000070B5044608B9012079
:1036500070BD90F83D3003F0FF021BB980F83C20AC
:10366000FEF782FF2423226884F83D30136823F09C
:10367000010313602268136843F400431360226857
:10368000136823F40043136001F04AFB404B626867
:103690009A4294BF3F4B404B9842D8D93F4B216848
:1036A000B0FBF3F34A683A4D22F03F021A434A60F6
:1036B00066682168AE4281BF4FF496756B434FF444
:1036C0007A75B3FBF5F30A6A013322F03F02134324
:1036D0000B6221686568CA69431E2D4822F44F4277
:1036E000854222F0FF0236D86D00B3FBF5F340F6B9
:1036F000FC700133034246D0C3F30B031A43CA6183
:103700002168D4E907300A68034322F0C00213435A
:103710000B602168D4E903038A68034322F403425F
:1037200022F0FF0213438B602168D4E90530CA6898
:10373000034322F0FF021343CB602268002013688A
:1037400043F0010313602023206484F83D3020639C
:1037500084F83E007CE7A06850B905EB4505B3FB53
:10376000F5F30133C3F30B037BB143F40043C5E727
:1037700019204543B3FBF5F30133C3F30B0323B126
:1037800043F44043BAE70423B8E70123B6E700BF98
:10379000A08601007F841E00FF083D0040420F000C
:1037A0002DE9F743044699460F4690460C9EFFF7D5
:1037B000DBF894F83D300546202B03D0022003B0FF
:1037C000BDE8F08300901923012220463C49FFF711
:1037D00054FD0028F2D194F83C30012BEED00123A7
:1037E00084F83C30236839461A682046D2075EBF09
:1037F0001A6842F001021A602268136823F4006319
:103800001360212384F83D30402384F83E300023A8
:1038100023640A9B42466362BDF82C306385638D46
:103820002385284BE3624B46CDE90065FFF7D0FDC9
:1038300000282DD00120C2E7FFF79FFD40B1236C87
:10384000042B01BF2268136843F400731360F1E78F
:10385000626A236812781A61616A628D4B1C636226
:10386000238D013A92B2013B62859BB22268238587
:10387000506940070CD55BB14B781361636A013323
:103880006362238D013B2385638D013B9BB263857E
:10389000238D2A4631462046002BCDD1FFF776FEF8
:1038A0000028CCD12268136843F4007313602023EE
:1038B00084F83C0084F83D3084F83E007FE700BF88
:1038C000020010000000FFFF2DE9F043994600239D
:1038D000044689B003930D469046129FFFF744F8C3
:1038E00094F83D300646202B04D00225284609B026
:1038F000BDE8F08300901923012220468F49FFF78D
:10390000BCFC0028F1D194F83C30012BEDD0012310
:1039100084F83C30236829461A682046D2075EBFE7
:103920001A6842F001021A602268136823F40063E7
:103930001360222384F83D30402384F83E30002376
:103940002364109B42466362BDF844306385638DF7
:1039500023857B4BE3624B46CDE90076FFF792FD72
:103960000546002840F0BC80228D2368C2B904902F
:103970005A6904929A690492049A1A6842F400728D
:103980001A60DFF8C081DFF8C091238D002B38D199
:10399000202284F83C3084F83D2084F83E30A5E7AE
:1039A000012A11D11A6822F480621A6072B6236863
:1039B00005905A6905929A690592059A1A6842F427
:1039C00000721A6062B6DCE7022A1A680ED142F46D
:1039D00000621A6072B6236806905A6906929A6964
:1039E0000692069A1A6822F48062EAE742F480623C
:1039F0001A60236807905A6907929B690793079B8F
:103A0000BFE7032B77D8012B15D132463946204624
:103A1000FFF7E6FD002863D123681A69636A1A700C
:103A2000636A01336362238D013B2385638D013B10
:103A30009BB26385A9E7022B4FF000023B4641464B
:103A40002046009619D1FFF718FC002848D172B61D
:103A50002268136843F40073136023681A69636A69
:103A60001A70636A01336362238D013B2385638D82
:103A7000013B9BB2638562B6CEE7FFF7FEFB0028F1
:103A80002ED12268136823F48063136072B6236812
:103A90001A69636A1A7046F2A812636A0133636294
:103AA000238D013B2385638D013B9BB26385D9F850
:103AB0000030B3FBF2F3232253430393039B013BF8
:103AC0000393039B73B92022236384F83D2084F879
:103AD0003E30226C42F02002226462B684F83C3010
:103AE000012503E723685A695007E7D51A6842F4AD
:103AF00000721A60B1E7324639462046FFF770FD82
:103B00000028EDD123681A69636A1A70636A628DAE
:103B100001336362238D013A92B2013B62859BB20D
:103B200022682385516949077FF52FAF032B02BF18
:103B3000136823F4806313606EE700BF0200100077
:103B40000000FFFF040001000000002070477047E4
:103B50007047704770477047704790F83D2008B530
:103B6000036DD2B283B9C36C0268012B836C05D19B
:103B7000DBB21361036D0233036508BDC3F3072392
:103B80001361036D0133F7E7036D012B03D1836CE0
:103B90000268DBB2F4E7036D022B31D1222A05D192
:103BA0000268136843F480731360EAE7438D9BB2A5
:103BB0006BB1212A0BD1426A036812781A61436AF9
:103BC00001334362438D013B9BB24385D5E7438D6F
:103BD0009BB2002BD1D1212ACFD101684A6822F4AF
:103BE000E0624A6001680A6842F400720A602022BA
:103BF000036380F83D2080F83E30FFF7ADFFBCE75F
:103C000003685A69120644BF00221A61B5E770477B
:103C100070477047002307B546F2A811406A019328
:103C200090F83D30DAB22E4B1B68B3FBF1F3232141
:103C30004B430193019B002B2ED1036C43F02003D7
:103C40000364436B0BB100219962836B0BB10021BC
:103C5000996201680B6823F480630B600021436B59
:103C6000418503B15963836B0BB10021596301682E
:103C70000B6823F001030B6090F83D30602B13D1EB
:103C8000202380F83D30002380F83E300364FFF7A6
:103C9000C0FF03B05DF804FB019B013B0193036887
:103CA0001B689B05C6D4CCE702F02803282B10D153
:103CB00001680A6842F001020A6001680A6842F479
:103CC00080620A600022026380F83D30FFF7A0FFA7
:103CD000DFE7202380F83D30002380F83E30F5E711
:103CE0000000002010B590F83D3090F83E200446CA
:103CF000102ADBB2D1B201D0402915D1222B13D129
:103D000021680A6822F400620A602268526812F48C
:103D1000006206D1602B1EBF202384F83D3084F85A
:103D20003E200023236307E003F02802282AECD179
:103D30000023236384F83D2023685A6812F400624C
:103D400051D05A6822F400625A60626B92F82130B6
:103D5000012B384B2CD05363606BFFF715F950B132
:103D60002268136823F0010313602023606B84F83A
:103D70003D30436B9847236C19071FBF2268536877
:103D800023F4E063536094F83D30226CDBB25207B9
:103D90000DD5282B0BD1284B2022E362002320468F
:103DA000236384F83D2084F83E30FFF7D4FE10BD35
:103DB000A26B5363A06BFFF7E7F80028DBD0236802
:103DC0005A69510605D51A69636A1A70636A013324
:103DD00063622268136823F0010313602023A06B41
:103DE00084F83D30C5E794F83D10602915D12021B5
:103DF00084F83D1022645A69520605D51A69636A2F
:103E00001A70636A0133636222682046136823F0E4
:103E100001031360FFF7FDFEADE75A69500605D5B3
:103E20001A69636A1A70636A013363622046FFF796
:103E3000EFFEA0E7153C00080000FFFFF0B50446C8
:103E400003688FB05A68C66A90F83E0094F83D1037
:103E50001028C5B2C9B202D0402D40F0F4829F694B
:103E6000586910F0010F07D1B6F52A0F02D0B6F14C
:103E70002A4F52D10FB0F0BD96054ED5E26AB2F589
:103E80002A0F0CD10122E26294F83E20402A11D17F
:103E9000226D52B9626C02F0FE021A61EAE7E26A30
:103EA000B2F12A4FF0D10822EDE7626C42F0010234
:103EB000D2B2F2E72269B2F5804F1BD194F83D20CF
:103EC000212A626C12D102F0FE021A61636B0BB1FF
:103ED0009B6A2BB9A36B002BCCD09B6A002BC9D05B
:103EE0002268536843F400635360C3E742F0010261
:103EF000D2B2EAE7226D32B9626CD21102F0060248
:103F000042F0F002C9E7226D012AB3D1626CD211EE
:103F100002F0060242F0F102BFE7060703D596055C
:103F200001D5626CE4E7860740F1F980960540F11F
:103F3000F68094F83E10E26A256B94F83D00C9B211
:103F4000222840F0E480206D40B9402906D100903D
:103F50005A6900929B690093009B8BE7216D89B998
:103F60002069B0F5404F0DD101915A6901929A69CB
:103F70000192019A1A6842F480721A60236D01332B
:103F8000236577E7618D89B251B902915A6902922E
:103F90009A690292029A1A6842F400721A601BE04F
:103FA000618D89B201294DD112F5803F1DD11A686A
:103FB00022F480621A6023685A6812F400620DD0FD
:103FC0001A6822F480621A600023039323685A69F6
:103FD00003929B690393039B0023D1E704925A69E0
:103FE00004929A690492049AD5E7082A1DD0202ADF
:103FF0001BD0122D0ED1012A17D11A6822F480622B
:104000001A600023059323685A6905929B690593FA
:10401000059BE1E7102AF0D88A4941FA02F2D70756
:10402000EBD41A6842F48062EAE71A6822F48062EC
:104030001A600023069323685A6906929A690692C9
:10404000069AA8E7618D89B202293BD1102A03D8CC
:104050007D49D140CE071AD4196841F40061196036
:104060000023079323685969079199690791079974
:10407000196821F480611960236859680D05ABD572
:10408000202A1CD8072A0FD8012AA5D112E01968C6
:1040900041F48061196000230893236859690891ED
:1040A0009B690893089BE7E7A2F10801674ACA40A9
:1040B000D00791D55A6842F480525A608CE712F5C5
:1040C000803FE2E7196841F480611960236859680C
:1040D000090505D5202A17D8072A0AD8012A0ED0A3
:1040E0000023099323685A6909929B690993099BE4
:1040F00072E7A2F10801554ACA40D207F0D55A68C2
:1041000042F480525A60EBE712F5803FE7E7002265
:104110000A925A690A929B690A930A9BAAE67F0748
:1041200040F196805E6836053FF5A4AE070600F0C4
:1041300004063FD550053DD5002E3ED194F83D20D4
:10414000258D94F83E10D2B2E06AC9B2C5B9212AD1
:1041500018D108285AD0202858D010F5803F55D0C3
:104160005A6822F4E0625A6011232363002384F822
:104170003E302023204684F83D30FFF7E7FC79E607
:10418000212A05D040297FF475AE222A7FF472AE31
:10419000628D92B222B95A6822F480625A6069E64E
:1041A00094F83E20402A16D120460FB0BDE8F040DA
:1041B000FFF7D3BC002E3FF45DAE97057FF55AAEF6
:1041C00021293BD1E16A94F83D20212A7FF452AEA7
:1041D000628D92B252B1626A12781A61636A0133D7
:1041E0006362638D013B9BB2638543E608290DD072
:1041F00020290BD011F5803F08D0596821F4E061E7
:1042000059601123236384F83E20B2E75A682046A0
:1042100022F4E0625A602268136843F4007313606A
:1042200000232022236384F83D2094F83E2084F864
:104230003E30402AA1D1FFF78FFC1BE6402D7FF4D2
:1042400019AEB1E7EBFFFEFF140001000101000110
:1042500059680E053FF50EAE450600F0040140F129
:104260008880500540F18580002940F0858094F8D1
:104270003D20222A7FF4FEADE06A628D92B2032ACD
:1042800013D91A69636A1A70636A01336362638DB2
:10429000013B9BB26385638D9BB2032B7FF4EAAD38
:1042A0002268536823F480631EE6E56A022D3FF41A
:1042B00072AF012A3FF66FAF0B9146F2A8117B4A0D
:1042C0001268B2FBF1F202EB82020B920B9A013AF6
:1042D0000B920B99D9B9226C204642F0200222643D
:1042E0005A6822F4E0625A6023681A69636A1A7095
:1042F000636A01336362638D013B9BB26385202354
:1043000084F83D3084F83E10FFF782FCB2E51A686D
:1043100012F40072DAD1196821F480611960216801
:104320004B6823F4E0634B6023681969636A197072
:10433000636A01336362638D013B9BB26385202313
:1043400084F83D3094F83E3084F83E20402B04D170
:1043500022632046FFF75BFC8CE5082801D020286B
:1043600001D1002300E0122320462363FFF7EFFB77
:1043700080E500293FF47EAD92057FF57BADE26AD2
:10438000618D89B2042908D15A6822F480625A608A
:1043900023681A69636A1A7020E7618D89B203295C
:1043A0000DD15968042A21F480615960F0D0022AA5
:1043B0001FBF2268136823F480631360E8E7618DF0
:1043C00089B20229E5D1042A35D007D8012A07D0BD
:1043D000022A30D0196841F4007104E0102AF9D1A2
:1043E000196821F48061196023681969636A19707A
:1043F000616A4B1C6362638D013B9BB263852368DA
:104400001B694B70636A216801336362638D013BF2
:104410009BB263854B6823F440734B60202384F880
:104420003D3094F83E30402B4FF0000384F83E308E
:1044300005D123638DE7196841F48061D3E7082A29
:104440008FD0202A8CE7206C10B30025586987078D
:104450002ED596052CD5226C02B19D6994F83D208D
:1044600002F02802282A16D15A682F0622F4806208
:104470005A604FF0000385F00401204654BFA28922
:10448000228BC1F3800184F83C30FFF763FBF1E439
:104490009D695869DBE700220C9259690C919B6970
:1044A00084F83C200C930C9BE4E400BF0000002047
:1044B000C60640F1B880950540F1B58094F83D50AE
:1044C0005A68EDB222F4E0625A6000230D9323682B
:1044D0005A690D921A6842F001021A6022680D9B17
:1044E000136823F48063136023685A68100522D58B
:1044F00005F0F702222A4CD1A26B1268526892B2E0
:104500006285628D92B21AB1226C42F0040222647A
:104510005A6822F400625A60A06BFEF77DFD012804
:1045200009D0A36B7A4A5A63A06BFEF72DFD10B138
:10453000A06B436B9847638D9BB213B323685A6992
:10454000510709D51A69636A1A70636A0133636295
:10455000638D013B9BB2638523685A69520609D576
:104560001A69636A1A70636A01336362638D013B7F
:104570009BB26385638D9BB21BB1236C43F0040334
:104580002364236C23B320460FB0BDE8F040FFF74F
:10459000A9BB626B1268526892B26285628D92B258
:1045A0001AB1226C42F0040222645A6822F40062BA
:1045B0005A60606BFEF730FD0128BCD0636B544A33
:1045C0005A63606BFEF7E0FC0028B4D0606BB0E784
:1045D0002A2D06D123632823204684F83D30FFF797
:1045E000B8FA94F83D30282B0CD14A4B2022E362D4
:1045F00000232046236384F83D2084F83E30FFF7F3
:10460000AAFA37E4236B222B02D0222D7FF432AC9E
:1046100000232022236384F83D2084F83E30204686
:10462000FFF797FA26E401F0F701212900F00405CD
:1046300038D107062AD5560528D555BB94F83D0034
:10464000628DC0B292B2002A3FF414AC626A127852
:104650001A61636A01336362638D013B9BB26385B8
:10466000638D9BB2002B7FF405AC29287FF402AC4C
:1046700022682046536823F4806353602823216313
:1046800084F83D30FFF764FAFFF7F4BB002D3FF4E8
:10469000F1AB95057FF5EEAB628D92B2002A3FF447
:1046A000E9AB98E5400627D5510525D53DBB94F8E3
:1046B0003D20618DD2B289B200293FF4DBAB19698C
:1046C000636A1970636A01336362638D013B9BB255
:1046D0006385638D9BB2002B7FF4CCAB2A2A7FF4D9
:1046E000C9AB2268536823F4806353602223236399
:1046F000282384F83D3092E7002D3FF4BBAB9205B0
:104700007FF5B8AB628D92B2002A3FF4B3AB40E6BE
:10471000153C00080000FFFFF8B5036804465F6918
:104720005E6890F83E2017F48075D2B20BD016F474
:10473000807508D06FF480710125596101680B689C
:1047400043F400430B60BB0507D5F00541BF6FF490
:104750000071236845F002055961790539D5F305E3
:1047600037D5608D94F83D10202AD4F830C02368E6
:1047700080B2C9B264D1002862D101F0F7002128CB
:1047800004D028295CD1BCF1210F59D194F83D20E7
:10479000E16AD2B2082901D020292CD1282A2AD1B5
:1047A000304A2046E2625A6822F4E0625A606FF4AE
:1047B000806223685A612268136823F4806313605F
:1047C00000232022236384F83D2084F83E30FFF745
:1047D000C2F93A0543D5F30541D56FF40062236869
:1047E00045F008055A61236C20462B432364BDE83D
:1047F000F840FFF777BA212A1ED11A49E1622263F5
:104800000021202284F83D2084F83E105A6822F4CA
:10481000E0625A606FF4806223685A61226813680C
:1048200023F48063136023685A69100648BF196136
:104830002046FFF78DF9CCE76FF480625A61C8E734
:104840006FF48061102A596101D0402A04D1226896
:10485000136843F40073136045F00405B9E7002DB5
:10486000C1D1F8BD0000FFFF2DE9F341044638B384
:104870000368DB0710D423689F0759D423681907FE
:1048800000F1908023685A0700F1BC80E369002B97
:1048900040F0248100202BE08C4D6B6803F00C036A
:1048A000042B07D06B6803F00C03082B0AD16B684C
:1048B000DE0307D52B689D03DDD56368002BDAD1B5
:1048C000012015E06368B3F5803F14D12B6843F4F1
:1048D00080332B606368FBB1FEF746F806462B6811
:1048E0009803C8D4FEF740F8801B6428F7D903204A
:1048F00002B0BDE8F0813BB92B6823F480332B6014
:104900002B6823F48023E4E7B3F5A02F2B68F4D1C0
:1049100043F480232B60D9E7FEF726F806462B6880
:104920009903A8D5FEF720F8801B6428F7D9DEE7A5
:10493000664D6B6813F00C0F07D06B6803F00C0327
:10494000082B10D16B68DA030DD42B689B0702D5B6
:104950002369012BB4D12B68626923F0F80343EA81
:10496000C2032B608AE72269594B6AB101221A609F
:10497000FDF7FAFF06462B689F07ECD4FDF7F4FF1E
:10498000801B0228F7D9B2E71A60FDF7EDFF064653
:104990002B6898077FF572AFFDF7E6FF801B0228B2
:1049A000F6D9A4E7A269494E494BE2B10122C3F806
:1049B0008024FDF7D9FF0546736A9B070DD54FF498
:1049C000FA52444B1B68B3FBF2F3019300BF019B07
:1049D0005A1E0192002BF9D154E7FDF7C5FF401B89
:1049E0000228E9D983E7C3F88024FDF7BDFF054617
:1049F000736A9F077FF546AFFDF7B6FF401B02289D
:104A0000F6D974E7314DEB69D80027D40127EB695B
:104A100043F08053EB61EB6903F080530093009BFC
:104A20002D4E3368D9051BD5E368012B29D12B6A9C
:104A300043F001032B62E368002B38D0FDF794FFAD
:104A400041F2883806462B6A9B072AD5002F3FF48F
:104A50001DAFEB6923F08053EB6117E70027DFE719
:104A6000336843F480733360FDF77EFF804633681C
:104A7000DA05D9D4FDF778FFA0EB08006428F6D951
:104A800035E73BB92B6A23F001032B622B6A23F035
:104A90000403CFE7052B2B6AF5D143F004032B6207
:104AA000C5E7FDF761FF801B4045CCD91FE7FDF747
:104AB0005BFF41F2883806462B6A9807C6D5FDF79A
:104AC00053FF801B4045F7D911E700BF001002409B
:104AD0000000424200000020007000402B4D6A6838
:104AE00002F00C02082A3FD00022022B284B1A6643
:104AF0002DD1FDF739FF06462B68990121D4236A91
:104B0000B3F5803F05D16B68A26823F400331343EB
:104B10006B606A68D4E9083122F474120B431343C2
:104B200001226B601A4B1A66FDF71EFF04462B68C4
:104B30009A013FF5AFAEFDF717FF001B0228F6D92B
:104B4000D5E6FDF711FF801B0228D5D9CFE6FDF78A
:104B50000BFF04462B689B017FF59CAEFDF704FF1D
:104B6000001B0228F6D9C2E6012B3FF4A9AE686803
:104B7000236A00F480329A427FF4A2AE636A00F4A2
:104B80007010C01A18BF0120B2E600BF001002402A
:104B9000000042420D4A536803F00C01082912D16B
:104BA0000B48C3F38341DB03405C09D55368094AD2
:104BB000C3F340435043084AD35CB0FBF3F0704763
:104BC000064B584370470348704700BF001002402F
:104BD000E8A1000800127A00E6A1000800093D00E3
:104BE0002DE9F0410D46044610B90120BDE8F081E1
:104BF000464A136803F007038B422AD323689807B9
:104C000032D42368DA0745D4404A136803F0070317
:104C1000AB4267D823683E4D13F0040F6ED1236872
:104C20001B0706D56B68226923F4605343EAC2036D
:104C30006B60FFF7AFFF6B68364AC3F30313D35CB7
:104C4000D840354B1860354B1868FDF785FD0020BE
:104C5000CCE7136823F007030B431360136803F0DA
:104C600007038B42C1D1C9E713F0040F284B1EBFC5
:104C70005A6842F4E0625A602268110742BF5A68DB
:104C800042F460525A605A68A16822F0F0020A4366
:104C90005A60B6E762681E4E012A33681AD113F4CF
:104CA000003FA2D0736841F2883823F00303134316
:104CB0007360FDF759FE07467368626803F00C03E2
:104CC000B3EB820FA0D0FDF74FFEC01B4045F3D9D8
:104CD00003208BE7022A02D113F0007FE1E713F0F3
:104CE000020FDEE7136823F007032B4313601368FA
:104CF00003F00703AB427FF478AF8BE76B68E268A1
:104D000023F4E06313436B6089E700BF0020024097
:104D100000100240D6A1000800000020080000207A
:104D2000044B054A5B68C3F30223D35C034A106853
:104D3000D840704700100240CEA1000800000020BB
:104D4000044B054A5B68C3F3C223D35C034A106873
:104D5000D840704700100240CEA10008000000209B
:104D60000F2303600B4B5A6802F0030242605A683B
:104D700002F0F00282605A6802F4E062C2605B688E
:104D8000DB0803F4E0630361034B1B6803F00703D4
:104D90000B60704700100240002002402DE9F341F3
:104DA00003680546D80721D5364CE369D9002CD4D1
:104DB0000126E36943F08053E361E36903F0805324
:104DC0000193019B304F3B68DA0520D5236A6A685E
:104DD00013F440732FD1236A6A6823F4407313439A
:104DE00023621EB1E36923F08053E3612B689A07C5
:104DF00006D5244AA968536823F440430B43536003
:104E00002B68DB0636D4002012E00026DAE73B6888
:104E100043F480733B60FDF7A7FD80463B68DB05EC
:104E2000D4D4FDF7A1FDA0EB08006428F6D9032037
:104E300002B0BDE8F08102F440729A42CBD001206A
:104E4000124A236AC2F84004002023F44071C2F8D9
:104E50004004D8072162BED5FDF786FD41F28838AF
:104E60000746236A9907B6D4FDF77EFDC01B40456F
:104E7000F7D9DCE7034AE968536823F480030B435E
:104E80005360C0E700100240007000400000424242
:104E9000022808B544D0102803D0012822D00020D1
:104EA00034E0254B5A68186810F080702ED0C2F399
:104EB00083412248D20348BF5A68405C41BF204921
:104EC000C2F34042895C1F4A5B684CBFB2FBF1F2FF
:104ED0001D4A5B0202FB00F018D403234000B0FB24
:104EE000F3F013E040F20231134A136A1940B1F5AE
:104EF000817F1ED003F44073B3F5007F07D149F6DC
:104F00004043506A10F0020018BF184608BDB3F5C0
:104F1000407FC4D110684FF2244310F40030F3E70F
:104F2000FFF70EFF044B5B68C3F3813301335B0073
:104F3000D5E74FF40040E9E700100240FAA100086D
:104F4000F8A1000800127A0000093D00036A026A15
:104F500070B522F001020262446882690D6822F095
:104F600073022A438D6823F002032B430A4DA842A3
:104F70000BD1CD6823F008032B4324F44074D1E90E
:104F80000556354323F004032C43446082614A688C
:104F90004263036270BD00BF002C0140036A026AD5
:104FA00070B522F4807202624468C2690D6822F012
:104FB00073022A438D6823F4007343EA05230B4DE3
:104FC000A8420DD1CD6823F4006343EA052324F4FD
:104FD0004054D1E90556354323F4806344EA05146F
:104FE0004460C2614A68C263036270BD002C014024
:104FF000036A026A30B522F4805202624468C269D0
:105000000D6822F4E64242EA05228D6823F400533B
:1050100043EA0533064DA84202BF4D6924F480449B
:1050200044EA85144460C2614A680264036230BD88
:10503000002C01407047000090F83D30012B21D139
:105040000223026880F83D30D36843F00103D36047
:1050500003680D4A93420AD0B3F1804F07D0A2F5FE
:105060009432934203D002F58062934204D19A684D
:1050700002F00702062A03D01A6842F001021A6001
:105080000020704701207047002C01407047704796
:105090007047704770B503680446DD681E69B10744
:1050A0000ED5AA070CD56FF002021A61012303770F
:1050B00003689B699B076CD0FFF7E9FF0023237708
:1050C000710711D56A070FD56FF0040223682046D7
:1050D0001A610223237723689B6913F4407F5ED013
:1050E000FFF7D5FF00232377330710D528070ED508
:1050F0006FF00802236820461A610423237723688F
:10510000DB69990751D0FFF7C2FF00232377F2062E
:1051100011D5EB060FD56FF01002236820461A61F7
:10512000082323772368DB6913F4407F43D0FFF71C
:10513000AEFF00232377F00708D5E90706D56FF007
:105140000102236820461A61FCF7A8FF320608D541
:105150002B0606D56FF08002236820461A6100F006
:10516000EEF9700608D5690606D56FF0400223688F
:1051700020461A61FFF78DFFB20622D5AB0620D577
:105180006FF02002236820461A61BDE8704000F0ED
:10519000D5B9FFF77BFF2046FFF77AFF8EE7FFF7D1
:1051A00075FF2046FFF774FF9CE7FFF76FFF20466F
:1051B000FFF76EFFA9E7FFF769FF2046FFF768FFDB
:1051C000B7E770BD1E4A036890420AD0B0F1804F25
:1051D00007D0A2F59432904203D002F5806290424B
:1051E00015D14A6823F070031343154A90420AD040
:1051F000B0F1804F07D0A2F59432904203D002F56F
:105200008062904203D1CA6823F4407313434A6911
:1052100023F08003134303608B68C3620B688362CF
:10522000074B984204BF0B69036301234361036981
:10523000DB0742BF036923F001030361704700BF2E
:10524000002C014010B5044630B390F83D3003F017
:10525000FF021BB980F83C20FFF7ECFE0223206818
:1052600084F83D30211DFFF7ADFF0123002084F8B5
:10527000463084F83E3084F83F3084F8403084F87B
:10528000413084F8423084F8433084F8443084F864
:10529000453084F83D3010BD0120FCE710B50446D0
:1052A00030B390F83D3003F0FF021BB980F83C208A
:1052B000FDF7A6F90223206884F83D30211DFFF791
:1052C00081FF0123002084F8463084F83E3084F8C2
:1052D0003F3084F8403084F8413084F8423084F81C
:1052E000433084F8443084F8453084F83D3010BDB4
:1052F0000120FCE7036A026A70B522F01002026224
:10530000446882690D6822F4E64242EA05228D680B
:1053100023F0200343EA05130B4DA8420DD1CD68BD
:1053200023F0800343EA051324F44064D1E90556D1
:10533000354323F0400344EA8504446082614A68AF
:105340008263036270BD00BF002C014038B590F845
:105350003C300446012B5BD00120082A84F83C0035
:1053600043D006D8D2B1042A2CD0002384F83C3094
:1053700038BD0C2AF9D12068FFF73AFE2268D369BC
:1053800043F40063D3612268D36923F48063D3615B
:1053900022680969D36943EA012337E02068FFF7EF
:1053A000D5FD2268936943F00803936122689369ED
:1053B00023F0040393612268096993690B439361A5
:1053C0000020D2E72068FFF795FF2268936943F435
:1053D000006393612268936923F480639361226878
:1053E0000969936943EA0123E9E72068FFF7D6FDDD
:1053F0002268D36943F00803D3612268D36923F09C
:105400000403D36122680969D3690B43D361D7E7E9
:105410000220ADE710B50124036A01F01F018C40A2
:1054200023EA04030362036A8A401A43026210BD3E
:1054300010B5044629B990F83E30012B1ED001204A
:1054400042E0042907D190F83F30012BF7D1022325
:1054500080F83F3015E008290CBF90F8403090F8F4
:105460004130013B18BF0123002BE8D1022308295A
:105470000CBF84F8403084F8413002E0022380F809
:105480003E3001222068FFF7C5FF23680F4A934290
:1054900002BF536C43F4004353642368934209D022
:1054A000B3F1804F06D00A4A934203D002F58062DE
:1054B000934204D19A6802F00702062A03D01A68C0
:1054C00042F001021A60002010BD00BF002C014014
:1054D00000040040FFF7ACBF30B590F83C20034615
:1054E000012A4FF0020026D001221C6883F83C20DC
:1054F00083F83D0062680D6822F070022A43A068BC
:1055000062601A680C4CA2420AD0B2F1804F07D0F8
:10551000A4F59434A24203D004F58064A24204D1DD
:10552000496820F08000014391600122002083F847
:105530003D2083F83C0030BD002C0140704770478F
:10554000026802F10C0353E8003F23F490730C321D
:1055500042E800310029F3D1026802F1140353E854
:10556000003F23F00103143242E800310029F3D157
:10557000036B012B0BD1026802F10C0353E8003FCF
:1055800023F010030C3242E800310029F3D120232C
:1055900080F84230002303637047000010B50446D2
:1055A0000268C168136923F440530B431361016817
:1055B00083680069CA680343606922F4B05222F02C
:1055C0000C0203431343CB602268A169536923F49F
:1055D00040730B43536122680D4B9A4215D1FFF77C
:1055E000AFFB19234343626820689200B3FBF2F3D8
:1055F0006422B3FBF2F102FB11331B013233B3FB24
:10560000F2F303EB0113836010BDFFF789FBE8E7BA
:1056100000380140F7B505460C4617461E462A6875
:10562000136834EA030301D1002021E0701CF7D095
:10563000FDF79AF9C01B86421CD3DEB12B68DA68ED
:105640005107ECD5802CEAD0402CE8D01A6812071C
:10565000E5D5002401941A68284601925B680193FD
:10566000019BFFF76DFF082301206B6485F8404024
:1056700003B0F0BD0320FBE710B5044658B390F823
:10568000413003F0FF021BB980F84020FCF7F2FF25
:105690002423226884F84130D368204623F4005341
:1056A000D360FFF77BFF22680020136923F4904347
:1056B00013612268536923F02A0353612268D36877
:1056C00043F40053D3602023606484F8413084F8AD
:1056D0004230606310BD0120FCE72DE9F843984695
:1056E00090F841300446202B0E4617463FD1002942
:1056F0003FD0002A3DD021230025456480F8413069
:10570000FDF732F9A3688146B3F5805FA784E7848B
:1057100003D123690BB935461E46E38C9BB253B9BE
:1057200043464A4640212046FFF774FF202350B9E4
:1057300084F841300AE043464A4680212046FFF77C
:1057400069FF28B12023032084F84130BDE8F883A5
:1057500022684EB935F8023BC3F308035360E18C6D
:10576000013989B2E184D8E716F8013BF6E7022057
:10577000ECE70120EAE77047704708B50023406A6C
:10578000C385C384FFF7F8FF08BD704790F8423027
:1057900007B5222B45D181680368B1F5805F826A25
:1057A00042D10169002942D15B68C3F30803138029
:1057B000836A02338362C38D013B9BB2C385002B96
:1057C0002FD10168CA6822F02002CA600168CA6845
:1057D00022F48072CA6001684A6922F001024A61BB
:1057E000202280F842204363026B012A29D10363FF
:1057F000016801F10C0353E8003F23F010030C3162
:1058000041E80032002AF3D103681968C90605D5BA
:1058100001921A6801925B680193019B818DFFF7E9
:10582000B4FF03B05DF804FB39B9016929B95B68BD
:10583000DBB21370836A0133BCE75B6803F07F035C
:10584000F7E7FCF71DFAECE737B5036804461A687A
:10585000D96812F00F0F5D6908D195066AD58D06DB
:1058600068D503B0BDE83040FFF790BF05F00100F8
:1058700001F4907505435DD0D50705D5CB0542BF32
:10588000636C43F001036364550704D518B1636C7E
:1058900043F002036364930704D518B1636C43F0CB
:1058A00004036364150707D501F0200303431EBFFB
:1058B000636C43F008036364636C002B34D0900680
:1058C00004D58A0602D52046FFF760FF23682046EC
:1058D0005B69626C03F0400302F0080253EA0205C0
:1058E00024D0FFF72DFE23685B695B0619D522687B
:1058F00002F1140353E8003F23F04003143242E85E
:1059000000310029F3D1E36B5BB1764A5A63E06B57
:10591000FDF73AFB40B1E06B436B03B0BDE83040AC
:1059200018472046FFF728FF03B030BDFFF724FFDC
:105930006564F9E7206B012840F09480D50640F1BA
:105940009180C80640F18E80002201921A6801926F
:105950005A680192019A5B695D064DD5E26B136846
:105960005B689BB2002BDFD0A18D9942DCD9E38527
:105970009369202B36D0226802F10C0353E8003FD4
:1059800023F480730C3242E800310029F3D12268FD
:1059900002F1140353E8003F23F00103143242E8FC
:1059A00000310029F3D1216801F1140353E8003FCD
:1059B00023F04003143141E80032002AF3D12023C0
:1059C00084F842302263226802F10C0353E8003F5E
:1059D00023F010030C3242E800310029F3D1E06BD0
:1059E000FDF7B2FA02236363E38DA18DC91A89B270
:1059F0002046FFF7CAFE97E7E38DE28DA18D92B2B4
:105A00009BB2002A90D0C91A89B200298CD0226892
:105A100002F10C0353E8003F23F490730C3242E888
:105A200000300028F3D1206800F1140353E8003F50
:105A300023F00103143040E80032002AF3D1202380
:105A400084F842302263226802F10C0353E8003FDD
:105A500023F010030C3242E800300028F3D1022377
:105A60006363C5E710062BD50D0629D594F84120B0
:105A7000212A7FF459AFA168226AB1F5805F1AD15B
:105A80002169C1B91288C2F308025A60236A02333D
:105A90002362E38C013B9BB2E384002B7FF444AF91
:105AA0002268D36823F08003D3602268D36843F070
:105AB0004003D36038E7511C216212785A60E8E74E
:105AC00050067FF531AF4A067FF52EAFDA682046E3
:105AD00022F04002DA60202384F84130FFF74BFEC9
