:020000040800F2
:1000000000500020753B00083D39000845390008C4
:100010004D390008553900085D390008000000001E
:10002000000000000000000000000000653900082A
:1000300071390008000000007D3900088939000886
:10004000BD3B0008BD3B0008BD3B0008BD3B0008B0
:10005000BD3B0008BD3B0008BD3B0008BD3B0008A0
:10006000BD3B0008BD3B0008BD3B0008BD3B000890
:10007000BD3B0008BD3B0008BD3B0008BD3B000880
:10008000BD3B0008BD3B0008BD3B0008BD3B000870
:10009000BD3B0008BD3B0008BD3B0008BD3B000860
:1000A000BD3B000895390008BD3B0008BD3B00087A
:1000B000BD3B0008BD3B0008BD3B0008A939000856
:1000C000BD390008BD3B0008BD3B0008BD3B000832
:1000D000BD3B0008BD3B0008D1390008BD3B00080E
:1000E000BD3B0008BD3B0008BD3B00080000000010
:1000F0000000000000000000000000000000000000
:0C01000000000000000000005FF808F1A3
:1001100010B5054C237833B9044B13B10448AFF341
:1001200000800123237010BDD801002000000000D2
:100130001CDE000808B5034B1BB103490348AFF3AD
:10014000008008BD00000000DC0100201CDE00086B
:10015000034613F8012B002AFBD1181A0138704707
:1001600081F0004102E000BF83F0004330B54FEA68
:1001700041044FEA430594EA050F08BF90EA020FD5
:100180001FBF54EA000C55EA020C7FEA645C7FEA68
:10019000655C00F0E2804FEA5454D4EB5555B8BF8B
:1001A0006D420CDD2C4480EA020281EA030382EAFC
:1001B000000083EA010180EA020281EA0303362D8E
:1001C00088BF30BD11F0004F4FEA01314FF4801C61
:1001D0004CEA113102D0404261EB410113F0004F73
:1001E0004FEA03334CEA133302D0524263EB43032A
:1001F00094EA050F00F0A780A4F10104D5F1200EC8
:100200000DDB02FA0EFC22FA05F2801841F1000122
:1002100003FA0EF2801843FA05F359410EE0A5F1F6
:1002200020050EF1200E012A03FA0EFC28BF4CF027
:10023000020C43FA05F3C01851EBE37101F00045DD
:1002400007D54FF0000EDCF1000C7EEB00006EEBEA
:100250000101B1F5801F1BD3B1F5001F0CD3490874
:100260005FEA30004FEA3C0C04F101044FEA4452CB
:1002700012F5800F80F09A80BCF1004F08BF5FEA52
:10028000500C50F1000041EB045141EA050130BD32
:100290005FEA4C0C404141EB0101013C28BFB1F544
:1002A000801FE9D291F0000F04BF01460020B1FA8F
:1002B00081F308BF2033A3F10B03B3F120020CDA62
:1002C0000C3208DD02F1140CC2F10C0201FA0CF040
:1002D00021FA02F10CE002F11402D8BFC2F1200CA5
:1002E00001FA02F120FA0CFCDCBF41EA0C0190405B
:1002F000E41AA2BF01EB0451294330BD6FEA0404A4
:100300001F3C1CDA0C340EDC04F11404C4F120028E
:1003100020FA04F001FA02F340EA030021FA04F3A0
:1003200045EA030130BDC4F10C04C4F1200220FAF7
:1003300002F001FA04F340EA0300294630BD21FA35
:1003400004F0294630BD94F0000F83F4801306BFFB
:1003500081F480110134013D4EE77FEA645C18BFEF
:100360007FEA655C29D094EA050F08BF90EA020F86
:1003700005D054EA000C04BF1946104630BD91EA7E
:10038000030F1EBF0021002030BD5FEA545C05D181
:100390004000494128BF41F0004130BD14F58004C0
:1003A0003CBF01F5801130BD01F0004545F0FE4134
:1003B00041F470014FF0000030BD7FEA645C1ABF69
:1003C000194610467FEA655C1CBF0B46024650EAA0
:1003D000013406BF52EA033591EA030F41F40021CC
:1003E00030BD00BF90F0000F04BF0021704730B552
:1003F0004FF4806404F132044FF000054FF0000127
:1004000050E700BF90F0000F04BF0021704730B5E7
:100410004FF4806404F1320410F0004548BF4042BC
:100420004FF000013EE700BF42004FEAE2014FEA11
:1004300031014FEA02701FBF12F07F4393F07F4FEC
:1004400081F06051704732F07F4208BF704793F0EF
:100450007F4F04BF41F40021704730B54FF4607402
:1004600001F0004521F000411CE700BF50EA010205
:1004700008BF704730B54FF000050AE050EA0102AE
:1004800008BF704730B511F0004502D5404261EB1E
:1004900041014FF4806404F132045FEA915C3FF45F
:1004A000D8AE4FF003025FEADC0C18BF03325FEAFC
:1004B000DC0C18BF033202EBDC02C2F1200300FAAD
:1004C00003FC20FA02F001FA03FE40EA0E0021FAD2
:1004D00002F11444BDE600BF70B54FF0FF0C4CF4C0
:1004E000E06C1CEA11541DBF1CEA135594EA0C0F72
:1004F00095EA0C0F00F0DEF82C4481EA030621EAAD
:100500004C5123EA4C5350EA013518BF52EA0335E7
:1005100041F4801143F4801338D0A0FB02CE4FF099
:100520000005E1FB02E506F00042E0FB03E54FF0C9
:100530000006E1FB03569CF0000F18BF4EF0010EC1
:10054000A4F1FF04B6F5007F64F5407404D25FEABD
:100550004E0E6D4146EB060642EAC62141EA555170
:100560004FEAC52040EA5E504FEACE2EB4F1FD0CB2
:1005700088BFBCF5E06F1ED8BEF1004F08BF5FEA30
:10058000500E50F1000041EB045170BD06F00046E2
:1005900046EA010140EA020081EA0301B4EB5C048F
:1005A000C2BFD4EB0C0541EA045170BD41F4801187
:1005B0004FF0000E013C00F3AB8014F1360FDEBFAC
:1005C000002001F0004170BDC4F10004203C35DA88
:1005D0000C341BDC04F11404C4F1200500FA05F30B
:1005E00020FA04F001FA05F240EA020001F00042AC
:1005F00021F0004110EBD37021FA04F642EB060122
:100600005EEA430E08BF20EAD37070BDC4F10C044B
:10061000C4F1200500FA04F320FA05F001FA04F20F
:1006200040EA020001F0004110EBD37041F10001FB
:100630005EEA430E08BF20EAD37070BDC4F1200506
:1006400000FA05F24EEA020E20FA04F301FA05F26E
:1006500043EA020321FA04F001F0004121FA04F216
:1006600020EA020000EBD3705EEA430E08BF20EAE6
:10067000D37070BD94F0000F0FD101F00046400020
:1006800041EB010111F4801F08BF013CF7D041EAA2
:10069000060195F0000F18BF704703F000465200A6
:1006A00043EB030313F4801F08BF013DF7D043EA77
:1006B0000603704794EA0C0F0CEA135518BF95EA2D
:1006C0000C0F0CD050EA410618BF52EA4306D1D1B4
:1006D00081EA030101F000414FF0000070BD50EAD3
:1006E000410606BF1046194652EA430619D094EA5D
:1006F0000C0F02D150EA013613D195EA0C0F05D147
:1007000052EA03361CBF104619460AD181EA03019A
:1007100001F0004141F0FE4141F470014FF0000052
:1007200070BD41F0FE4141F4780170BD70B54FF0ED
:10073000FF0C4CF4E06C1CEA11541DBF1CEA13556D
:1007400094EA0C0F95EA0C0F00F0A7F8A4EB05044F
:1007500081EA030E52EA03354FEA013100F0888046
:100760004FEA03334FF0805545EA131343EA12630F
:100770004FEA022245EA111545EA10654FEA0026C4
:100780000EF000419D4208BF964244F1FD0404F57D
:10079000407402D25B084FEA3202B61A65EB0305D9
:1007A0005B084FEA32024FF480104FF4002CB6EB96
:1007B000020E75EB030E22BFB61A754640EA0C0016
:1007C0005B084FEA3202B6EB020E75EB030E22BF56
:1007D000B61A754640EA5C005B084FEA3202B6EB97
:1007E000020E75EB030E22BFB61A754640EA9C0056
:1007F0005B084FEA3202B6EB020E75EB030E22BF26
:10080000B61A754640EADC0055EA060E18D04FEAE3
:10081000051545EA16754FEA06164FEAC30343EA83
:1008200052734FEAC2025FEA1C1CC0D111F4801F50
:100830000BD141EA00014FF000004FF0004CB6E749
:1008400011F4801F04BF01430020B4F1FD0C88BFE8
:10085000BCF5E06F3FF6AFAEB5EB030C04BFB6EBF3
:10086000020C5FEA500C50F1000041EB045170BDE6
:100870000EF0004E4EEA113114EB5C04C2BFD4EB13
:100880000C0541EA045170BD41F480114FF0000E97
:10089000013C90E645EA060E8DE60CEA135594EA13
:1008A0000C0F08BF95EA0C0F3FF43BAF94EA0C0F16
:1008B0000AD150EA01347FF434AF95EA0C0F7FF48B
:1008C00025AF104619462CE795EA0C0F06D152EADF
:1008D00003353FF4FDAE1046194622E750EA4106C3
:1008E00018BF52EA43067FF4C5AE50EA41047FF4D4
:1008F0000DAF52EA43057FF4EBAE12E74FF0FF3C39
:1009000006E000BF4FF0010C02E000BF4FF0010C09
:100910004DF804CD4FEA410C7FEA6C5C4FEA430C82
:1009200018BF7FEA6C5C1BD001B050EA410C0CBFD1
:1009300052EA430C91EA030F02BF90EA020F002033
:10094000704710F1000F91EA030F58BF994208BF9A
:1009500090422CBFD8176FEAE37040F00100704757
:100960004FEA410C7FEA6C5C02D150EA013C07D1AE
:100970004FEA430C7FEA6C5CD6D152EA033CD3D0F9
:100980005DF8040B704700BF8446104662468C46F3
:100990001946634600E000BF01B5FFF7B7FF002826
:1009A00048BF10F1000F01BD4DF808EDFFF7F4FF4F
:1009B0000CBF012000205DF808FB00BF4DF808EDDA
:1009C000FFF7EAFF34BF012000205DF808FB00BFFD
:1009D0004DF808EDFFF7E0FF94BF012000205DF81F
:1009E00008FB00BF4DF808EDFFF7CEFF94BF0120D4
:1009F00000205DF808FB00BF4DF808EDFFF7C4FFCD
:100A000034BF012000205DF808FB00BF4FEA410C15
:100A10007FEA6C5C02D150EA013C0AD14FEA430CF8
:100A20007FEA6C5C02D152EA033C02D14FF0000035
:100A300070474FF0010070474FEA410212F5001273
:100A400015D211D56FF47873B3EB625212D94FEA15
:100A5000C12343F0004343EA505311F0004F23FAFF
:100A600002F018BF404270474FF00000704750EA54
:100A7000013005D111F0004008BF6FF00040704711
:100A80004FF00000704700BF4A0011D212F500126B
:100A900011D20DD56FF47873B3EB62520ED44FEAD6
:100AA000C12343F0004343EA505323FA02F0704756
:100AB0004FF00000704750EA013002D14FF0FF3094
:100AC00070474FF00000704780F0004002E000BF28
:100AD00081F0004142001FBF5FEA410392EA030F29
:100AE0007FEA226C7FEA236C6AD04FEA1262D2EB73
:100AF0001363C1BFD218414048404140B8BF5B4278
:100B0000192B88BF704710F0004F40F4000020F010
:100B10007F4018BF404211F0004F41F4000121F026
:100B20007F4118BF494292EA030F3FD0A2F1010270
:100B300041FA03FC10EB0C00C3F1200301FA03F1AE
:100B400000F0004302D5494260EB4000B0F5000FD1
:100B500013D3B0F1807F06D340084FEA310102F190
:100B60000102FE2A51D2B1F1004F40EBC25008BF42
:100B700020F0010040EA03007047490040EB00000C
:100B8000013A28BFB0F5000FEDD2B0FA80FCACF10D
:100B9000080CB2EB0C0200FA0CF0AABF00EBC2503A
:100BA00052421843BCBFD0401843704792F0000F28
:100BB00081F4000106BF80F400000132013BB5E77B
:100BC0004FEA41037FEA226C18BF7FEA236C21D0F1
:100BD00092EA030F04D092F0000F08BF0846704756
:100BE00090EA010F1CBF0020704712F07F4F04D124
:100BF000400028BF40F00040704712F100723CBF37
:100C000000F50000704700F0004343F0FE4040F460
:100C1000000070477FEA226216BF08467FEA23631E
:100C20000146420206BF5FEA412390EA010F40F409
:100C3000800070474FF0000304E000BF10F0004355
:100C400048BF40425FEA000C08BF704743F096433C
:100C500001464FF000001CE050EA010208BF704757
:100C60004FF000030AE000BF50EA010208BF7047DE
:100C700011F0004302D5404261EB41015FEA010CF3
:100C800002BF84460146002043F0B64308BFA3F1EB
:100C90008053A3F50003BCFA8CF2083AA3EBC253CD
:100CA00010DB01FA02FC634400FA02FCC2F12002EC
:100CB000BCF1004F20FA02F243EB020008BF20F023
:100CC0000100704702F1200201FA02FCC2F1200289
:100CD00050EA4C0021FA02F243EB020008BF20EA7E
:100CE000DC7070474FF0FF0C1CEAD0521EBF1CEAAC
:100CF000D15392EA0C0F93EA0C0F6FD01A4480EA9A
:100D0000010C400218BF5FEA41211ED04FF0006382
:100D100043EA501043EA5111A0FB01310CF00040AE
:100D2000B1F5000F3EBF490041EAD3715B0040EAD4
:100D3000010062F17F02FD2A1DD8B3F1004F40EBA4
:100D4000C25008BF20F00100704790F0000F0CF077
:100D5000004C08BF49024CEA502040EA51207F3A3B
:100D6000C2BFD2F1FF0340EAC250704740F4000016
:100D70004FF00003013A5DDC12F1190FDCBF00F007
:100D800000407047C2F10002410021FA02F1C2F1B5
:100D9000200200FA02FC5FEA310040F1000053EA51
:100DA0004C0308BF20EADC70704792F0000F00F09F
:100DB000004C02BF400010F4000F013AF9D040EAA5
:100DC0000C0093F0000F01F0004C02BF490011F439
:100DD000000F013BF9D041EA0C018FE70CEAD15337
:100DE00092EA0C0F18BF93EA0C0F0AD030F0004CB7
:100DF00018BF31F0004CD8D180EA010000F000406B
:100E0000704790F0000F17BF90F0004F084691F028
:100E1000000F91F0004F14D092EA0C0F01D1420262
:100E20000FD193EA0C0F03D14B0218BF084608D12B
:100E300080EA010000F0004040F0FE4040F4000075
:100E4000704740F0FE4040F4400070474FF0FF0C08
:100E50001CEAD0521EBF1CEAD15392EA0C0F93EA4F
:100E60000C0F69D0A2EB030280EA010C49024FEAA1
:100E7000402037D04FF0805343EA111143EA10135A
:100E80000CF000408B4238BF5B0042F17D024FF412
:100E9000000C8B4224BF5B1A40EA0C00B3EB510FED
:100EA00024BFA3EB510340EA5C00B3EB910F24BFD6
:100EB000A3EB910340EA9C00B3EBD10F24BFA3EB5B
:100EC000D10340EADC001B0118BF5FEA1C1CE0D123
:100ED000FD2A3FF650AF8B4240EBC25008BF20F0D6
:100EE000010070470CF0004C4CEA50207F32C2BF2A
:100EF000D2F1FF0340EAC250704740F400004FF0C7
:100F00000003013A37E792F0000F00F0004C02BFF7
:100F1000400010F4000F013AF9D040EA0C0093F0C1
:100F2000000F01F0004C02BF490011F4000F013B1B
:100F3000F9D041EA0C0195E70CEAD15392EA0C0F83
:100F400008D142027FF47DAF93EA0C0F7FF470AFBB
:100F5000084676E793EA0C0F04D14B023FF44CAFFE
:100F600008466EE730F0004C18BF31F0004CCAD193
:100F700030F000427FF45CAF31F000437FF43CAFCF
:100F80005FE700BF4FF0FF3C06E000BF4FF0010CF1
:100F900002E000BF4FF0010C4DF804CD4FEA4002D3
:100FA0004FEA41037FEA226C18BF7FEA236C11D01D
:100FB00001B052EA530C18BF90EA010F58BFB2EBD0
:100FC000030088BFC81738BF6FEAE17018BF40F050
:100FD000010070477FEA226C02D15FEA402C05D104
:100FE0007FEA236CE4D15FEA412CE1D05DF8040B89
:100FF000704700BF844608466146FFE70FB5FFF71C
:10100000C9FF002848BF10F1000F0FBD4DF808EDD3
:10101000FFF7F4FF0CBF012000205DF808FB00BFC4
:101020004DF808EDFFF7EAFF34BF012000205DF81E
:1010300008FB00BF4DF808EDFFF7E0FF94BF01206B
:1010400000205DF808FB00BF4DF808EDFFF7D2FF68
:1010500094BF012000205DF808FB00BF4DF808EDAB
:10106000FFF7C8FF34BF012000205DF808FB00BF78
:1010700038B50022002304460D46FFF79FFC28B92F
:1010800020462946BDE8384000F00AB8204605F160
:10109000004100F005F8404261EB410138BD00BF5E
:1010A000D0B500220B4B06460F46FFF715FAFFF7A7
:1010B000EBFC0446FFF796F90022074BFFF70CFA0A
:1010C00002460B4630463946FFF74EF8FFF7DCFC88
:1010D0002146D0BD0000F03D0000F04180B582B057
:1010E00000AF786039607B68002B02D03B68002B32
:1010F00001D1012327E04FF43872002178680AF00B
:1011000008F97B683A681A607B680022A3F8042219
:101110007B680022A3F806227B680022A3F88A22BB
:101120007B68002283F8DA227B6818687B6803F505
:1011300002730122194607F016FF0346002B01D067
:10114000012300E0002318460837BD4680BD80B566
:1011500084B000AF78606FE07B68B3F806321A465F
:101160007B6813441B79FB737B68B3F80632013349
:101170005A42C3F30803C2F3080258BF53429AB25B
:101180007B68A3F80622FB7B242B12D17B6800220C
:10119000A3F88A227B68B3F88A325A1C91B27A6823
:1011A000A2F88A121A467B681344FA7B83F8092254
:1011B00042E07B68B3F88A32002B3DD07B68B3F8FD
:1011C0008A327E2B04D97B680022A3F88A2233E07E
:1011D0007B68B3F88A325A1C91B27A68A2F88A12F4
:1011E0001A467B681344FA7B83F80922FB7B0A2B9F
:1011F00002D0FB7B0D2B1FD17B68B3F88A321A46D5
:101200007B681344002283F809227B6803F20923D8
:1012100000221946786800F047F80346BB73BB7B91
:10122000002B05D002F0F4FC02467B68C3F8DC22F8
:101230007B680022A3F88A227B68B3F804227B68CB
:10124000B3F806329A4287D1002318461037BD46BC
:1012500080BD80B582B000AF78607B68B3F804329F
:1012600019467B6893F808227B680B441A717B68E7
:10127000B3F8043201335A42C3F30803C2F308023D
:1012800058BF53429AB27B68A3F804227B6818685F
:101290007B6803F502730122194607F064FE00BF64
:1012A0000837BD4680BD000080B584B000AFF8604F
:1012B000B9607A6003221749B8680AF032F8034629
:1012C000002B01D0002321E0BB6803330322124925
:1012D00018460AF026F80346002B06D17A68B9684A
:1012E000F86800F01DF8012310E0BB680333032207
:1012F0000A4918460AF015F80346002B05D1B968CB
:10130000F86800F067FB022300E00023184610375E
:10131000BD4680BD38DE00083CDE000840DE000827
:101320002DE9B04FD2B004AF07F59C73A3F59673C7
:10133000186007F59C73A3F59873196007F59C7303
:10134000A3F59A731A600023C7F8343107F59C732C
:10135000A3F5987307F190007F22196809F0F3FF55
:10136000002387F80F3107F5887207F19003C4490D
:1013700018460AF023F8C7F81C01D7F81C31002BD7
:1013800040F0FC82042308E3D7F834310133C7F876
:101390003431D7F83431013B082B00F2EF8201A23F
:1013A00052F823F0C9130008A31400088D16000892
:1013B000BD16000889180008B7180008171900089A
:1013C000331900084F190008D7F81C01FEF7C0FEBA
:1013D0000346052B40F2C982D7F81C311B78303BFD
:1013E000DBB21A46920013445B00DAB2D7F81C3124
:1013F00001331B781344DBB2303BDAB207F59C7340
:10140000A3F596731B6883F8D022D7F81C310233FA
:101410001B78303BDBB21A46920013445B00DAB211
:10142000D7F81C3103331B781344DBB2303BDAB2FC
:1014300007F59C73A3F596731B6883F8D122D7F840
:101440001C3104331B78303BDBB21A469200134444
:101450005B00DAB2D7F81C3105331B781344DBB2DA
:10146000303BDAB207F59C73A3F596731B6883F8DB
:10147000D222D7F81C01FEF76BFE0346072B40F281
:101480007482D7F81C310733184608F0FEFA034679
:101490009AB207F59C73A3F596731B68A3F8D42240
:1014A00063E2D7F81C311B78002B00F06082D7F87C
:1014B0001C311B78A3F1300213469B0013445B00E0
:1014C0001A46D7F81C3101331B78303B1344C7F858
:1014D0001431D7F81C3102331B78A3F130021346C4
:1014E0009B0013445B001A46D7F81C3103331B786A
:1014F000303B13441846FEF785FF02460B46C7E90A
:101500004A23D7F81C3104331B782E2B5BD1D7F834
:101510001C3105331B78303B1846FEF773FF50A390
:10152000D3E90023FEF7D8FF02460B46D7E94A016C
:10153000FEF71CFE02460B46C7E94A23D7F81C31CA
:1015400006331B78303B1846FEF75CFF46A3D3E911
:101550000023FEF7C1FF02460B46D7E94A01FEF71A
:1015600005FE02460B46C7E94A23D7F81C3107336C
:101570001B78303B1846FEF745FF3DA3D3E9002317
:10158000FEF7AAFF02460B46D7E94A01FEF7EEFD39
:1015900002460B46C7E94A23D7F81C3108331B78AB
:1015A000303B1846FEF72EFF33A3D3E90023FEF7A6
:1015B00093FF02460B46D7E94A01FEF7D7FD0246E4
:1015C0000B46C7E94A23D7F81401FEF71BFF8246F2
:1015D0008B464FF000022B4BD7E94A01FFF7A6F8E4
:1015E00002460B4650465946FEF7C0FD02460B46E2
:1015F00007F59C71A1F596710968C1E9A42307F567
:101600009C73A3F59A731B68002B00F0B08107F55B
:101610009C73A3F596731B68D3E9A42307F110000C
:10162000CDE90223D7E94A23CDE90023D7F81431C5
:10163000D7F81C21144909F009FE07F110031846D8
:10164000FEF786FD03469AB207F1100107F59C7379
:10165000A3F59A706423006807F0FAFB87E100BFE6
:101660009A9999999999B93F7B14AE47E17A843F49
:10167000FCA9F1D24D62503F2D431CEBE2361A3FDC
:1016800044DE000800004E4048DE0008D7F81C3158
:101690001B78532B40F06D8107F59C73A3F596736F
:1016A0001B68D3E9A423144683F0004507F59C7317
:1016B000A3F596731B68C3E9A4455AE1D7F81C311A
:1016C0001B78002B00F05781D7F81C311B78303B7A
:1016D000642202FB03F1D7F81C3101331B78A3F11C
:1016E000300213469B0013445B00CA18D7F81C3124
:1016F00002331B78303B1344C7F81831D7F81C313C
:1017000003331B78A3F1300213469B0013445B00A4
:101710001A46D7F81C3104331B78303B1344184663
:10172000FEF770FE02460B46C7E94823D7F81C3186
:1017300005331B782E2B5BD1D7F81C3106331B7871
:10174000303B1846FEF75EFE97A3D3E90023FEF771
:10175000C3FE02460B46D7E94801FEF707FD0246E5
:101760000B46C7E94823D7F81C3107331B78303BB9
:101770001846FEF747FE8EA3D3E90023FEF7ACFE22
:1017800002460B46D7E94801FEF7F0FC02460B463D
:10179000C7E94823D7F81C3108331B78303B18467B
:1017A000FEF730FE84A3D3E90023FEF795FE024640
:1017B0000B46D7E94801FEF7D9FC02460B46C7E9BC
:1017C0004823D7F81C3109331B78303B1846FEF705
:1017D00019FE7BA3D3E90023FEF77EFE02460B46EB
:1017E000D7E94801FEF7C2FC02460B46C7E9482389
:1017F000D7F81801FEF706FE82468B464FF000022E
:10180000714BD7E94801FEF791FF02460B4650465F
:101810005946FEF7ABFC02460B4607F59C71A1F555
:1018200096710968C1E9A62307F59C73A3F59A731D
:101830001B68002B00F09F8007F59C73A3F596733F
:101840001B68D3E9A62307F11000CDE90223D7E9ED
:101850004823CDE90023D7F81831D7F81C215B497C
:1018600009F0F4FC07F110031846FEF771FC03467B
:101870009AB207F1100107F59C73A3F59A706423DF
:10188000006807F0E5FA76E0D7F81C311B78572B93
:1018900073D107F59C73A3F596731B68D3E9A62350
:1018A000904683F0004907F59C73A3F596731B6877
:1018B000C3E9A68961E0D7F81C0108F0E6F8034601
:1018C000DAB207F59C73A3F596731B6883F8C822F8
:1018D00007F59C73A3F596731B6893F8C832002B29
:1018E00014BF01230023DBB21A4607F59C73A3F54E
:1018F00096731B6883F8DA2207F59C73A3F5967339
:101900001B6893F8DA2207F59C73A3F596731B689E
:1019100083F8C92232E0D7F81C0108F0B6F8034674
:10192000DAB207F59C73A3F596731B6883F8B822A7
:1019300024E0D7F81C0108F0A5F802460B4607F58D
:101940009C71A1F596710968C1E9B02316E0D7F83A
:101950001C0108F097F802460B4607F59C71A1F5AB
:1019600096710968C1E9A82308E000BF06E000BF3E
:1019700004E000BF02E000BF00E000BF07F588738D
:101980001A461349002009F019FDC7F81C01D7F8C1
:101990001C31002B7FF4F8AC0023184607F59C7728
:1019A000BD46BDE8B08F00BF9A9999999999B93F02
:1019B0007B14AE47E17A843FFCA9F1D24D62503FDF
:1019C0002D431CEBE2361A3F00004E407CDE00083F
:1019D000B0DE00082DE9B04FB0B000AF78603960DC
:1019E0000023C7F8BC3007F114037F22396818467A
:1019F00009F0A9FC002387F8933007F1940207F15E
:101A00001403C549184609F0D9FCC7F8B800D7F83F
:101A1000B830002B40F08D810423A2E1D7F8BC3010
:101A20000133C7F8BC30D7F8BC30013B082B00F2BB
:101A3000808101A252F823F05D1A0008171B0008EC
:101A4000311B0008A11B0008C11B0008311C000845
:101A50004F1C0008631C0008771C0008D7F8B8006A
:101A6000FEF776FB0346052B40F25481D7F8B830D9
:101A70001B78303BDBB21A46920013445B00DAB2AB
:101A8000D7F8B83001331B781344DBB2303BDAB2FD
:101A90007B6883F8D022D7F8B83002331B78303B0C
:101AA000DBB21A46920013445B00DAB2D7F8B830C2
:101AB00003331B781344DBB2303BDAB27B6883F824
:101AC000D122D7F8B83004331B78303BDBB21A464A
:101AD000920013445B00DAB2D7F8B83005331B78B4
:101AE0001344DBB2303BDAB27B6883F8D222D7F8FA
:101AF000B800FEF72DFB0346072B40F20B81D7F809
:101B0000B8300733184607F0C0FF03469AB27B6827
:101B1000A3F8D422FEE0D7F8B8301B78412B0CBFD5
:101B200001230023DBB21A467B6883F8C92200E157
:101B3000D7F8B8301B78002B00F0F28007F11003C3
:101B40000222D7F8B810184609F0FDFB0023BB7439
:101B500007F11003184607F098FFC7F8A400D7F85C
:101B6000B8300233184607F08DFFC7E92601D7F8D1
:101B7000A400FEF747FC82468B464FF00002674BFD
:101B8000D7E92601FEF7D2FD02460B4650465946DC
:101B9000FEF7ECFA02460B467968C1E9A423BFE0E0
:101BA000D7F8B8301B78532B40F0BC807B68D3E962
:101BB000A423144683F000457B68C3E9A445B1E043
:101BC000D7F8B8301B78002B00F0AE8007F10C037B
:101BD0000322D7F8B810184609F0B5FB0023FB73B1
:101BE00007F10C03184607F050FFC7F8B000D7F80C
:101BF000B8300333184607F045FFC7E92A01D7F884
:101C0000B000FEF7FFFB82468B464FF00002434BCD
:101C1000D7E92A01FEF78AFD02460B46504659468F
:101C2000FEF7A4FA02460B467968C1E9A6237BE0D9
:101C3000D7F8B8301B78572B78D17B68D3E9A62327
:101C4000904683F000497B68C3E9A6896EE0D7F827
:101C5000B80007F017FF02460B467968C1E9AA23CE
:101C600067E0D7F8B80007F00DFF02460B46796829
:101C7000C1E9AC235DE0D7F8B800FEF769FA034686
:101C8000062B55D1D7F8B8301B78303BDBB21A465B
:101C9000920013445B00DAB2D7F8B83001331B78F6
:101CA0001344DBB2303BDAB27B6883F8D622D7F834
:101CB000B83002331B78303BDBB21A469200134433
:101CC0005B00DAB2D7F8B83003331B781344DBB2C9
:101CD000303BDAB27B6883F8D722D7F8B8300433C8
:101CE0001B78A3F1300213469B0013445B001A4695
:101CF000D7F8B83005331B78303B1344C7F8B430FD
:101D0000D7F8B4309BB203F5FA639AB27B68A3F8B4
:101D1000D8220DE000BF0CE044DE000800004E4079
:101D200000BF06E000BF04E000BF02E000BF00E02B
:101D300000BF07F194031A460C49002009F03EFB4E
:101D4000C7F8B800D7F8B830002B7FF467AE7B68CF
:101D500093F8C932002B03D07B68012283F8DA2282
:101D600000231846C037BD46BDE8B08FB0DE00087E
:101D7000F0B5C9B006AF07F58473A3F58273186098
:101D800007F58473A3F58473196007F58473A3F5CD
:101D900084731B68002B00F01C8107F108038F4936
:101DA000184609F053FA07F108031846FEF7D0F970
:101DB00003469AB207F1080107F58473A3F584700E
:101DC0006423006807F044F807F58473A3F5827371
:101DD0001B6893F8DA32002B01D0814A00E0814A77
:101DE00007F108038049184609F030FA07F10803A3
:101DF0001846FEF7ADF903469AB207F1080107F558
:101E00008473A3F584706423006807F021F807F554
:101E10008473A3F582731B68D3E9A42307F1080038
:101E2000724909F013FA07F108031846FEF790F912
:101E300003469AB207F1080107F58473A3F584708D
:101E40006423006807F004F807F58473A3F5827330
:101E50001B68D3E9A62307F10800654909F0F6F9E4
:101E600007F108031846FEF773F903469AB207F123
:101E7000080107F58473A3F584706423006806F0F5
:101E8000E7FF07F58473A3F582731B68D3E9A823E2
:101E900007F10800574909F0D9F907F10803184676
:101EA000FEF756F903469AB207F1080107F5847365
:101EB000A3F584706423006806F0CAFF07F58473F5
:101EC000A3F582731B6893F8B8321A4607F108032A
:101ED0004949184609F0BAF907F108031846FEF710
:101EE00037F903469AB207F1080107F58473A3F5A1
:101EF00084706423006806F0ABFF07F108033F49D4
:101F0000184609F0A3F907F108031846FEF720F96F
:101F100003469AB207F1080107F58473A3F58470AC
:101F20006423006806F094FF07F58473A3F58273B9
:101F30001B6893F8D6321E4607F58473A3F58273A7
:101F40001B6893F8D7329C4607F58473A3F5827318
:101F50001B68B3F8D8321A4607F58473A3F5827369
:101F60001B6893F8D032194607F58473A3F5827382
:101F70001B6893F8D1321C4607F58473A3F582736E
:101F80001B6893F8D2321D4607F58473A3F582735C
:101F90001B68B3F8D43207F1080004930395029448
:101FA0000191009263463246154909F04FF907F155
:101FB00008031846FEF7CCF803469AB207F1080169
:101FC00007F58473A3F584706423006806F040FF6E
:101FD00000E000BF07F58677BD46F0BDB4DE00081F
:101FE000C4DE0008CCDE0008D4DE0008E0DE000815
:101FF000F4DE000808DF000820DF000834DF0008F6
:1020000040DF000880B588B000AF786039603B6879
:102010001A687B681A603B685A687B685A603B683C
:102020009A687B689A603B681A7B7B6883F82A20F1
:102030007B68394ADA607B6804221A827B68364AF8
:102040005A617B6808221A837B68334ADA617B68AD
:1020500010221A847B68304A5A627B6820221A85D3
:1020600007F1100300221A605A609A60DA602B4B65
:102070009B692A4A43F008039361284B9B6903F04C
:102080000803FB60FB687B681A8A7B681B8B134321
:102090009BB23B617B6893F82A30012B08D13B69E6
:1020A0007A68118C7A68128D0A4392B213433B61AD
:1020B00001237B610023BB610223FB617B68DB683A
:1020C00007F110021146184602F0C8FB7B681A6837
:1020D0007B685B681946104606F068F97B6893F8E0
:1020E0002A30012B07D17B681A687B689B681946E8
:1020F000104606F05BF90021786800F07FF87B68F5
:1021000093F82A30012B03D10121786800F076F88A
:1021100000BF2037BD4680BD000C014000100240CA
:1021200080B485B000AF78600B46FB701346BB707F
:10213000BB7840F2E73202FB03F32F4A82FB031223
:102140005211DB17D31AFB60FB78002B23D17B687D
:102150005B68002B05D17B681B681B68FA685A63B3
:1021600045E07B685B68042B05D17B681B681A68B7
:10217000FB6893633BE07B685B68082B05D17B6859
:102180001B681A68FB68D36331E07B681B681A68B8
:10219000FB6813642BE0FB78012B28D17B6893F854
:1021A0002A30012B23D17B689B68002B05D17B68EB
:1021B0001B681B68FA685A6319E07B689B68042BEC
:1021C00005D17B681B681A68FB6893630FE07B6826
:1021D0009B68082B05D17B681B681A68FB68D36372
:1021E00005E07B681B681A68FB681364FFE700BFA3
:1021F0001437BD4680BC70471F85EB5180B582B057
:1022000000AF78600B46FB70FB78002B15D10022E5
:1022100000217868FFF784FF7B68D8687B681B8A99
:102220000022194602F09EFC7B6858697B681B8B74
:102230000022194602F096FC1CE0FB78012B19D114
:102240007B6893F82A30012B14D100220121786891
:10225000FFF766FF7B68D8697B681B8C00221946F4
:1022600002F080FC7B68586A7B681B8D002219464F
:1022700002F078FC00BF0837BD4680BD80B588B04D
:1022800000AF786007F1100300221A605A609A606C
:10229000DA600E4B9B690D4A43F0040393610B4BCC
:1022A0009B6903F00403FB60FB68F0233B6103239D
:1022B0007B610023BB6107F110031946044802F05B
:1022C000CDFA00BF2037BD4680BD00BF00100240E0
:1022D0000008014080B586B000AF78600B46FB7007
:1022E00007F1080300221A605A609A600023FB82FB
:1022F000FB78124A52F82330BB600123FB600723AE
:102300003B61786801F038FE07F1080319467868E8
:1023100001F070FF786801F081FD6421786801F0B8
:1023200057FE786801F05AFF0346FB82786801F097
:1023300023FEFB8A18461837BD4680BDECE1000835
:1023400080B582B000AF7860396000217868FFF70F
:10235000C1FF03461A463B681A8001217868FFF7DF
:10236000B9FF03461A463B685A8002217868FFF796
:10237000B1FF03461A463B689A8003217868FFF74D
:10238000A9FF03461A463B68DA8000BF0837BD46FE
:1023900080BD000080B588B000AF786007F1100301
:1023A00000221A605A609A60DA600E4B9B690D4AEF
:1023B00043F0080393610B4B9B6903F00803FB6038
:1023C000FB6801233B6103237B610023BB6107F1B1
:1023D00010031946044802F041FA00BF2037BD46F9
:1023E00080BD00BF00100240000C014080B588B0E5
:1023F00000AF786007F10C0300221A605A609A60FF
:102400000023BB61786801F0B7FD0823FB6001235E
:102410003B6105237B6107F10C031946786801F0E5
:10242000E9FE786801F0FAFC6421786801F0D0FDDB
:10243000786801F0D3FEB861786801F09DFDB86955
:10244000FEF7F8FB034613491846FEF74BFC03461C
:1024500011491846FEF746FC03464FF08B411846DB
:10246000FEF7F4FC0346FB610C49F869FEF730FB0C
:102470000346FB614FF00001F869FEF7D1FD03460A
:10248000002B02D04FF00003FB61FB691846203798
:10249000BD4680BD333353400000C842AE47613E65
:1024A000B0B5AAB000AF01F08BFB00F0F1F800F07E
:1024B00079FA00F03DF900F021FA00F0BBF900F0E4
:1024C0005DF900F089F900F043FA6248FFF762FF16
:1024D0006048FFF7D3FE6049604800F067FB0346A1
:1024E000002B14D05E4B3C461D460FCD0FC40FCDC4
:1024F0000FC42B6823703B461846FDF729FE0346A0
:102500009AB239464FF0FF33564806F0A1FC6421D9
:10251000524800F0EEFD0346002B17D0524B07F156
:1025200048041D460FCD0FC495E80F0007C4238053
:1025300007F148031846FDF70BFE03469AB207F170
:1025400048014FF0FF33474806F082FC474BC7F87D
:1025500094300023C7F898300423C7F89C30012337
:1025600087F8A03007F1940319464148FFF74AFD68
:1025700040494148FEF7B2FD0346002B17D03F4BC0
:1025800007F128041D460FCD0FC495E80F0007C4BE
:10259000237007F128031846FDF7DAFD03469AB2C7
:1025A00007F128014FF0FF332E4806F051FC344B61
:1025B00007F168041D460FCD0FC40FCD0FC495E879
:1025C000070084E8070007F168031846FDF7C0FD1F
:1025D00003469AB207F168014FF0FF33214806F035
:1025E00037FC01F015FBC7F8A4002348FEF7AFFD48
:1025F000244B1B68D7F8A420D31AB3F57A7F25D3D0
:10260000204AD7F8A430136016491B48FFF7B0FBE7
:1026100000F06CFA4FF400511B4802F0BBFA1B4B60
:102620003C461D460FCD0FC40FCD0FC495E80300E7
:102630002060043421703B461846FDF789FD0346AF
:102640009AB239466423074806F002FC0A2001F0DA
:10265000E9FAC6E7F401002024020020B8060020B1
:1026600068DF0008140300208CDF0008CC02002083
:10267000AC0300205C030020D8030020ACDF00087E
:10268000CCDF0008F806002000100140F8DF000849
:1026900080B594B000AF07F1280328220021184626
:1026A00008F037FE07F1140300221A605A609A609E
:1026B000DA601A613B1D00221A605A609A60DA6083
:1026C0000223BB620123BB631023FB6300237B64F3
:1026D00007F12803184604F0C3FF0346002B01D07E
:1026E00000F05EFA0F237B610023BB610023FB61D6
:1026F00000233B6200237B6207F11403002118468C
:1027000005F030FA0346002B01D000F049FA02230D
:102710007B600023FB603B1D184605F0E1FB034690
:10272000002B01D000F03CFA00BF5037BD4680BD01
:1027300080B500AF0F4B104A1A600E4B00229A6012
:102740000C4B00221A730B4B00221A75094B4FF4E5
:102750006022DA61074B00225A60064B01221A619F
:10276000044801F083FA0346002B01D000F018FA68
:1027700000BF80BDF40100200024014080B500AFFF
:10278000124B134A1A60114B124A5A600F4B002227
:102790009A600E4B0022DA600C4B4FF480421A61B3
:1027A0000A4B00225A61094B00229A61074B002212
:1027B000DA61064B00221A62044802F005FA034669
:1027C000002B01D000F0ECF900BF80BD24020020F6
:1027D00000540040A086010080B500AF124B134AA0
:1027E0001A60114B124A5A600F4B00229A600E4B2E
:1027F0000022DA600C4B4FF480421A610A4B00222F
:102800005A61094B00229A61074B0022DA61064B9C
:1028100000221A62044802F0D7F90346002B01D0C7
:1028200000F0BEF900BF80BD7802002000580040D3
:10283000A086010080B58AB000AF07F12003002216
:102840001A605A603B1D00221A605A609A60DA6072
:102850001A615A619A61274B274A1A60254B072251
:102860005A60244B00229A60224B40F2E732DA6031
:10287000204B00221A611F4B80229A611D4805F0EF
:1028800045FD0346002B01D000F08AF900233B628E
:1028900000237B6207F120031946164806F018FA58
:1028A0000346002B01D000F07BF960237B600023FE
:1028B000BB600023FB6000237B613B1D00221946A7
:1028C0000C4805F005FF0346002B01D000F068F925
:1028D0003B1D04221946074805F0FAFE0346002B6B
:1028E00001D000F05DF9034800F0F8FE00BF283782
:1028F000BD4680BDCC0200200008004080B500AF7E
:10290000114B124A1A60104B4FF416525A600E4B7C
:1029100000229A600C4B0022DA600B4B00221A61F5
:10292000094B0C225A61084B00229A61064B002287
:10293000DA61054806F03CFA0346002B01D000F0AE
:102940002FF900BF80BD00BF1403002000380140F4
:1029500080B500AF114B124A1A60104B4FF416525B
:102960005A600E4B00229A600C4B0022DA600B4B2F
:1029700000221A61094B0C225A61084B00229A610D
:10298000064B0022DA61054806F012FA0346002BD6
:1029900001D000F005F900BF80BD00BF5C0300203E
:1029A0000044004080B586B000AF07F10803002264
:1029B0001A605A609A60DA60184B9B69174A43F0B4
:1029C00004039361154B9B6903F004037B607B68F0
:1029D000124B9B69114A43F0080393610F4B9B69AB
:1029E00003F008033B603B68002248F23C010C48BE
:1029F00002F0B8F848F23C03BB600123FB600023FF
:102A00003B6102237B6107F108031946044801F08A
:102A100025FF00BF1837BD4680BD00BF0010024033
:102A2000000C014080B58EB002AF78607868FDF789
:102A3000FBFC02460B4607F10C00CDE90023094AD6
:102A4000202108F0CFFBF862FB6A9AB207F10C0173
:102A50004FF0FF33044806F0FBF900BF3037BD46A6
:102A600080BD00BF20E000081403002090B599B09D
:102A700004AF78607B681B881C467B685B881A46BD
:102A80007B689B8819467B68DB8807F10C00029302
:102A9000019100922346094A402108F0A3FBF86403
:102AA000FB6C9AB207F10C014FF0FF33044806F0BB
:102AB000CFF900BF5437BD4690BD00BF38E00008D5
:102AC0001403002080B582B000AF78607B681B687B
:102AD000044A934202D10448FEF7BBFB00BF08370B
:102AE000BD4680BD00440040D8030020B0B588B08A
:102AF00000AF1C48FFF77AFC03461B4A13601A4BD1
:102B00001B681846FFF78EFF18491648FFF718FC98
:102B10001648FFF7ABFF164800F0B4F90346002B48
:102B200004D11449124800F051FB17E0124B3C4607
:102B30001D460FCD0FC495E80F0007C42380023453
:102B40001B0C23703B461846FDF702FB03469AB266
:102B500039464FF0FF33074806F07AF900BF2037B7
:102B6000BD46B0BDF4010020F4060020A4030020FF
:102B7000B8060020140300206CE0000880B582B085
:102B800000AF78607B681B68044A934201D101F072
:102B90002DF800BF0837BD4680BD00BF002C0140A6
:102BA00080B400AF72B600BF00BFFDE780B584B04F
:102BB00000AF786039607B683A681A607B68D02221
:102BC0001A717B6832221A877B680833062200213B
:102BD000184608F09EFB7B680E330622002118463B
:102BE00008F097FB7B6814330C220021184608F08C
:102BF00090FB7B6820330C220021184608F089FBEB
:102C00007B684FF00002DA6207F10E031A46752165
:102C1000786800F0C3FB0346FB73FB7B002B02D1FB
:102C2000BB7B682B01D0042339E000226B2178683C
:102C300000F0FFFB0346FB73FB7B002B01D0FB7B0B
:102C40002DE007221921786800F0F3FB0346FB739F
:102C5000FB7B002B01D0FB7B21E00321786800F097
:102C6000FFF80346FB73FB7B002B01D0FB7B16E0D8
:102C70000821786800F018F80346FB73FB7B002BF3
:102C800001D0FB7B0BE00821786800F07DF803465B
:102C9000FB73FB7B002B01D0FB7B00E0002318467D
:102CA0001037BD4680BD000080B584B000AF7860AD
:102CB0000B46FB70FB781A461B21786800F0B9FBC5
:102CC0000346FB73FB7B002B01D0FB7B4FE07B6853
:102CD000FA785A71FB78182B44D801A252F823F0E5
:102CE000452D0008652D0008652D0008652D00089C
:102CF000652D0008652D0008652D0008652D00086C
:102D00004D2D0008652D0008652D0008652D000873
:102D1000652D0008652D0008652D0008652D00084B
:102D2000552D0008652D0008652D0008652D00084B
:102D3000652D0008652D0008652D0008652D00082B
:102D40005D2D00087B680C4A1A630FE07B680B4A14
:102D50001A630BE07B680A4A1A6307E07B68094A3A
:102D60001A6303E07B68054A1A6300BF0023184614
:102D70001037BD4680BD00BF000003430000834202
:102D8000333303423333834180B584B000AF78607E
:102D90000B46FB70FB781A461C21786800F049FB53
:102DA0000346FB73FB7B002B01D0FB7B54E07B686D
:102DB000FA789A71FB78182B48D801A252F823F0C0
:102DC000252E00084D2E00084D2E00084D2E00081F
:102DD0004D2E00084D2E00084D2E00084D2E0008E7
:102DE0002F2E00084D2E00084D2E00084D2E0008F5
:102DF0004D2E00084D2E00084D2E00084D2E0008C7
:102E0000392E00084D2E00084D2E00084D2E0008CA
:102E10004D2E00084D2E00084D2E00084D2E0008A6
:102E2000432E00087B684FF08D425A6313E07B68A5
:102E30004FF08C425A630EE07B684FF08B425A632E
:102E400009E07B684FF08A425A6304E07B684FF0E8
:102E50008C425A6300BF002318461037BD4680BD20
:102E600080B582B000AF78600B46FB70FB781A46E5
:102E70001A21786800F0DDFA034618460837BD4687
:102E800080BD000080B588B000AF786007F10C020B
:102E90000E233B21786800F0A4FA0346FB77FB7F02
:102EA000002B01D0FB7FB6E03B7B1B021AB27B7B81
:102EB0001BB213431AB27B681A81BB7B1B021AB286
:102EC000FB7B1BB213431AB27B685A813B7C1B020B
:102ED0001AB27B7C1BB213431AB27B689A81BB7C0B
:102EE0001B021AB2FB7C1BB21343BB83B7F91C3025
:102EF0001846FDF7A3FE034649491846FDF7A6FF0D
:102F0000034648491846FDF7E5FD03461A467B6827
:102F1000DA623B7D1B021AB27B7D1BB213431AB2ED
:102F20007B68DA81BB7D1B021AB2FB7D1BB21343A7
:102F30001AB27B681A823B7E1B021AB27B7E1BB2DE
:102F400013431AB27B685A827B68B3F9083018467B
:102F5000FDF774FE02467B685B6B19461046FDF771
:102F600075FF03461A467B685A617B68B3F90A30DD
:102F70001846FDF763FE02467B685B6B19461046F8
:102F8000FDF764FF03461A467B689A617B68B3F9D4
:102F90000C301846FDF752FE02467B685B6B194603
:102FA0001046FDF753FF03461A467B68DA617B68DB
:102FB000B3F90E301846FDF741FE02467B681B6BE5
:102FC00019461046FDF742FF03461A467B681A620F
:102FD0007B68B3F910301846FDF730FE02467B6877
:102FE0001B6B19461046FDF731FF03461A467B68F6
:102FF0005A627B68B3F912301846FDF71FFE02468D
:103000007B681B6B19461046FDF720FF03461A46E6
:103010007B689A62002318462037BD4680BD00BFFA
:103020000000AA43B81E124280B584B000AF786099
:1030300007F1080206234321786800F0D2F903461D
:10304000FB73FB7B002B01D0FB7B4EE03B7A1B022A
:103050001AB27B7A1BB213431AB27B68DA81BB7A4D
:103060001B021AB2FB7A1BB213431AB27B681A8294
:103070003B7B1B021AB27B7B1BB213431AB27B68E9
:103080005A827B68B3F90E301846FDF7D7FD024629
:103090007B681B6B19461046FDF7D8FE03461A469F
:1030A0007B681A627B68B3F910301846FDF7C6FDDD
:1030B00002467B681B6B19461046FDF7C7FE0346A8
:1030C0001A467B685A627B68B3F912301846FDF7DE
:1030D000B5FD02467B681B6B19461046FDF7B6FE30
:1030E00003461A467B689A62002318461037BD468D
:1030F00080BD80B588B000AF78600B467B80002330
:10310000FB610023BB6100237B6100237B8226E0FF
:103110007868FFF789FF0346FB72FB7A002B01D02A
:10312000FB7A4EE07B68B3F90E301A46FB69134414
:10313000FB617B68B3F910301A46BB691344BB616D
:103140007B68B3F912301A467B6913447B617B6854
:103150001B8F184600F066FD7B8A01337B827A8ADA
:103160007B889A42D4D37B88FA6992FBF3F33B8243
:103170007B88BA6992FBF3F3FB817B887A6992FBC7
:10318000F3F3BB817B68B3F90E309AB23B8AD31A52
:103190009BB21AB27B68DA817B68B3F910309AB2BD
:1031A000FB89D31A9BB21AB27B681A827B68B3F987
:1031B00012309AB2BB89D31A9BB21AB27B685A8278
:1031C000002318462037BD4680BD00002DE9B043DE
:1031D000C6B004AF07F58473A3F58273186007F5D2
:1031E0008473A3F58473196007F1080366491846D0
:1031F00008F02CF807F108031846FCF7A9FF03466E
:103200009AB207F1080107F58473A3F5847064236B
:10321000006805F01DFE07F58473A3F582731B6833
:103220005B691846FDF700F98046894607F5847307
:10323000A3F582731B689B691846FDF7F5F80446F1
:103240000D4607F58473A3F582731B68DB69184686
:10325000FDF7EAF802460B4607F10800CDE9022324
:10326000CDE9004542464B46484907F0EFFF07F1DC
:1032700008031846FCF76CFF03469AB207F10801F1
:1032800007F58473A3F584706423006805F0E0FDFE
:1032900007F58473A3F582731B681B6A1846FDF754
:1032A000C3F88046894607F58473A3F582731B68CB
:1032B0005B6A1846FDF7B8F804460D4607F58473B7
:1032C000A3F582731B689B6A1846FDF7ADF80246AA
:1032D0000B4607F10800CDE90223CDE9004542463F
:1032E0004B462B4907F0B2FF07F108031846FCF7DD
:1032F0002FFF03469AB207F1080107F58473A3F57F
:1033000084706423006805F0A3FD07F58473A3F5BA
:1033100082731B68DB6A1846FDF786F802460B4687
:1033200007F108001B4907F091FF07F10803184651
:10333000FCF70EFF03469AB207F1080107F5847304
:10334000A3F584706423006805F082FD07F108038B
:103350001149184607F07AFF07F108031846FCF7F1
:10336000F7FE03469AB207F1080107F58473A3F547
:1033700084706423006805F06BFD00BF07F5847757
:10338000BD46BDE8B08300BF3CE1000864E1000831
:1033900088E10008B0E10008C8E1000880B58AB003
:1033A00004AFF8600B467A60FB72FB681868FB6834
:1033B0001B791946FB7A9AB2642302930123019385
:1033C0007B680093012301F051FE0346FB75FB7DF2
:1033D000002B14BF01230023DBB218461837BD466B
:1033E00080BD90B58BB004AFF8607A601A460B468A
:1033F000FB721346BB72FB681868FB681B791C469E
:10340000FB7A9AB2BB7A9BB26421029101937B68EA
:1034100000930123214601F029FE0346FB75FB7D45
:10342000002B14BF01230023DBB218461C37BD4616
:1034300090BD80B588B004AF78600B46FB70134632
:10344000BB707B6818687B681B791946FB789AB259
:103450006423029301230193BB1C0093012301F019
:103460000BFD0346FB73FB7B002B14BF01230023E2
:10347000DBB218461037BD4680BD000080B485B071
:1034800000AF154B9B69144A43F001039361124B43
:103490009B6903F00103BB60BB680F4BDB690E4AFD
:1034A00043F08053D3610C4BDB6903F080537B60A6
:1034B0007B680A4B5B68FB60FB6823F0E063FB60A2
:1034C000FB6843F00073FB60044AFB68536000BF75
:1034D0001437BD4680BC7047001002400000014018
:1034E00080B58AB000AF786007F1180300221A6037
:1034F0005A609A60DA607B681B681F4A934237D132
:103500001E4B9B691D4A43F4007393611B4B9B69DF
:1035100003F400737B617B69184B9B69174A43F086
:1035200004039361154B9B6903F004033B613B6902
:10353000124B9B69114A43F0080393610F4B9B693F
:1035400003F00803FB60FB68F023BB610323FB610E
:1035500007F1180319460A4801F080F90123BB61FD
:103560000323FB6107F118031946064801F076F9B9
:1035700000BF2837BD4680BD002401400010024036
:1035800000080140000C014080B58CB000AF7860AD
:1035900007F11C0300221A605A609A60DA607B68A7
:1035A0001B683A4A934243D1394B9B69384A43F0EE
:1035B00008039361364B9B6903F00803BB61BB6949
:1035C0004FF44073FB6112233B620323BB6207F19C
:1035D0001C0319462F4801F041F92F4B5B68FB6231
:1035E000FB6A43F0E063FB62FB6A43F00203FB62A9
:1035F000294AFB6A5360264BDB69254A43F40013D2
:10360000D361234BDB6903F400137B617B690022E8
:1036100000211F2001F037F81F2001F050F8002290
:103620000021202001F02FF8202001F048F829E0A7
:103630007B681B68194A934224D1154B9B69144A35
:1036400043F008039361124B9B6903F008033B614D
:103650003B694FF44063FB6112233B620323BB626F
:1036600007F11C0319460B4801F0F8F8084BDB6919
:10367000074A43F48003D361054BDB6903F48003FD
:10368000FB60FB6800BF3037BD4680BD0054004082
:1036900000100240000C01400000014000580040B2
:1036A00080B485B000AF78607B681B68094A93429C
:1036B0000BD1094BDB69084A43F00403D361064B85
:1036C000DB6903F00403FB60FB6800BF1437BD46F1
:1036D00080BC7047000800400010024080B588B0F0
:1036E00000AF786007F1100300221A605A609A60F8
:1036F000DA607B681B680F4A934217D10E4B9B69B7
:103700000D4A43F0080393610B4B9B6903F00803D8
:10371000FB60FB68C0233B6102237B610223FB61EA
:1037200007F110031946054801F098F800BF20374B
:10373000BD4680BD0008004000100240000C014062
:1037400080B58AB000AF786007F1180300221A60D4
:103750005A609A60DA607B681B683B4A934232D1B8
:103760003A4B9B69394A43F480439361374B9B69D9
:1037700003F480437B617B69344B9B69334A43F09C
:1037800004039361314B9B6903F004033B613B6984
:103790004FF40073BB610223FB6103237B6207F1DB
:1037A000180319462A4801F059F84FF48063BB61A9
:1037B0000023FB6100233B6207F1180319462448EC
:1037C00001F04CF83CE07B681B68224A934237D1F9
:1037D0001E4BDB691D4A43F40033D3611B4BDB698D
:1037E00003F40033FB60FB68184B9B69174A43F0F6
:1037F00004039361154B9B6903F00403BB60BB6832
:103800000423BB610223FB6103237B6207F11803DE
:1038100019460F4801F022F80823BB610023FB6121
:1038200000233B6207F118031946094801F016F816
:1038300000220021262000F026FF262000F03FFF76
:1038400000BF2837BD4680BD00380140001002404F
:10385000000801400044004080B58CB000AF7860A3
:103860000023BB6200237B62002387F82F302E4B9E
:103870009B692D4A43F4006393612B4B9B6903F4CE
:103880000063BB60BB6807F10C0207F1100311462F
:10389000184604F0D7FA04F0C1FAB862BB6A234AAA
:1038A000A2FB03239B0C013B7B62214B214A1A6044
:1038B0001F4B40F2E732DA601D4A7B6A53601C4BB3
:1038C00000221A611A4B00229A60194B00229A6159
:1038D000174804F071FC034687F82F3097F82F3013
:1038E000002B1BD1124804F0BFFC034687F82F3091
:1038F00097F82F30002B11D1192000F0E0FE7B68E3
:103900000F2B08D800227968192000F0BCFE0A4A63
:103910007B68136002E0012387F82F3097F82F307F
:1039200018463037BD4680BD0010024083DE1B4381
:10393000FC060020002C01400400002080B400AFF1
:1039400000BFFDE780B400AF00BFFDE780B400AF6B
:1039500000BFFDE780B400AF00BFFDE780B400AF5B
:1039600000BFFDE780B400AF00BFBD4680BC70471C
:1039700080B400AF00BFBD4680BC704780B400AFCC
:1039800000BFBD4680BC704780B400AF00BFBD46DD
:1039900080BC704780B500AF024804F0A9FD00BFAD
:1039A00080BD00BFFC06002080B500AF024801F0DA
:1039B000D1FD00BF80BD00BF2402002080B500AF54
:1039C000024801F01AFF00BF80BD00BF24020020A2
:1039D00080B500AF024805F0EBFA00BF80BD00BF24
:1039E0005C03002080B400AF01231846BD4680BCB4
:1039F000704780B582B000AF7860396007F02CFD69
:103A0000034616221A604FF0FF3318460837BD46AA
:103A100080BD80B582B000AF78604FF0FF3178682C
:103A2000FFF7E7FF00BFFDE780B586B000AFF860A5
:103A3000B9607A6000237B610AE0AFF30080014641
:103A4000BB685A1CBA60CAB21A707B6901337B61C9
:103A50007A697B689A42F0DB7B6818461837BD4666
:103A600080BD80B586B000AFF860B9607A60002391
:103A70007B6109E0BB685A1CBA601B781846AFF33B
:103A800000807B6901337B617A697B689A42F1DB54
:103A90007B6818461837BD4680BD80B483B000AF40
:103AA00078604FF0FF3318460C37BD4680BC704736
:103AB00080B483B000AF786039603B684FF4005247
:103AC0005A60002318460C37BD4680BC704780B44E
:103AD00083B000AF7860012318460C37BD4680BC28
:103AE000704780B485B000AFF860B9607A60002399
:103AF00018461437BD4680BC7047000080B586B0BC
:103B000000AF7860144A154BD31A7B617B693B6127
:103B1000134B1B68002B02D1114B124A1A60104B39
:103B20001A687B6813443A699A4207D207F094FCFA
:103B300003460C221A604FF0FF3309E0084B1B6864
:103B4000FB60074B1A687B681344054A1360FB68E7
:103B500018461837BD4680BD005000200004000004
:103B6000440700209808002080B400AF00BFBD4685
:103B700080BC7047FFF7F8FF0B480C490C4A002344
:103B800002E0D458C4500433C4188C42F9D3094A13
:103B9000094C002301E013600432A242FBD307F07A
:103BA00061FCFEF77DFC704700000020D40100207E
:103BB00070E60008D801002098080020FEE7000009
:103BC00080B500AF084B1B68074A43F01003136031
:103BD000032000F04DFD0F20FFF73EFEFFF74EFCE7
:103BE0000023184680BD00BF0020024080B400AF13
:103BF000054B1B781A46054B1B681344034A136098
:103C000000BFBD4680BC7047080000204807002068
:103C100080B400AF024B1B681846BD4680BC70479D
:103C20004807002080B584B000AF7860FFF7F0FF50
:103C3000B8607B68FB60FB68B3F1FF3F05D00A4BBF
:103C40001B781A46FB681344FB6000BFFFF7E0FFD8
:103C50000246BB68D31AFA689A42F7D800BF00BF81
:103C60001037BD4680BD00BF0800002080B586B07B
:103C700000AF78600023FB7500233B610023BB602D
:103C80000023FB607B68002B01D10123BEE07B6831
:103C90009B68002B7B689B6A002B09D17B68002204
:103CA000DA627B68002283F824207868FFF718FC2A
:103CB000786800F0F1FB0346FB757B689B6A03F0B4
:103CC0001003002B40F09980FB7D002B40F0958085
:103CD0007B689B6A23F4885323F0020343F00202BB
:103CE0007B689A627B685A687B68DB691A437B68E9
:103CF0001B7B5B001343BA681343BB607B689B6804
:103D0000B3F5807F03D07B689B68012B02D14FF411
:103D1000807300E000233A6913433B617B681B7D9D
:103D2000012B19D17B681B7B002B09D17B689B6918
:103D3000013B5A033B69134343F400633B610BE0CF
:103D40007B689B6A43F020027B689A627B68DB6A2F
:103D500043F001027B68DA627B681B685B6823F4CE
:103D600069417B681B683A690A435A607B681B6833
:103D70009A68284B13407A681268B9680B439360BD
:103D80007B689B68B3F5807F03D07B689B68012BC1
:103D900004D17B681B69013B1B05FB607B681B68CA
:103DA000DB6A23F470017B681B68FA680A43DA62F5
:103DB0007B681B689A68184B1340BA689A420BD10B
:103DC0007B680022DA627B689B6A23F0030343F07E
:103DD00001027B689A6218E07B689B6A23F01203F9
:103DE00043F010027B689A627B68DB6A43F0010251
:103DF0007B68DA620123FB7507E07B689B6A43F00E
:103E000010027B689A620123FB75FB7D1846183708
:103E1000BD4680BDFDF7E1FFFE0E1FFF80B584B0FB
:103E200000AF78600023FB737B6893F82430012B8C
:103E300001D1022398E07B68012283F8242078686E
:103E400000F0D0FA0346FB73FB7B002B40F0878029
:103E50007B689B6A23F4407323F0010343F4807270
:103E60007B689A627B681B68414A934205D1414B4B
:103E70005B6803F47023002B15D17B689B6A23F4E5
:103E800080127B689A627B681B685B6803F48063BE
:103E9000002B26D07B689B6A23F4405343F4805266
:103EA0007B689A621DE07B689B6A43F480127B68A2
:103EB0009A627B681B682F4A934204D07B681B6818
:103EC0002B4A93420DD12B4B5B6803F48063002B8C
:103ED00007D07B689B6A23F4405343F480527B688D
:103EE0009A627B689B6A03F48053002B06D07B6840
:103EF000DB6A23F006027B68DA6202E07B6800225C
:103F0000DA627B68002283F824207B681B686FF0EC
:103F100002021A607B681B689B6803F46023B3F598
:103F2000602F13D17B681B68114A934205D1114B56
:103F30005B6803F47023002B08D17B681B689A68C8
:103F40007B681B6842F4A0029A600CE07B681B68E7
:103F50009A687B681B6842F480129A6003E07B6871
:103F6000002283F82420FB7B18461037BD4680BD15
:103F7000002801400024014080B584B000AF786083
:103F80000023FB737B6893F82430012B01D10223BB
:103F90001AE07B68012283F82420786800F07CFA1C
:103FA0000346FB73FB7B002B09D17B689B6A23F4E0
:103FB000885323F0010343F001027B689A627B6817
:103FC000002283F82420FB7B18461037BD4680BDB5
:103FD00090B587B000AF7860396000237B61002323
:103FE000FB6000233B61FFF713FE78617B681B6871
:103FF0009B6803F48073002B0BD07B689B6A43F0B3
:1040000020027B689A627B68002283F824200123C7
:10401000D3E07B681B685B6803F48073002B31D1AD
:104020007B681B68DB6A03F47003002B2AD121E054
:104030003B68B3F1FF3F1DD03B68002B07D0FFF773
:10404000E7FD02467B69D31A3A689A4212D27B682E
:104050001B681B6803F00203002B0BD17B689B6A73
:1040600043F004027B689A627B68002283F8242074
:104070000323A2E07B681B681B6803F00203002B8C
:10408000D6D070E04F4B1C68022003F0DFFF0346E0
:10409000B4FBF3F27B681B6819694B4B0B40002B98
:1040A00018D17B681B68D968484B0B40002B11D195
:1040B0007B681B681969464B0B40002B08D17B6855
:1040C0001B68D968434B0B40002B01D1142320E01F
:1040D00029231EE07B681B6819693D4B0B40002BB0
:1040E00006D17B681B68D9683A4B0B40002B0DD07A
:1040F0007B681B681969384B0B40002B08D17B6823
:104100001B68D968344B0B40002B01D1542300E0CD
:10411000FC2302FB03F33B6121E03B68B3F1FF3F6B
:104120001AD03B68002B07D0FFF772FD02467B696F
:10413000D31A3A689A420FD2FB683A699A420BD96D
:104140007B689B6A43F004027B689A627B6800226A
:1041500083F82420032330E0FB680133FB60FB6815
:104160003A699A42D9D87B681B686FF012021A60CC
:104170007B689B6A43F400727B689A627B681B6869
:104180009B6803F46023B3F5602F15D17B681B7B1C
:10419000002B11D17B689B6A23F480727B689A6242
:1041A0007B689B6A03F48053002B05D17B689B6A74
:1041B00043F001027B689A62002318461C37BD4613
:1041C00090BD00BF000000202449922424499200A1
:1041D00092244912922449004992240080B483B069
:1041E00000AF78607B681B68DB6C18460C37BD46F7
:1041F00080BC704780B485B000AF78603960002320
:10420000FB730023BB607B6893F82430012B01D142
:104210000223DCE07B68012283F824203B685B6892
:10422000062B1CD87B681B68596B3B685A68134681
:104230009B001344053B1F2202FA03F3DB431940A2
:104240003B6818683B685A6813469B001344053B5B
:1042500000FA03F27B681B680A435A633CE03B6840
:104260005B680C2B1CD87B681B68196B3B685A6811
:1042700013469B001344233B1F2202FA03F3DB4344
:1042800019403B6818683B685A6813469B00134402
:10429000233B00FA03F27B681B680A431A631BE0A6
:1042A0007B681B68D96A3B685A6813469B001344B5
:1042B000413B1F2202FA03F3DB4319403B681868B5
:1042C0003B685A6813469B001344413B00FA03F2D3
:1042D0007B681B680A43DA623B681B68092B1CD9A0
:1042E0007B681B68D9683B681A6813465B001344F7
:1042F0001E3B072202FA03F3DB4319403B68986830
:104300003B681A6813465B0013441E3B00FA03F235
:104310007B681B680A43DA6019E07B681B681969CF
:104320003B681A6813465B001344072202FA03F342
:10433000DB4319403B6898683B681A6813465B008A
:10434000134400FA03F27B681B680A431A613B6856
:104350001B68102B03D03B681B68112B32D17B6884
:104360001B681D4A934225D17B681B689B6803F438
:104370000003002B26D17B681B689A687B681B684A
:1043800042F400029A603B681B68102B1AD1134B51
:104390001B68134AA2FB03239A0C13469B00134489
:1043A0005B00BB6002E0BB68013BBB60BB68002BED
:1043B000F9D107E07B689B6A43F020027B689A6230
:1043C0000123FB737B68002283F82420FB7B1846C3
:1043D0001437BD4680BC7047002401400000002017
:1043E00083DE1B4380B584B000AF78600023FB60A0
:1043F0000023BB607B681B689B6803F00103012BF3
:1044000040D07B681B689A687B681B6842F0010299
:104410009A601F4B1B681F4AA2FB03239B0CBB60C7
:1044200002E0BB68013BBB60BB68002BF9D1FFF722
:10443000EFFBF8601FE0FFF7EBFB0246FB68D31AC7
:10444000022B18D97B681B689B6803F00103012BC2
:1044500011D07B689B6A43F010027B689A627B688C
:10446000DB6A43F001027B68DA627B68002283F832
:104470002420012307E07B681B689B6803F001038D
:10448000012BD8D1002318461037BD4680BD00BF90
:104490000000002083DE1B4380B584B000AF78604D
:1044A0000023FB607B681B689B6803F00103012B02
:1044B0002ED17B681B689A687B681B6822F001021A
:1044C0009A60FFF7A5FBF8601BE0FFF7A1FB02462F
:1044D000FB68D31A022B14D97B681B689B6803F016
:1044E0000103012B0DD17B689B6A43F010027B68AE
:1044F0009A627B68DB6A43F001027B68DA6201231F
:1045000007E07B681B689B6803F00103012BDCD08C
:10451000002318461037BD4680BD000080B485B02A
:1045200000AF78607B6803F00703FB600C4BDB682F
:10453000BB60BA684FF6FF031340BB60FB681A020A
:10454000BB68134343F0BF6343F40033BB60044ACA
:10455000BB68D36000BF1437BD4680BC704700BF46
:1045600000ED00E080B400AF044BDB681B0A03F0F1
:1045700007031846BD4680BC704700BF00ED00E051
:1045800080B483B000AF0346FB7197F90730002B6E
:104590000BDBFB7903F01F02064997F907305B0933
:1045A000012000FA02F241F8232000BF0C37BD467B
:1045B00080BC704700E100E080B483B000AF0346E8
:1045C0003960FB7197F90730002B0ADB3B68DAB2E0
:1045D0000C4997F907301201D2B20B4483F800233B
:1045E0000AE03B68DAB20849FB7903F00F03043BA9
:1045F0001201D2B20B441A7600BF0C37BD4680BC04
:10460000704700BF00E100E000ED00E080B489B039
:1046100000AFF860B9607A60FB6803F00703FB61E4
:10462000FB69C3F10703042B28BF0423BB61FB69AB
:104630000433062B02D9FB69033B00E000237B61B6
:104640004FF0FF32BB6902FA03F3DA43BB681A404A
:104650007B699A404FF0FF317B6901FA03F3D9433C
:104660007B680B40134318462437BD4680BC704717
:1046700080B582B000AF78607868FFF74FFF00BF69
:104680000837BD4680BD80B586B000AF0346B9602F
:104690007A60FB7300237B61FFF764FF78617A68BF
:1046A000B9687869FFF7B2FF024697F90F301146F3
:1046B0001846FFF781FF00BF1837BD4680BD80B5A3
:1046C00082B000AF0346FB7197F907301846FFF739
:1046D00057FF00BF0837BD4680BD80B485B000AF2E
:1046E00078600023FB737B6893F82130DBB2022BE8
:1046F00008D07B6804229A637B68002283F820201C
:10470000012320E07B681B681A687B681B6822F025
:104710000E021A607B681B681A687B681B6822F0AF
:1047200001021A607B681A6C7B68DB6B012101FA5D
:1047300002F25A607B68012283F821207B68002204
:1047400083F82020FB7B18461437BD4680BC704799
:1047500080B584B000AF78600023FB737B6893F86A
:104760002130DBB2022B05D07B6804229A6301233F
:10477000FB7351E07B681B681A687B681B6822F03A
:104780000E021A607B681B681A687B681B6822F03F
:1047900001021A607B681B68224A934229D07B6819
:1047A0001B68214A934222D07B681B681F4A9342B0
:1047B0001AD07B681B681E4A934212D07B681B6824
:1047C0001C4A93420AD07B681B681B4A934202D161
:1047D0004FF480130EE04FF080730BE04FF4803302
:1047E00008E04FF4805305E04FF4807302E010239B
:1047F00000E00123114A53607B68012283F82120E5
:104800007B68002283F820207B685B6B002B03D041
:104810007B685B6B78689847FB7B18461037BD4612
:1048200080BD00BF080002401C0002403000024072
:1048300044000240580002406C0002400000024068
:1048400080B483B000AF78607B6893F82130DBB22E
:1048500018460C37BD4680BC7047000080B48BB052
:1048600000AF7860396000237B6200233B6269E11E
:1048700001227B6A02FA03F3FB613B681B68FA6959
:104880001340BB61BA69FB699A4240F058813B68AA
:104890005B689A4A93425ED0984A934275D8984A88
:1048A000934258D0964A93426FD8964A934252D038
:1048B000944A934269D8944A93424CD0924A934284
:1048C00063D8924A934246D0904A93425DD8122BC5
:1048D0002AD8122B59D801A252F823F057490008C0
:1048E0003149000843490008854900088B49000800
:1048F0008B4900088B4900088B4900088B49000848
:104900008B4900088B4900088B4900088B49000837
:104910008B4900088B4900088B4900088B49000827
:10492000394900084D490008794A934213D02CE0D8
:104930003B68DB683B6229E03B68DB6804333B6231
:1049400024E03B68DB6808333B621FE03B68DB68C0
:104950000C333B621AE03B689B68002B02D10423B6
:104960003B6213E03B689B68012B05D108233B6247
:104970007B68FA691A6109E008233B627B68FA697F
:104980005A6103E000233B6200E000BFBB69FF2BDC
:1049900001D87B6801E07B6804337B61BB69FF2B36
:1049A00002D87B6A9B0002E07B6A083B9B003B616C
:1049B0007B691A680F213B6901FA03F3DB431A4054
:1049C000396A3B6901FA03F31A437B691A603B6851
:1049D0005B6803F08053002B00F0B1804D4B9B6966
:1049E0004C4A43F0010393614A4B9B6903F0010376
:1049F000BB60BB68484A7B6A9B08023352F823308D
:104A0000FB607B6A03F003039B000F2202FA03F3AF
:104A1000DB43FA681340FB607B68404A934213D043
:104A20007B683F4A93420DD07B683E4A934207D051
:104A30007B683D4A934201D1032306E0042304E04E
:104A4000022302E0012300E000237A6A02F003025D
:104A500092009340FA681343FB602F497B6A9B08DE
:104A60000233FA6841F823203B685B6803F4801343
:104A7000002B06D02D4B9A682C49BB6913438B60E1
:104A800006E02A4B9A68BB69DB43284913408B60D8
:104A90003B685B6803F40013002B06D0234BDA68F5
:104AA0002249BB691343CB6006E0204BDA68BB693F
:104AB000DB431E491340CB603B685B6803F4003363
:104AC000002B06D0194B5A681849BB6913434B6039
:104AD00006E0164B5A68BB69DB43144913404B6030
:104AE0003B685B6803F48033002B21D00F4B1A68BE
:104AF0000E49BB6913430B6021E000BF0000321078
:104B000000003110000022100000211000001210DF
:104B10000000111000100240000001400008014098
:104B2000000C01400010014000140140000401404D
:104B30000B4B1A68BB69DB43094913400B607B6A66
:104B400001337B623B681A687B6A22FA03F3002B0D
:104B50007FF48EAE00BF00BF2C37BD4680BC7047CF
:104B60000004014080B483B000AF78600B467B80C6
:104B700013467B707B78002B03D07A887B681A61A0
:104B800003E07B881A047B681A6100BF0C37BD46BE
:104B900080BC704780B485B000AF78600B467B80E6
:104BA0007B68DB68FB607A88FB6813401A04FB684B
:104BB000D9437B880B401A437B681A6100BF1437C6
:104BC000BD4680BC7047000080B584B000AF7860FF
:104BD0007B68002B01D101232BE17B6893F83D30EA
:104BE000DBB2002B06D17B68002283F83C2078687A
:104BF000FEF7CAFC7B68242283F83D207B681B6893
:104C00001A687B681B6822F001021A607B681B68C7
:104C10001A687B681B6842F400421A607B681B6854
:104C20001A687B681B6822F400421A6003F0E2F8FD
:104C3000F8607B685B68814A934207D8FB68804ACA
:104C4000934294BF01230023DBB206E0FB687D4A58
:104C5000934294BF01230023DBB2002B01D0012338
:104C6000E7E0FB68784AA2FB03239B0CBB607B68F0
:104C70001B685B6823F03F017B681B68BA680A43C6
:104C80005A607B681B681B6A23F03F017B685B6886
:104C90006A4A934202D8BB68013309E0BB684FF40B
:104CA000967202FB03F3694AA2FB03239B090133BB
:104CB0007A6812680B4313627B681B68DB6923F414
:104CC0004F4222F0FF027B685B685C498B4219D837
:104CD000FB68591E7B685B685B00B1FBF3F3591CF2
:104CE00040F6FC730B40002B0AD0FB68591E7B6812
:104CF0005B685B00B1FBF3F30133C3F30B0351E0DB
:104D000004234FE07B689B68002B11D1FB68581E81
:104D10007B6859680B465B000B44B0FBF3F301332F
:104D2000C3F30B03002B0CBF01230023DBB212E003
:104D3000FB68581E7B6859680B469B000B44990022
:104D40000B44B0FBF3F30133C3F30B03002B0CBF95
:104D500001230023DBB2002B01D0012322E07B687A
:104D60009B68002B0ED1FB68581E7B6859680B4668
:104D70005B000B44B0FBF3F30133C3F30B0343F4C9
:104D800000430FE0FB68581E7B6859680B469B0088
:104D90000B4499000B44B0FBF3F30133C3F30B0353
:104DA00043F44043796809681343CB617B681B680F
:104DB0001B6823F0C0017B68DA697B681B6A1A43B1
:104DC0007B681B680A431A607B681B689B6823F436
:104DD000034323F0FF037A6811697A68D2681143AC
:104DE0007A6812680B4393607B681B68DB6823F06A
:104DF000FF017B685A697B689B691A437B681B6863
:104E00000A43DA607B681B681A687B681B6842F09B
:104E100001021A607B6800221A647B68202283F8F2
:104E20003D207B6800221A637B68002283F83E20C5
:104E3000002318461037BD4680BD00BFA086010084
:104E40007F841E00FF083D0083DE1B43D34D6210AC
:104E500080B483B000AF78607B681B685B6903F047
:104E60008003802B03D17B681B6800221A6100BF7E
:104E70000C37BD4680BC704780B588B002AFF86083
:104E8000084611461A4603467B810B463B81134672
:104E9000FB80FEF7BDFE7861FB6893F83D30DBB226
:104EA000202B40F0D9807B690093192301226D49A2
:104EB000F86802F053F90346002B01D00223CCE03E
:104EC000FB6893F83C30012B01D10223C5E0FB685D
:104ED000012283F83C20FB681B681B6803F0010378
:104EE000012B07D0FB681B681A68FB681B6842F03F
:104EF00001021A60FB681B681A68FB681B6822F4D1
:104F000000621A60FB68212283F83D20FB68402282
:104F100083F83E20FB6800221A64FB683A6A5A62F2
:104F2000FB68BA8C5A85FB685B8D9AB2FB681A8560
:104F3000FB684D4ADA62F8883A8979897B6901937E
:104F4000BB6A00930346F86801F0E2FE0346002BBB
:104F500052D0012381E07A69B96AF86802F018FA40
:104F60000346002B0DD0FB681B6C042B07D1FB689C
:104F70001B681A68FB681B6842F400721A60012300
:104F80006BE0FB685B6A1A78FB681B681A61FB6858
:104F90005B6A5A1CFB685A62FB681B8D013B9AB224
:104FA000FB681A85FB685B8D9BB2013B9AB2FB687C
:104FB0005A85FB681B685B6903F00403042B1BD153
:104FC000FB681B8D002B17D0FB685B6A1A78FB68A7
:104FD0001B681A61FB685B6A5A1CFB685A62FB68B3
:104FE0001B8D013B9AB2FB681A85FB685B8D9BB2F7
:104FF000013B9AB2FB685A85FB681B8D002BAAD136
:105000007A69B96AF86802F00BFA0346002B0DD0F2
:10501000FB681B6C042B07D1FB681B681A68FB68D4
:105020001B6842F400721A60012316E0FB681B68DB
:105030001A68FB681B6842F400721A60FB68202241
:1050400083F83D20FB68002283F83E20FB680022A5
:1050500083F83C20002300E0022318461837BD46A1
:1050600080BD00BF020010000000FFFF80B58CB0C3
:1050700002AFF860084611461A4603467B810B468C
:105080003B811346FB8000233B62FEF7C1FD786243
:10509000FB6893F83D30DBB2202B40F050827B6AF6
:1050A0000093192301228249F86802F057F8034659
:1050B000002B01D0022343E2FB6893F83C30012B24
:1050C00001D102233CE2FB68012283F83C20FB680B
:1050D0001B681B6803F00103012B07D0FB681B68EA
:1050E0001A68FB681B6842F001021A60FB681B68C3
:1050F0001A68FB681B6822F400621A60FB682222AF
:1051000083F83D20FB68402283F83E20FB680022A4
:105110001A64FB683A6B5A62FB68BA8E5A85FB6860
:105120005B8D9AB2FB681A85FB68624ADA62F8887E
:105130003A8979897B6A0193BB6B00930346F868CF
:1051400001F07CFE0346002B01D00123F8E1FB684F
:105150001B8D002B13D10023FB61FB681B685B696F
:10516000FB61FB681B689B69FB61FB69FB681B6853
:105170001A68FB681B6842F400721A60CCE1FB6895
:105180001B8D012B1ED1FB681B681A68FB681B680E
:1051900022F480621A6072B600BF0023BB61FB6814
:1051A0001B685B69BB61FB681B689B69BB61BB6972
:1051B000FB681B681A68FB681B6842F400721A607F
:1051C00062B635E0FB681B8D022B1ED1FB681B68A5
:1051D0001A68FB681B6842F400621A6072B600BF6E
:1051E00000237B61FB681B685B697B61FB681B6854
:1051F0009B697B617B69FB681B681A68FB681B689D
:1052000022F480621A6062B612E0FB681B681A68BA
:10521000FB681B6842F480621A6000233B61FB68F4
:105220001B685B693B61FB681B689B693B613B6971
:1052300072E1FB681B8D032B00F21F81FB681B8D45
:10524000012B23D17A6AB96BF86802F063F903463F
:10525000002B01D0012373E1FB681B681A69FB680E
:105260005B6AD2B21A70FB685B6A5A1CFB685A62AE
:10527000FB681B8D013B9AB2FB681A85FB685B8D4E
:105280009BB2013B9AB2FB685A8545E1FB681B8DD6
:10529000022B52D17B6A0093BB6B00220649F8684F
:1052A00001F05CFF0346002B08D0012348E100BF5A
:1052B000020010000000FFFF0400010072B600BFF2
:1052C000FB681B681A68FB681B6842F400721A606E
:1052D000FB681B681A69FB685B6AD2B21A70FB68CC
:1052E0005B6A5A1CFB685A62FB681B8D013B9AB2D1
:1052F000FB681A85FB685B8D9BB2013B9AB2FB6829
:105300005A8562B600BFFB681B681A69FB685B6A56
:10531000D2B21A70FB685B6A5A1CFB685A62FB685F
:105320001B8D013B9AB2FB681A85FB685B8D9BB2B3
:10533000013B9AB2FB685A85EEE07B6A0093BB6B37
:1053400000228149F86801F009FF0346002B01D0D3
:105350000123F5E0FB681B681A68FB681B6822F4F0
:1053600080621A6072B600BFFB681B681A69FB682E
:105370005B6AD2B21A70FB685B6A5A1CFB685A629D
:10538000FB681B8D013B9AB2FB681A85FB685B8D3D
:105390009BB2013B9AB2FB685A856C4B1B68DB08D9
:1053A0006B4AA2FB03231A0A13469B001344DA003C
:1053B000D31A3B623B6A013B3B623B6A002B18D12C
:1053C000FB6800221A63FB68202283F83D20FB68FB
:1053D000002283F83E20FB681B6C43F02002FB6830
:1053E0001A6462B600BFFB68002283F83C200123E8
:1053F000A6E0FB681B685B6903F00403042BD9D1AA
:10540000FB681B681A68FB681B6842F400721A602C
:10541000FB681B681A69FB685B6AD2B21A70FB688A
:105420005B6A5A1CFB685A62FB681B8D013B9AB28F
:10543000FB681A85FB685B8D9BB2013B9AB2FB68E7
:105440005A8562B600BFFB681B681A69FB685B6A15
:10545000D2B21A70FB685B6A5A1CFB685A62FB681E
:105460001B8D013B9AB2FB681A85FB685B8D9BB272
:10547000013B9AB2FB685A854EE07A6AB96BF868CC
:1054800002F048F80346002B01D0012358E0FB68E6
:105490001B681A69FB685B6AD2B21A70FB685B6AA8
:1054A0005A1CFB685A62FB681B8D013B9AB2FB6871
:1054B0001A85FB685B8D9BB2013B9AB2FB685A85EB
:1054C000FB681B685B6903F00403042B24D1FB68B1
:1054D0001B8D032B07D1FB681B681A68FB681B68D0
:1054E00022F480621A60FB681B681A69FB685B6AB9
:1054F000D2B21A70FB685B6A5A1CFB685A62FB687E
:105500001B8D013B9AB2FB681A85FB685B8D9BB2D1
:10551000013B9AB2FB685A85FB681B8D002B7FF418
:1055200088AEFB68202283F83D20FB68002283F8C8
:105530003E20FB68002283F83C20002300E0022389
:1055400018462837BD4680BD040001000000002039
:1055500089B5F81480B588B000AF78600023BB61CE
:105560007B681B685B687B617B68DB6A3B617B688F
:1055700093F83E30FB737B6893F83D30BB73FB7B45
:10558000102B03D0FB7B402B40F0B1807B681B6865
:105590009B69BB617B681B685B69FB61FB6903F00E
:1055A0000103002B0DD13B69B3F52A0F03D03B69F2
:1055B000B3F12A4F01D1012300E00023012B00F0B9
:1055C0001481FB6903F00103002B0BD07B6903F40A
:1055D0000073002B06D0786802F027F8786800F096
:1055E00074FD83E0FB6903F00803002B08D07B699E
:1055F00003F40073002B03D0786800F0EBFD75E036
:10560000FB6903F00203002B08D07B6903F40073ED
:10561000002B03D0786800F006FE67E0BB6903F05A
:105620000403002B36D07B681B685B6803F40063BF
:10563000B3F5006F00F0DB80FB6903F08003002B03
:105640000DD07B6903F48063002B08D0FB6903F065
:105650000403002B03D1786800F0D4F946E0FB691D
:1056600003F00403002B00F0C2807B6903F4007395
:10567000002B00F0BC80BB7B212B03D1786800F0AD
:105680005DFAB4E0FB7B402B40F0B180786800F01D
:10569000CBFAACE07B681B685B6803F40063B3F58E
:1056A000006F00F0A480FB6903F04003002B0DD0D5
:1056B0007B6903F48063002B08D0FB6903F00403CB
:1056C000002B03D1786800F047FB0FE0FB6903F083
:1056D0000403002B00F08B807B6903F40073002B24
:1056E00000F08580786800F0FFFB80E07FE07B6859
:1056F0001B6C002B04D07B681B685B69FB6107E0B7
:105700007B681B689B69BB617B681B685B69FB618D
:10571000FB6903F00203002B11D07B6903F40073D3
:10572000002B0CD07B681B6C002B03D07B681B68A4
:105730009B69BB61B969786800F0CCFF5AE0FB69EE
:1057400003F01003002B08D07B6903F40073002BD7
:1057500003D0786801F006F84CE0BB7B212B02D027
:10576000BB7B292B20D1FB6903F08003002B0DD0DC
:105770007B6903F48063002B08D0FB6903F004030A
:10578000002B03D1786800F0E9FE32E0FB6903F0FA
:105790000403002B2DD07B6903F40073002B28D069
:1057A000786800F018FF24E0FB6903F04003002B49
:1057B0000DD07B6903F48063002B08D0FB6903F0F4
:1057C0000403002B03D1786800F025FF12E0FB6989
:1057D00003F00403002B0DD07B6903F40073002B4E
:1057E00008D0786800F055FF04E000BF02E000BF79
:1057F00000E000BF2037BD4680BD80B58AB000AF55
:1058000078607B681B685B693B627B681B685B68D0
:10581000FB6100237B627B6893F83E30FB763B6A3A
:1058200003F48073002B15D0FB6903F48073002B05
:1058300010D07B6A43F001037B627B681B686FF4C6
:1058400080725A617B681B681A687B681B6842F427
:1058500000421A603B6A03F40073002B0DD0FB6911
:1058600003F48073002B08D07B6A43F002037B6251
:105870007B681B686FF400725A613B6A03F48063B3
:10588000002B3ED0FB6903F48073002B39D0FB7EE4
:10589000BB767B685B8D9BB27B617B6893F83D3008
:1058A000FB747B681B6BFB60BB7E202B12D17B697A
:1058B000002B0FD1FB7C212B08D0FB7C292B05D0A2
:1058C000FB7C282B06D1FB68212B03D1786801F0E3
:1058D00079F816E07B681B686FF480625A617B6A16
:1058E00043F004037B62FB7E102B02D0FB7E402B37
:1058F00007D17B681B681A687B681B6842F40072DA
:105900001A603B6A03F40063002B0DD0FB6903F4BB
:105910008073002B08D07B6A43F008037B627B68AE
:105920001B686FF400625A617B6A002B08D07B68A9
:105930001A6C7B6A1A437B681A64786801F0B6F8BF
:1059400000BF2837BD4680BD80B483B000AF78600B
:1059500000BF0C37BD4680BC704780B483B000AF39
:10596000786000BF0C37BD4680BC704780B483B000
:1059700000AF786000BF0C37BD4680BC704780B474
:1059800083B000AF786000BF0C37BD4680BC704765
:1059900080B483B000AF78600B46FB7013463B8049
:1059A00000BF0C37BD4680BC704780B483B000AFE9
:1059B000786000BF0C37BD4680BC704780B483B0B0
:1059C00000AF786000BF0C37BD4680BC704780B424
:1059D00083B000AF786000BF0C37BD4680BC704715
:1059E00080B483B000AF786000BF0C37BD4680BC88
:1059F000704780B483B000AF786000BF0C37BD46FD
:105A000080BC704780B584B000AF78607B6893F845
:105A10003D30FB737B6893F83E30BB737B68DB6A79
:105A2000BB607B681B8D002B50D1FB7B212B4DD1A4
:105A3000BB68082B1DD0BB68202B1AD0BB6813F5A0
:105A4000803F16D07B681B685A687B681B6822F40D
:105A5000E0625A607B6811221A637B68002283F837
:105A60003E207B68202283F83D207868FFF76CFF9A
:105A700060E07B681B685A687B681B6822F4E06200
:105A80005A607B681B681A687B681B6842F4007266
:105A90001A607B6800221A637B68202283F83D200D
:105AA0007B6893F83E30DBB2402B07D17B68002245
:105AB00083F83E207868FFF781FF3BE07B68002297
:105AC00083F83E207868FFF73FFF33E0FB7B212B14
:105AD00005D0BB7B402B2DD1FB7B222B2AD17B68B1
