:020000040800F2
:1000000000500020351500083D1400084514000874
:100010004D140008551400085D140008000000008D
:10002000000000000000000000000000651400084F
:1000300071140008000000007D14000889140008F5
:100040007D1500087D1500087D1500087D15000848
:100050007D1500087D1500087D1500087D15000838
:100060007D1500087D1500087D1500087D15000828
:100070007D1500087D1500087D1500087D15000818
:100080007D1500087D1500087D1500087D15000808
:100090007D1500087D1500087D1500087D150008F8
:1000A0007D1500087D1500087D1500087D150008E8
:1000B0007D1500087D1500087D15000895140008C1
:1000C000A91400087D1500087D1500087D1500089D
:1000D0007D1500087D1500087D1500087D150008B8
:1000E0007D1500087D1500087D1500080000000042
:1000F0000000000000000000000000000000000000
:0C01000000000000000000005FF808F1A3
:10010C0010B5054C237833B9044B13B10448AFF345
:10011C0000800123237010BD94000020000000001B
:10012C009C8E000808B5034B1BB103490348AFF381
:10013C00008008BD00000000980000209C8E000884
:10014C00034613F8012B002AFBD1181A013870470B
:10015C0080B500AF00221021034801F0A9FD012059
:10016C0001F06AFA00BF80BD0008014080B500AF05
:10017C0001221021034801F09BFD012001F05CFAE3
:10018C0000BF80BD0008014080B582B000AF0346BF
:10019C00FB7100BF084B1B689B6803F00203022B2A
:1001AC00F8D1F91D64230122034804F057F800BF6D
:1001BC000837BD4680BD00BF1401002080B582B059
:1001CC0000AF78600B467B8000BF084B1B689B68B8
:1001DC0003F00203022BF8D17A8864237968034870
:1001EC0004F03CF800BF0837BD4680BD1401002068
:1001FC0080B584B002AFFF23FB7100BF094B1B68B5
:10020C009B6803F00203022BF8D1BA1DF91D64237D
:10021C0000930123034804F065F9BB7918460837AD
:10022C00BD4680BD1401002080B582B000AF78605F
:10023C00FFF7DEFF03461A467B681A7000BF0837CB
:10024C00BD4680BD80B582B000AF0A4B4FF4FA7248
:10025C001A80FFF7CDFF0346FB71FB79FF2B03D010
:10026C00044B1B88002BF4D1FB7918460837BD468C
:10027C0080BD00BFB200002080B584B000AF41F655
:10028C00FF73FB60FFF772FF0023BB6005E0FF20EC
:10029C00FFF77AFFBB680133BB60BB68092BF6DD47
:1002AC00FFF756FF40233B7000237B700023BB708D
:1002BC000023FB7000233B7195237B713B46062189
:1002CC001846FFF77BFF02E0FB68013BFB60FFF782
:1002DC008FFF0346012B02D0FB68002BF4D1FFF7F4
:1002EC0045FFFF20FFF750FF034B01221A7000BFA0
:1002FC001037BD4680BD00BFB500002080B400AFF4
:10030C00034B00221A7000BFBD4680BC704700BF73
:10031C00B500002080B400AF024B1B781846BD46D8
:10032C0080BC7047B500002080B584B000AF786009
:10033C003960134BC8221A80FFF75AFF0346FB7330
:10034C00FB7BFF2B03D10E4B1B88002BF4D1FB7BCB
:10035C00FE2B01D000230FE07B685A1C7A601846F4
:10036C00FFF762FF3B685A1E3A60002BF4D1FFF78F
:10037C003FFFFFF73DFF012318461037BD4680BDF8
:10038C00B000002080B584B000AF78600B46FB70E5
:10039C000023BB73FFF756FF0346FF2B01D000234E
:1003AC002FE0FB781846FFF7EFFEFB78FD2B20D0F3
:1003BC004FF400717868FFF701FFFFF719FFFFF7A3
:1003CC0017FF0BE0FFF714FF0346FB73FB7B03F0F7
:1003DC001F03052B06D0BB7B0133BB73BB7B402BB0
:1003EC00F0D900E000BF00BFFFF702FF0346002B6F
:1003FC00FAD0FB7B03F01F03052B01D1012300E096
:10040C00002318461037BD4680BD80B584B000AFC0
:10041C0003463960FB71FFF715FF0346FF2B01D034
:10042C00FF2342E0FB791846FFF7AEFE3B681B0E3C
:10043C00DBB21846FFF7A8FE3B681B0CDBB2184674
:10044C00FFF7A2FE3B681B0ADBB21846FFF79CFEC7
:10045C003B68DBB21846FFF797FEFB79402B02D1C5
:10046C009523FB7307E0FB79482B02D18723FB73A1
:10047C0001E00123FB73FB7B1846FFF785FEFB793C
:10048C004C2B01D1FFF7B4FE0A23BB73FFF7B0FE70
:10049C0003467B7397F90D30002B05DABB7B013BD0
:1004AC00BB73BB7B002BF1D17B7B18461037BD4651
:1004BC0080BD000090B585B000AF0346FB71FB79A1
:1004CC00002B01D00123D1E06A4B1B78DBB203F087
:1004DC000203002B03D0674B1B78DBB2C6E0FFF79F
:1004EC00CBFEFFF735FE0023BB7300214020FFF746
:1004FC008CFF0346012B40F0A1805F4B4FF47A72C6
:10050C001A804FF4D5714820FFF77FFF0346012B6B
:10051C0055D10023FB730CE0FC7BFFF769FE03460F
:10052C001A4604F110033B4403F8082CFB7B0133FF
:10053C00FB73FB7B032BEFD9BB7A012B7ED1FB7AB0
:10054C00AA2B7BD100217720FFF75FFF0346012BFD
:10055C0007D84FF080416920FFF757FF0346002B67
:10056C0004D0454B1B88002BECD100E000BF424B64
:10057C001B88002B62D000217A20FFF746FF034630
:10058C00002B5BD10023FB730CE0FC7BFFF730FEF0
:10059C0003461A4604F110033B4403F8082CFB7B7A
:1005AC000133FB73FB7B032BEFD93B7A03F0400346
:1005BC00002B01D00C2300E00423BB733EE0002190
:1005CC007720FFF722FF0346012B08D80021692072
:1005DC00FFF71BFF0346012B01D8022300E0012388
:1005EC00BB73BB7B022B0ED100217720FFF70DFFD5
:1005FC000346012B0ED800216920FFF706FF0346A6
:10060C00002B07D10CE000214120FFF7FEFE034632
:10061C00002B04D0184B1B88002BE2D100E000BF4C
:10062C00154B1B88002B07D04FF400715020FFF79F
:10063C00ECFE0346002B01D00023BB730F4ABB7B9F
:10064C001370FFF793FDFFF7D3FDBB7B002B08D096
:10065C00084B1B78DBB223F00103DAB2054B1A709E
:10066C0001E0FFF74BFE034B1B78DBB21846143747
:10067C00BD4690BD00000020B0000020B40000205A
:10068C0080B483B000AF0346FB71FB79002B01D023
:10069C00012302E0034B1B78DBB218460C37BD4636
:1006AC0080BC70470000002080B584B000AFB960FA
:1006BC007A603B600346FB73FB7B002B02D13B68EB
:1006CC00002B01D1042351E02A4B1B78DBB203F041
:1006DC000103002B01D0032348E0274B1B7803F0C8
:1006EC000403002B02D17B685B027B60FFF730FDBB
:1006FC003B68012B11D179685120FFF786FE034628
:10070C00002B29D14FF40071B868FFF70DFE03469A
:10071C00002B21D000233B601EE079685220FFF7AC
:10072C0074FE0346002B17D14FF40071B868FFF725
:10073C00FBFD0346002B0AD0BB6803F50073BB60BE
:10074C003B68013B3B603B68002BEDD100E000BFF8
:10075C0000214C20FFF759FEFFF708FDFFF748FD7D
:10076C003B68002B14BF01230023DBB21846103763
:10077C00BD4680BD00000020B400002080B584B0D0
:10078C0000AFB9607A603B600346FB73FB7B002BC8
:10079C0002D13B68002B01D104236BE0374B1B7853
:1007AC00DBB203F00103002B01D0032362E0334BD7
:1007BC001B78DBB203F00403002B01D0022359E0B9
:1007CC002F4B1B7803F00403002B02D17B685B02D8
:1007DC007B60FFF7BDFC3B68012B10D1796858207A
:1007EC00FFF713FE0346002B3AD1FE21B868FFF742
:1007FC00C9FD0346002B33D000233B6030E0204B77
:10080C001B7803F00203002B07D000217720FFF7A1
:10081C00FCFD39685720FFF7F8FD79685920FFF780
:10082C00F4FD0346002B1BD1FC21B868FFF7AAFD91
:10083C000346002B0AD0BB6803F50073BB603B6812
:10084C00013B3B603B68002BEED100E000BFFD217B
:10085C000020FFF797FD0346002B01D101233B60DD
:10086C00FFF784FCFFF7C4FC3B68002B14BF01238B
:10087C000023DBB218461037BD4680BD00000020B7
:10088C00B400002090B58BB000AF03463A60FB710A
:10089C000B46BB713B683B62FB79002B01D00423F8
:1008AC0013E1012387F82730BB79052B24D13B6A50
:1008BC001B78022B12D0022B1ADC002B02D0012B3E
:1008CC0006D015E0FFF71AFD002387F82730FAE071
:1008DC00FFF7D2FC002387F82730F4E03B6A5C1C5E
:1008EC00FFF718FD03462370002387F82730EAE052
:1008FC00042387F82730E6E0764B1B78DBB203F055
:10090C000103002B01D00323DFE0FFF721FCBB79AF
:10091C000D2B00F2C98001A252F823F01F0A000827
:10092C00610900080F0A0008B50A0008B50A00089A
:10093C00B50A0008B50A0008B50A0008B50A00088F
:10094C00B50A0008B50A0008310A0008550A000863
:10095C00790A000800214920FFF757FD0346002BB8
:10096C0040F0A68007F10C0310211846FFF7DCFCC1
:10097C000346002B00F09C803B7B9B09DBB2012BD8
:10098C000DD17B7D1A463B7D1B029BB213449BB25F
:10099C000133FB83FB8B9A023B681A602DE07B7C56
:1009AC0003F00F03DAB2BB7DDB09DBB21344DAB21E
:1009BC007B7D5B00DBB203F00603DBB21344DBB2DE
:1009CC00023387F826303B7D9B09DBB21A46FB7C51
:1009DC009B009BB213449AB2BB7C9B029BB203F468
:1009EC0040639BB213449BB20133FB83FA8B97F8A1
:1009FC002630093B9A403B681A60002387F8273061
:100A0C0056E03B684FF400721A80002387F82730B9
:100A1C0055E0FFF717FC0346FF2B4BD1002387F85B
:100A2C00273047E000214920FFF7EFFC0346002B5D
:100A3C0042D11021386AFFF777FC0346002B3BD0DC
:100A4C00002387F8273037E000214A20FFF7DDFC30
:100A5C000346002B32D11021386AFFF765FC0346A0
:100A6C00002B2BD0002387F8273027E000217A2099
:100A7C00FFF7CBFC0346002B16D1002387F826305A
:100A8C000BE03C6A631C3B62FFF7B2FB034623702E
:100A9C0097F82630013387F8263097F82630032B49
:100AAC00EFD9002387F82730042387F8273006E096
:100ABC0000BF04E000BF02E000BF00E000BFFFF792
:100ACC0055FBFFF795FB97F8273018462C37BD469A
:100ADC0090BD00BF0000002080B483B000AF7860F0
:100AEC00054A7B681360054B00221A6000BF0C3767
:100AFC00BD4680BC704700BFB8000020BC00002081
:100B0C0080B483B000AF0346FB71FB79042B17D87C
:100B1C0001A252F823F000BF390B00083D0B00086E
:100B2C00410B0008450B0008490B0008074B08E077
:100B3C00074B06E0074B04E0074B02E0074B00E0D5
:100B4C00074B18460C37BD4680BC7047B48E000866
:100B5C00BC8E0008C48E0008CC8E0008D48E000811
:100B6C00E08E000880B588B002AF786039601F4B0A
:100B7C001B681F4AA2FB0323DA0A1E4BA3FB0213BA
:100B8C0019090B465B000B44DB00D31A7B61174B36
:100B9C001B68194AA2FB03235A09174BA3FB021328
:100BAC0059090B461B015B1A9B00D31A3B610F4B77
:100BBC001A68114BA3FB021359090B461B015B1A54
:100BCC009B00D31AFB60094B1B680133074A136067
:100BDC00FB6801933B6900937B69084A3968786824
:100BEC0007F092FC00BF1837BD4680BDBC0000204A
:100BFC00C5B3A291ABAAAAAA89888888E88E0008F6
:100C0C0090B5ADF5065D87B002AF024607F5C87327
:100C1C00A3F5C873196007F5C873A3F289131A708A
:100C2C0007F1100320211846FFF79CFF07F5C87346
:100C3C00A3F289131B781846FFF762FF014607F1F0
:100C4C00100207F15000203807F5C873A3F5C873DC
:100C5C001B680193009113465B4A4FF4807107F0B7
:100C6C0053FC07F58B5303F11003143B0122574936
:100C7C00184606F0A5F9034607F5065202F10F02D5
:100C8C00137007F5065303F10F031B78002B0DD0DF
:100C9C004F4B1B68002B00F091804D4B18684FF0A8
:100CAC00FF331C224B4903F0D0FE88E007F5A873F4
:100CBC00203B12224849184606F0CCF9034607F5AA
:100CCC00065202F10F02137007F5065303F10F03DE
:100CDC001B78002B4AD107F5C873D3F8AC2F07F556
:100CEC00A873203B1146184606F0E8FF07F15003A5
:100CFC00203B1846FFF724FA024607F11003043B89
:100D0C0007F15001203907F5A870203806F0A4FC33
:100D1C00034607F5065202F10F02137007F506534E
:100D2C0003F10F031B78002B0DD107F15003203B6F
:100D3C001846FFF705FA024607F5C873A3F5C27308
:100D4C001B689A420BD0224B1B68002B07D0204B00
:100D5C0018684FF0FF331D22204903F076FE07F58B
:100D6C00A873203B184606F07EFF0BE0184B1B685F
:100D7C00002B07D0164B18684FF0FF331922184977
:100D8C0003F063FE00221149002006F019F9104B04
:100D9C001B68002B13D00E4B1C6807F15003203B33
:100DAC001846FFF7CDF903469AB207F150012039E6
:100DBC004FF0FF33204603F048FE00E000BF07F57C
:100DCC0006571437BD4690BD008F0008108F0008E1
:100DDC00B8000020148F000804000020348F000895
:100DEC00548F000880B500AF00F0C4FB00F030F861
:100DFC0000F0F8F800F0CCF800F094F803F0FAFFEB
:100E0C0000F062F80D48FFF767FE0D490120FFF76F
:100E1C00F7FE0C490120FFF7F3FE00F021F90A4917
:100E2C000120FFF7EDFE09490020FFF7E9FE41F232
:100E3C00883000F001FC00BFF5E700BF6C0100201A
:100E4C00708F0008988F0008B48F0008D48F0008AA
:100E5C0080B590B000AF07F1180328220021184686
:100E6C0007F086FB3B1D00221A605A609A60DA601C
:100E7C001A610223BB610123BB621023FB620023B6
:100E8C007B6307F11803184602F054FD0346002B50
:100E9C0001D000F0B1F90F237B600023BB6000236D
:100EAC00FB6000233B6100237B613B1D0021184646
:100EBC0002F0C2FF0346002B01D000F09DF900BFE9
:100ECC004037BD4680BD000080B500AF124B134AC1
:100EDC001A60114B124A5A600F4B00229A600E4B4B
:100EEC000022DA600C4B4FF480421A610A4B00224C
:100EFC005A61094B00229A61074B0022DA61064BBA
:100F0C0000221A62044800F0EBFE0346002B01D0CD
:100F1C0000F072F900BF80BDC000002000540040FA
:100F2C00A086010080B500AF174B184A1A60164B0B
:100F3C004FF482725A60144B00229A60124B0022BA
:100F4C00DA60114B00221A610F4B00225A610E4BD2
:100F5C004FF400729A610C4B0022DA610A4B0022AA
:100F6C001A62094B00225A62074B00229A62064B06
:100F7C000A22DA62044803F0EDF80346002B01D094
:100F8C0000F03AF900BF80BD140100200030014090
:100F9C0080B500AF114B124A1A60104B4FF4165229
:100FAC005A600E4B00229A600C4B0022DA600B4BFD
:100FBC0000221A61094B0C225A61084B00229A61DB
:100FCC00064B0022DA61054803F0EFFC0346002BC8
:100FDC0001D000F011F900BF80BD00BF6C010020F2
:100FEC000038014080B586B000AF07F1080300223D
:100FFC001A605A609A60DA60174B9B69164A43F084
:10100C0004039361144B9B6903F004037B607B68BE
:10101C00114B9B69104A43F0080393610E4B9B697B
:10102C0003F008033B603B68002210210B4800F0E2
:10103C003FFE1023BB600123FB6000233B610223B6
:10104C007B6107F108031946044800F0ADFC00BFB2
:10105C001837BD4680BD00BF00100240000801409B
:10106C0080B5ADF5845D82B002AF002307F58352E5
:10107C0002F11F021370032307F5835202F11E02C3
:10108C0013708FE007F16003183B01225649184694
:10109C0005F096FF034607F5835202F11D0213700B
:1010AC0007F5835303F11D031B78002B50D107F177
:1010BC0020021C3A07F12003183B19464A4807F056
:1010CC00EEF80346002B43D107F1800353F87C3C28
:1010DC0003F580535B69023B07F1800252F87C2CCC
:1010EC0002F58052927802FB03F35B0807F58352FA
:1010FC0002F11802136007F1800353F87C3C03F5EE
:10110C0080539B781A4607F1800353F8783C02FB16
:10111C0003F35B0807F1800242F8783C07F1800387
:10112C0053F8782C07F12000143807F5835303F19A
:10113C0018031B68009313462C4A3C2107F0E4F972
:10114C0007F12003143B19460120FFF759FD36E047
:10115C0007F5835303F11F031B785A1C07F58353C0
:10116C0003F11E031B7807F120001438009313467B
:10117C001F4A3C2107F0C8F907F12003143B19461C
:10118C000220FFF73DFD4FF4FA7000F055FA07F519
:10119C00835303F11F031B78013307F5835202F1CC
:1011AC001F02137007F5835303F11F031A7807F519
:1011BC00835303F11E031B789A42FFF463AF07F5C8
:1011CC00835303F11F031A7807F5835303F11E03AE
:1011DC001B789A4203D307490420FFF711FD07F54A
:1011EC008457BD4680BD00BFF08F0008F48F000807
:1011FC00149000083490000880B400AF72B600BFA1
:10120C0000BFFDE780B485B000AF154B9B69144A55
:10121C0043F001039361124B9B6903F00103BB6024
:10122C00BB680F4BDB690E4A43F08053D3610C4B08
:10123C00DB6903F080537B607B680A4B5B68FB6067
:10124C00FB6823F0E063FB60FB6843F00073FB601A
:10125C00044AFB68536000BF1437BD4680BC70471E
:10126C00001002400000014080B588B000AF7860EB
:10127C0007F1100300221A605A609A60DA607B68EA
:10128C001B681D4A934233D11C4B9B691B4A43F08C
:10129C0008039361194B9B6903F00803FB60FB681F
:1012AC00C0233B6112237B610323FB6107F1100315
:1012BC001946134800F078FB104BDB690F4A43F4D6
:1012CC000013D3610D4BDB6903F40013BB60BB68E7
:1012DC00002200211F2000F0AAFA1F2000F0C3FA00
:1012EC0000220021202000F0A2FA202000F0BBFAFE
:1012FC0000BF2037BD4680BD0054004000100240A6
:10130C00000C014080B588B000AF786007F1100385
:10131C0000221A605A609A60DA607B681B681B4A6C
:10132C0093422FD11A4B9B69194A43F48053936112
:10133C00174B9B6903F48053FB60FB68144B9B6950
:10134C00134A43F004039361114B9B6903F00403AC
:10135C00BB60BB68A0233B6102237B610323FB6161
:10136C0007F1100319460B4800F01EFB40233B61AC
:10137C0000237B610023BB6107F11003194605486C
:10138C0000F012FB00BF2037BD4680BD003001408D
:10139C00001002400008014080B588B000AF7860B2
:1013AC0007F1100300221A605A609A60DA607B68B9
:1013BC001B681C4A934231D11B4B9B691A4A43F45C
:1013CC0080439361184B9B6903F48043FB60FB687B
:1013DC00154B9B69144A43F004039361124B9B69B0
:1013EC0003F00403BB60BB684FF400733B61022342
:1013FC007B610323FB6107F1100319460B4800F0D6
:10140C00D3FA4FF480633B6100237B610023BB6103
:10141C0007F110031946054800F0C6FA00BF203743
:10142C00BD4680BD0038014000100240000801405C
:10143C0080B400AF00BFFDE780B400AF00BFFDE794
:10144C0080B400AF00BFFDE780B400AF00BFFDE784
:10145C0080B400AF00BFFDE780B400AF00BFBD4655
:10146C0080BC704780B400AF00BFBD4680BC7047E5
:10147C0080B400AF00BFBD4680BC704780B500AFE4
:10148C0000F0BEF800BF80BD80B500AF024800F090
:10149C007FFD00BF80BD00BFC000002080B500AF45
:1014AC00024800F0C8FE00BF80BD00BFC000002095
:1014BC0080B586B000AF7860144A154BD31A7B61A7
:1014CC007B693B61134B1B68002B02D1114B124AF9
:1014DC001A60104B1A687B6813443A699A4207D217
:1014EC0007F04EF803460C221A604FF0FF3309E068
:1014FC00084B1B68FB60074B1A687B681344054A52
:10150C001360FB6818461837BD4680BD005000209C
:10151C0000040000B40100203803002080B400AFA8
:10152C0000BFBD4680BC7047FFF7F8FF0B480C4965
:10153C000C4A002302E0D458C4500433C4188C4223
:10154C00F9D3094A094C002301E013600432A2428A
:10155C00FBD307F01BF8FFF745FC70470000002099
:10156C00940000208C920008940000203803002086
:10157C00FEE7000080B500AF084B1B68074A43F03C
:10158C0010031360032000F047F90F2000F008F857
:10159C00FFF738FE0023184680BD00BF0020024034
:1015AC0080B582B000AF7860124B1A68124B1B7872
:1015BC0019464FF47A73B3FBF1F3B2FBF3F318460D
:1015CC0000F05FF90346002B01D001230EE07B688D
:1015DC000F2B0AD8002279684FF0FF3000F027F962
:1015EC00064A7B681360002300E001231846083785
:1015FC00BD4680BD240000202C00002028000020C7
:10160C0080B400AF054B1B781A46054B1B6813447E
:10161C00034A136000BFBD4680BC70472C000020FD
:10162C00B801002080B400AF024B1B681846BD46C1
:10163C0080BC7047B801002080B584B000AF7860E2
:10164C00FFF7F0FFB8607B68FB60FB68B3F1FF3F0E
:10165C0005D00A4B1B781A46FB681344FB6000BF8D
:10166C00FFF7E0FF0246BB68D31AFA689A42F7D834
:10167C0000BF00BF1037BD4680BD00BF2C0000204E
:10168C0080B485B000AF78607B6803F00703FB6023
:10169C000C4BDB68BB60BA684FF6FF031340BB60B2
:1016AC00FB681A02BB68134343F0BF6343F4003377
:1016BC00BB60044ABB68D36000BF1437BD4680BC16
:1016CC00704700BF00ED00E080B400AF044BDB6856
:1016DC001B0A03F007031846BD4680BC704700BFC9
:1016EC0000ED00E080B483B000AF0346FB7197F9C6
:1016FC000730002B0BDBFB7903F01F02064997F92F
:10170C0007305B09012000FA02F241F8232000BFE8
:10171C000C37BD4680BC704700E100E080B483B05C
:10172C0000AF03463960FB7197F90730002B0ADBD9
:10173C003B68DAB20C4997F907301201D2B20B446C
:10174C0083F800230AE03B68DAB20849FB7903F01E
:10175C000F03043B1201D2B20B441A7600BF0C37B4
:10176C00BD4680BC704700BF00E100E000ED00E02A
:10177C0080B489B000AFF860B9607A60FB6803F0A0
:10178C000703FB61FB69C3F10703042B28BF042388
:10179C00BB61FB690433062B02D9FB69033B00E0F8
:1017AC0000237B614FF0FF32BB6902FA03F3DA438B
:1017BC00BB681A407B699A404FF0FF317B6901FA94
:1017CC0003F3D9437B680B40134318462437BD46BB
:1017DC0080BC704780B582B000AF78607B68013BFD
:1017EC00B3F1807F01D301230FE00A4A7B68013BF0
:1017FC0053600F214FF0FF30FFF790FF054B002295
:10180C009A60044B07221A60002318460837BD461D
:10181C0080BD00BF10E000E080B582B000AF786002
:10182C007868FFF72DFF00BF0837BD4680BD80B537
:10183C0086B000AF0346B9607A60FB7300237B610E
:10184C00FFF742FF78617A68B9687869FFF790FF13
:10185C00024697F90F3011461846FFF75FFF00BF9D
:10186C001837BD4680BD80B582B000AF0346FB7112
:10187C0097F907301846FFF735FF00BF0837BD460C
:10188C0080BD80B582B000AF78607868FFF7A2FFAA
:10189C00034618460837BD4680BD000080B584B0AD
:1018AC0000AF78600023FB737B6893F82130DBB2C8
:1018BC00022B05D07B6804229A630123FB7351E051
:1018CC007B681B681A687B681B6822F00E021A6022
:1018DC007B681B681A687B681B6822F001021A601F
:1018EC007B681B68224A934229D07B681B68214A7B
:1018FC00934222D07B681B681F4A93421AD07B68A4
:10190C001B681E4A934212D07B681B681C4A934288
:10191C000AD07B681B681B4A934202D14FF4801398
:10192C000EE04FF080730BE04FF4803308E04FF47F
:10193C00805305E04FF4807302E0102300E0012394
:10194C00114A53607B68012283F821207B680022B6
:10195C0083F820207B685B6B002B03D07B685B6B70
:10196C0078689847FB7B18461037BD4680BD00BF92
:10197C00080002401C0002403000024044000240BB
:10198C00580002406C0002400000024080B483B05A
:10199C0000AF78607B6893F82130DBB218460C37C7
:1019AC00BD4680BC7047000080B48BB000AF78603F
:1019BC00396000237B6200233B6269E101227B6A70
:1019CC0002FA03F3FB613B681B68FA691340BB61C5
:1019DC00BA69FB699A4240F058813B685B689A4A45
:1019EC0093425ED0984A934275D8984A934258D005
:1019FC00964A93426FD8964A934252D0944A934255
:101A0C0069D8944A93424CD0924A934263D8924AF2
:101A1C00934246D0904A93425DD8122B2AD8122B6F
:101A2C0059D801A252F823F0AF1A0008891A0008FD
:101A3C009B1A0008DD1A0008E31A0008E31A0008D4
:101A4C00E31A0008E31A0008E31A0008E31A000876
:101A5C00E31A0008E31A0008E31A0008E31A000866
:101A6C00E31A0008E31A0008E31A0008911A0008A8
:101A7C00A51A0008794A934213D02CE03B68DB6826
:101A8C003B6229E03B68DB6804333B6224E03B6843
:101A9C00DB6808333B621FE03B68DB680C333B625E
:101AAC001AE03B689B68002B02D104233B6213E0D5
:101ABC003B689B68012B05D108233B627B68FA6964
:101ACC001A6109E008233B627B68FA695A6103E0FA
:101ADC0000233B6200E000BFBB69FF2B01D87B6891
:101AEC0001E07B6804337B61BB69FF2B02D87B6A06
:101AFC009B0002E07B6A083B9B003B617B691A6898
:101B0C000F213B6901FA03F3DB431A40396A3B6945
:101B1C0001FA03F31A437B691A603B685B6803F0B4
:101B2C008053002B00F0B1804D4B9B694C4A43F025
:101B3C00010393614A4B9B6903F00103BB60BB68D3
:101B4C00484A7B6A9B08023352F82330FB607B6A5D
:101B5C0003F003039B000F2202FA03F3DB43FA6842
:101B6C001340FB607B68404A934213D07B683F4A2A
:101B7C0093420DD07B683E4A934207D07B683D4A26
:101B8C00934201D1032306E0042304E0022302E084
:101B9C00012300E000237A6A02F0030292009340D2
:101BAC00FA681343FB602F497B6A9B080233FA687F
:101BBC0041F823203B685B6803F48013002B06D0AC
:101BCC002D4B9A682C49BB6913438B6006E02A4B5A
:101BDC009A68BB69DB43284913408B603B685B68A0
:101BEC0003F40013002B06D0234BDA682249BB699F
:101BFC001343CB6006E0204BDA68BB69DB431E491C
:101C0C001340CB603B685B6803F40033002B06D0B9
:101C1C00194B5A681849BB6913434B6006E0164BC5
:101C2C005A68BB69DB43144913404B603B685B68E3
:101C3C0003F48033002B21D00F4B1A680E49BB697B
:101C4C0013430B6021E000BF000032100000311084
:101C5C0000002210000021100000121000001110D2
:101C6C00001002400000014000080140000C01403F
:101C7C000010014000140140000401400B4B1A6895
:101C8C00BB69DB43094913400B607B6A01337B6200
:101C9C003B681A687B6A22FA03F3002B7FF48EAE42
:101CAC0000BF00BF2C37BD4680BC7047000401400C
:101CBC0080B483B000AF78600B467B8013467B709A
:101CCC007B78002B03D07A887B681A6103E07B88D1
:101CDC001A047B681A6100BF0C37BD4680BC704784
:101CEC0080B584B000AF78607B68002B01D10123F4
:101CFC002BE17B6893F83D30DBB2002B06D17B687F
:101D0C00002283F83C207868FFF7AEFA7B68242227
:101D1C0083F83D207B681B681A687B681B6822F07F
:101D2C0001021A607B681B681A687B681B6842F4A6
:101D3C0000421A607B681B681A687B681B6822F477
:101D4C0000421A6002F0C0F9F8607B685B68814A57
:101D5C00934207D8FB68804A934294BF0123002327
:101D6C00DBB206E0FB687D4A934294BF012300235B
:101D7C00DBB2002B01D00123E7E0FB68784AA2FB21
:101D8C0003239B0CBB607B681B685B6823F03F01E3
:101D9C007B681B68BA680A435A607B681B681B6ABD
:101DAC0023F03F017B685B686A4A934202D8BB68A8
:101DBC00013309E0BB684FF4967202FB03F3694AE6
:101DCC00A2FB03239B0901337A6812680B4313624D
:101DDC007B681B68DB6923F44F4222F0FF027B68AF
:101DEC005B685C498B4219D8FB68591E7B685B6841
:101DFC005B00B1FBF3F3591C40F6FC730B40002B5A
:101E0C000AD0FB68591E7B685B685B00B1FBF3F37F
:101E1C000133C3F30B0351E004234FE07B689B6851
:101E2C00002B11D1FB68581E7B6859680B465B0070
:101E3C000B44B0FBF3F30133C3F30B03002B0CBFC8
:101E4C0001230023DBB212E0FB68581E7B68596843
:101E5C000B469B000B4499000B44B0FBF3F301338E
:101E6C00C3F30B03002B0CBF01230023DBB2002BAD
:101E7C0001D0012322E07B689B68002B0ED1FB680C
:101E8C00581E7B6859680B465B000B44B0FBF3F3A0
:101E9C000133C3F30B0343F400430FE0FB68581EFC
:101EAC007B6859680B469B000B4499000B44B0FBB4
:101EBC00F3F30133C3F30B0343F44043796809682C
:101ECC001343CB617B681B681B6823F0C0017B68E4
:101EDC00DA697B681B6A1A437B681B680A431A60C1
:101EEC007B681B689B6823F4034323F0FF037A6829
:101EFC0011697A68D26811437A6812680B4393604F
:101F0C007B681B68DB6823F0FF017B685A697B6880
:101F1C009B691A437B681B680A43DA607B681B6801
:101F2C001A687B681B6842F001021A607B68002209
:101F3C001A647B68202283F83D207B6800221A6398
:101F4C007B68002283F83E20002318461037BD46DC
:101F5C0080BD00BFA08601007F841E00FF083D00ED
:101F6C0083DE1B43D34D621080B483B000AF786026
:101F7C007B681B685B6903F08003802B03D17B6853
:101F8C001B6800221A6100BF0C37BD4680BC70472D
:101F9C0080B588B000AF78600023BB617B681B689C
:101FAC005B687B617B68DB6A3B617B6893F83E30E6
:101FBC00FB737B6893F83D30BB73FB7B102B03D01A
:101FCC00FB7B402B40F0B1807B681B689B69BB613D
:101FDC007B681B685B69FB61FB6903F00103002BE9
:101FEC000DD13B69B3F52A0F03D03B69B3F12A4FEE
:101FFC0001D1012300E00023012B00F01481FB69C7
:10200C0003F00103002B0BD07B6903F40073002B4E
:10201C0006D0786801F074FC786800F074FD83E0F9
:10202C00FB6903F00803002B08D07B6903F40073F1
:10203C00002B03D0786800F0EBFD75E0FB6903F032
:10204C000203002B08D07B6903F40073002B03D030
:10205C00786800F006FE67E0BB6903F00403002B10
:10206C0036D07B681B685B6803F40063B3F5006FC4
:10207C0000F0DB80FB6903F08003002B0DD07B6943
:10208C0003F48063002B08D0FB6903F00403002BDE
:10209C0003D1786800F0D4F946E0FB6903F004033F
:1020AC00002B00F0C2807B6903F40073002B00F05E
:1020BC00BC80BB7B212B03D1786800F05DFAB4E0C7
:1020CC00FB7B402B40F0B180786800F0CBFAACE0A1
:1020DC007B681B685B6803F40063B3F5006F00F06A
:1020EC00A480FB6903F04003002B0DD07B6903F443
:1020FC008063002B08D0FB6903F00403002B03D191
:10210C00786800F047FB0FE0FB6903F00403002B39
:10211C0000F08B807B6903F40073002B00F085804A
:10212C00786800F0FFFB80E07FE07B681B6C002B85
:10213C0004D07B681B685B69FB6107E07B681B68EC
:10214C009B69BB617B681B685B69FB61FB6903F086
:10215C000203002B11D07B6903F40073002B0CD00D
:10216C007B681B6C002B03D07B681B689B69BB6175
:10217C00B969786800F0CCFF5AE0FB6903F01003F2
:10218C00002B08D07B6903F40073002B03D0786814
:10219C0001F006F84CE0BB7B212B02D0BB7B292B3A
:1021AC0020D1FB6903F08003002B0DD07B6903F475
:1021BC008063002B08D0FB6903F00403002B03D1D0
:1021CC00786800F0E9FE32E0FB6903F00403002BB1
:1021DC002DD07B6903F40073002B28D0786800F0B5
:1021EC0018FF24E0FB6903F04003002B0DD07B6942
:1021FC0003F48063002B08D0FB6903F00403002B6D
:10220C0003D1786800F025FF12E0FB6903F00403AA
:10221C00002B0DD07B6903F40073002B08D0786879
:10222C0000F055FF04E000BF02E000BF00E000BF7B
:10223C002037BD4680BD80B58AB000AF78607B6822
:10224C001B685B693B627B681B685B68FB610023F6
:10225C007B627B6893F83E30FB763B6A03F48073B9
:10226C00002B15D0FB6903F48073002B10D07B6A14
:10227C0043F001037B627B681B686FF480725A61C8
:10228C007B681B681A687B681B6842F400421A6002
:10229C003B6A03F40073002B0DD0FB6903F48073CD
:1022AC00002B08D07B6A43F002037B627B681B68BF
:1022BC006FF400725A613B6A03F48063002B3ED0CA
:1022CC00FB6903F48073002B39D0FB7EBB767B68F3
:1022DC005B8D9BB27B617B6893F83D30FB747B68B4
:1022EC001B6BFB60BB7E202B12D17B69002B0FD1AB
:1022FC00FB7C212B08D0FB7C292B05D0FB7C282BCD
:10230C0006D1FB68212B03D1786801F079F816E02F
:10231C007B681B686FF480625A617B6A43F004032C
:10232C007B62FB7E102B02D0FB7E402B07D17B689F
:10233C001B681A687B681B6842F400721A603B6A5F
:10234C0003F40063002B0DD0FB6903F48073002BA6
:10235C0008D07B6A43F008037B627B681B686FF4D0
:10236C0000625A617B6A002B08D07B681A6C7B6A0E
:10237C001A437B681A64786801F0B6F800BF2837F6
:10238C00BD4680BD80B483B000AF786000BF0C3711
:10239C00BD4680BC704780B483B000AF786000BF8E
:1023AC000C37BD4680BC704780B483B000AF7860FA
:1023BC0000BF0C37BD4680BC704780B483B000AF03
:1023CC00786000BF0C37BD4680BC704780B483B0CA
:1023DC0000AF78600B46FB7013463B8000BF0C3798
:1023EC00BD4680BC704780B483B000AF786000BF3E
:1023FC000C37BD4680BC704780B483B000AF7860AA
:10240C0000BF0C37BD4680BC704780B483B000AFB2
:10241C00786000BF0C37BD4680BC704780B483B079
:10242C0000AF786000BF0C37BD4680BC704780B4ED
:10243C0083B000AF786000BF0C37BD4680BC7047DE
:10244C0080B584B000AF78607B6893F83D30FB7347
:10245C007B6893F83E30BB737B68DB6ABB607B6840
:10246C001B8D002B50D1FB7B212B4DD1BB68082B36
:10247C001DD0BB68202B1AD0BB6813F5803F16D03B
:10248C007B681B685A687B681B6822F4E0625A60A0
:10249C007B6811221A637B68002283F83E207B68DC
:1024AC00202283F83D207868FFF76CFF60E07B68A2
:1024BC001B685A687B681B6822F4E0625A607B6870
:1024CC001B681A687B681B6842F400721A607B6890
:1024DC0000221A637B68202283F83D207B6893F8E6
:1024EC003E30DBB2402B07D17B68002283F83E20C4
:1024FC007868FFF781FF3BE07B68002283F83E2081
:10250C007868FFF73FFF33E0FB7B212B05D0BB7BCB
:10251C00402B2DD1FB7B222B2AD17B685B8D9BB270
:10252C00002B08D17B681B685A687B681B6822F4F7
:10253C0080625A601CE07B6893F83E30DBB2402B23
:10254C0003D1786800F08EF812E07B685B6A1A7829
:10255C007B681B681A617B685B6A5A1C7B685A62D1
:10256C007B685B8D9BB2013B9AB27B685A85FFE717
:10257C0000BF1037BD4680BD80B584B000AF786019
:10258C007B68DB6AFB607B6893F83D30DBB2212B08
:10259C0064D17B685B8D9BB2002B12D07B685B6A2D
:1025AC001A787B681B681A617B685B6A5A1C7B68AB
:1025BC005A627B685B8D9BB2013B9AB27B685A85F1
:1025CC004CE0FB68082B1DD0FB68202B1AD0FB6855
:1025DC0013F5803F16D07B681B685A687B681B68B4
:1025EC0022F4E0625A607B6811221A637B68002235
:1025FC0083F83E207B68202283F83D207868FFF723
:10260C00C1FE2BE07B681B685A687B681B6822F450
:10261C00E0625A607B681B681A687B681B6842F42E
:10262C0000721A607B6800221A637B68202283F890
:10263C003D207B6893F83E30DBB2402B07D17B68A2
:10264C00002283F83E207868FFF7D6FE06E07B6810
:10265C00002283F83E207868FFF794FE00BF103705
:10266C00BD4680BD80B584B000AF78607B6893F8C0
:10267C003D30FB737B681B6D002B1DD17B68DB6CC5
:10268C00012B0BD17B689B6CDAB27B681B681A61DF
:10269C007B681B6D9A1C7B681A6577E07B689B6C6A
:1026AC009BB21B12DAB27B681B681A617B681B6DCC
:1026BC005A1C7B681A6569E07B681B6D012B0BD17A
:1026CC007B689B6CDAB27B681B681A617B681B6D3C
:1026DC005A1C7B681A6559E07B681B6D022B52D122
:1026EC00FB7B222B0DD17B681B681A687B681B68EF
:1026FC0042F480721A607B681B6D5A1C7B681A65E9
:10270C0044E07B685B8D9BB2002B15D0FB7B212BAF
:10271C0012D17B685B6A1A787B681B681A617B68CC
:10272C005B6A5A1C7B685A627B685B8D9BB2013B6F
:10273C009AB27B685A8529E07B685B8D9BB2002B33
:10274C0024D1FB7B212B21D17B681B685A687B68C9
:10275C001B6822F4E0625A607B681B681A687B680D
:10276C001B6842F400721A607B6800221A637B6853
:10277C00202283F83D207B68002283F83E20786875
:10278C00FFF73AFE02E07868FFF7EEFB00BF103768
:10279C00BD4680BD80B584B000AF78607B6893F88F
:1027AC003D30DBB2222B40F0B9807B68DB6AFB60EA
:1027BC007B685B8D9BB2BB60BB68032B21D97B68AC
:1027CC001B681A697B685B6AD2B21A707B685B6A99
:1027DC005A1C7B685A627B685B8D9BB2013B9AB238
:1027EC007B685A857B685B8D9BB2032B40F096808F
:1027FC007B681B685A687B681B6822F480625A608D
:10280C008CE07B68DB6A022B7FD0BB68012B02D08B
:10281C00BB68002B79D1786801F040F80346002B97
:10282C004CD17B681B681A687B681B6822F4806239
:10283C001A607B681B685A687B681B6822F4E0622C
:10284C005A607B681B681A697B685B6AD2B21A7023
:10285C007B685B6A5A1C7B685A627B685B8D9BB297
:10286C00013B9AB27B685A857B68202283F83D2015
:10287C007B6893F83E30DBB2402B0AD17B68002298
:10288C0083F83E207B6800221A637868FFF7BDFD51
:10289C0044E07B68002283F83E20FB68082B02D0C2
:1028AC00FB68202B03D17B6800221A6302E07B6853
:1028BC0012221A637868FFF76EFD2FE07B681B68A5
:1028CC005A687B681B6822F4E0625A607B681B685C
:1028DC001A697B685B6AD2B21A707B685B6A5A1C95
:1028EC007B685A627B685B8D9BB2013B9AB27B68BA
:1028FC005A857B68202283F83D207B68002283F870
:10290C003E207868FFF78AFD08E07B681B685A68F0
:10291C007B681B6822F480625A60FFE700BF1037A7
:10292C00BD4680BD80B584B000AF78607B68DB6A43
:10293C00FB607B685B8D9BB2042B1BD17B681B6897
:10294C005A687B681B6822F480625A607B681B683B
:10295C001A697B685B6AD2B21A707B685B6A5A1C14
:10296C007B685A627B685B8D9BB2013B9AB27B6839
:10297C005A85C4E07B685B8D9BB2032B29D17B68A5
:10298C001B685A687B681B6822F480625A60FB687B
:10299C00042B0AD0FB68022B07D07B681B681A68D3
:1029AC007B681B6822F480621A607B681B681A695A
:1029BC007B685B6AD2B21A707B685B6A5A1C7B6854
:1029CC005A627B685B8D9BB2013B9AB27B685A85DD
:1029DC0095E07B685B8D9BB2022B7DD1FB68012B54
:1029EC0002D0FB68102B08D17B681B681A687B68C7
:1029FC001B6822F480621A6016E0FB68042B02D07C
:102A0C00FB68022B08D17B681B681A687B681B6803
:102A1C0042F480621A6007E07B681B681A687B6866
:102A2C001B6842F400721A607B681B681A697B6829
:102A3C005B6AD2B21A707B685B6A5A1C7B685A62FA
:102A4C007B685B8D9BB2013B9AB27B685A857B6835
:102A5C001B681A697B685B6AD2B21A707B685B6A06
:102A6C005A1C7B685A627B685B8D9BB2013B9AB2A5
:102A7C007B685A857B681B685A687B681B6822F4E4
:102A8C0040725A607B68202283F83D207B6893F863
:102A9C003E30DBB2402B0AD17B68002283F83E200B
:102AAC007B6800221A637868FFF7AFFC27E07B682D
:102ABC00002283F83E20FB68082B02D0FB68202BF9
:102ACC0003D17B6800221A6302E07B6812221A632E
:102ADC007868FFF760FC12E07B681B681A697B68FA
:102AEC005B6AD2B21A707B685B6A5A1C7B685A624A
:102AFC007B685B8D9BB2013B9AB27B685A8500BFA9
:102B0C001037BD4680BD80B483B000AF78607B6861
:102B1C0093F83E30DBB2402B17D17B681B6D002B3A
:102B2C0009D17B685B6CDBB21A467B681B6802F0D0
:102B3C00FE021A6167E07B685B6CDBB243F0010359
:102B4C00DAB27B681B681A615DE07B681B69B3F5C0
:102B5C00804F33D17B6893F83D30DBB2212B09D108
:102B6C007B685B6CDBB21A467B681B6802F0FE026A
:102B7C001A6108E07B685B6CDBB243F00103DAB2EC
:102B8C007B681B681A617B685B6B002B04D07B68CD
:102B9C005B6B9B6A002B08D17B689B6B002B32D044
:102BAC007B689B6B9B6A002B2DD07B681B685A68DB
:102BBC007B681B6842F400625A6024E07B681B6DE2
:102BCC00002B0ED17B685B6C9BB2DB11DBB203F08C
:102BDC000603DBB263F00F03DAB27B681B681A6181
:102BEC0011E07B681B6D012B0DD17B685B6C9BB27C
:102BFC00DB11DBB203F00603DBB263F00E03DAB2D7
:102C0C007B681B681A6100BF0C37BD4680BC7047DF
:102C1C0080B483B000AF78607B685B6CDAB27B68A1
:102C2C001B681A617B685B6B002B04D07B685B6B49
:102C3C009B6A002B08D17B689B6B002B0CD07B68AC
:102C4C009B6B9B6A002B07D07B681B685A687B6860
:102C5C001B6842F400625A6000BF0C37BD4680BC52
:102C6C00704780B491B000AF78607B6893F83E30C9
:102C7C0087F83F307B68DB6ABB637B681B6B7B63CD
:102C8C007B6893F83D30DBB2222B40F074817B687B
:102C9C001B6D002B0FD197F83F30402B0BD100232D
:102CAC003B637B681B685B693B637B681B689B6948
:102CBC003B633B6B6BE17B681B6D002B1DD17B6811
:102CCC001B69B3F5404F18D10023FB627B681B686E
:102CDC005B69FB627B681B689B69FB62FB6A7B68B8
:102CEC001B681A687B681B6842F480721A607B68E8
:102CFC001B6D5A1C7B681A6549E17B685B8D9BB226
:102D0C00002B13D10023BB627B681B685B69BB6221
:102D1C007B681B689B69BB62BB6A7B681B681A6813
:102D2C007B681B6842F400721A6020E17B685B8D43
:102D3C009BB2012B40F08A80BB6B13F5803F37D1DF
:102D4C007B681B681A687B681B6822F480621A60B7
:102D5C007B681B685B6803F40063B3F5006F13D1E9
:102D6C007B681B681A687B681B6822F480621A6097
:102D7C0000237B627B681B685B697B627B681B68DA
:102D8C009B697B627B6AF2E000233B627B681B6879
:102D9C005B693B627B681B689B693B623B6A7B6837
:102DAC001B681A687B681B6842F400721A60DEE0CC
:102DBC00BB6B082B2ED0BB6B202B2BD07B6B122B21
:102DCC0002D1BB6B012B25D1BB6B042B0ED0BB6B83
:102DDC00022B0BD0BB6B102B08D07B681B681A68BE
:102DEC007B681B6822F480621A6007E07B681B68B2
:102DFC001A687B681B6842F480621A600023FB61CE
:102E0C007B681B685B69FB617B681B689B69FB616A
:102E1C00FB69ACE07B681B681A687B681B6822F452
:102E2C0080621A600023BB617B681B685B69BB61B5
:102E3C007B681B689B69BB61BB697B681B681A68F4
:102E4C007B681B6842F400721A6090E07B685B8DB3
:102E5C009BB2022B58D1BB6B042B21D0BB6B022B2A
:102E6C001ED0BB6B102B1BD07B681B681A687B6851
:102E7C001B6842F400621A6000237B617B681B684C
:102E8C005B697B617B681B689B697B617B697B6889
:102E9C001B681A687B681B6822F480621A6012E057
:102EAC007B681B681A687B681B6842F480621A6036
:102EBC0000233B617B681B685B693B617B681B681B
:102ECC009B693B613B697B681B685B6803F400632F
:102EDC00B3F5006F4BD1BB6B13F5803F0BD0BB6BC5
:102EEC00012B08D0BB6B082B05D0BB6B102B02D071
:102EFC00BB6B202B3BD17B681B685A687B681B68BB
:102F0C0042F480525A6032E07B681B681A687B6816
:102F1C001B6842F480621A607B681B685B6803F470
:102F2C000063B3F5006F17D1BB6B13F5803F0BD06B
:102F3C00BB6B012B08D0BB6B082B05D0BB6B102BCC
:102F4C0002D0BB6B202B07D17B681B685A687B684F
:102F5C001B6842F480525A600023FB607B681B683C
:102F6C005B69FB607B681B689B69FB60FB687B682B
:102F7C0000221A650BE00023BB607B681B685B6951
:102F8C00BB607B681B689B69BB60BB68FFE700BFCD
:102F9C004437BD4680BC704780B584B000AF7860C4
:102FAC007B6893F83D30FB737B685B8D9BB2002B89
:102FBC002BD07B685B6A1A787B681B681A617B680C
:102FCC005B6A5A1C7B685A627B685B8D9BB2013BC7
:102FDC009AB27B685A857B685B8D9BB2002B14D1AF
:102FEC00FB7B292B11D17B681B685A687B681B689B
:102FFC0022F480625A607B6821221A637B68282243
:10300C0083F83D207868FFF7CFF900BF1037BD4635
:10301C0080BD80B483B000AF78607B685B8D9BB261
:10302C00002B11D07B685B6A1A787B681B681A616D
:10303C007B685B6A5A1C7B685A627B685B8D9BB2AF
:10304C00013B9AB27B685A8500BF0C37BD4680BCE9
:10305C00704780B584B000AF78607B6893F83D30E2
:10306C00FB737B685B8D9BB2002B2CD07B681B6841
:10307C001A697B685B6AD2B21A707B685B6A5A1CED
:10308C007B685A627B685B8D9BB2013B9AB27B6812
:10309C005A857B685B8D9BB2002B14D1FB7B2A2B52
:1030AC0011D17B681B685A687B681B6822F48062AC
:1030BC005A607B6822221A637B68282283F83D20A1
:1030CC007868FFF77AF900BF1037BD4680BD80B431
:1030DC0083B000AF78607B685B8D9BB2002B12D005
:1030EC007B681B681A697B685B6AD2B21A707B6852
:1030FC005B6A5A1C7B685A627B685B8D9BB2013B96
:10310C009AB27B685A8500BF0C37BD4680BC7047AD
:10311C0080B584B000AF786039600023FB737B68A6
:10312C0093F83D30DBB203F02803282B25D17B68C4
:10313C001B685A687B681B6822F480625A603B6883
:10314C0003F00403002B01D10123FB733B6803F054
:10315C008003002B03D17B68DB68BB8102E07B68BA
:10316C009B69BB817B68002283F83C20BA89FB7B7E
:10317C0019467868FFF72AF90EE00023BB607B68DC
:10318C001B685B69BB607B681B689B69BB60BB6829
:10319C007B68002283F83C2000BF1037BD4680BD01
:1031AC0080B584B000AF78607B6893F83D30FB73DA
:1031BC007B681B685A687B681B6822F4E0625A6063
:1031CC000023BB607B681B685B69BB607B681B680A
:1031DC001A687B681B6842F001021A60BB687B6846
:1031EC001B681A687B681B6822F480621A607B6813
:1031FC001B685B6803F40063B3F5006F72D1FB7B53
:10320C00222B02D0FB7B2A2B35D17B689B6B1B6856
:10321C005B689AB27B685A857B685B8D9BB2002B8E
:10322C0005D07B681B6C43F004027B681A647B68D6
:10323C001B685A687B681B6822F400625A607B68C2
:10324C009B6B1846FEF7A2FB0346012B49D07B680B
:10325C009B6B694A5A637B689B6B1846FEF71EFB97
:10326C000346002B3DD07B689B6B5B6B7A68926B43
:10327C001046984735E07B685B6B1B685B689AB2BD
:10328C007B685A857B685B8D9BB2002B05D07B6875
:10329C001B6C43F004027B681A647B681B685A68D9
:1032AC007B681B6822F400625A607B685B6B184673
:1032BC00FEF76CFB0346012B14D07B685B6B4E4A0C
:1032CC005A637B685B6B1846FEF7E8FA0346002BE3
:1032DC0008D07B685B6B5B6B7A68526B10469847C7
:1032EC0000E000BF7B685B8D9BB2002B3ED07B68FF
:1032FC001B685B6903F00403042B12D17B681B6809
:10330C001A697B685B6AD2B21A707B685B6A5A1C5A
:10331C007B685A627B685B8D9BB2013B9AB27B687F
:10332C005A857B681B685B6903F04003402B12D104
:10333C007B681B681A697B685B6AD2B21A707B68FF
:10334C005B6A5A1C7B685A627B685B8D9BB2013B43
:10335C009AB27B685A857B685B8D9BB2002B05D03B
:10336C007B681B6C43F004027B681A647B681B6CE3
:10337C00002B03D0786800F0B7F839E0FB7B2A2BE0
:10338C0009D17B6800221A637B68282283F83D20D0
:10339C007868FFF712F87B6893F83D30DBB2282B86
:1033AC0011D17B68154ADA627B6800221A637B684C
:1033BC00202283F83D207B68002283F83E20786829
:1033CC00FFF711F814E07B681B6B222B02D0FB7B00
:1033DC00222B0DD17B6800221A637B68202283F894
:1033EC003D207B68002283F83E207868FEF7E5FFDD
:1033FC0000BF1037BD4680BD593700080000FFFFE5
:10340C0080B584B000AF78607B6893F83D30FB7377
:10341C007B68DB6ABB60BB68082B02D0BB68202BC7
:10342C0029D1FB7B282B26D17B682E4ADA627B685C
:10343C001B685A687B681B6822F4E0625A607B68E0
:10344C001B686FF480625A617B681B681A687B6822
:10345C001B6822F480621A607B6800221A637B6806
:10346C00202283F83D207B68002283F83E20786878
:10347C00FEF7B9FF31E0FB7B212B29D17B68194A80
:10348C00DA627B6821221A637B68202283F83D2054
:10349C007B68002283F83E207B681B685A687B6837
:1034AC001B6822F4E0625A607B681B686FF48062D0
:1034BC005A617B681B681A687B681B6822F48062FF
:1034CC001A607868FEF750FD7868FEF76DFF04E02F
:1034DC007B681B686FF480625A6100BF1037BD4671
:1034EC0080BD00BF0000FFFF80B584B000AF7860E6
:1034FC007B6893F83D30FB737B6893F83E30BB736D
:10350C00BB7B102B02D0BB7B402B0AD1FB7B222B2D
:10351C0007D17B681B681A687B681B6822F4006201
:10352C001A60FB7B03F02803282B07D17B68002251
:10353C001A637B68282283F83D2015E07B681B68A2
:10354C005B6803F40063B3F5006F0AD0FB7B602B60
:10355C0007D07B68202283F83D207B68002283F80B
:10356C003E207B6800221A637B681B685B6803F44F
:10357C000063B3F5006F62D17B681B685A687B6887
:10358C001B6822F400625A607B685B6B93F82130F5
:10359C00DBB2012B20D07B685B6B6A4A5A637B6879
:1035AC005B6B1846FEF77AF90346002B00F0898016
:1035BC007B681B681A687B681B6822F001021A6022
:1035CC007B68202283F83D207B685B6B5B6B7A68A1
:1035DC00526B1046984774E07B689B6B594A5A6350
:1035EC007B689B6B1846FEF759F90346002B68D095
:1035FC007B681B685B6903F04003402B0BD17B6835
:10360C001B681A697B685B6AD2B21A707B685B6A4A
:10361C005A1C7B685A627B681B681A687B681B683B
:10362C0022F001021A607B68202283F83D207B681F
:10363C009B6B5B6B7A68926B1046984741E07B689A
:10364C0093F83D30DBB2602B25D17B68202283F8C8
:10365C003D207B6800221A647B681B685B6903F061
:10366C004003402B0BD17B681B681A697B685B6A33
:10367C00D2B21A707B685B6A5A1C7B685A627B6890
:10368C001B681A687B681B6822F001021A60786854
:10369C00FEF7CDFE15E07B681B685B6903F0400309
:1036AC00402B0BD17B681B681A697B685B6AD2B2B2
:1036BC001A707B685B6A5A1C7B685A627868FEF7E2
:1036CC00ADFE7B681B6CBB60BB6803F00103002B79
:1036DC000ED1BB6803F00203002B09D1BB6803F0C9
:1036EC000403002B04D1BB6803F00803002B07D0A4
:1036FC007B681B685A687B681B6822F4E0625A601E
:10370C007B6893F83D30FB737B681B6C03F0040300
:10371C00042B13D1FB7B282B10D17B680A4ADA626D
:10372C007B6800221A637B68202283F83D207B682B
:10373C00002283F83E207868FEF755FE00BF103754
:10374C00BD4680BD593700080000FFFF80B586B02C
:10375C0000AF78600023FB607B685B6A7B617B69F0
:10376C0093F83D30FB744B4B1B68DB084A4AA2FBB9
:10377C0003231A0A13469B001344DA00D31AFB6086
:10378C00FB68002B06D17B691B6C43F020027B6924
:10379C001A640AE0FB68013BFB607B691B681B68D1
:1037AC0003F40073B3F5007FEAD07B695B6B002BED
:1037BC0003D07B695B6B00229A627B699B6B002B4D
:1037CC0003D07B699B6B00229A627B691B681A6829
:1037DC007B691B6822F480621A607B6900225A851F
:1037EC007B695B6B002B03D07B695B6B00225A639C
:1037FC007B699B6B002B03D07B699B6B00225A630C
:10380C007B691B681A687B691B6822F001021A60CD
:10381C007B6993F83D30DBB2602B0ED17B692022A3
:10382C0083F83D207B69002283F83E207B690022CF
:10383C001A647869FEF7FBFD27E0FB7C03F0280394
:10384C00282B17D17B691B681A687B691B6842F0AF
:10385C0001021A607B691B681A687B691B6842F459
:10386C0080621A607B6900221A637B69282283F8C4
:10387C003D2007E07B69202283F83D207B690022F4
:10388C0083F83E207869FEF7C9FD00BF1837BD46A6
:10389C0080BD00BF2400002089B5F81480B485B029
:1038AC0000AF78600023FB60134B1B68DB08134AE6
:1038BC00A2FB03231A0A13469B001344FB60FB680C
:1038CC00013BFB60FB68002B07D17B681B6C43F052
:1038DC0020027B681A64012308E07B681B681B6864
:1038EC0003F40073B3F5007FE9D0002318461437B6
:1038FC00BD4680BC704700BF2400002089B5F81479
:10390C0080B483B000AF78607B68DB6AB3F52A0FB4
:10391C0003D17B680122DA6207E07B68DB6AB3F1D2
:10392C002A4F02D17B680822DA6200BF0C37BD46F1
:10393C0080BC704780B586B000AF78607B68002B88
:10394C0001D1012372E27B681B6803F00103002B99
:10395C0000F08780924B5B6803F00C03042B0CD0B7
:10396C008F4B5B6803F00C03082B12D18C4B5B68FC
:10397C0003F48033B3F5803F0BD1894B1B6803F400
:10398C000033002B6CD07B685B68002B68D1012363
:10399C004CE27B685B68B3F5803F06D1804B1B68BB
:1039AC007F4A43F4803313602EE07B685B68002B06
:1039BC000CD17B4B1B687A4A23F480331360784B11
:1039CC001B68774A23F4802313601DE07B685B68D7
:1039DC00B3F5A02F0CD1724B1B68714A43F48023B2
:1039EC0013606F4B1B686E4A43F4803313600BE01B
:1039FC006B4B1B686A4A23F480331360684B1B685B
:103A0C00674A23F4802313607B685B68002B13D018
:103A1C00FDF708FE386108E0FDF704FE02463B693D
:103A2C00D31A642B01D9032300E25D4B1B6803F40A
:103A3C000033002BF0D014E0FDF7F4FD386108E002
:103A4C00FDF7F0FD02463B69D31A642B01D9032321
:103A5C00ECE1534B1B6803F40033002BF0D100E076
:103A6C0000BF7B681B6803F00203002B63D04C4B38
:103A7C005B6803F00C03002B0BD0494B5B6803F025
:103A8C000C03082B1CD1464B5B6803F48033002BD2
:103A9C0016D1434B1B6803F00203002B05D07B6847
:103AAC001B69012B01D00123C0E13D4B1B6823F0A6
:103ABC00F8027B685B69DB00394913430B603AE021
:103ACC007B681B69002B20D0364B01221A60FDF756
:103ADC00A9FD386108E0FDF7A5FD02463B69D31A44
:103AEC00022B01D90323A1E12D4B1B6803F0020328
:103AFC00002BF0D02A4B1B6823F0F8027B685B6923
:103B0C00DB00274913430B6015E0264B00221A609B
:103B1C00FDF788FD386108E0FDF784FD02463B693E
:103B2C00D31A022B01D9032380E11D4B1B6803F030
:103B3C000203002BF0D17B681B6803F00803002BF9
:103B4C003AD07B689B69002B19D0174B01221A6065
:103B5C00FDF768FD386108E0FDF764FD02463B693E
:103B6C00D31A022B01D9032360E10D4B5B6A03F0DE
:103B7C000203002BF0D0012000F0CEFA1CE00A4B1F
:103B8C0000221A60FDF74EFD38610FE0FDF74AFD8B
:103B9C0002463B69D31A022B08D9032346E100BF26
:103BAC00001002400000424280044242924B5B6A89
:103BBC0003F00203002BE9D17B681B6803F00403BC
:103BCC00002B00F0A6800023FB758B4BDB6903F008
:103BDC008053002B0DD1884BDB69874A43F080530F
:103BEC00D361854BDB6903F08053BB60BB68012359
:103BFC00FB75824B1B6803F48073002B18D17F4B31
:103C0C001B687E4A43F480731360FDF70BFD38612B
:103C1C0008E0FDF707FD02463B69D31A642B01D976
:103C2C00032303E1754B1B6803F48073002BF0D066
:103C3C007B68DB68012B06D16F4B1B6A6E4A43F025
:103C4C00010313622DE07B68DB68002B0CD16A4BFF
:103C5C001B6A694A23F001031362674B1B6A664AAD
:103C6C0023F0040313621CE07B68DB68052B0CD18A
:103C7C00614B1B6A604A43F0040313625E4B1B6A80
:103C8C005D4A43F0010313620BE05B4B1B6A5A4A1B
:103C9C0023F001031362584B1B6A574A23F00403A9
:103CAC0013627B68DB68002B15D0FDF7BBFC386119
:103CBC000AE0FDF7B7FC02463B69D31A41F28832A1
:103CCC00934201D90323B1E04B4B1B6A03F002036F
:103CDC00002BEED014E0FDF7A5FC38610AE0FDF7EF
:103CEC00A1FC02463B69D31A41F28832934201D9B6
:103CFC0003239BE0404B1B6A03F00203002BEED125
:103D0C00FB7D012B05D13C4BDB693B4A23F08053F7
:103D1C00D3617B68DB69002B00F08780364B5B68D6
:103D2C0003F00C03082B61D07B68DB69022B46D1B6
:103D3C00334B00221A60FDF775FC386108E0FDF783
:103D4C0071FC02463B69D31A022B01D903236DE0A7
:103D5C00294B1B6803F00073002BF0D17B681B6AA6
:103D6C00B3F5803F08D1244B5B6823F400327B68A9
:103D7C009B68214913434B601F4B5B6823F47412FF
:103D8C007B68196A7B685B6A0B431B4913434B6066
:103D9C001B4B01221A60FDF745FC386108E0FDF76A
:103DAC0041FC02463B69D31A022B01D903233DE0A7
:103DBC00114B1B6803F00073002BF0D035E0104B57
:103DCC0000221A60FDF72EFC386108E0FDF72AFC92
:103DDC0002463B69D31A022B01D9032326E0064B7A
:103DEC001B6803F00073002BF0D11EE07B68DB69CD
:103DFC00012B07D1012319E0001002400070004094
:103E0C00600042420B4B5B68FB60FB6803F4803242
:103E1C007B681B6A9A4206D1FB6803F470127B68BC
:103E2C005B6A9A4201D0012300E000231846183740
:103E3C00BD4680BD0010024080B584B000AF7860F4
:103E4C0039607B68002B01D10123D0E06A4B1B68E1
:103E5C0003F007033A689A4210D9674B1B6823F0AA
:103E6C00070265493B6813430B60634B1B6803F007
:103E7C0007033A689A4201D00123B8E07B681B68BB
:103E8C0003F00203002B20D07B681B6803F00403B3
:103E9C00002B05D0594B5B68584A43F4E0635360E0
:103EAC007B681B6803F00803002B05D0534B5B6841
:103EBC00524A43F460535360504B5B6823F0F0025A
:103ECC007B689B684D4913434B607B681B6803F010
:103EDC000103002B40D07B685B68012B07D1474B5B
:103EEC001B6803F40033002B15D101237FE07B68A2
:103EFC005B68022B07D1414B1B6803F00073002B4E
:103F0C0009D1012373E03D4B1B6803F00203002B26
:103F1C0001D101236BE0394B5B6823F003027B6812
:103F2C005B68364913434B60FDF77CFBF8600AE095
:103F3C00FDF778FB0246FB68D31A41F288329342B4
:103F4C0001D9032353E02D4B5B6803F00C027B6813
:103F5C005B689B009A42EBD1274B1B6803F007036D
:103F6C003A689A4210D2244B1B6823F0070222496C
:103F7C003B6813430B60204B1B6803F007033A6844
:103F8C009A4201D0012332E07B681B6803F00403E2
:103F9C00002B08D0194B5B6823F4E0627B68DB686C
:103FAC00164913434B607B681B6803F00803002B16
:103FBC0009D0124B5B6823F460527B681B69DB00F1
:103FCC000E4913434B6000F021F802460B4B5B6823
:103FDC001B0903F00F030A49CB5C22FA03F3094ACD
:103FEC001360094B1B681846FDF7DAFA00231846D4
:103FFC001037BD4680BD00BF0020024000100240BB
:10400C009C910008240000202800002080B487B078
:10401C0000AF0023FB600023BB6000237B61002307
:10402C007B6000233B611E4B5B68FB60FB6803F00D
:10403C000C03042B02D0082B03D027E0194B3B6157
:10404C0027E0FB689B0C03F00F03174AD35C7B60E3
:10405C00FB6803F48033002B10D0114B5B685B0CB6
:10406C0003F00103114AD35CBB607B680D4A03FB70
:10407C0002F2BB68B2FBF3F37B6104E07B680C4A91
:10408C0002FB03F37B617B693B6102E0054B3B6107
:10409C0000BF3B6918461C37BD4680BC704700BF4B
:1040AC000010024000127A00B4910008C49100087C
:1040BC0000093D0080B400AF024B1B681846BD469A
:1040CC0080BC70472400002080B500AFFFF7F2FFE2
:1040DC000246054B5B681B0A03F007030349CB5CE4
:1040EC0022FA03F3184680BD00100240AC91000880
:1040FC0080B500AFFFF7DEFF0246054B5B68DB0ABD
:10410C0003F007030349CB5C22FA03F3184680BD86
:10411C0000100240AC91000880B485B000AF78600C
:10412C000A4B1B680A4AA2FB03235B0A7A6802FB50
:10413C0003F3FB6000BFFB685A1EFA60002BF9D139
:10414C0000BF00BF1437BD4680BC70472400002060
:10415C00D34D621080B582B000AF78607B68002BC5
:10416C0001D1012376E07B685B6A002B08D17B6868
:10417C005B68B3F5827F09D07B680022DA6105E0C9
:10418C007B6800221A617B6800225A617B680022DE
:10419C009A627B6893F85130DBB2002B06D17B68B6
:1041AC00002283F850207868FDF7ACF87B68022277
:1041BC0083F851207B681B681A687B681B6822F0A7
:1041CC0040021A607B685B6803F482727B689B68B0
:1041DC0003F404431A437B68DB6803F400631A435B
:1041EC007B681B6903F002031A437B685B6903F06D
:1041FC0001031A437B689B6903F400731A437B68C1
:10420C00DB6903F038031A437B681B6A03F08003F5
:10421C0042EA03017B689B6A03F400527B681B68CB
:10422C000A431A607B689B691A0C7B681B6802F056
:10423C0004025A607B681B68DA697B681B6822F48D
:10424C000062DA617B6800225A657B68012283F880
:10425C005120002318460837BD4680BD80B588B074
:10426C0000AFF860B9603B601346FB80FDF7DAF9EC
:10427C00F861FB887B83FB6893F85130DBB2012B30
:10428C0001D002232AE1BB68002B02D0FB88002B53
:10429C0001D1012322E1FB6893F85030012B01D1AD
:1042AC0002231BE1FB68012283F85020FB680322E8
:1042BC0083F85120FB6800225A65FB68BA681A63C0
:1042CC00FB68FA889A86FB68FA88DA86FB68002213
:1042DC009A63FB6800229A87FB680022DA87FB68E6
:1042EC0000225A64FB6800221A64FB689B68B3F5D1
:1042FC00004F0FD1FB681B681A68FB681B6822F023
:10430C0040021A60FB681B681A68FB681B6842F461
:10431C0080421A60FB681B681B6803F04003402B4B
:10432C0007D0FB681B681A68FB681B6842F04002E8
:10433C001A60FB68DB68B3F5006F52D1FB685B68F1
:10434C00002B02D07B8B012B45D1FB681B6B1A8891
:10435C00FB681B68DA60FB681B6B9A1CFB681A63B2
:10436C00FB68DB8E9BB2013B9AB2FB68DA8632E0CB
:10437C00FB681B689B6803F00203022B12D1FB68DD
:10438C001B6B1A88FB681B68DA60FB681B6B9A1C3A
:10439C00FB681A63FB68DB8E9BB2013B9AB2FB682D
:1043AC00DA8618E0FDF73EF90246FB69D31A3A6843
:1043BC009A4203D83B68B3F1FF3F02D13B68002B14
:1043CC0009D1FB68012283F85120FB68002283F895
:1043DC005020032382E0FB68DB8E9BB2002BC7D1FD
:1043EC0053E0FB685B68002B02D07B8B012B47D121
:1043FC00FB681A6BFB681B680C3312781A70FB682D
:10440C001B6B5A1CFB681A63FB68DB8E9BB2013B6F
:10441C009AB2FB68DA8633E0FB681B689B6803F092
:10442C000203022B13D1FB681A6BFB681B680C335D
:10443C0012781A70FB681B6B5A1CFB681A63FB68BA
:10444C00DB8E9BB2013B9AB2FB68DA8618E0FDF773
:10445C00E9F80246FB69D31A3A689A4203D83B68DA
:10446C00B3F1FF3F02D13B68002B09D1FB6801225D
:10447C0083F85120FB68002283F8502003232DE0A1
:10448C00FB68DB8E9BB2002BC6D1FA693968F868E1
:10449C0000F05AFA0346002B02D0FB6820225A6522
:1044AC00FB689B68002B0AD100237B61FB681B68AF
:1044BC00DB687B61FB681B689B687B617B69FB68C5
:1044CC00012283F85120FB68002283F85020FB68FE
:1044DC005B6D002B01D0012300E000231846203730
:1044EC00BD4680BD80B58AB000AFF860B9607A6017
:1044FC007B8001237B62FDF795F83862FB6893F8AB
:10450C005130FB77FB685B68BB617B88FB82FB7F70
:10451C00012B0CD0BB69B3F5827F06D1FB689B687D
:10452C00002B02D1FB7F042B01D002237FE1BB685F
:10453C00002B05D07B68002B02D07B88002B01D18F
:10454C00012374E1FB6893F85030012B01D1022355
:10455C006DE1FB68012283F85020FB6893F8513021
:10456C00DBB2042B03D0FB68052283F85120FB68D7
:10457C0000225A65FB687A689A63FB687A88DA8746
:10458C00FB687A889A87FB68BA681A63FB687A8832
:10459C00DA86FB687A889A86FB6800221A64FB68C4
:1045AC0000225A64FB681B681B6803F04003402B15
:1045BC0007D0FB681B681A68FB681B6842F0400256
:1045CC001A60FB68DB68B3F5006F7ED1FB685B6833
:1045DC00002B02D0FB8A012B6CD1FB681B6B1A8859
:1045EC00FB681B68DA60FB681B6B9A1CFB681A6320
:1045FC00FB68DB8E9BB2013B9AB2FB68DA8659E012
:10460C00FB681B689B6803F00203022B1BD1FB6841
:10461C00DB8E9BB2002B16D07B6A012B13D1FB686F
:10462C001B6B1A88FB681B68DA60FB681B6B9A1C97
:10463C00FB681A63FB68DB8E9BB2013B9AB2FB688A
:10464C00DA8600237B62FB681B689B6803F001031E
:10465C00012B19D1FB68DB8F9BB2002B14D0FB68AC
:10466C001B68DA68FB689B6B92B21A80FB689B6BC9
:10467C009A1CFB689A63FB68DB8F9BB2013B9AB276
:10468C00FB68DA8701237B62FCF7CCFF02463B6AAE
:10469C00D31A3A6B9A420DD83B6BB3F1FF3F09D05A
:1046AC00FB68012283F85120FB68002283F850201C
:1046BC000323BCE0FB68DB8E9BB2002BA0D1FB6814
:1046CC00DB8F9BB2002B9BD182E0FB685B68002BDD
:1046DC0002D0FB8A012B71D1FB681A6BFB681B683B
:1046EC000C3312781A70FB681B6B5A1CFB681A632C
:1046FC00FB68DB8E9BB2013B9AB2FB68DA865DE00D
:10470C00FB681B689B6803F00203022B1CD1FB683F
:10471C00DB8E9BB2002B17D07B6A012B14D1FB686C
:10472C001A6BFB681B680C3312781A70FB681B6BD6
:10473C005A1CFB681A63FB68DB8E9BB2013B9AB276
:10474C00FB68DA8600237B62FB681B689B6803F0BE
:10475C000103012B19D1FB68DB8F9BB2002B14D00A
:10476C00FB681B68DA68FB689B6BD2B21A70FB683B
:10477C009B6B5A1CFB689A63FB68DB8F9BB2013BFB
:10478C009AB2FB68DA8701237B62FCF74BFF024687
:10479C003B6AD31A3A6B9A4203D83B6BB3F1FF3F97
:1047AC0002D13B6B002B09D1FB68012283F851200D
:1047BC00FB68002283F85020032338E0FB68DB8E73
:1047CC009BB2002B9CD1FB68DB8F9BB2002B97D14B
:1047DC003A6A396BF86800F0B7F80346002B08D03A
:1047EC00FB6820225A65FB68002283F850200123C5
:1047FC001DE0FB689B68002B0AD100233B61FB6822
:10480C001B68DB683B61FB681B689B683B613B6911
:10481C00FB68012283F85120FB68002283F85020AA
:10482C00FB685B6D002B01D0012300E000231846D0
:10483C002837BD4680BD000080B588B000AFF86059
:10484C00B9603B601346FB71FCF7ECFE0246BB6A99
:10485C009B1A3A681344FB61FCF7E4FEB861394BD0
:10486C001B685B011B0DFA6902FB03F37B6154E0CF
:10487C003B68B3F1FF3F50D0FCF7D4FE0246BB6956
:10488C00D31AFA699A4202D9FB69002B3DD1FB6815
:10489C001B685A68FB681B6822F0E0025A60FB68D0
:1048AC005B68B3F5827F11D1FB689B68B3F5004F51
:1048BC0004D0FB689B68B3F5806F07D1FB681B685D
:1048CC001A68FB681B6822F040021A60FB689B6A3E
:1048DC00B3F5005F0FD1FB681B681A68FB681B6897
:1048EC0022F400521A60FB681B681A68FB681B688C
:1048FC0042F400521A60FB68012283F85120FB68D5
:10490C00002283F85020032317E07B69002B01D190
:10491C000023FB617B69013B7B61FB681B689A6828
:10492C00BB681340BA689A420CBF01230023DBB268
:10493C001A46FB799A429BD1002318462037BD4674
:10494C0080BD00BF2400002080B586B002AFF860A7
:10495C00B9607A607B680093BB6801220221F86819
:10496C00FFF76AFF0346002B07D0FB685B6D43F033
:10497C002002FB685A65032313E07B680093BB6835
:10498C0000228021F868FFF757FF0346002B07D061
:10499C00FB685B6D43F02002FB685A65032300E063
:1049AC00002318461037BD4680BD80B582B000AFDD
:1049BC0078607B68002B01D1012342E07B6893F87F
:1049CC004130DBB2002B06D17B68002283F84020FB
:1049DC007868FCF7E1FC7B68242283F841207B6833
:1049EC001B68DA687B681B6822F40052DA6078680E
:1049FC0000F072F97B681B681A697B681B6822F4EB
:104A0C0090421A617B681B685A697B681B6822F0AC
:104A1C002A025A617B681B68DA687B681B6842F45F
:104A2C000052DA607B6800225A647B68202283F88B
:104A3C0041207B68202283F842207B6800225A6345
:104A4C00002318460837BD4680BD80B58AB002AF3A
:104A5C00F860B9603B601346FB8000237B61FB6808
:104A6C0093F84130DBB2202B75D1BB68002B02D000
:104A7C00FB88002B01D101236EE0FB6800225A64F5
:104A8C00FB68212283F84120FCF7CCFD7861FB68A0
:104A9C00FA889A84FB68FA88DA84FB689B68B3F519
:104AAC00805F08D1FB681B69002B04D10023FB61DC
:104ABC00BB68BB6103E0BB68FB610023BB612EE0FC
:104ACC003B6800937B6900228021F86800F048F86D
:104ADC000346002B05D0FB68202283F841200323DA
:104AEC003AE0FB69002B0BD1BB691B881A46FB68AB
:104AFC001B68C2F308025A60BB690233BB6107E052
:104B0C00FB691A78FB681B685A60FB690133FB610F
:104B1C00FB68DB8C9BB2013B9AB2FB68DA84FB68C6
:104B2C00DB8C9BB2002BCBD13B6800937B690022C2
:104B3C004021F86800F014F80346002B05D0FB6800
:104B4C00202283F84120032306E0FB68202283F80F
:104B5C004120002300E0022318462037BD4680BDCB
:104B6C0080B586B000AFF860B9603B601346FB714E
:104B7C003BE03B6AB3F1FF3F37D0FCF753FD0246F5
:104B8C003B68D31A3A6A9A4202D33B6A002B01D192
:104B9C0003233AE0FB681B68DB6803F00403002B7B
:104BAC0023D0BB68802B20D0BB68402B1DD0FB686A
:104BBC001B681B6803F00803082B16D100237B61CC
:104BCC00FB681B681B687B61FB681B685B687B610F
:104BDC007B69F86800F01DF8FB6808225A64FB68D2
:104BEC00002283F8402001230FE0FB681B681A6841
:104BFC00BB681340BA689A420CBF01230023DBB296
:104C0C001A46FB799A42B4D0002318461837BD4691
:104C1C0080BD80B495B000AF78607B681B680C33A6
:104C2C007B637B6B53E8003F3B633B6B23F49073DC
:104C3C00FB647B681B680C33FA6C3A64FB63F96B9E
:104C4C003A6C41E80023BB63BB6B002BE5D17B685E
:104C5C001B6814333B623B6A53E8003FFB61FB6902
:104C6C0023F00103BB647B681B681433BA6CFA62D3
:104C7C00BB62B96AFA6A41E800237B627B6A002B4B
:104C8C00E5D17B681B6B012B19D17B681B680C333E
:104C9C00FB60FB6853E8003FBB60BB6823F010036C
:104CAC007B647B681B680C337A6CBA617B617969B5
:104CBC00BA6941E800233B613B69002BE5D17B6875
:104CCC00202283F842207B6800221A6300BF5437ED
:104CDC00BD4680BC7047000080B584B000AF7860E2
:104CEC007B681B681B6923F440517B68DA687B681E
:104CFC001B680A431A617B689A687B681B691A43B4
:104D0C007B685B691343BB607B681B68DB6823F4BF
:104D1C00B05323F00C037A681268B9680B43D36064
:104D2C007B681B685B6923F440717B689A697B68BC
:104D3C001B680A435A617B681B682C4A934203D157
:104D4C00FFF7D6F9F86002E0FFF7BEF9F860FA68F1
:104D5C0013469B0013449A001A447B685B689B00C3
:104D6C00B2FBF3F3224AA2FB03235B091901FA6895
:104D7C0013469B0013449A001A447B685B689B00A3
:104D8C00B2FBF3F21A4BA3FB02035B09642000FB9A
:104D9C0003F3D31A1B013233154AA2FB03235B091D
:104DAC0003F0F0031944FA6813469B0013449A006D
:104DBC001A447B685B689B00B2FBF3F20C4BA3FBC1
:104DCC0002035B09642000FB03F3D31A1B0132338B
:104DDC00074AA2FB03235B0903F00F027B681B68E5
:104DEC000A449A6000BF1037BD4680BD00380140B0
:104DFC001F85EB5180B500AF0449054803F074FBE7
:104E0C0003461A46034B1A7000BF80BDC001002038
:104E1C0030000020BC01002080B400AF00231846F5
:104E2C00BD4680BC704780B582B000AF0346FB71B5
:104E3C00FB791846FBF73EFB034618460837BD4680
:104E4C0080BD80B582B000AF0346FB71FB7918467C
:104E5C00FBF716FC034618460837BD4680BD80B5E7
:104E6C0084B000AFB9607A603B600346FB73F87B9B
:104E7C003B687A68B968FBF717FC0346184610378D
:104E8C00BD4680BD80B584B000AFB9607A603B6030
:104E9C000346FB73F87B3B687A68B968FBF76EFCDA
:104EAC00034618461037BD4680BD80B582B000AFB2
:104EBC0003463A60FB710B46BB71B979FB793A68D2
:104ECC001846FBF7DFFC034618460837BD4680BD85
:104EDC0080B584B000AF0346FB71FB79084A9B0098
:104EEC0013445B685B68FA7905490A44127A1046E8
:104EFC0098470346FB73FB7B18461037BD4680BDB5
:104F0C00E401002080B584B000AF0346FB710023A0
:104F1C00FB73FB790D4AD35C002B11D1FB790B4A47
:104F2C000121D154FB79094A9B0013445B681B682F
:104F3C00FA7906490A44127A104698470346FB73DD
:104F4C00FB7B18461037BD4680BD00BFE401002036
:104F5C0090B587B000AFB9607A603B600346FB73D5
:104F6C00FB7B0A4A9B0013445B689C68FB7B074AEB
:104F7C001344187A3B687A68B968A0470346FB75F6
:104F8C00FB7D18461C37BD4690BD00BFE4010020D8
:104F9C0090B587B000AFB9607A603B600346FB7395
:104FAC00FB7B0A4A9B0013445B68DC68FB7B074A6B
:104FBC001344187A3B687A68B968A0470346FB75B6
:104FCC00FB7D18461C37BD4690BD00BFE401002098
:104FDC0080B584B000AF03463A60FB710B46BB71E1
:104FEC00FB79094A9B0013445B681B69FA790649F3
:104FFC000A44107AB9793A6898470346FB73FB7BED
:10500C0018461037BD4680BDE401002080B487B03F
:10501C0000AFF860B9607A60FB687B61BB683B618C
:10502C0007E03A69531C3B617B69591C7961127822
:10503C001A707B685A1E7A60002BF2D100BF00BF39
:10504C001C37BD4680BC704780B487B000AFF86099
:10505C00B9607A60FB687B6105E07B695A1C7A61F8
:10506C00BA68D2B21A707B685A1E7A60002BF4D1DF
:10507C0000BF00BF1C37BD4680BC704780B489B0F0
:10508C0000AFF860B9607A60FB68FB61BB68BB611C
:10509C0000237B6100BF7B685A1E7A60002B0DD009
:1050AC00FB695A1CFA611B781946BB695A1CBA6118
:1050BC001B78CB1A7B617B69002BECD07B69184683
:1050CC002437BD4680BC704780B483B000AF786095
:1050DC00396002E07B6801337B607B681B78002BB6
:1050EC0005D07B681B781A463B689342F2D17B68EB
:1050FC001B7818460C37BD4680BC704780B485B011
:10510C0000AF786039600023BB60BB68FB603BE09C
:10511C003149FA6813465B0013449B000B441B682F
:10512C00002B2CD02C49FA6813465B0013449B00CF
:10513C000B441A687B6803F580531B689A4220D194
:10514C002549FA6813465B0013449B000B44043357
:10515C001A687B6803F580539B689A4211D11E49EB
:10516C00FA6813465B0013449B000B4408331A88FF
:10517C007B6803F58053DB889A4202D107E0012358
:10518C00BB60FB680133FB60FB68012BC0D9FB687B
:10519C00022B09D1BB68002B02D13B68022B01D139
:1051AC00002313E0122311E03B68002B0BD10A49BA
:1051BC00FA6813465B0013449B000B440A331B88AC
:1051CC00B3F5807F01D1102300E00023184614377B
:1051DC00BD4680BC704700BFCC01002080B483B0BA
:1051EC0000AF00237B6002E07B6801337B607B684F
:1051FC00012B09D80A497A6813465B0013449B00BB
:10520C000B441B68002BEFD17B68022B14BF0123CE
:10521C000023DBB218460C37BD4680BC704700BF7C
:10522C00CC01002080B485B000AF786039600023D9
:10523C00FB602EE05849FA6813465B0013449B0050
:10524C000B441A687B6803F580531B689A421DD186
:10525C005149FA6813465B0013449B000B4404331A
:10526C001A687B6803F580539B689A420ED14A49B1
:10527C00FA6813465B0013449B000B4408331A88EE
:10528C007B6803F58053DB889A4206D0FB680133B8
:10529C00FB60FB68012BCDD900E000BFFB68022B43
:1052AC0048D10023FB6002E0FB680133FB60FB6824
:1052BC00012B09D83849FA6813465B0013449B004C
:1052CC000B441B68002BEFD1FB68022B01D1002390
:1052DC005DE07B6803F5805319682F48FA68134624
:1052EC005B0013449B00034419607B6803F58053F7
:1052FC0099682948FA6813465B0013449B000344E1
:10530C00043319607B6803F58053D8882249FA6806
:10531C0013465B0013449B000B44083302461A806F
:10532C001D49FA6813465B0013449B000B440A3377
:10533C0000221A803B68002B0CD01749FA681346E0
:10534C005B0013449B000B440A331B88002B01D0D9
:10535C0000231CE03B68002B0BD10F49FA68134665
:10536C005B0013449B000B440A331B88013399B236
:10537C0001E04FF480710848FA6813465B0013444F
:10538C009B0003440A330A461A80FB680133184613
:10539C001437BD4680BC7047CC01002080B485B06A
:1053AC0000AF78607B68013B7B607B68012B2ED85B
:1053BC001B497A6813465B0013449B000B440A3369
:1053CC001B88FB81FB89B3F5807F01D10023FB8116
:1053DC00FB89002B02D0FB89013BFB8110497A68C9
:1053EC0013465B0013449B000B440A33FA891A8062
:1053FC00FB89002B08D10A497A6813465B001344D9
:10540C009B000B4400221A6000237B7301E00223F3
:10541C007B737B7B18461437BD4680BC704700BF3E
:10542C00CC01002080B485B000AF78600023FB6015
:10543C0016E01049FA6813465B0013449B000B44BA
:10544C001B687A689A4208D10A49FA6813465B00CD
:10545C0013449B000B4400221A60FB680133FB6071
:10546C00FB68012BE5D900BF00BF1437BD4680BCDB
:10547C00704700BFCC01002080B586B000AF7860CB
:10548C000023FB737B6803F580531B79002B40D002
:10549C007B6803F58053DB6A7B617B6803F5805383
:1054AC005878796801237A69FFF772FD0346002B5F
:1054BC0002D00123FB732CE07B6803F580530022A0
:1054CC001A717B6803F580531B6A7A69D21A7B6860
:1054DC0003F580539B699A421BD27B6803F580537A
:1054EC00DB783B6112E07B6803F580539B697A693A
:1054FC0013447B617B6803F58053587879680123EA
:10550C007A69FFF745FD3B69013B3B613B69012B28
:10551C00E9D8FB7B18461837BD4680BD80B584B0F2
:10552C0000AF786039600023FB737B6803F5805310
:10553C00DB6A3A689A421ED07868FFF79DFF0346F3
:10554C00FB73FB7B002B16D17B6803F580535878DB
:10555C00796801233A68FFF7FBFC0346002B04D063
:10556C004FF0FF333B600123FB737B6803F58053E3
:10557C001A463B68D362FB7B18461037BD4680BD8C
:10558C0080B584B000AF78607868FFF775FF03468C
:10559C00FB73FB7B002B40F0AD807B6803F58053E5
:1055AC001B78032B40F098807B6803F580535B7964
:1055BC00012B40F0918078687B6803F580535B8900
:1055CC001A460021FFF740FD7B68552283F8FE2127
:1055DC007B68AA2283F8FF217B6852221A707B68B1
:1055EC0052225A707B6861229A707B684122DA7071
:1055FC007B68722283F8E4217B68722283F8E521B0
:10560C007B68412283F8E6217B68612283F8E721DD
:10561C007B6803F580531B69DAB27B6883F8E82159
:10562C007B6803F580531B699BB21B0A9BB2DAB2F1
:10563C007B6883F8E9217B6803F580531B691B0C9D
:10564C00DAB27B6883F8EA217B6803F580531B6927
:10565C001B0EDAB27B6883F8EB217B6803F5805371
:10566C00DB68DAB27B6883F8EC217B6803F5805346
:10567C00DB689BB21B0A9BB2DAB27B6883F8ED2124
:10568C007B6803F58053DB681B0CDAB27B6883F80C
:10569C00EE217B6803F58053DB681B0EDAB27B6866
:1056AC0083F8EF217B6803F58053DB6901337A685B
:1056BC0002F58052D3627B6803F580535878796881
:1056CC007B6803F58053DA6A0123FFF761FC7B6882
:1056DC0003F5805300225A717B6803F580535B7885
:1056EC00002200211846FFF773FC0346002B01D063
:1056FC000123FB73FB7B18461037BD4680BD80B47D
:10570C0083B000AF786039603B68023B3B607B68DC
:10571C0003F580535B69023B3A689A4201D300233C
:10572C000CE07B6803F580539B781A463B6803FBBF
:10573C0002F27B6803F580539B6A134418460C37BE
:10574C00BD4680BC704780B586B000AF78603960CC
:10575C003B68012B06D97B6803F580535B693A687B
:10576C009A4202D301237B61E3E04FF0FF337B616C
:10577C007B6803F580531B78032B00F09780032B79
:10578C0000F3CD80012B02D0022B5ED0C7E03B682A
:10579C00FB60FB685B08FA681344FB607B6803F5ED
:1057AC0080531A6A7B6803F580535B891946FB6842
:1057BC00B3FBF1F3134419467868FFF7AFFE0346C9
:1057CC00002B40F0AF80FB685A1CFA607A6802F537
:1057DC0080525289B3FBF2F101FB02F29B1A7A68F8
:1057EC00D35CBB607B6803F580531A6A7B6803F556
:1057FC0080535B891946FB68B3FBF1F313441946DC
:10580C007868FFF78BFE0346002B40F08D807B6899
:10581C0003F580535B891A46FB68B3FBF2F101FB7D
:10582C0002F29B1A7A68D35C1B02BA681343BB6002
:10583C003B6803F00103002B02D0BB681B0902E09C
:10584C00BB68C3F30B037B6173E07B6803F5805388
:10585C001A6A7B6803F580535B895B089BB2194617
:10586C003B68B3FBF1F3134419467868FFF756FE17
:10587C000346002B5AD13B685B007A6802F58052D4
:10588C005289B3FBF2F101FB02F29B1A7A681344C2
:10589C003B613B6901331B781B021AB23B691B78D5
:1058AC001BB213431BB29BB27B6142E07B6803F5D6
:1058BC0080531A6A7B6803F580535B899B089BB203
:1058CC0019463B68B3FBF1F3134419467868FFF7AC
:1058DC0025FE0346002B2BD13B689B007A6802F512
:1058EC0080525289B3FBF2F101FB02F29B1A7A68E7
:1058FC0013443B613B6903331B781A063B69023343
:10590C001B781B041A433B6901331B781B0213439E
:10591C003A691278134323F070437B6109E0012349
:10592C007B6106E000BF04E000BF02E000BF00E0C6
:10593C0000BF7B6918461837BD4680BD80B588B05E
:10594C0000AFF860B9607A60BB68012B06D9FB68C0
:10595C0003F580535B69BA689A4202D30223FB7742
:10596C003AE1FB6803F580531B78032B00F0D080E1
:10597C00032B00F32781012B03D0022B00F08F8027
:10598C0020E1BB687B617B695B087A6913447B61AE
:10599C00FB6803F580531A6AFB6803F580535B8937
:1059AC0019467B69B3FBF1F313441946F868FFF70A
:1059BC00B5FD0346FB77FB7F002B40F006817B692E
:1059CC005A1C7A61FA6802F580525289B3FBF2F1E3
:1059DC0001FB02F29B1AFA681344BB61BB6803F02B
:1059EC000103002B0DD0BB691B785BB203F00F03D6
:1059FC005AB27B68DBB21B015BB213435BB2DBB206
:105A0C0001E07B68DBB2BA691370FB6803F5805365
:105A1C0001221A71FB6803F580531A6AFB6803F5BF
:105A2C0080535B8919467B69B3FBF1F31344194628
:105A3C00F868FFF773FD0346FB77FB7F002B40F004
:105A4C00C680FB6803F580535B891A467B69B3FB00
:105A5C00F2F101FB02F29B1AFA681344BB61BB68BA
:105A6C0003F00103002B03D07B681B09DBB20EE0B3
:105A7C00BB691B785BB223F00F035AB27B681B0A1D
:105A8C005BB203F00F035BB213435BB2DBB2BA69D8
:105A9C001370FB6803F5805301221A719CE0FB68BC
:105AAC0003F580531A6AFB6803F580535B895B0826
:105ABC009BB21946BB68B3FBF1F313441946F86863
:105ACC00FFF72CFD0346FB77FB7F002B40F081801A
